{"abi":[{"type":"constructor","inputs":[],"stateMutability":"nonpayable"},{"type":"function","name":"UPGRADE_INTERFACE_VERSION","inputs":[],"outputs":[{"name":"","type":"string","internalType":"string"}],"stateMutability":"view"},{"type":"function","name":"getProductData","inputs":[{"name":"_productId","type":"uint256","internalType":"uint256"}],"outputs":[{"name":"","type":"tuple","internalType":"struct Product","components":[{"name":"productId","type":"uint256","internalType":"uint256"},{"name":"sellerId","type":"uint256","internalType":"uint256"},{"name":"unitPrice","type":"uint256","internalType":"uint256"},{"name":"waranteeDuration","type":"uint256","internalType":"uint256"},{"name":"title","type":"string","internalType":"string"},{"name":"whenToExpectDelivery","type":"uint256","internalType":"uint256"}]}],"stateMutability":"view"},{"type":"function","name":"getProducts","inputs":[{"name":"_start","type":"uint256","internalType":"uint256"},{"name":"_end","type":"uint256","internalType":"uint256"}],"outputs":[{"name":"","type":"tuple[]","internalType":"struct Product[]","components":[{"name":"productId","type":"uint256","internalType":"uint256"},{"name":"sellerId","type":"uint256","internalType":"uint256"},{"name":"unitPrice","type":"uint256","internalType":"uint256"},{"name":"waranteeDuration","type":"uint256","internalType":"uint256"},{"name":"title","type":"string","internalType":"string"},{"name":"whenToExpectDelivery","type":"uint256","internalType":"uint256"}]}],"stateMutability":"view"},{"type":"function","name":"initialize","inputs":[{"name":"_userContractAddress","type":"address","internalType":"address"},{"name":"initialOwner","type":"address","internalType":"address"}],"outputs":[],"stateMutability":"nonpayable"},{"type":"function","name":"listProduct","inputs":[{"name":"_unitprice","type":"uint256","internalType":"uint256"},{"name":"_title","type":"string","internalType":"string"},{"name":"_waranteeDuration","type":"uint256","internalType":"uint256"},{"name":"_expectedDeliveryTime","type":"uint256","internalType":"uint256"}],"outputs":[],"stateMutability":"nonpayable"},{"type":"function","name":"owner","inputs":[],"outputs":[{"name":"","type":"address","internalType":"address"}],"stateMutability":"view"},{"type":"function","name":"products","inputs":[{"name":"","type":"uint256","internalType":"uint256"}],"outputs":[{"name":"productId","type":"uint256","internalType":"uint256"},{"name":"sellerId","type":"uint256","internalType":"uint256"},{"name":"unitPrice","type":"uint256","internalType":"uint256"},{"name":"waranteeDuration","type":"uint256","internalType":"uint256"},{"name":"title","type":"string","internalType":"string"},{"name":"whenToExpectDelivery","type":"uint256","internalType":"uint256"}],"stateMutability":"view"},{"type":"function","name":"proxiableUUID","inputs":[],"outputs":[{"name":"","type":"bytes32","internalType":"bytes32"}],"stateMutability":"view"},{"type":"function","name":"renounceOwnership","inputs":[],"outputs":[],"stateMutability":"nonpayable"},{"type":"function","name":"tokenSymbolToDetails","inputs":[{"name":"","type":"string","internalType":"string"}],"outputs":[{"name":"feedAddr","type":"address","internalType":"address"},{"name":"tokenAddr","type":"address","internalType":"address"}],"stateMutability":"view"},{"type":"function","name":"transferOwnership","inputs":[{"name":"newOwner","type":"address","internalType":"address"}],"outputs":[],"stateMutability":"nonpayable"},{"type":"function","name":"updateProductPrice","inputs":[{"name":"_account","type":"address","internalType":"address"},{"name":"_productId","type":"uint256","internalType":"uint256"},{"name":"_newPrice","type":"uint256","internalType":"uint256"}],"outputs":[],"stateMutability":"nonpayable"},{"type":"function","name":"upgradeToAndCall","inputs":[{"name":"newImplementation","type":"address","internalType":"address"},{"name":"data","type":"bytes","internalType":"bytes"}],"outputs":[],"stateMutability":"payable"},{"type":"event","name":"AccountOwnershipChanged","inputs":[{"name":"_userId","type":"uint256","indexed":true,"internalType":"uint256"},{"name":"_changedBy","type":"address","indexed":false,"internalType":"address"},{"name":"_oldOwner","type":"address","indexed":false,"internalType":"address"},{"name":"_newOwner","type":"address","indexed":false,"internalType":"address"}],"anonymous":false},{"type":"event","name":"CanceledDelivery","inputs":[{"name":"_seller","type":"uint256","indexed":true,"internalType":"uint256"},{"name":"_ref","type":"uint256","indexed":true,"internalType":"uint256"},{"name":"_item","type":"uint256","indexed":true,"internalType":"uint256"}],"anonymous":false},{"type":"event","name":"Initialized","inputs":[{"name":"version","type":"uint64","indexed":false,"internalType":"uint64"}],"anonymous":false},{"type":"event","name":"OwnershipTransferred","inputs":[{"name":"previousOwner","type":"address","indexed":true,"internalType":"address"},{"name":"newOwner","type":"address","indexed":true,"internalType":"address"}],"anonymous":false},{"type":"event","name":"ProductOrderStatusUpdated","inputs":[{"name":"_buyer","type":"uint256","indexed":true,"internalType":"uint256"},{"name":"_payref","type":"uint256","indexed":true,"internalType":"uint256"},{"name":"_itemId","type":"uint256","indexed":true,"internalType":"uint256"},{"name":"_delivered","type":"bool","indexed":false,"internalType":"bool"}],"anonymous":false},{"type":"event","name":"ProductpriceUpdate","inputs":[{"name":"_productId","type":"uint256","indexed":true,"internalType":"uint256"},{"name":"_sellerId","type":"uint256","indexed":true,"internalType":"uint256"},{"name":"_newPrice","type":"uint256","indexed":false,"internalType":"uint256"}],"anonymous":false},{"type":"event","name":"ResgisteredAProduct","inputs":[{"name":"_productId","type":"uint256","indexed":true,"internalType":"uint256"},{"name":"_sellerId","type":"uint256","indexed":true,"internalType":"uint256"}],"anonymous":false},{"type":"event","name":"ResgisteredAuser","inputs":[{"name":"_userId","type":"uint256","indexed":true,"internalType":"uint256"}],"anonymous":false},{"type":"event","name":"SuccessfulCheckout","inputs":[{"name":"_userId","type":"uint256","indexed":true,"internalType":"uint256"},{"name":"_paymentRefence","type":"uint256","indexed":true,"internalType":"uint256"},{"name":"_currency","type":"string","indexed":false,"internalType":"string"},{"name":"_amountPaid","type":"uint256","indexed":false,"internalType":"uint256"}],"anonymous":false},{"type":"event","name":"Upgraded","inputs":[{"name":"implementation","type":"address","indexed":true,"internalType":"address"}],"anonymous":false},{"type":"event","name":"VerifiedAuser","inputs":[{"name":"_userId","type":"uint256","indexed":true,"internalType":"uint256"}],"anonymous":false},{"type":"event","name":"WithdrawSuccess","inputs":[{"name":"_userId","type":"uint256","indexed":true,"internalType":"uint256"},{"name":"_tokenSymbol","type":"string","indexed":false,"internalType":"string"},{"name":"_payRef","type":"uint256","indexed":true,"internalType":"uint256"},{"name":"_amount","type":"uint256","indexed":false,"internalType":"uint256"},{"name":"_date","type":"uint256","indexed":true,"internalType":"uint256"}],"anonymous":false},{"type":"error","name":"AddressEmptyCode","inputs":[{"name":"target","type":"address","internalType":"address"}]},{"type":"error","name":"ERC1967InvalidImplementation","inputs":[{"name":"implementation","type":"address","internalType":"address"}]},{"type":"error","name":"ERC1967NonPayable","inputs":[]},{"type":"error","name":"FailedCall","inputs":[]},{"type":"error","name":"InvalidInitialization","inputs":[]},{"type":"error","name":"NotInitializing","inputs":[]},{"type":"error","name":"OwnableInvalidOwner","inputs":[{"name":"owner","type":"address","internalType":"address"}]},{"type":"error","name":"OwnableUnauthorizedAccount","inputs":[{"name":"account","type":"address","internalType":"address"}]},{"type":"error","name":"UUPSUnauthorizedCallContext","inputs":[]},{"type":"error","name":"UUPSUnsupportedProxiableUUID","inputs":[{"name":"slot","type":"bytes32","internalType":"bytes32"}]}],"bytecode":{"object":"0x60a06040523461003e5761001161004d565b610019610043565b6132e66102dc823960805181818161251c01528181612581015261273c01526132e690f35b610049565b60405190565b5f80fd5b61005561005f565b61005d6101b2565b565b610067610069565b565b6100716100b5565b565b60018060a01b031690565b90565b61009561009061009a92610073565b61007e565b610073565b90565b6100a690610081565b90565b6100b29061009d565b90565b6100be306100a9565b608052565b60401c90565b60ff1690565b6100db6100e0916100c3565b6100c9565b90565b6100ed90546100cf565b90565b5f0190565b5f1c90565b60018060401b031690565b610111610116916100f5565b6100fa565b90565b6101239054610105565b90565b60018060401b031690565b5f1b90565b9061014760018060401b0391610131565b9181191691161790565b61016561016061016a92610126565b61007e565b610126565b90565b90565b9061018561018061018c92610151565b61016d565b8254610136565b9055565b61019990610126565b9052565b91906101b0905f60208501940190610190565b565b6101ba61026a565b6101c55f82016100e3565b61024e576101d45f8201610119565b6101ec6101e660018060401b03610126565b91610126565b036101f5575b50565b610208905f60018060401b039101610170565b60018060401b036102457fc7f505b2f371ae2175ee4913f4499e1f2633a7b5936321eed1cdaeb6115181d29161023c610043565b9182918261019d565b0390a15f6101f2565b5f63f92ee8a960e01b815280610266600482016100f0565b0390fd5b6102726102c7565b90565b5f90565b90565b90565b61029361028e61029892610279565b610131565b61027c565b90565b6102c47ff0c57e16840df040f15088dc2f81fe391c3923bec73e23a9662efc9c229c6a0061027f565b90565b6102cf610275565b506102d861029b565b9056fe60806040526004361015610013575b610dd6565b61001d5f356100ec565b8063485cc955146100e75780634f1ef286146100e257806352d1902d146100dd5780635f673430146100d8578063715018a6146100d35780637acc0b20146100ce57806387a54c52146100c95780638c401448146100c45780638da5cb5b146100bf578063ad3cb1cc146100ba578063d6d0be9f146100b5578063f2fde38b146100b05763f661f44c0361000e57610da0565b610be3565b610b90565b610ace565b6109e6565b61098e565b6107d2565b6106ed565b6103fb565b6103c7565b610332565b6102d4565b610170565b60e01c90565b60405190565b5f80fd5b5f80fd5b5f80fd5b60018060a01b031690565b61011890610104565b90565b6101248161010f565b0361012b57565b5f80fd5b9050359061013c8261011b565b565b9190604083820312610166578061015a610163925f860161012f565b9360200161012f565b90565b6100fc565b5f0190565b3461019f5761018961018336600461013e565b906112a5565b6101916100f2565b8061019b8161016b565b0390f35b6100f8565b5f80fd5b5f80fd5b601f801991011690565b634e487b7160e01b5f52604160045260245ffd5b906101d4906101ac565b810190811067ffffffffffffffff8211176101ee57604052565b6101b6565b906102066101ff6100f2565b92836101ca565b565b67ffffffffffffffff8111610226576102226020916101ac565b0190565b6101b6565b90825f939282370152565b9092919261024b61024682610208565b6101f3565b93818552602085019082840111610267576102659261022b565b565b6101a8565b9080601f8301121561028a5781602061028793359101610236565b90565b6101a4565b9190916040818403126102cf576102a8835f830161012f565b92602082013567ffffffffffffffff81116102ca576102c7920161026c565b90565b610100565b6100fc565b6102e86102e236600461028f565b906112da565b6102f06100f2565b806102fa8161016b565b0390f35b5f91031261030857565b6100fc565b90565b6103199061030d565b9052565b9190610330905f60208501940190610310565b565b34610362576103423660046102fe565b61035e61034d611355565b6103556100f2565b9182918261031d565b0390f35b6100f8565b90565b61037381610367565b0361037a57565b5f80fd5b9050359061038b8261036a565b565b90916060828403126103c2576103bf6103a8845f850161012f565b936103b6816020860161037e565b9360400161037e565b90565b6100fc565b346103f6576103e06103da36600461038d565b91611a6a565b6103e86100f2565b806103f28161016b565b0390f35b6100f8565b346104295761040b3660046102fe565b610413611cbc565b61041b6100f2565b806104258161016b565b0390f35b6100f8565b9060208282031261044757610444915f0161037e565b90565b6100fc565b634e487b7160e01b5f52603260045260245ffd5b5490565b5f5260205f2090565b61047681610460565b82101561049057610488600691610464565b910201905f90565b61044c565b5f1c90565b90565b6104a96104ae91610495565b61049a565b90565b6104bb905461049d565b90565b634e487b7160e01b5f52602260045260245ffd5b90600160028304921680156104f2575b60208310146104ed57565b6104be565b91607f16916104e2565b60209181520190565b5f5260205f2090565b905f9291805490610528610521836104d2565b80946104fc565b916001811690815f1461057f5750600114610543575b505050565b6105509192939450610505565b915f925b81841061056757505001905f808061053e565b60018160209295939554848601520191019290610554565b92949550505060ff19168252151560200201905f808061053e565b906105a49161050e565b90565b906105c76105c0926105b76100f2565b9384809261059a565b03836101ca565b565b6004906105d582610460565b811015610635576105e59161046d565b50906105f25f83016104b1565b916105ff600182016104b1565b9161060c600283016104b1565b91610619600382016104b1565b91610632600561062b600485016105a7565b93016104b1565b90565b5f80fd5b61064290610367565b9052565b5190565b60209181520190565b90825f9392825e0152565b61067d61068660209361068b9361067481610646565b9384809361064a565b95869101610653565b6101ac565b0190565b969593946106d66106eb966106cc60a0966106c26106e39760208e6106bb60c082019a5f830190610639565b0190610639565b60408c0190610639565b60608a0190610639565b878203608089015261065e565b940190610639565b565b346107245761072061070861070336600461042e565b6105c9565b926107179694969291926100f2565b9687968761068f565b0390f35b6100f8565b5f80fd5b5f80fd5b909182601f8301121561076b5781359167ffffffffffffffff831161076657602001926001830284011161076157565b61072d565b610729565b6101a4565b916080838303126107cd57610787825f850161037e565b9260208101359167ffffffffffffffff83116107c8576107ac846107c5948401610731565b9390946107bc816040860161037e565b9360600161037e565b90565b610100565b6100fc565b34610804576107ee6107e5366004610770565b93929092611f81565b6107f66100f2565b806108008161016b565b0390f35b6100f8565b9190604083820312610831578061082561082e925f860161037e565b9360200161037e565b90565b6100fc565b5190565b60209181520190565b60200190565b61085290610367565b9052565b61087561087e6020936108839361086c81610646565b938480936104fc565b95869101610653565b6101ac565b0190565b906108f99060a0806108ee60c084016108a65f8801515f870190610849565b6108b860208801516020870190610849565b6108ca60408801516040870190610849565b6108dc60608801516060870190610849565b60808701518582036080870152610856565b940151910190610849565b90565b9061090691610887565b90565b60200190565b9061092361091c83610836565b809261083a565b908161093460208302840194610843565b925f915b83831061094757505050505090565b90919293946020610969610963838560019503875289516108fc565b97610909565b9301930191939290610938565b61098b9160208201915f81840391015261090f565b90565b346109bf576109bb6109aa6109a4366004610809565b9061228d565b6109b26100f2565b91829182610976565b0390f35b6100f8565b6109cd9061010f565b9052565b91906109e4905f602085019401906109c4565b565b34610a16576109f63660046102fe565b610a12610a016122b3565b610a096100f2565b918291826109d1565b0390f35b6100f8565b67ffffffffffffffff8111610a3957610a356020916101ac565b0190565b6101b6565b90610a50610a4b83610a1b565b6101f3565b918252565b5f7f352e302e30000000000000000000000000000000000000000000000000000000910152565b610a866005610a3e565b90610a9360208301610a55565b565b610a9d610a7c565b90565b610aa8610a95565b90565b610ab3610aa0565b90565b610acb9160208201915f81840391015261065e565b90565b34610afe57610ade3660046102fe565b610afa610ae9610aab565b610af16100f2565b91829182610ab6565b0390f35b6100f8565b90610b759060a080610b6a60c08401610b225f8801515f870190610849565b610b3460208801516020870190610849565b610b4660408801516040870190610849565b610b5860608801516060870190610849565b60808701518582036080870152610856565b940151910190610849565b90565b610b8d9160208201915f818403910152610b03565b90565b34610bc057610bbc610bab610ba636600461042e565b6123bd565b610bb36100f2565b91829182610b78565b0390f35b6100f8565b90602082820312610bde57610bdb915f0161012f565b90565b6100fc565b34610c1157610bfb610bf6366004610bc5565b6124ac565b610c036100f2565b80610c0d8161016b565b0390f35b6100f8565b90929192610c2b610c2682610a1b565b6101f3565b93818552602085019082840111610c4757610c459261022b565b565b6101a8565b9080601f83011215610c6a57816020610c6793359101610c16565b90565b6101a4565b90602082820312610c9f575f82013567ffffffffffffffff8111610c9a57610c979201610c4c565b90565b610100565b6100fc565b905090565b610cce610cc592602092610cbc81610646565b94858093610ca4565b93849101610653565b0190565b90565b610ce1610ce691610367565b610cd2565b9052565b610cfa610d019160209493610ca9565b8092610cd5565b0190565b610d19610d106100f2565b92839283610cea565b03902090565b610d2891610d05565b90565b60018060a01b031690565b610d42610d4791610495565b610d2b565b90565b610d549054610d36565b90565b610d62906001610d1f565b90610d7a6001610d735f8501610d4a565b9301610d4a565b90565b916020610d9e929493610d9760408201965f8301906109c4565b01906109c4565b565b34610dd157610db8610db3366004610c6f565b610d57565b90610dcd610dc46100f2565b92839283610d7d565b0390f35b6100f8565b5f80fd5b60401c90565b60ff1690565b610df2610df791610dda565b610de0565b90565b610e049054610de6565b90565b151590565b67ffffffffffffffff1690565b610e25610e2a91610495565b610e0c565b90565b610e379054610e19565b90565b67ffffffffffffffff1690565b90565b90565b610e61610e5c610e6692610e47565b610e4a565b610e3a565b90565b90565b610e80610e7b610e8592610e69565b610e4a565b610e3a565b90565b610e9c610e97610ea192610104565b610e4a565b610104565b90565b610ead90610e88565b90565b610eb990610ea4565b90565b610ed0610ecb610ed592610e47565b610e4a565b610367565b90565b5f1b90565b90610ef067ffffffffffffffff91610ed8565b9181191691161790565b610f0e610f09610f1392610e3a565b610e4a565b610e3a565b90565b90565b90610f2e610f29610f3592610efa565b610f16565b8254610edd565b9055565b60401b90565b90610f5368ff000000000000000091610f39565b9181191691161790565b610f6690610e07565b90565b90565b90610f81610f7c610f8892610f5d565b610f69565b8254610f3f565b9055565b610f9590610e6c565b9052565b9190610fac905f60208501940190610f8c565b565b90610fb76124b7565b91610fcc610fc65f8501610dfa565b15610e07565b91610fd85f8501610e2d565b80610feb610fe55f610e4d565b91610e3a565b1480611105575b906110066110006001610e6c565b91610e3a565b14806110dd575b611018909115610e07565b90816110cc575b506110b0576110489161103d6110356001610e6c565b5f8701610f19565b8361109e575b611247565b611050575b50565b61105d905f809101610f6c565b60016110957fc7f505b2f371ae2175ee4913f4499e1f2633a7b5936321eed1cdaeb6115181d29161108c6100f2565b91829182610f99565b0390a15f61104d565b6110ab60015f8701610f6c565b611043565b5f63f92ee8a960e01b8152806110c86004820161016b565b0390fd5b6110d7915015610e07565b5f61101f565b506110186110ea30610eb0565b3b6110fd6110f75f610ebc565b91610367565b14905061100d565b5083610ff2565b61112061111b61112592610e47565b610e4a565b610104565b90565b6111319061110c565b90565b5f7f496e76616c6964207573657220636f6e74726163742061646472657373000000910152565b611168601d60209261064a565b61117181611134565b0190565b61118a9060208101905f81830391015261115b565b90565b1561119457565b61119c6100f2565b62461bcd60e51b8152806111b260048201611175565b0390fd5b906111c760018060a01b0391610ed8565b9181191691161790565b6111da90610ea4565b90565b90565b906111f56111f06111fc926111d1565b6111dd565b82546111b6565b9055565b61120990610e88565b90565b61121590611200565b90565b61122190611200565b90565b90565b9061123c61123761124392611218565b611224565b82546111b6565b9055565b611253611287926124e0565b61125b6124f5565b6112808161127961127361126e5f611128565b61010f565b9161010f565b141561118d565b60036111e0565b6112a361129c6112976003610d4a565b61120c565b6002611227565b565b906112af91610fae565b565b906112c3916112be61250b565b6112c5565b565b906112d8916112d3816125bd565b61262d565b565b906112e4916112b1565b565b5f90565b6112fb906112f661272b565b611349565b90565b90565b61131561131061131a926112fe565b610ed8565b61030d565b90565b6113467f360894a13ba1a3210667c828492db98dca3e2076cc3735a920a3ca505d382bbc611301565b90565b5061135261131d565b90565b6113656113606112e6565b6112ea565b90565b60018060a01b031690565b61137f61138491610495565b611368565b90565b6113919054611373565b90565b61139d90610ea4565b90565b60e01b90565b5f80fd5b5f80fd5b905051906113bb8261036a565b565b909291926113d26113cd82610a1b565b6101f3565b938185526020850190828401116113ee576113ec92610653565b565b6101a8565b9080601f830112156114115781602061140e935191016113bd565b90565b6101a4565b905051906114238261011b565b565b6002111561142f57565b5f80fd5b9050519061144082611425565b565b6003111561144c57565b5f80fd5b9050519061145d82611442565b565b91909160c0818403126115125761147660c06101f3565b92611483815f84016113ae565b5f850152602082015167ffffffffffffffff811161150d57816114a79184016113f3565b602085015260408201519167ffffffffffffffff8311611508576114d0826115019483016113f3565b60408601526114e28260608301611416565b60608601526114f48260808301611433565b608086015260a001611450565b60a0830152565b6113aa565b6113aa565b6113a6565b90602082820312611547575f82015167ffffffffffffffff81116115425761153f920161145f565b90565b610100565b6100fc565b6115546100f2565b3d5f823e3d90fd5b61157061156b61157592610367565b610e4a565b610367565b90565b906115829061155c565b5f5260205260405f2090565b90565b5f7f50726f64756374206e6f7420666f756e64000000000000000000000000000000910152565b6115c5601160209261064a565b6115ce81611591565b0190565b6115e79060208101905f8183039101526115b8565b90565b156115f157565b6115f96100f2565b62461bcd60e51b81528061160f600482016115d2565b0390fd5b61161d9051610367565b90565b5f7f796f75277265206e6f74207468652070726f64756374206f776e657200000000910152565b611654601c60209261064a565b61165d81611620565b0190565b6116769060208101905f818303910152611647565b90565b1561168057565b6116886100f2565b62461bcd60e51b81528061169e60048201611661565b0390fd5b60207f65726f0000000000000000000000000000000000000000000000000000000000917f4e6577207072696365206d7573742062652067726561746572207468616e207a5f8201520152565b6116fc602360409261064a565b611705816116a2565b0190565b61171e9060208101905f8183039101526116ef565b90565b1561172857565b6117306100f2565b62461bcd60e51b81528061174660048201611709565b0390fd5b906117565f1991610ed8565b9181191691161790565b90565b9061177861177361177f9261155c565b611760565b825461174a565b9055565b634e487b7160e01b5f525f60045260245ffd5b6117a090546104d2565b90565b601f602091010490565b1b90565b919060086117cc9102916117c65f19846117ad565b926117ad565b9181191691161790565b91906117ec6117e76117f49361155c565b611760565b9083546117b1565b9055565b5f90565b61180e916118086117f8565b916117d6565b565b5b81811061181c575050565b806118295f6001936117fc565b01611811565b9190601f811161183f575b505050565b61184b61187093610505565b906020611857846117a3565b83019310611878575b611869906117a3565b0190611810565b5f808061183a565b915061186981929050611860565b1c90565b9061189a905f1990600802611886565b191690565b816118a99161188a565b906002021790565b90808214611990576118c281611796565b9067ffffffffffffffff821161198b576118e6826118e085546104d2565b8561182f565b5f90601f831160011461191957918091611908935f9261190d575b505061189f565b90555b565b90915001545f80611901565b90611928601f19841692610505565b9061193285610505565b925f5b81811061197357509160029391856001969410611959575b5050500201905561190b565b611969910154601f84169061188a565b90555f808061194d565b91936001806020928787015481550195019201611935565b6101b6565b5050565b9061199e916118b1565b565b908082036119ad575b5050565b611a32600580846119ce5f611a3897016119c85f88016104b1565b90611763565b6119e7600182016119e1600188016104b1565b90611763565b611a00600282016119fa600288016104b1565b90611763565b611a1960038201611a13600388016104b1565b90611763565b611a2a600482016004870190611994565b0192016104b1565b90611763565b5f806119a9565b9190611a5057611a4e916119a0565b565b611783565b9190611a68905f60208501940190610639565b565b9190611aad905f611a83611a7e6002611387565b611394565b63ffc9896b90611aa28792611a966100f2565b968794859384936113a0565b8352600483016109d1565b03915afa918215611c9257611b5792611acd915f91611c70575b5061294a565b5f611af6611af06004611aea611ae560058790611578565b6104b1565b9061046d565b5061158e565b94611b1e611b058388016104b1565b611b17611b1185610ebc565b91610367565b14156115ea565b611b30611b2b6002611387565b611394565b611b4c63ffc9896b611b406100f2565b968794859384936113a0565b8352600483016109d1565b03915afa908115611c6b57611bf35f92611bfa948491611c49575b5095611ba5611b82858901611613565b611b9f611b99611b94600186016104b1565b610367565b91610367565b14611679565b611bc186611bbb611bb587610ebc565b91610367565b11611721565b611bce8660028301611763565b611bed6004611be7611be260058790611578565b6104b1565b9061046d565b90611a3f565b9301611613565b9091611c44611c32611c2c7f1203120b3e695b8da946fbb0b45df7d065573d1c147ccf584bb34de0f77075ec9361155c565b9361155c565b93611c3b6100f2565b91829182611a55565b0390a3565b611c6591503d8086833e611c5d81836101ca565b810190611517565b5f611b72565b61154c565b611c8c91503d805f833e611c8481836101ca565b810190611517565b5f611ac7565b61154c565b611c9f612a05565b611ca7611ca9565b565b611cba611cb55f611128565b612a53565b565b611cc4611c97565b565b611cda611cd5611cdf92610e3a565b610e4a565b610367565b90565b634e487b7160e01b5f52601160045260245ffd5b611d05611d0b91939293610367565b92610367565b8201809211611d1657565b611ce2565b611d2560c06101f3565b90565b90611d3290610367565b9052565b611d41913691610c16565b90565b52565b90565b5f5260205f2090565b5490565b611d6081611d53565b821015611d7a57611d72600691611d4a565b910201905f90565b61044c565b5190565b90611d8d81610646565b9067ffffffffffffffff8211611e4d57611db182611dab85546104d2565b8561182f565b602090601f8311600114611de557918091611dd4935f92611dd9575b505061189f565b90555b565b90915001515f80611dcd565b601f19831691611df485610505565b925f5b818110611e3557509160029391856001969410611e1b575b50505002019055611dd7565b611e2b910151601f84169061188a565b90555f8080611e0f565b91936020600181928787015181550195019201611df7565b6101b6565b90611e5c91611d83565b565b90611eed60a06005611ef394611e815f8201611e7b5f8801611613565b90611763565b611e9a60018201611e9460208801611613565b90611763565b611eb360028201611ead60408801611613565b90611763565b611ecc60038201611ec660608801611613565b90611763565b611ee560048201611edf60808801611d7f565b90611e52565b019201611613565b90611763565b565b9190611f0657611f0491611e5e565b565b611783565b9081549168010000000000000000831015611f3b5782611f33916001611f3995018155611d57565b90611ef5565b565b6101b6565b611f54611f4f611f5992610e69565b610e4a565b610367565b90565b611f6b611f7191939293610367565b92610367565b8203918211611f7c57565b611ce2565b909291611fc45f611f9a611f956002611387565b611394565b63ffc9896b90611fb93392611fad6100f2565b958694859384936113a0565b8352600483016109d1565b03915afa908115612142575f91612120575b509485611fe29061294a565b84823390611fef92612b75565b611ff890611cc6565b948594875f0161200790611613565b9490919392429061201791611cf6565b94612020611d1b565b965f88019061202e91611d28565b602087019061203c91611d28565b604086019061204a91611d28565b606085019061205891611d28565b61206191611d36565b608083019061206f91611d44565b60a082019061207d91611d28565b600461208890611d47565b9061209291611f0b565b600461209d90610460565b60016120a890611f40565b6120b191611f5c565b6005826120bd91611578565b906120c791611763565b905f016120d390611613565b7f8785d3dc1a7bc6f9c6d1db37c18bf70f9bfd54f46f81a45894d848a421442598916120fe9061155c565b906121089061155c565b916121116100f2565b8061211b8161016b565b0390a3565b61213c91503d805f833e61213481836101ca565b810190611517565b5f611fd6565b61154c565b606090565b67ffffffffffffffff81116121645760208091020190565b6101b6565b9061217b6121768361214c565b6101f3565b918252565b61218a60c06101f3565b90565b9061222461221b600561219e612180565b946121b56121ad5f83016104b1565b5f8801611d28565b6121cd6121c4600183016104b1565b60208801611d28565b6121e56121dc600283016104b1565b60408801611d28565b6121fd6121f4600383016104b1565b60608801611d28565b61221561220c600483016105a7565b60808801611d44565b016104b1565b60a08401611d28565b565b61222f9061218d565b90565b9061223c82610460565b61224581612169565b926122536020850191610464565b5f915b8383106122635750505050565b6006602060019261227385612226565b815201920192019190612256565b61228a90612232565b90565b6122ac91612299612147565b506122a46004612281565b919091612da1565b90565b5f90565b6122bb6122af565b506122ce5f6122c8612ee0565b01610d4a565b90565b5f90565b606090565b6122e2612180565b9060208080808080876122f36122d1565b8152016122fe6122d1565b8152016123096122d1565b8152016123146122d1565b81520161231f6122d5565b81520161232a6122d1565b81525050565b6123386122da565b90565b5f7f496e76616c69642070726f647563742069640000000000000000000000000000910152565b61236f601260209261064a565b6123788161233b565b0190565b6123919060208101905f818303910152612362565b90565b1561239b57565b6123a36100f2565b62461bcd60e51b8152806123b96004820161237c565b0390fd5b6123c5612330565b5061241e6123f16123eb60046123e56123e060058790611578565b6104b1565b9061046d565b50612226565b916123fd5f8401611613565b61240f6124095f610ebc565b91610367565b14159081612421575b50612394565b90565b905061244061243a6124345f8601611613565b92610367565b91610367565b145f612418565b61245890612453612a05565b61245a565b565b8061247561246f61246a5f611128565b61010f565b9161010f565b146124855761248390612a53565b565b6124a86124915f611128565b5f918291631e4fbdf760e01b8352600483016109d1565b0390fd5b6124b590612447565b565b6124bf612f4f565b90565b6124d3906124ce612f63565b6124d5565b565b6124de90612ffb565b565b6124e9906124c2565b565b6124f3612f63565b565b6124fd6124eb565b565b61250890610ea4565b90565b612514306124ff565b6125466125407f000000000000000000000000000000000000000000000000000000000000000061010f565b9161010f565b148015612570575b61255457565b5f63703e46dd60e11b81528061256c6004820161016b565b0390fd5b50612579613006565b6125ab6125a57f000000000000000000000000000000000000000000000000000000000000000061010f565b9161010f565b141561254e565b506125bb612a05565b565b6125c6906125b2565b565b6125d190610e88565b90565b6125dd906125c8565b90565b6125e990610ea4565b90565b6125f58161030d565b036125fc57565b5f80fd5b9050519061260d826125ec565b565b9060208282031261262857612625915f01612600565b90565b6100fc565b919061265b6020612645612640866125d4565b6125e0565b6352d1902d906126536100f2565b9384926113a0565b8252818061266b6004820161016b565b03915afa80915f926126fb575b50155f146126ac57505090600161268d57505b565b6126a8905f918291634c9c8ce360e01b8352600483016109d1565b0390fd5b92836126c76126c16126bc61131d565b61030d565b9161030d565b036126dc576126d792935061302c565b61268b565b6126f7845f918291632a87526960e21b83526004830161031d565b0390fd5b61271d91925060203d8111612724575b61271581836101ca565b81019061260f565b905f612678565b503d61270b565b612734306124ff565b6127666127607f000000000000000000000000000000000000000000000000000000000000000061010f565b9161010f565b0361276d57565b5f63703e46dd60e11b8152806127856004820161016b565b0390fd5b612793905161010f565b90565b60207f20746f206c6973742070726f6475637400000000000000000000000000000000917f756e617574686f72697a65642061646472657373206e6f7420616c6c6f7765645f8201520152565b6127f0603060409261064a565b6127f981612796565b0190565b6128129060208101905f8183039101526127e3565b90565b1561281c57565b6128246100f2565b62461bcd60e51b81528061283a600482016127fd565b0390fd5b634e487b7160e01b5f52602160045260245ffd5b6002111561285c57565b61283e565b9061286b82612852565b565b6128779051612861565b90565b6003111561288457565b61283e565b906128938261287a565b565b61289f9051612889565b90565b60207f726f647563747300000000000000000000000000000000000000000000000000917f6f6e6c792076657269666965642073656c6c6572732063616e206c69737420705f8201520152565b6128fc602760409261064a565b612905816128a2565b0190565b61291e9060208101905f8183039101526128ef565b90565b1561292857565b6129306100f2565b62461bcd60e51b81528061294660048201612909565b0390fd5b6129b29061295a60608201612789565b61297461296e6129695f611128565b61010f565b9161010f565b1415806129db575b61298590612815565b6129916080820161286d565b6129a461299e6001612861565b91612861565b1490816129b4575b50612921565b565b6129c1915060a001612895565b6129d46129ce6001612889565b91612889565b145f6129ac565b506129856129eb60608301612789565b6129fd6129f73361010f565b9161010f565b14905061297c565b612a0d6122b3565b612a26612a20612a1b6130b5565b61010f565b9161010f565b03612a2d57565b612a4f612a386130b5565b5f91829163118cdaa760e01b8352600483016109d1565b0390fd5b612a5b612ee0565b612a73612a695f8301610d4a565b915f8491016111e0565b90612aa7612aa17f8be0079c531659141344cd1fd0a4f28419497f9722a3daafe3b4186f6b6457e0936111d1565b916111d1565b91612ab06100f2565b80612aba8161016b565b0390a3565b5f90565b909182612ad381612ada93610ca4565b809361022b565b0190565b60601b90565b612aed90612ade565b90565b612af990612ae4565b90565b612b08612b0d9161010f565b612af0565b9052565b92612b2f612b2860209695612b3795601495612ac3565b8092612afc565b018092610cd5565b0190565b60200190565b5190565b612b51612b5691610495565b61155c565b90565b612b6d612b68612b7292610367565b610e4a565b610e3a565b90565b91612bb4612bcc92612ba5612bd195612b8c612abf565b5091934290612b996100f2565b95869460208601612b11565b602082018103825203826101ca565b612bc6612bc082612b41565b91612b3b565b20612b45565b612b59565b90565b5f7f456e6420696e646578206f7574206f6620626f756e6473000000000000000000910152565b612c08601760209261064a565b612c1181612bd4565b0190565b612c2a9060208101905f818303910152612bfb565b90565b15612c3457565b612c3c6100f2565b62461bcd60e51b815280612c5260048201612c15565b0390fd5b90565b612c6d612c68612c7292612c56565b610e4a565b610367565b90565b60207f646e277420626520626967676572207468616e20313030000000000000000000917f496e76616c69642072616e676520616e642f6f722072616e67652073686f756c5f8201520152565b612ccf603760409261064a565b612cd881612c75565b0190565b612cf19060208101905f818303910152612cc2565b90565b15612cfb57565b612d036100f2565b62461bcd60e51b815280612d1960048201612cdc565b0390fd5b612d256122da565b90565b5f5b828110612d3657505050565b602090612d41612d1d565b8184015201612d2a565b90612d70612d5883612169565b92602080612d66869361214c565b9201910390612d28565b565b6001612d7e9101610367565b90565b90612d8b82610836565b811015612d9c576020809102010190565b61044c565b91612daa612147565b50612dcf81612dc9612dc3612dbe87610836565b610367565b91610367565b10612c2d565b81612de2612ddc83610367565b91610367565b111580612eb5575b612df390612cf4565b81612e06612e0083610367565b91610367565b145f14612e8f5750612e21612e1b6001611f40565b5b612d4b565b91612e2b5f610ebc565b5b80612e47612e41612e3c87610836565b610367565b91610367565b1015612e8957612e8490612e7d612e6984612e63848890611cf6565b90612d81565b51868391612e778383612d81565b52612d81565b5150612d72565b612e2c565b50505090565b612eb0612ea0612e21928490611f5c565b612eaa6001611f40565b90611cf6565b612e1c565b50612df3612ec4828490611f5c565b612ed7612ed16064612c59565b91610367565b11159050612dea565b7f9016d09d72d40fdae2fd8ceac6b6234c7706214fd39c1cd1e609a0528c19930090565b90565b612f1b612f16612f2092612f04565b610ed8565b61030d565b90565b612f4c7ff0c57e16840df040f15088dc2f81fe391c3923bec73e23a9662efc9c229c6a00612f07565b90565b612f576112e6565b50612f60612f23565b90565b612f74612f6e6130c6565b15610e07565b612f7a57565b5f631afcd79f60e31b815280612f926004820161016b565b0390fd5b612fa790612fa2612f63565b612fa9565b565b80612fc4612fbe612fb95f611128565b61010f565b9161010f565b14612fd457612fd290612a53565b565b612ff7612fe05f611128565b5f918291631e4fbdf760e01b8352600483016109d1565b0390fd5b61300490612f96565b565b61300e6122af565b506130295f61302361301e61131d565b6130e4565b01610d4a565b90565b90613036826130e7565b816130617fbc7cd75a20ee27fd9adebab32041f755214dbc6bffa90cc0225b39da2e5c2d3b916111d1565b9061306a6100f2565b806130748161016b565b0390a261308081612b41565b61309261308c5f610ebc565b91610367565b115f146130a6576130a2916131b7565b505b565b50506130b061313c565b6130a4565b6130bd6122af565b503390565b5f90565b6130ce6130c2565b506130e15f6130db6124b7565b01610dfa565b90565b90565b803b6130fb6130f55f610ebc565b91610367565b1461311d5761311b905f61311561311061131d565b6130e4565b016111e0565b565b613138905f918291634c9c8ce360e01b8352600483016109d1565b0390fd5b3461314f6131495f610ebc565b91610367565b1161315657565b5f63b398979f60e01b81528061316e6004820161016b565b0390fd5b606090565b9061318961318483610208565b6101f3565b918252565b3d5f146131a95761319e3d613177565b903d5f602084013e5b565b6131b1613172565b906131a7565b5f806131e3936131c5613172565b508390602081019051915af4906131da61318e565b909190916131e6565b90565b906131fa906131f3613172565b5015610e07565b5f14613206575061326a565b61320f82612b41565b61322161321b5f610ebc565b91610367565b148061324f575b613230575090565b61324b905f918291639996b31560e01b8352600483016109d1565b0390fd5b50803b61326461325e5f610ebc565b91610367565b14613228565b61327381612b41565b61328561327f5f610ebc565b91610367565b115f1461329457805190602001fd5b5f63d6bda27560e01b8152806132ac6004820161016b565b0390fdfea264697066735822122064220ef2bde2b7ff6416126d06a0a161c1abdf752f930ed060baefc700069a0664736f6c634300081c0033","linkReferences":{}},"methodIdentifiers":{"UPGRADE_INTERFACE_VERSION()":"ad3cb1cc","getProductData(uint256)":"d6d0be9f","getProducts(uint256,uint256)":"8c401448","initialize(address,address)":"485cc955","listProduct(uint256,string,uint256,uint256)":"87a54c52","owner()":"8da5cb5b","products(uint256)":"7acc0b20","proxiableUUID()":"52d1902d","renounceOwnership()":"715018a6","tokenSymbolToDetails(string)":"f661f44c","transferOwnership(address)":"f2fde38b","updateProductPrice(address,uint256,uint256)":"5f673430","upgradeToAndCall(address,bytes)":"4f1ef286"},"storageLayout":{"storage":[{"astId":37954,"contract":"src/Products.sol:Products","label":"isAccepted","offset":0,"slot":"0","type":"t_mapping(t_string_memory_ptr,t_bool)"},{"astId":37959,"contract":"src/Products.sol:Products","label":"tokenSymbolToDetails","offset":0,"slot":"1","type":"t_mapping(t_string_memory_ptr,t_struct(Token)37917_storage)"},{"astId":40038,"contract":"src/Products.sol:Products","label":"userInterface","offset":0,"slot":"2","type":"t_contract(IUser)40998"},{"astId":40040,"contract":"src/Products.sol:Products","label":"userContract","offset":0,"slot":"3","type":"t_address"},{"astId":40049,"contract":"src/Products.sol:Products","label":"products","offset":0,"slot":"4","type":"t_array(t_struct(Product)37937_storage)dyn_storage"},{"astId":40053,"contract":"src/Products.sol:Products","label":"productIdToRecordIndex","offset":0,"slot":"5","type":"t_mapping(t_uint256,t_uint256)"}],"types":{"t_address":{"encoding":"inplace","label":"address","numberOfBytes":"20"},"t_array(t_struct(Product)37937_storage)dyn_storage":{"encoding":"dynamic_array","label":"struct Product[]","numberOfBytes":"32","base":"t_struct(Product)37937_storage"},"t_bool":{"encoding":"inplace","label":"bool","numberOfBytes":"1"},"t_contract(IUser)40998":{"encoding":"inplace","label":"contract IUser","numberOfBytes":"20"},"t_mapping(t_string_memory_ptr,t_bool)":{"encoding":"mapping","key":"t_string_memory_ptr","label":"mapping(string => bool)","numberOfBytes":"32","value":"t_bool"},"t_mapping(t_string_memory_ptr,t_struct(Token)37917_storage)":{"encoding":"mapping","key":"t_string_memory_ptr","label":"mapping(string => struct Token)","numberOfBytes":"32","value":"t_struct(Token)37917_storage"},"t_mapping(t_uint256,t_uint256)":{"encoding":"mapping","key":"t_uint256","label":"mapping(uint256 => uint256)","numberOfBytes":"32","value":"t_uint256"},"t_string_memory_ptr":{"encoding":"bytes","label":"string","numberOfBytes":"32"},"t_string_storage":{"encoding":"bytes","label":"string","numberOfBytes":"32"},"t_struct(Product)37937_storage":{"encoding":"inplace","label":"struct Product","numberOfBytes":"192","members":[{"astId":37926,"contract":"src/Products.sol:Products","label":"productId","offset":0,"slot":"0","type":"t_uint256"},{"astId":37928,"contract":"src/Products.sol:Products","label":"sellerId","offset":0,"slot":"1","type":"t_uint256"},{"astId":37930,"contract":"src/Products.sol:Products","label":"unitPrice","offset":0,"slot":"2","type":"t_uint256"},{"astId":37932,"contract":"src/Products.sol:Products","label":"waranteeDuration","offset":0,"slot":"3","type":"t_uint256"},{"astId":37934,"contract":"src/Products.sol:Products","label":"title","offset":0,"slot":"4","type":"t_string_storage"},{"astId":37936,"contract":"src/Products.sol:Products","label":"whenToExpectDelivery","offset":0,"slot":"5","type":"t_uint256"}]},"t_struct(Token)37917_storage":{"encoding":"inplace","label":"struct Token","numberOfBytes":"64","members":[{"astId":37914,"contract":"src/Products.sol:Products","label":"feedAddr","offset":0,"slot":"0","type":"t_address"},{"astId":37916,"contract":"src/Products.sol:Products","label":"tokenAddr","offset":0,"slot":"1","type":"t_address"}]},"t_uint256":{"encoding":"inplace","label":"uint256","numberOfBytes":"32"}}},"id":40}