{"abi":[{"type":"constructor","inputs":[],"stateMutability":"nonpayable"},{"type":"function","name":"UPGRADE_INTERFACE_VERSION","inputs":[],"outputs":[{"name":"","type":"string","internalType":"string"}],"stateMutability":"view"},{"type":"function","name":"getProductData","inputs":[{"name":"_productId","type":"uint256","internalType":"uint256"}],"outputs":[{"name":"","type":"tuple","internalType":"struct Product","components":[{"name":"productId","type":"uint256","internalType":"uint256"},{"name":"sellerId","type":"uint256","internalType":"uint256"},{"name":"unitPrice","type":"uint256","internalType":"uint256"},{"name":"waranteeDuration","type":"uint256","internalType":"uint256"},{"name":"title","type":"string","internalType":"string"},{"name":"whenToExpectDelivery","type":"uint256","internalType":"uint256"}]}],"stateMutability":"view"},{"type":"function","name":"getProducts","inputs":[{"name":"_start","type":"uint256","internalType":"uint256"},{"name":"_end","type":"uint256","internalType":"uint256"}],"outputs":[{"name":"","type":"tuple[]","internalType":"struct Product[]","components":[{"name":"productId","type":"uint256","internalType":"uint256"},{"name":"sellerId","type":"uint256","internalType":"uint256"},{"name":"unitPrice","type":"uint256","internalType":"uint256"},{"name":"waranteeDuration","type":"uint256","internalType":"uint256"},{"name":"title","type":"string","internalType":"string"},{"name":"whenToExpectDelivery","type":"uint256","internalType":"uint256"}]}],"stateMutability":"view"},{"type":"function","name":"initialize","inputs":[{"name":"_userContractAddress","type":"address","internalType":"address"},{"name":"initialOwner","type":"address","internalType":"address"}],"outputs":[],"stateMutability":"nonpayable"},{"type":"function","name":"listProduct","inputs":[{"name":"_unitprice","type":"uint256","internalType":"uint256"},{"name":"_title","type":"string","internalType":"string"},{"name":"_waranteeDuration","type":"uint256","internalType":"uint256"},{"name":"_expectedDeliveryTime","type":"uint256","internalType":"uint256"}],"outputs":[],"stateMutability":"nonpayable"},{"type":"function","name":"owner","inputs":[],"outputs":[{"name":"","type":"address","internalType":"address"}],"stateMutability":"view"},{"type":"function","name":"products","inputs":[{"name":"","type":"uint256","internalType":"uint256"}],"outputs":[{"name":"productId","type":"uint256","internalType":"uint256"},{"name":"sellerId","type":"uint256","internalType":"uint256"},{"name":"unitPrice","type":"uint256","internalType":"uint256"},{"name":"waranteeDuration","type":"uint256","internalType":"uint256"},{"name":"title","type":"string","internalType":"string"},{"name":"whenToExpectDelivery","type":"uint256","internalType":"uint256"}],"stateMutability":"view"},{"type":"function","name":"proxiableUUID","inputs":[],"outputs":[{"name":"","type":"bytes32","internalType":"bytes32"}],"stateMutability":"view"},{"type":"function","name":"renounceOwnership","inputs":[],"outputs":[],"stateMutability":"nonpayable"},{"type":"function","name":"transferOwnership","inputs":[{"name":"newOwner","type":"address","internalType":"address"}],"outputs":[],"stateMutability":"nonpayable"},{"type":"function","name":"updateProductPrice","inputs":[{"name":"_account","type":"address","internalType":"address"},{"name":"_productId","type":"uint256","internalType":"uint256"},{"name":"_newPrice","type":"uint256","internalType":"uint256"}],"outputs":[],"stateMutability":"nonpayable"},{"type":"function","name":"upgradeToAndCall","inputs":[{"name":"newImplementation","type":"address","internalType":"address"},{"name":"data","type":"bytes","internalType":"bytes"}],"outputs":[],"stateMutability":"payable"},{"type":"event","name":"AccountOwnershipChanged","inputs":[{"name":"_userId","type":"uint256","indexed":true,"internalType":"uint256"},{"name":"_changedBy","type":"address","indexed":false,"internalType":"address"},{"name":"_oldOwner","type":"address","indexed":false,"internalType":"address"},{"name":"_newOwner","type":"address","indexed":false,"internalType":"address"}],"anonymous":false},{"type":"event","name":"CanceledDelivery","inputs":[{"name":"_seller","type":"uint256","indexed":true,"internalType":"uint256"},{"name":"_ref","type":"uint256","indexed":true,"internalType":"uint256"},{"name":"_item","type":"uint256","indexed":true,"internalType":"uint256"}],"anonymous":false},{"type":"event","name":"Initialized","inputs":[{"name":"version","type":"uint64","indexed":false,"internalType":"uint64"}],"anonymous":false},{"type":"event","name":"OwnershipTransferred","inputs":[{"name":"previousOwner","type":"address","indexed":true,"internalType":"address"},{"name":"newOwner","type":"address","indexed":true,"internalType":"address"}],"anonymous":false},{"type":"event","name":"ProductOrderStatusUpdated","inputs":[{"name":"_buyer","type":"uint256","indexed":true,"internalType":"uint256"},{"name":"_payref","type":"uint256","indexed":true,"internalType":"uint256"},{"name":"_itemId","type":"uint256","indexed":true,"internalType":"uint256"},{"name":"_delivered","type":"bool","indexed":false,"internalType":"bool"}],"anonymous":false},{"type":"event","name":"ProductpriceUpdate","inputs":[{"name":"_productId","type":"uint256","indexed":true,"internalType":"uint256"},{"name":"_sellerId","type":"uint256","indexed":true,"internalType":"uint256"},{"name":"_newPrice","type":"uint256","indexed":false,"internalType":"uint256"}],"anonymous":false},{"type":"event","name":"ResgisteredAProduct","inputs":[{"name":"_productId","type":"uint256","indexed":true,"internalType":"uint256"},{"name":"_sellerId","type":"uint256","indexed":true,"internalType":"uint256"}],"anonymous":false},{"type":"event","name":"ResgisteredAuser","inputs":[{"name":"_userId","type":"uint256","indexed":true,"internalType":"uint256"}],"anonymous":false},{"type":"event","name":"SuccessfulCheckout","inputs":[{"name":"_userId","type":"uint256","indexed":true,"internalType":"uint256"},{"name":"_paymentRefence","type":"uint256","indexed":true,"internalType":"uint256"},{"name":"_currency","type":"string","indexed":false,"internalType":"string"},{"name":"_amountPaid","type":"uint256","indexed":false,"internalType":"uint256"}],"anonymous":false},{"type":"event","name":"Upgraded","inputs":[{"name":"implementation","type":"address","indexed":true,"internalType":"address"}],"anonymous":false},{"type":"event","name":"VerifiedAuser","inputs":[{"name":"_userId","type":"uint256","indexed":true,"internalType":"uint256"}],"anonymous":false},{"type":"event","name":"WithdrawSuccess","inputs":[{"name":"_userId","type":"uint256","indexed":true,"internalType":"uint256"},{"name":"_tokenSymbol","type":"string","indexed":false,"internalType":"string"},{"name":"_payRef","type":"uint256","indexed":true,"internalType":"uint256"},{"name":"_amount","type":"uint256","indexed":false,"internalType":"uint256"},{"name":"_date","type":"uint256","indexed":true,"internalType":"uint256"}],"anonymous":false},{"type":"error","name":"AddressEmptyCode","inputs":[{"name":"target","type":"address","internalType":"address"}]},{"type":"error","name":"ERC1967InvalidImplementation","inputs":[{"name":"implementation","type":"address","internalType":"address"}]},{"type":"error","name":"ERC1967NonPayable","inputs":[]},{"type":"error","name":"FailedCall","inputs":[]},{"type":"error","name":"InvalidInitialization","inputs":[]},{"type":"error","name":"NotInitializing","inputs":[]},{"type":"error","name":"OwnableInvalidOwner","inputs":[{"name":"owner","type":"address","internalType":"address"}]},{"type":"error","name":"OwnableUnauthorizedAccount","inputs":[{"name":"account","type":"address","internalType":"address"}]},{"type":"error","name":"UUPSUnauthorizedCallContext","inputs":[]},{"type":"error","name":"UUPSUnsupportedProxiableUUID","inputs":[{"name":"slot","type":"bytes32","internalType":"bytes32"}]}],"bytecode":{"object":"0x60a06040523461003e5761001161004d565b610019610043565b61310a6102dc823960805181818161237b015281816123e0015261259b015261310a90f35b610049565b60405190565b5f80fd5b61005561005f565b61005d6101b2565b565b610067610069565b565b6100716100b5565b565b60018060a01b031690565b90565b61009561009061009a92610073565b61007e565b610073565b90565b6100a690610081565b90565b6100b29061009d565b90565b6100be306100a9565b608052565b60401c90565b60ff1690565b6100db6100e0916100c3565b6100c9565b90565b6100ed90546100cf565b90565b5f0190565b5f1c90565b60018060401b031690565b610111610116916100f5565b6100fa565b90565b6101239054610105565b90565b60018060401b031690565b5f1b90565b9061014760018060401b0391610131565b9181191691161790565b61016561016061016a92610126565b61007e565b610126565b90565b90565b9061018561018061018c92610151565b61016d565b8254610136565b9055565b61019990610126565b9052565b91906101b0905f60208501940190610190565b565b6101ba61026a565b6101c55f82016100e3565b61024e576101d45f8201610119565b6101ec6101e660018060401b03610126565b91610126565b036101f5575b50565b610208905f60018060401b039101610170565b60018060401b036102457fc7f505b2f371ae2175ee4913f4499e1f2633a7b5936321eed1cdaeb6115181d29161023c610043565b9182918261019d565b0390a15f6101f2565b5f63f92ee8a960e01b815280610266600482016100f0565b0390fd5b6102726102c7565b90565b5f90565b90565b90565b61029361028e61029892610279565b610131565b61027c565b90565b6102c47ff0c57e16840df040f15088dc2f81fe391c3923bec73e23a9662efc9c229c6a0061027f565b90565b6102cf610275565b506102d861029b565b9056fe60806040526004361015610013575b610c06565b61001d5f356100dc565b8063485cc955146100d75780634f1ef286146100d257806352d1902d146100cd5780635f673430146100c8578063715018a6146100c35780637acc0b20146100be57806387a54c52146100b95780638c401448146100b45780638da5cb5b146100af578063ad3cb1cc146100aa578063d6d0be9f146100a55763f2fde38b0361000e57610bd3565b610b80565b610abe565b6109d6565b61097e565b6107c2565b6106dd565b6103eb565b6103b7565b610322565b6102c4565b610160565b60e01c90565b60405190565b5f80fd5b5f80fd5b5f80fd5b60018060a01b031690565b610108906100f4565b90565b610114816100ff565b0361011b57565b5f80fd5b9050359061012c8261010b565b565b9190604083820312610156578061014a610153925f860161011f565b9360200161011f565b90565b6100ec565b5f0190565b3461018f5761017961017336600461012e565b90611100565b6101816100e2565b8061018b8161015b565b0390f35b6100e8565b5f80fd5b5f80fd5b601f801991011690565b634e487b7160e01b5f52604160045260245ffd5b906101c49061019c565b810190811067ffffffffffffffff8211176101de57604052565b6101a6565b906101f66101ef6100e2565b92836101ba565b565b67ffffffffffffffff81116102165761021260209161019c565b0190565b6101a6565b90825f939282370152565b9092919261023b610236826101f8565b6101e3565b93818552602085019082840111610257576102559261021b565b565b610198565b9080601f8301121561027a5781602061027793359101610226565b90565b610194565b9190916040818403126102bf57610298835f830161011f565b92602082013567ffffffffffffffff81116102ba576102b7920161025c565b90565b6100f0565b6100ec565b6102d86102d236600461027f565b90611135565b6102e06100e2565b806102ea8161015b565b0390f35b5f9103126102f857565b6100ec565b90565b610309906102fd565b9052565b9190610320905f60208501940190610300565b565b34610352576103323660046102ee565b61034e61033d6111b0565b6103456100e2565b9182918261030d565b0390f35b6100e8565b90565b61036381610357565b0361036a57565b5f80fd5b9050359061037b8261035a565b565b90916060828403126103b2576103af610398845f850161011f565b936103a6816020860161036e565b9360400161036e565b90565b6100ec565b346103e6576103d06103ca36600461037d565b91611896565b6103d86100e2565b806103e28161015b565b0390f35b6100e8565b34610419576103fb3660046102ee565b610403611ae6565b61040b6100e2565b806104158161015b565b0390f35b6100e8565b9060208282031261043757610434915f0161036e565b90565b6100ec565b634e487b7160e01b5f52603260045260245ffd5b5490565b5f5260205f2090565b61046681610450565b82101561048057610478600691610454565b910201905f90565b61043c565b5f1c90565b90565b61049961049e91610485565b61048a565b90565b6104ab905461048d565b90565b634e487b7160e01b5f52602260045260245ffd5b90600160028304921680156104e2575b60208310146104dd57565b6104ae565b91607f16916104d2565b60209181520190565b5f5260205f2090565b905f9291805490610518610511836104c2565b80946104ec565b916001811690815f1461056f5750600114610533575b505050565b61054091929394506104f5565b915f925b81841061055757505001905f808061052e565b60018160209295939554848601520191019290610544565b92949550505060ff19168252151560200201905f808061052e565b90610594916104fe565b90565b906105b76105b0926105a76100e2565b9384809261058a565b03836101ba565b565b6002906105c582610450565b811015610625576105d59161045d565b50906105e25f83016104a1565b916105ef600182016104a1565b916105fc600283016104a1565b91610609600382016104a1565b91610622600561061b60048501610597565b93016104a1565b90565b5f80fd5b61063290610357565b9052565b5190565b60209181520190565b90825f9392825e0152565b61066d61067660209361067b9361066481610636565b9384809361063a565b95869101610643565b61019c565b0190565b969593946106c66106db966106bc60a0966106b26106d39760208e6106ab60c082019a5f830190610629565b0190610629565b60408c0190610629565b60608a0190610629565b878203608089015261064e565b940190610629565b565b34610714576107106106f86106f336600461041e565b6105b9565b926107079694969291926100e2565b9687968761067f565b0390f35b6100e8565b5f80fd5b5f80fd5b909182601f8301121561075b5781359167ffffffffffffffff831161075657602001926001830284011161075157565b61071d565b610719565b610194565b916080838303126107bd57610777825f850161036e565b9260208101359167ffffffffffffffff83116107b85761079c846107b5948401610721565b9390946107ac816040860161036e565b9360600161036e565b90565b6100f0565b6100ec565b346107f4576107de6107d5366004610760565b93929092611de1565b6107e66100e2565b806107f08161015b565b0390f35b6100e8565b9190604083820312610821578061081561081e925f860161036e565b9360200161036e565b90565b6100ec565b5190565b60209181520190565b60200190565b61084290610357565b9052565b61086561086e6020936108739361085c81610636565b938480936104ec565b95869101610643565b61019c565b0190565b906108e99060a0806108de60c084016108965f8801515f870190610839565b6108a860208801516020870190610839565b6108ba60408801516040870190610839565b6108cc60608801516060870190610839565b60808701518582036080870152610846565b940151910190610839565b90565b906108f691610877565b90565b60200190565b9061091361090c83610826565b809261082a565b908161092460208302840194610833565b925f915b83831061093757505050505090565b90919293946020610959610953838560019503875289516108ec565b976108f9565b9301930191939290610928565b61097b9160208201915f8184039101526108ff565b90565b346109af576109ab61099a6109943660046107f9565b906120ec565b6109a26100e2565b91829182610966565b0390f35b6100e8565b6109bd906100ff565b9052565b91906109d4905f602085019401906109b4565b565b34610a06576109e63660046102ee565b610a026109f1612112565b6109f96100e2565b918291826109c1565b0390f35b6100e8565b67ffffffffffffffff8111610a2957610a2560209161019c565b0190565b6101a6565b90610a40610a3b83610a0b565b6101e3565b918252565b5f7f352e302e30000000000000000000000000000000000000000000000000000000910152565b610a766005610a2e565b90610a8360208301610a45565b565b610a8d610a6c565b90565b610a98610a85565b90565b610aa3610a90565b90565b610abb9160208201915f81840391015261064e565b90565b34610aee57610ace3660046102ee565b610aea610ad9610a9b565b610ae16100e2565b91829182610aa6565b0390f35b6100e8565b90610b659060a080610b5a60c08401610b125f8801515f870190610839565b610b2460208801516020870190610839565b610b3660408801516040870190610839565b610b4860608801516060870190610839565b60808701518582036080870152610846565b940151910190610839565b90565b610b7d9160208201915f818403910152610af3565b90565b34610bb057610bac610b9b610b9636600461041e565b61221c565b610ba36100e2565b91829182610b68565b0390f35b6100e8565b90602082820312610bce57610bcb915f0161011f565b90565b6100ec565b34610c0157610beb610be6366004610bb5565b61230b565b610bf36100e2565b80610bfd8161015b565b0390f35b6100e8565b5f80fd5b60401c90565b60ff1690565b610c22610c2791610c0a565b610c10565b90565b610c349054610c16565b90565b151590565b67ffffffffffffffff1690565b610c55610c5a91610485565b610c3c565b90565b610c679054610c49565b90565b67ffffffffffffffff1690565b90565b90565b610c91610c8c610c9692610c77565b610c7a565b610c6a565b90565b90565b610cb0610cab610cb592610c99565b610c7a565b610c6a565b90565b610ccc610cc7610cd1926100f4565b610c7a565b6100f4565b90565b610cdd90610cb8565b90565b610ce990610cd4565b90565b610d00610cfb610d0592610c77565b610c7a565b610357565b90565b5f1b90565b90610d2067ffffffffffffffff91610d08565b9181191691161790565b610d3e610d39610d4392610c6a565b610c7a565b610c6a565b90565b90565b90610d5e610d59610d6592610d2a565b610d46565b8254610d0d565b9055565b60401b90565b90610d8368ff000000000000000091610d69565b9181191691161790565b610d9690610c37565b90565b90565b90610db1610dac610db892610d8d565b610d99565b8254610d6f565b9055565b610dc590610c9c565b9052565b9190610ddc905f60208501940190610dbc565b565b90610de7612316565b91610dfc610df65f8501610c2a565b15610c37565b91610e085f8501610c5d565b80610e1b610e155f610c7d565b91610c6a565b1480610f35575b90610e36610e306001610c9c565b91610c6a565b1480610f0d575b610e48909115610c37565b9081610efc575b50610ee057610e7891610e6d610e656001610c9c565b5f8701610d49565b83610ece575b6110a3565b610e80575b50565b610e8d905f809101610d9c565b6001610ec57fc7f505b2f371ae2175ee4913f4499e1f2633a7b5936321eed1cdaeb6115181d291610ebc6100e2565b91829182610dc9565b0390a15f610e7d565b610edb60015f8701610d9c565b610e73565b5f63f92ee8a960e01b815280610ef86004820161015b565b0390fd5b610f07915015610c37565b5f610e4f565b50610e48610f1a30610ce0565b3b610f2d610f275f610cec565b91610357565b149050610e3d565b5083610e22565b610f50610f4b610f5592610c77565b610c7a565b6100f4565b90565b610f6190610f3c565b90565b5f7f496e76616c6964207573657220636f6e74726163742061646472657373000000910152565b610f98601d60209261063a565b610fa181610f64565b0190565b610fba9060208101905f818303910152610f8b565b90565b15610fc457565b610fcc6100e2565b62461bcd60e51b815280610fe260048201610fa5565b0390fd5b90610ff760018060a01b0391610d08565b9181191691161790565b61100a90610cd4565b90565b90565b9061102561102061102c92611001565b61100d565b8254610fe6565b9055565b60018060a01b031690565b61104761104c91610485565b611030565b90565b611059905461103b565b90565b61106590610cb8565b90565b6110719061105c565b90565b61107d9061105c565b90565b90565b9061109861109361109f92611074565b611080565b8254610fe6565b9055565b6110af6110e39261233f565b6110b7612354565b6110dc816110d56110cf6110ca5f610f58565b6100ff565b916100ff565b1415610fbd565b6001611010565b6110fe6110f86110f3600161104f565b611068565b5f611083565b565b9061110a91610dde565b565b9061111e9161111961236a565b611120565b565b906111339161112e8161241c565b61248c565b565b9061113f9161110c565b565b5f90565b6111569061115161258a565b6111a4565b90565b90565b61117061116b61117592611159565b610d08565b6102fd565b90565b6111a17f360894a13ba1a3210667c828492db98dca3e2076cc3735a920a3ca505d382bbc61115c565b90565b506111ad611178565b90565b6111c06111bb611141565b611145565b90565b60018060a01b031690565b6111da6111df91610485565b6111c3565b90565b6111ec90546111ce565b90565b6111f890610cd4565b90565b60e01b90565b5f80fd5b5f80fd5b905051906112168261035a565b565b9092919261122d61122882610a0b565b6101e3565b938185526020850190828401116112495761124792610643565b565b610198565b9080601f8301121561126c5781602061126993519101611218565b90565b610194565b9050519061127e8261010b565b565b6003111561128a57565b5f80fd5b9050519061129b82611280565b565b91909160a08184031261133e576112b460a06101e3565b926112c1815f8401611209565b5f850152602082015167ffffffffffffffff811161133957816112e591840161124e565b602085015260408201519167ffffffffffffffff83116113345761130e8261132d94830161124e565b60408601526113208260608301611271565b606086015260800161128e565b6080830152565b611205565b611205565b611201565b90602082820312611373575f82015167ffffffffffffffff811161136e5761136b920161129d565b90565b6100f0565b6100ec565b6113806100e2565b3d5f823e3d90fd5b61139c6113976113a192610357565b610c7a565b610357565b90565b906113ae90611388565b5f5260205260405f2090565b90565b5f7f50726f64756374206e6f7420666f756e64000000000000000000000000000000910152565b6113f1601160209261063a565b6113fa816113bd565b0190565b6114139060208101905f8183039101526113e4565b90565b1561141d57565b6114256100e2565b62461bcd60e51b81528061143b600482016113fe565b0390fd5b6114499051610357565b90565b5f7f796f75277265206e6f74207468652070726f64756374206f776e657200000000910152565b611480601c60209261063a565b6114898161144c565b0190565b6114a29060208101905f818303910152611473565b90565b156114ac57565b6114b46100e2565b62461bcd60e51b8152806114ca6004820161148d565b0390fd5b60207f65726f0000000000000000000000000000000000000000000000000000000000917f4e6577207072696365206d7573742062652067726561746572207468616e207a5f8201520152565b611528602360409261063a565b611531816114ce565b0190565b61154a9060208101905f81830391015261151b565b90565b1561155457565b61155c6100e2565b62461bcd60e51b81528061157260048201611535565b0390fd5b906115825f1991610d08565b9181191691161790565b90565b906115a461159f6115ab92611388565b61158c565b8254611576565b9055565b634e487b7160e01b5f525f60045260245ffd5b6115cc90546104c2565b90565b601f602091010490565b1b90565b919060086115f89102916115f25f19846115d9565b926115d9565b9181191691161790565b919061161861161361162093611388565b61158c565b9083546115dd565b9055565b5f90565b61163a91611634611624565b91611602565b565b5b818110611648575050565b806116555f600193611628565b0161163d565b9190601f811161166b575b505050565b61167761169c936104f5565b906020611683846115cf565b830193106116a4575b611695906115cf565b019061163c565b5f8080611666565b91506116958192905061168c565b1c90565b906116c6905f19906008026116b2565b191690565b816116d5916116b6565b906002021790565b908082146117bc576116ee816115c2565b9067ffffffffffffffff82116117b7576117128261170c85546104c2565b8561165b565b5f90601f831160011461174557918091611734935f92611739575b50506116cb565b90555b565b90915001545f8061172d565b90611754601f198416926104f5565b9061175e856104f5565b925f5b81811061179f57509160029391856001969410611785575b50505002019055611737565b611795910154601f8416906116b6565b90555f8080611779565b91936001806020928787015481550195019201611761565b6101a6565b5050565b906117ca916116dd565b565b908082036117d9575b5050565b61185e600580846117fa5f61186497016117f45f88016104a1565b9061158f565b6118136001820161180d600188016104a1565b9061158f565b61182c60028201611826600288016104a1565b9061158f565b6118456003820161183f600388016104a1565b9061158f565b6118566004820160048701906117c0565b0192016104a1565b9061158f565b5f806117d5565b919061187c5761187a916117cc565b565b6115af565b9190611894905f60208501940190610629565b565b91906118d8905f6118ae6118a9826111e2565b6111ef565b63ffc9896b906118cd87926118c16100e2565b968794859384936111fb565b8352600483016109c1565b03915afa918215611abc57611981926118f8915f91611a9a575b50612781565b5f61192161191b6002611915611910600387906113a4565b6104a1565b9061045d565b506113ba565b946119496119308388016104a1565b61194261193c85610cec565b91610357565b1415611416565b61195a611955836111e2565b6111ef565b61197663ffc9896b61196a6100e2565b968794859384936111fb565b8352600483016109c1565b03915afa908115611a9557611a1d5f92611a24948491611a73575b50956119cf6119ac85890161143f565b6119c96119c36119be600186016104a1565b610357565b91610357565b146114a5565b6119eb866119e56119df87610cec565b91610357565b1161154d565b6119f8866002830161158f565b611a176002611a11611a0c600387906113a4565b6104a1565b9061045d565b9061186b565b930161143f565b9091611a6e611a5c611a567f1203120b3e695b8da946fbb0b45df7d065573d1c147ccf584bb34de0f77075ec93611388565b93611388565b93611a656100e2565b91829182611881565b0390a3565b611a8f91503d8086833e611a8781836101ba565b810190611343565b5f61199c565b611378565b611ab691503d805f833e611aae81836101ba565b810190611343565b5f6118f2565b611378565b611ac961280c565b611ad1611ad3565b565b611ae4611adf5f610f58565b61285a565b565b611aee611ac1565b565b611b04611aff611b0992610c6a565b610c7a565b610357565b90565b634e487b7160e01b5f52601160045260245ffd5b611b2f611b3591939293610357565b92610357565b8201809211611b4057565b611b0c565b611b4f60c06101e3565b90565b90611b5c90610357565b9052565b90929192611b75611b7082610a0b565b6101e3565b93818552602085019082840111611b9157611b8f9261021b565b565b610198565b611ba1913691611b60565b90565b52565b90565b5f5260205f2090565b5490565b611bc081611bb3565b821015611bda57611bd2600691611baa565b910201905f90565b61043c565b5190565b90611bed81610636565b9067ffffffffffffffff8211611cad57611c1182611c0b85546104c2565b8561165b565b602090601f8311600114611c4557918091611c34935f92611c39575b50506116cb565b90555b565b90915001515f80611c2d565b601f19831691611c54856104f5565b925f5b818110611c9557509160029391856001969410611c7b575b50505002019055611c37565b611c8b910151601f8416906116b6565b90555f8080611c6f565b91936020600181928787015181550195019201611c57565b6101a6565b90611cbc91611be3565b565b90611d4d60a06005611d5394611ce15f8201611cdb5f880161143f565b9061158f565b611cfa60018201611cf46020880161143f565b9061158f565b611d1360028201611d0d6040880161143f565b9061158f565b611d2c60038201611d266060880161143f565b9061158f565b611d4560048201611d3f60808801611bdf565b90611cb2565b01920161143f565b9061158f565b565b9190611d6657611d6491611cbe565b565b6115af565b9081549168010000000000000000831015611d9b5782611d93916001611d9995018155611bb7565b90611d55565b565b6101a6565b611db4611daf611db992610c99565b610c7a565b610357565b90565b611dcb611dd191939293610357565b92610357565b8203918211611ddc57565b611b0c565b909291611e235f611df9611df4826111e2565b6111ef565b63ffc9896b90611e183392611e0c6100e2565b958694859384936111fb565b8352600483016109c1565b03915afa908115611fa1575f91611f7f575b509485611e4190612781565b84823390611e4e92612999565b611e5790611af0565b948594875f01611e669061143f565b94909193924290611e7691611b20565b94611e7f611b45565b965f880190611e8d91611b52565b6020870190611e9b91611b52565b6040860190611ea991611b52565b6060850190611eb791611b52565b611ec091611b96565b6080830190611ece91611ba4565b60a0820190611edc91611b52565b6002611ee790611ba7565b90611ef191611d6b565b6002611efc90610450565b6001611f0790611da0565b611f1091611dbc565b600382611f1c916113a4565b90611f269161158f565b905f01611f329061143f565b7f8785d3dc1a7bc6f9c6d1db37c18bf70f9bfd54f46f81a45894d848a42144259891611f5d90611388565b90611f6790611388565b91611f706100e2565b80611f7a8161015b565b0390a3565b611f9b91503d805f833e611f9381836101ba565b810190611343565b5f611e35565b611378565b606090565b67ffffffffffffffff8111611fc35760208091020190565b6101a6565b90611fda611fd583611fab565b6101e3565b918252565b611fe960c06101e3565b90565b9061208361207a6005611ffd611fdf565b9461201461200c5f83016104a1565b5f8801611b52565b61202c612023600183016104a1565b60208801611b52565b61204461203b600283016104a1565b60408801611b52565b61205c612053600383016104a1565b60608801611b52565b61207461206b60048301610597565b60808801611ba4565b016104a1565b60a08401611b52565b565b61208e90611fec565b90565b9061209b82610450565b6120a481611fc8565b926120b26020850191610454565b5f915b8383106120c25750505050565b600660206001926120d285612085565b8152019201920191906120b5565b6120e990612091565b90565b61210b916120f8611fa6565b5061210360026120e0565b919091612bc5565b90565b5f90565b61211a61210e565b5061212d5f612127612d04565b0161104f565b90565b5f90565b606090565b612141611fdf565b906020808080808087612152612130565b81520161215d612130565b815201612168612130565b815201612173612130565b81520161217e612134565b815201612189612130565b81525050565b612197612139565b90565b5f7f496e76616c69642070726f647563742069640000000000000000000000000000910152565b6121ce601260209261063a565b6121d78161219a565b0190565b6121f09060208101905f8183039101526121c1565b90565b156121fa57565b6122026100e2565b62461bcd60e51b815280612218600482016121db565b0390fd5b61222461218f565b5061227d61225061224a600261224461223f600387906113a4565b6104a1565b9061045d565b50612085565b9161225c5f840161143f565b61226e6122685f610cec565b91610357565b14159081612280575b506121f3565b90565b905061229f6122996122935f860161143f565b92610357565b91610357565b145f612277565b6122b7906122b261280c565b6122b9565b565b806122d46122ce6122c95f610f58565b6100ff565b916100ff565b146122e4576122e29061285a565b565b6123076122f05f610f58565b5f918291631e4fbdf760e01b8352600483016109c1565b0390fd5b612314906122a6565b565b61231e612d73565b90565b6123329061232d612d87565b612334565b565b61233d90612e1f565b565b61234890612321565b565b612352612d87565b565b61235c61234a565b565b61236790610cd4565b90565b6123733061235e565b6123a561239f7f00000000000000000000000000000000000000000000000000000000000000006100ff565b916100ff565b1480156123cf575b6123b357565b5f63703e46dd60e11b8152806123cb6004820161015b565b0390fd5b506123d8612e2a565b61240a6124047f00000000000000000000000000000000000000000000000000000000000000006100ff565b916100ff565b14156123ad565b5061241a61280c565b565b61242590612411565b565b61243090610cb8565b90565b61243c90612427565b90565b61244890610cd4565b90565b612454816102fd565b0361245b57565b5f80fd5b9050519061246c8261244b565b565b9060208282031261248757612484915f0161245f565b90565b6100ec565b91906124ba60206124a461249f86612433565b61243f565b6352d1902d906124b26100e2565b9384926111fb565b825281806124ca6004820161015b565b03915afa80915f9261255a575b50155f1461250b5750509060016124ec57505b565b612507905f918291634c9c8ce360e01b8352600483016109c1565b0390fd5b928361252661252061251b611178565b6102fd565b916102fd565b0361253b57612536929350612e50565b6124ea565b612556845f918291632a87526960e21b83526004830161030d565b0390fd5b61257c91925060203d8111612583575b61257481836101ba565b81019061246e565b905f6124d7565b503d61256a565b6125933061235e565b6125c56125bf7f00000000000000000000000000000000000000000000000000000000000000006100ff565b916100ff565b036125cc57565b5f63703e46dd60e11b8152806125e46004820161015b565b0390fd5b6125f290516100ff565b90565b60207f20746f206c6973742070726f6475637400000000000000000000000000000000917f756e617574686f72697a65642061646472657373206e6f7420616c6c6f7765645f8201520152565b61264f603060409261063a565b612658816125f5565b0190565b6126719060208101905f818303910152612642565b90565b1561267b57565b6126836100e2565b62461bcd60e51b8152806126996004820161265c565b0390fd5b634e487b7160e01b5f52602160045260245ffd5b600311156126bb57565b61269d565b906126ca826126b1565b565b6126d690516126c0565b90565b60207f726f647563747300000000000000000000000000000000000000000000000000917f6f6e6c792076657269666965642073656c6c6572732063616e206c69737420705f8201520152565b612733602760409261063a565b61273c816126d9565b0190565b6127559060208101905f818303910152612726565b90565b1561275f57565b6127676100e2565b62461bcd60e51b81528061277d60048201612740565b0390fd5b6127c760806127e092612796606082016125e8565b6127b06127aa6127a55f610f58565b6100ff565b916100ff565b1415806127e2575b6127c190612674565b016126cc565b6127da6127d460016126c0565b916126c0565b14612758565b565b506127c16127f2606083016125e8565b6128046127fe336100ff565b916100ff565b1490506127b8565b612814612112565b61282d612827612822612ed9565b6100ff565b916100ff565b0361283457565b61285661283f612ed9565b5f91829163118cdaa760e01b8352600483016109c1565b0390fd5b612862612d04565b61287a6128705f830161104f565b915f849101611010565b906128ae6128a87f8be0079c531659141344cd1fd0a4f28419497f9722a3daafe3b4186f6b6457e093611001565b91611001565b916128b76100e2565b806128c18161015b565b0390a3565b5f90565b905090565b9091826128df816128e6936128ca565b809361021b565b0190565b60601b90565b6128f9906128ea565b90565b612905906128f0565b90565b612914612919916100ff565b6128fc565b9052565b90565b61292c61293191610357565b61291d565b9052565b9261295361294c6020969561295b956014956128cf565b8092612908565b018092612920565b0190565b60200190565b5190565b61297561297a91610485565b611388565b90565b61299161298c61299692610357565b610c7a565b610c6a565b90565b916129d86129f0926129c96129f5956129b06128c6565b50919342906129bd6100e2565b95869460208601612935565b602082018103825203826101ba565b6129ea6129e482612965565b9161295f565b20612969565b61297d565b90565b5f7f456e6420696e646578206f7574206f6620626f756e6473000000000000000000910152565b612a2c601760209261063a565b612a35816129f8565b0190565b612a4e9060208101905f818303910152612a1f565b90565b15612a5857565b612a606100e2565b62461bcd60e51b815280612a7660048201612a39565b0390fd5b90565b612a91612a8c612a9692612a7a565b610c7a565b610357565b90565b60207f646e277420626520626967676572207468616e20313030000000000000000000917f496e76616c69642072616e676520616e642f6f722072616e67652073686f756c5f8201520152565b612af3603760409261063a565b612afc81612a99565b0190565b612b159060208101905f818303910152612ae6565b90565b15612b1f57565b612b276100e2565b62461bcd60e51b815280612b3d60048201612b00565b0390fd5b612b49612139565b90565b5f5b828110612b5a57505050565b602090612b65612b41565b8184015201612b4e565b90612b94612b7c83611fc8565b92602080612b8a8693611fab565b9201910390612b4c565b565b6001612ba29101610357565b90565b90612baf82610826565b811015612bc0576020809102010190565b61043c565b91612bce611fa6565b50612bf381612bed612be7612be287610826565b610357565b91610357565b10612a51565b81612c06612c0083610357565b91610357565b111580612cd9575b612c1790612b18565b81612c2a612c2483610357565b91610357565b145f14612cb35750612c45612c3f6001611da0565b5b612b6f565b91612c4f5f610cec565b5b80612c6b612c65612c6087610826565b610357565b91610357565b1015612cad57612ca890612ca1612c8d84612c87848890611b20565b90612ba5565b51868391612c9b8383612ba5565b52612ba5565b5150612b96565b612c50565b50505090565b612cd4612cc4612c45928490611dbc565b612cce6001611da0565b90611b20565b612c40565b50612c17612ce8828490611dbc565b612cfb612cf56064612a7d565b91610357565b11159050612c0e565b7f9016d09d72d40fdae2fd8ceac6b6234c7706214fd39c1cd1e609a0528c19930090565b90565b612d3f612d3a612d4492612d28565b610d08565b6102fd565b90565b612d707ff0c57e16840df040f15088dc2f81fe391c3923bec73e23a9662efc9c229c6a00612d2b565b90565b612d7b611141565b50612d84612d47565b90565b612d98612d92612eea565b15610c37565b612d9e57565b5f631afcd79f60e31b815280612db66004820161015b565b0390fd5b612dcb90612dc6612d87565b612dcd565b565b80612de8612de2612ddd5f610f58565b6100ff565b916100ff565b14612df857612df69061285a565b565b612e1b612e045f610f58565b5f918291631e4fbdf760e01b8352600483016109c1565b0390fd5b612e2890612dba565b565b612e3261210e565b50612e4d5f612e47612e42611178565b612f08565b0161104f565b90565b90612e5a82612f0b565b81612e857fbc7cd75a20ee27fd9adebab32041f755214dbc6bffa90cc0225b39da2e5c2d3b91611001565b90612e8e6100e2565b80612e988161015b565b0390a2612ea481612965565b612eb6612eb05f610cec565b91610357565b115f14612eca57612ec691612fdb565b505b565b5050612ed4612f60565b612ec8565b612ee161210e565b503390565b5f90565b612ef2612ee6565b50612f055f612eff612316565b01610c2a565b90565b90565b803b612f1f612f195f610cec565b91610357565b14612f4157612f3f905f612f39612f34611178565b612f08565b01611010565b565b612f5c905f918291634c9c8ce360e01b8352600483016109c1565b0390fd5b34612f73612f6d5f610cec565b91610357565b11612f7a57565b5f63b398979f60e01b815280612f926004820161015b565b0390fd5b606090565b90612fad612fa8836101f8565b6101e3565b918252565b3d5f14612fcd57612fc23d612f9b565b903d5f602084013e5b565b612fd5612f96565b90612fcb565b5f8061300793612fe9612f96565b508390602081019051915af490612ffe612fb2565b9091909161300a565b90565b9061301e90613017612f96565b5015610c37565b5f1461302a575061308e565b61303382612965565b61304561303f5f610cec565b91610357565b1480613073575b613054575090565b61306f905f918291639996b31560e01b8352600483016109c1565b0390fd5b50803b6130886130825f610cec565b91610357565b1461304c565b61309781612965565b6130a96130a35f610cec565b91610357565b115f146130b857805190602001fd5b5f63d6bda27560e01b8152806130d06004820161015b565b0390fdfea2646970667358221220c08aa7d1fa8d1deac097c57e5ab30dd1a3dcc6132422fe822867ef77de3f6ae864736f6c634300081c0033","linkReferences":{}},"methodIdentifiers":{"UPGRADE_INTERFACE_VERSION()":"ad3cb1cc","getProductData(uint256)":"d6d0be9f","getProducts(uint256,uint256)":"8c401448","initialize(address,address)":"485cc955","listProduct(uint256,string,uint256,uint256)":"87a54c52","owner()":"8da5cb5b","products(uint256)":"7acc0b20","proxiableUUID()":"52d1902d","renounceOwnership()":"715018a6","transferOwnership(address)":"f2fde38b","updateProductPrice(address,uint256,uint256)":"5f673430","upgradeToAndCall(address,bytes)":"4f1ef286"},"storageLayout":{"storage":[{"astId":40268,"contract":"src/Products.sol:Products","label":"userInterface","offset":0,"slot":"0","type":"t_contract(IUser)41128"},{"astId":40270,"contract":"src/Products.sol:Products","label":"userContract","offset":0,"slot":"1","type":"t_address"},{"astId":40279,"contract":"src/Products.sol:Products","label":"products","offset":0,"slot":"2","type":"t_array(t_struct(Product)37952_storage)dyn_storage"},{"astId":40283,"contract":"src/Products.sol:Products","label":"productIdToRecordIndex","offset":0,"slot":"3","type":"t_mapping(t_uint256,t_uint256)"}],"types":{"t_address":{"encoding":"inplace","label":"address","numberOfBytes":"20"},"t_array(t_struct(Product)37952_storage)dyn_storage":{"encoding":"dynamic_array","label":"struct Product[]","numberOfBytes":"32","base":"t_struct(Product)37952_storage"},"t_contract(IUser)41128":{"encoding":"inplace","label":"contract IUser","numberOfBytes":"20"},"t_mapping(t_uint256,t_uint256)":{"encoding":"mapping","key":"t_uint256","label":"mapping(uint256 => uint256)","numberOfBytes":"32","value":"t_uint256"},"t_string_storage":{"encoding":"bytes","label":"string","numberOfBytes":"32"},"t_struct(Product)37952_storage":{"encoding":"inplace","label":"struct Product","numberOfBytes":"192","members":[{"astId":37941,"contract":"src/Products.sol:Products","label":"productId","offset":0,"slot":"0","type":"t_uint256"},{"astId":37943,"contract":"src/Products.sol:Products","label":"sellerId","offset":0,"slot":"1","type":"t_uint256"},{"astId":37945,"contract":"src/Products.sol:Products","label":"unitPrice","offset":0,"slot":"2","type":"t_uint256"},{"astId":37947,"contract":"src/Products.sol:Products","label":"waranteeDuration","offset":0,"slot":"3","type":"t_uint256"},{"astId":37949,"contract":"src/Products.sol:Products","label":"title","offset":0,"slot":"4","type":"t_string_storage"},{"astId":37951,"contract":"src/Products.sol:Products","label":"whenToExpectDelivery","offset":0,"slot":"5","type":"t_uint256"}]},"t_uint256":{"encoding":"inplace","label":"uint256","numberOfBytes":"32"}}},"id":40}