{"abi":[{"type":"constructor","inputs":[],"stateMutability":"nonpayable"},{"type":"function","name":"a","inputs":[],"outputs":[{"name":"","type":"uint128","internalType":"uint128"}],"stateMutability":"view"},{"type":"function","name":"b","inputs":[],"outputs":[{"name":"","type":"uint64","internalType":"uint64"}],"stateMutability":"view"},{"type":"function","name":"c","inputs":[],"outputs":[{"name":"","type":"uint32","internalType":"uint32"}],"stateMutability":"view"},{"type":"function","name":"d","inputs":[],"outputs":[{"name":"","type":"uint32","internalType":"uint32"}],"stateMutability":"view"},{"type":"function","name":"getArray","inputs":[{"name":"key","type":"uint8","internalType":"uint8"}],"outputs":[{"name":"","type":"uint64[]","internalType":"uint64[]"}],"stateMutability":"view"},{"type":"function","name":"getHashOfdyn1","inputs":[],"outputs":[{"name":"","type":"bytes32","internalType":"bytes32"},{"name":"_dynlen","type":"uint256","internalType":"uint256"},{"name":"_slot","type":"uint256","internalType":"uint256"}],"stateMutability":"view"},{"type":"function","name":"getMap1Slot","inputs":[{"name":"key","type":"uint8","internalType":"uint8"}],"outputs":[{"name":"hash","type":"bytes32","internalType":"bytes32"},{"name":"_slotNum","type":"uint256","internalType":"uint256"}],"stateMutability":"pure"},{"type":"function","name":"map1","inputs":[{"name":"","type":"uint8","internalType":"uint8"},{"name":"","type":"uint256","internalType":"uint256"}],"outputs":[{"name":"","type":"uint64","internalType":"uint64"}],"stateMutability":"view"},{"type":"function","name":"sloadArrayData1","inputs":[{"name":"_indexOfItem","type":"uint256","internalType":"uint256"}],"outputs":[{"name":"val","type":"uint128","internalType":"uint128"},{"name":"b32","type":"bytes32","internalType":"bytes32"},{"name":"len","type":"uint256","internalType":"uint256"},{"name":"_itemSlot","type":"uint256","internalType":"uint256"}],"stateMutability":"view"},{"type":"function","name":"sloadMap1","inputs":[{"name":"_key","type":"uint8","internalType":"uint8"},{"name":"_indexOfItem","type":"uint256","internalType":"uint256"}],"outputs":[{"name":"_arrItem","type":"uint64","internalType":"uint64"},{"name":"arrlen","type":"uint64","internalType":"uint64"}],"stateMutability":"view"},{"type":"function","name":"sstore","inputs":[],"outputs":[],"stateMutability":"nonpayable"}],"bytecode":{"object":"0x60806040523461002757610011610d6b565b61001961002c565b610cff610f918239610cff90f35b610032565b60405190565b5f80fd5b601f801991011690565b634e487b7160e01b5f52604160045260245ffd5b9061005e90610036565b810190811060018060401b0382111761007657604052565b610040565b9061008e61008761002c565b9283610054565b565b60018060401b0381116100a35760200290565b610040565b6100b46100b991610090565b61007b565b90565b90565b60ff1690565b90565b6100dc6100d76100e1926100bc565b6100c5565b6100bf565b90565b906100ee906100bf565b9052565b90565b61010961010461010e926100f2565b6100c5565b6100bf565b90565b90565b61012861012361012d92610111565b6100c5565b6100bf565b90565b90565b61014761014261014c92610130565b6100c5565b6100bf565b90565b90565b61016661016161016b9261014f565b6100c5565b6100bf565b90565b90565b61018561018061018a9261016e565b6100c5565b6100bf565b90565b90565b6101a461019f6101a99261018d565b6100c5565b6100bf565b90565b634e487b7160e01b5f525f60045260245ffd5b5490565b90565b60029060018203010490565b5f5260205f2090565b1b90565b919060086101fa9102916101f45f19846101db565b926101db565b9181191691161790565b61021861021361021d926101c3565b6100c5565b6101c3565b90565b90565b919061023961023461024193610204565b610220565b9083546101df565b9055565b5f90565b61025b91610255610245565b91610223565b565b5b818110610269575050565b806102765f600193610249565b0161025e565b1c90565b90610293905f199060200360080261027c565b8154169055565b9190918282106102aa575b505050565b601060026102ba6102e2956101c6565b6102cc6102c6866101c6565b946101d2565b93840193019306025f81116102ea575b5061025d565b5f80806102a5565b6102f79060018303610280565b5f6102dc565b90680100000000000000008111610326578161031b610324936101bf565b9082815561029a565b565b610040565b50600790565b61033b90516100bf565b90565b90565b9190600861036191029161035b60018060801b03846101db565b926101db565b9181191691161790565b90565b906103788161032b565b9060018060401b03821161045b5761039c6103a29161039784866102fd565b61033e565b926101d2565b60028204915f5b83811061041257506002830290035f81116103c5575b50505050565b925f935f5b8181106103df5750505001555f8080806103bf565b90919460206104066001926103fb6103f68a610331565b61036b565b908560100290610341565b960191019190916103ca565b5f5f5b6002811061042c57509060019181850155016103a9565b9590602061045260019261044761044286610331565b61036b565b908a60100290610341565b92019601610415565b610040565b9061046a9161036e565b565b90565b61048361047e6104889261046c565b6100c5565b6101c3565b90565b60018060401b0381116104a15760208091020190565b610040565b906104b86104b38361048b565b61007b565b918252565b606090565b5f5b8281106104d057505050565b6020906104db6104bd565b81840152016104c4565b9061050a6104f2836104a6565b92602080610500869361048b565b92019103906104c2565b565b60200190565b5490565b600190818003010490565b5f5260205f2090565b634e487b7160e01b5f52602260045260245ffd5b906001600283049216801561055e575b602083101461055957565b61052a565b91607f169161054e565b5f5260205f2090565b5b81811061057d575050565b8061058a5f600193610249565b01610572565b906105a0905f199060080261027c565b191690565b816105af91610590565b906002021790565b905f916105ce6105c682610568565b9283546105a5565b905555565b601f602091010490565b919290602082105f1461063657601f8411600114610606576106009293506105a5565b90555b5b565b509061062c61063193600161062361061d85610568565b926105d3565b82019101610571565b6105b7565b610603565b5061066d8293610647600194610568565b610666610653856105d3565b820192601f861680610678575b506105d3565b0190610571565b600202179055610604565b61068490888603610280565b5f610660565b9290916801000000000000000082116106ea576020115f146106db57602081105f146106bf576106b9916105a5565b90555b5b565b60019160ff19166106cf84610568565b556002020190556106bc565b600191506002020190556106bd565b610040565b9081546106fb8161053e565b90818311610724575b818310610712575b50505050565b61071b936105dd565b5f80808061070c565b6107308383838761068a565b610704565b5f61073f916106ef565b565b905f036107535761075190610735565b565b6101ac565b5b818110610764575050565b806107715f600193610741565b01610759565b9091828110610786575b505050565b6107a461079e6107986107af95610516565b92610516565b92610521565b918201910190610758565b5f8080610781565b906801000000000000000081116107e057816107d56107de93610512565b90828155610777565b565b610040565b5190565b5190565b5190565b9190601f8111610801575b505050565b61080d61083293610568565b906020610819846105d3565b8301931061083a575b61082b906105d3565b0190610571565b5f80806107fc565b915061082b81929050610822565b90610852816107ed565b9060018060401b038211610910576108748261086e855461053e565b856107f1565b602090601f83116001146108a857918091610897935f9261089c575b50506105a5565b90555b565b90915001515f80610890565b601f198316916108b785610568565b925f5b8181106108f8575091600293918560019694106108de575b5050500201905561089a565b6108ee910151601f841690610590565b90555f80806108d2565b919360206001819287870151815501950192016108ba565b610040565b9061091f91610848565b565b610946610940610930846107e5565b9361093b85856107b7565b61050c565b91610521565b5f915b8383106109565750505050565b600160208261096e61096884956107e9565b86610915565b01920192019190610949565b9061098491610921565b565b60018060401b0381116109995760200290565b610040565b6109aa6109af91610986565b61007b565b90565b90565b6109c96109c46109ce926109b2565b6100c5565b6100bf565b90565b90565b6109e86109e36109ed926109d1565b6100c5565b6100bf565b90565b90565b610a07610a02610a0c926109f0565b6100c5565b6100bf565b90565b90610a19906100f5565b5f5260205260405f2090565b5490565b60049060018203010490565b5f5260205f2090565b5b818110610a4a575050565b80610a575f600193610249565b01610a3f565b919091828210610a6d575b505050565b60086004610a7d610aa595610a29565b610a8f610a8986610a29565b94610a35565b93840193019306025f8111610aad575b50610a3e565b5f8080610a68565b610aba9060018303610280565b5f610a9f565b90680100000000000000008111610ae95781610ade610ae793610a25565b90828155610a5d565b565b610040565b50600890565b90565b91906008610b17910291610b1160018060401b03846101db565b926101db565b9181191691161790565b90565b90610b2e81610aee565b9060018060401b038211610c1157610b52610b5891610b4d8486610ac0565b610af4565b92610a35565b60048204915f5b838110610bc857506004830290035f8111610b7b575b50505050565b925f935f5b818110610b955750505001555f808080610b75565b9091946020610bbc600192610bb1610bac8a610331565b610b21565b908560080290610af7565b96019101919091610b80565b5f5f5b60048110610be25750906001918185015501610b5f565b95906020610c08600192610bfd610bf886610331565b610b21565b908a60080290610af7565b92019601610bcb565b610040565b90610c2091610b24565b565b60018060401b038111610c355760200290565b610040565b610c46610c4b91610c22565b61007b565b90565b90610c58906100c8565b5f5260205260405f2090565b50600590565b90565b90610c7781610c64565b9060018060401b038211610d5a57610c9b610ca191610c968486610ac0565b610c6a565b92610a35565b60048204915f5b838110610d1157506004830290035f8111610cc4575b50505050565b925f935f5b818110610cde5750505001555f808080610cbe565b9091946020610d05600192610cfa610cf58a610331565b610b21565b908560080290610af7565b96019101919091610cc9565b5f5f5b60048110610d2b5750906001918185015501610ca8565b95906020610d51600192610d46610d4186610331565b610b21565b908a60080290610af7565b92019601610d14565b610040565b90610d6991610c6d565b565b610e18610d7860076100a8565b610d8d610d8560016100c8565b5f83016100e4565b610da3610d9a60026100f5565b602083016100e4565b610db9610db06003610114565b604083016100e4565b610dcf610dc66004610133565b606083016100e4565b610de5610ddc6005610152565b608083016100e4565b610dfb610df26006610171565b60a083016100e4565b610e11610e086007610190565b60c083016100e4565b6002610460565b610e34610e2d610e28600a61046f565b6104e5565b600661097a565b610f02610e41600861099e565b610e56610e4e60016100c8565b5f83016100e4565b610e6c610e636003610114565b602083016100e4565b610e82610e7960166109b5565b604083016100e4565b610e98610e8f60216109d4565b606083016100e4565b610eae610ea5600b6109f3565b608083016100e4565b610ec4610ebb6004610133565b60a083016100e4565b610eda610ed16005610152565b60c083016100e4565b610ef0610ee76006610171565b60e083016100e4565b610efd6005600290610a0f565b610c16565b610f8e610f0f6005610c3a565b610f24610f1c60026100f5565b5f83016100e4565b610f3a610f316004610133565b602083016100e4565b610f50610f476005610152565b604083016100e4565b610f66610f5d6006610171565b606083016100e4565b610f7c610f736007610190565b608083016100e4565b610f896005600190610c4e565b610d5f565b56fe60806040526004361015610013575b610799565b61001d5f356100cc565b80630a2de62c146100c75780630dbe671f146100c25780634df7e3d0146100bd57806353b9f482146100b857806357d24c9b146100b3578063703c2d1a146100ae57806373609441146100a95780638a054ac2146100a45780639886f74a1461009f578063c3da42b81461009a5763cf8a6b050361000e57610764565b610690565b610648565b6105e1565b610540565b6104ea565b6104ac565b61041a565b610387565b610342565b61027c565b60e01c90565b60405190565b5f80fd5b5f80fd5b60ff1690565b6100ef816100e0565b036100f657565b5f80fd5b90503590610107826100e6565b565b90565b61011581610109565b0361011c57565b5f80fd5b9050359061012d8261010c565b565b9190604083820312610157578061014b610154925f86016100fa565b93602001610120565b90565b6100dc565b90565b61017361016e610178926100e0565b61015c565b6100e0565b90565b906101859061015f565b5f5260205260405f2090565b634e487b7160e01b5f52603260045260245ffd5b5490565b5f5260205f2090565b9190916101be816101a5565b8310156101dc5760046101d26008926101a9565b8185040193060290565b610191565b1c90565b67ffffffffffffffff1690565b61020290600861020793026101e1565b6101e5565b90565b9061021591546101f2565b90565b61022390600561017b565b61022c816101a5565b8210156102495761024691610240916101b2565b9061020a565b90565b5f80fd5b67ffffffffffffffff1690565b6102639061024d565b9052565b919061027a905f6020850194019061025a565b565b346102ad576102a961029861029236600461012f565b90610218565b6102a06100d2565b91829182610267565b0390f35b6100d8565b5f9103126102bc57565b6100dc565b6fffffffffffffffffffffffffffffffff1690565b6102e69060086102eb93026101e1565b6102c1565b90565b906102f991546102d6565b90565b61030860015f906102ee565b90565b6fffffffffffffffffffffffffffffffff1690565b6103299061030b565b9052565b9190610340905f60208501940190610320565b565b34610372576103523660046102b2565b61036e61035d6102fc565b6103656100d2565b9182918261032d565b0390f35b6100d8565b610384600160109061020a565b90565b346103b7576103973660046102b2565b6103b36103a2610377565b6103aa6100d2565b91829182610267565b0390f35b6100d8565b906020828203126103d5576103d2915f016100fa565b90565b6100dc565b90565b6103e6906103da565b9052565b6103f390610109565b9052565b91602061041892949361041160408201965f8301906103dd565b01906103ea565b565b3461044b5761043261042d3660046103bc565b610826565b9061044761043e6100d2565b928392836103f7565b0390f35b6100d8565b9060208282031261046957610466915f01610120565b90565b6100dc565b6104a36104aa9461049960609498979561048f608086019a5f870190610320565b60208501906103dd565b60408301906103ea565b01906103ea565b565b346104e0576104dc6104c76104c2366004610450565b610897565b906104d39492946100d2565b9485948561046e565b0390f35b6100d8565b5f0190565b34610518576104fa3660046102b2565b610502610932565b61050a6100d2565b80610514816104e5565b0390f35b6100d8565b91602061053e92949361053760408201965f83019061025a565b019061025a565b565b346105725761055961055336600461012f565b90610995565b9061056e6105656100d2565b9283928361051d565b0390f35b6100d8565b63ffffffff1690565b61059090600861059593026101e1565b610577565b90565b906105a39154610580565b90565b6105b36001601c90610598565b90565b63ffffffff1690565b6105c8906105b6565b9052565b91906105df905f602085019401906105bf565b565b34610611576105f13660046102b2565b61060d6105fc6105a6565b6106046100d2565b918291826105cc565b0390f35b6100d8565b60409061063f610646949695939661063560608401985f8501906103dd565b60208301906103ea565b01906103ea565b565b3461067b576106583660046102b2565b610677610663610a3e565b61066e9391936100d2565b93849384610616565b0390f35b6100d8565b61068d6001601890610598565b90565b346106c0576106a03660046102b2565b6106bc6106ab610680565b6106b36100d2565b918291826105cc565b0390f35b6100d8565b5190565b60209181520190565b60200190565b6106e19061024d565b9052565b906106f2816020936106d8565b0190565b60200190565b9061071961071361070c846106c5565b80936106c9565b926106d2565b905f5b8181106107295750505090565b90919261074261073c60019286516106e5565b946106f6565b910191909161071c565b6107619160208201915f8184039101526106fc565b90565b346107945761079061077f61077a3660046103bc565b610caa565b6107876100d2565b9182918261074c565b0390f35b6100d8565b5f80fd5b5f90565b5f90565b6107ae906100e0565b9052565b9160206107d39294936107cc60408201965f8301906107a5565b01906103ea565b565b601f801991011690565b634e487b7160e01b5f52604160045260245ffd5b906107fd906107d5565b810190811067ffffffffffffffff82111761081757604052565b6107df565b60200190565b5190565b61082e61079d565b506108376107a1565b506108406107a1565b50600561086e819261085f6108536100d2565b938492602084016107b2565b602082018103825203826107f3565b61088061087a82610822565b9161081c565b2091565b5f90565b5490565b1561089357565b5f80fd5b906108a0610884565b506108a961079d565b506108b26107a1565b506108bb6107a1565b506108e1826108db6108d56108d06002610888565b610109565b91610109565b1061088c565b6108e9610a3e565b50919091925f92608061010004908215610929575b5f8311610918575b908460809201549206021c9283929091565b935080608091830494909150610906565b93505f936108fe565b600b60015460018060801b0319161760018060401b0360801b1916601660801b1760018060201b0360c01b1916602160c01b1760018060201b0360e01b1916602c60e01b17600155565b5f90565b9190610993905f602085019401906103dd565b565b6109b3909291926109a461097c565b506109ad61097c565b50610826565b509160406109d26109e1856109c66100d2565b92839160208301610980565b602082018103825203826107f3565b6109f36109ed82610822565b9161081c565b205f8261010004918415610a20575b5f8511610a15575b01549206021c915490565b905081840490610a0a565b90505f90610a02565b9190610a3c905f602085019401906103ea565b565b610a4661079d565b50610a4f6107a1565b50610a586107a1565b50600290815490610a7a610a8984610a6e6100d2565b92839160208301610a29565b602082018103825203826107f3565b610a9b610a9582610822565b9161081c565b20919291929190565b606090565b60209181520190565b5f1c90565b610ac3610ac891610ab2565b6101e5565b90565b60401c90565b610add610ae291610acb565b6101e5565b90565b60801c90565b610af7610afc91610ae5565b6101e5565b90565b60c01c90565b610b11610b1691610aff565b6101e5565b90565b90600190610b39610b33610b2c856101a5565b8093610aa9565b936101a9565b5f92610bfb575b6001610b4d575b50505090565b5490808310610bd9575b808310610bb7575b808310610b95575b8210610b74575b80610b47565b82610b8c60019394610b87602094610b05565b6106d8565b0191015f610b6e565b9192602081610bae600193610ba986610aeb565b6106d8565b01930191610b67565b9192602081610bd0600193610bcb86610ad1565b6106d8565b01930191610b5f565b9192602081610bf2600193610bed86610ab7565b6106d8565b01930191610b57565b5b81600160040384011015610b40579260016020610c5f610c646004948380808b5493610c3081610c2b87610ab7565b6106d8565b01610c4381610c3e86610ad1565b6106d8565b01610c5681610c5185610aeb565b6106d8565b01928391610b05565b6106d8565b019401920191610bfc565b90610c7991610b19565b90565b90610c9c610c9592610c8c6100d2565b93848092610c6f565b03836107f3565b565b610ca790610c7c565b90565b610cc1610cc691610cb9610aa4565b50600561017b565b610c9e565b9056fea2646970667358221220efcaa46e5a9e1ff3f989e6f904db31476e709f972e01056bf939b610ab5293ed64736f6c634300081c0033","linkReferences":{}},"methodIdentifiers":{"a()":"0dbe671f","b()":"4df7e3d0","c()":"c3da42b8","d()":"8a054ac2","getArray(uint8)":"cf8a6b05","getHashOfdyn1()":"9886f74a","getMap1Slot(uint8)":"53b9f482","map1(uint8,uint256)":"0a2de62c","sloadArrayData1(uint256)":"57d24c9b","sloadMap1(uint8,uint256)":"73609441","sstore()":"703c2d1a"},"storageLayout":{"storage":[{"astId":40547,"contract":"src/StorageSlot.sol:Storage","label":"number","offset":0,"slot":"0","type":"t_uint256"},{"astId":40549,"contract":"src/StorageSlot.sol:Storage","label":"a","offset":0,"slot":"1","type":"t_uint128"},{"astId":40551,"contract":"src/StorageSlot.sol:Storage","label":"b","offset":16,"slot":"1","type":"t_uint64"},{"astId":40553,"contract":"src/StorageSlot.sol:Storage","label":"c","offset":24,"slot":"1","type":"t_uint32"},{"astId":40555,"contract":"src/StorageSlot.sol:Storage","label":"d","offset":28,"slot":"1","type":"t_uint32"},{"astId":40566,"contract":"src/StorageSlot.sol:Storage","label":"dyn1","offset":0,"slot":"2","type":"t_array(t_uint128)dyn_storage"},{"astId":40569,"contract":"src/StorageSlot.sol:Storage","label":"dyn2","offset":0,"slot":"3","type":"t_array(t_uint32)dyn_storage"},{"astId":40572,"contract":"src/StorageSlot.sol:Storage","label":"dyn3","offset":0,"slot":"4","type":"t_array(t_uint64)dyn_storage"},{"astId":40577,"contract":"src/StorageSlot.sol:Storage","label":"map1","offset":0,"slot":"5","type":"t_mapping(t_uint8,t_array(t_uint64)dyn_storage)"},{"astId":40614,"contract":"src/StorageSlot.sol:Storage","label":"testArr","offset":0,"slot":"6","type":"t_array(t_string_storage)dyn_storage"}],"types":{"t_array(t_string_storage)dyn_storage":{"encoding":"dynamic_array","label":"string[]","numberOfBytes":"32","base":"t_string_storage"},"t_array(t_uint128)dyn_storage":{"encoding":"dynamic_array","label":"uint128[]","numberOfBytes":"32","base":"t_uint128"},"t_array(t_uint32)dyn_storage":{"encoding":"dynamic_array","label":"uint32[]","numberOfBytes":"32","base":"t_uint32"},"t_array(t_uint64)dyn_storage":{"encoding":"dynamic_array","label":"uint64[]","numberOfBytes":"32","base":"t_uint64"},"t_mapping(t_uint8,t_array(t_uint64)dyn_storage)":{"encoding":"mapping","key":"t_uint8","label":"mapping(uint8 => uint64[])","numberOfBytes":"32","value":"t_array(t_uint64)dyn_storage"},"t_string_storage":{"encoding":"bytes","label":"string","numberOfBytes":"32"},"t_uint128":{"encoding":"inplace","label":"uint128","numberOfBytes":"16"},"t_uint256":{"encoding":"inplace","label":"uint256","numberOfBytes":"32"},"t_uint32":{"encoding":"inplace","label":"uint32","numberOfBytes":"4"},"t_uint64":{"encoding":"inplace","label":"uint64","numberOfBytes":"8"},"t_uint8":{"encoding":"inplace","label":"uint8","numberOfBytes":"1"}}},"id":41}