{"abi":[{"type":"constructor","inputs":[],"stateMutability":"nonpayable"},{"type":"receive","stateMutability":"payable"},{"type":"function","name":"UPGRADE_INTERFACE_VERSION","inputs":[],"outputs":[{"name":"","type":"string","internalType":"string"}],"stateMutability":"view"},{"type":"function","name":"ecommercePlatform","inputs":[],"outputs":[{"name":"","type":"address","internalType":"address"}],"stateMutability":"view"},{"type":"function","name":"getWalletBalance","inputs":[{"name":"_userId","type":"uint256","internalType":"uint256"},{"name":"_payRef","type":"uint256","internalType":"uint256"}],"outputs":[{"name":"","type":"uint256","internalType":"uint256"}],"stateMutability":"view"},{"type":"function","name":"getWithdrawableBalance","inputs":[{"name":"_userId","type":"uint256","internalType":"uint256"},{"name":"_ref","type":"uint256","internalType":"uint256"}],"outputs":[{"name":"","type":"uint256","internalType":"uint256"}],"stateMutability":"view"},{"type":"function","name":"initialize","inputs":[{"name":"_userContractAddress","type":"address","internalType":"address"},{"name":"initialOwner","type":"address","internalType":"address"}],"outputs":[],"stateMutability":"nonpayable"},{"type":"function","name":"owner","inputs":[],"outputs":[{"name":"","type":"address","internalType":"address"}],"stateMutability":"view"},{"type":"function","name":"payForItemsWithETH","inputs":[{"name":"_userId","type":"uint256","internalType":"uint256"},{"name":"_bill","type":"uint256","internalType":"uint256"},{"name":"_feedData","type":"bytes","internalType":"bytes"},{"name":"_payRef","type":"uint256","internalType":"uint256"}],"outputs":[{"name":"","type":"bool","internalType":"bool"},{"name":"","type":"uint256","internalType":"uint256"}],"stateMutability":"payable"},{"type":"function","name":"payForItemsWithUsd","inputs":[{"name":"_userId","type":"uint256","internalType":"uint256"},{"name":"bill","type":"uint256","internalType":"uint256"},{"name":"_paymentTokenSymbol","type":"string","internalType":"string"},{"name":"_payRef","type":"uint256","internalType":"uint256"}],"outputs":[{"name":"","type":"bool","internalType":"bool"},{"name":"","type":"uint256","internalType":"uint256"}],"stateMutability":"nonpayable"},{"type":"function","name":"paymentRefToToken","inputs":[{"name":"_paymentRef","type":"uint256","internalType":"uint256"}],"outputs":[{"name":"_symbol","type":"string","internalType":"string"}],"stateMutability":"view"},{"type":"function","name":"proxiableUUID","inputs":[],"outputs":[{"name":"","type":"bytes32","internalType":"bytes32"}],"stateMutability":"view"},{"type":"function","name":"renounceOwnership","inputs":[],"outputs":[],"stateMutability":"nonpayable"},{"type":"function","name":"sellerCancelDelivery","inputs":[{"name":"_payRef","type":"uint256","internalType":"uint256"},{"name":"_productId","type":"uint256","internalType":"uint256"}],"outputs":[],"stateMutability":"nonpayable"},{"type":"function","name":"setEcommercePlatform","inputs":[{"name":"_ecommercePlatform","type":"address","internalType":"address"}],"outputs":[],"stateMutability":"nonpayable"},{"type":"function","name":"tokenPriceAtcheckout","inputs":[{"name":"_paymentRef","type":"uint256","internalType":"uint256"}],"outputs":[{"name":"_tokenPrice","type":"uint256","internalType":"uint256"}],"stateMutability":"view"},{"type":"function","name":"tokenSymbolToDetails","inputs":[{"name":"","type":"string","internalType":"string"}],"outputs":[{"name":"feedAddr","type":"address","internalType":"address"},{"name":"tokenAddr","type":"address","internalType":"address"}],"stateMutability":"view"},{"type":"function","name":"transferOwnership","inputs":[{"name":"newOwner","type":"address","internalType":"address"}],"outputs":[],"stateMutability":"nonpayable"},{"type":"function","name":"updateDeliveryStatus","inputs":[{"name":"_payRef","type":"uint256","internalType":"uint256"},{"name":"_productId","type":"uint256","internalType":"uint256"},{"name":"_isDelivered","type":"bool","internalType":"bool"}],"outputs":[],"stateMutability":"nonpayable"},{"type":"function","name":"upgradeToAndCall","inputs":[{"name":"newImplementation","type":"address","internalType":"address"},{"name":"data","type":"bytes","internalType":"bytes"}],"outputs":[],"stateMutability":"payable"},{"type":"function","name":"userContract","inputs":[],"outputs":[{"name":"","type":"address","internalType":"address"}],"stateMutability":"view"},{"type":"function","name":"withdrawFunds","inputs":[{"name":"_payRef","type":"uint256","internalType":"uint256"},{"name":"_amount","type":"uint256","internalType":"uint256"}],"outputs":[],"stateMutability":"nonpayable"},{"type":"event","name":"AccountOwnershipChanged","inputs":[{"name":"_userId","type":"uint256","indexed":true,"internalType":"uint256"},{"name":"_changedBy","type":"address","indexed":false,"internalType":"address"},{"name":"_oldOwner","type":"address","indexed":false,"internalType":"address"},{"name":"_newOwner","type":"address","indexed":false,"internalType":"address"}],"anonymous":false},{"type":"event","name":"CanceledDelivery","inputs":[{"name":"_seller","type":"uint256","indexed":true,"internalType":"uint256"},{"name":"_ref","type":"uint256","indexed":true,"internalType":"uint256"},{"name":"_item","type":"uint256","indexed":true,"internalType":"uint256"}],"anonymous":false},{"type":"event","name":"DeliveryConfirmed","inputs":[{"name":"userId","type":"uint256","indexed":true,"internalType":"uint256"},{"name":"payRef","type":"uint256","indexed":true,"internalType":"uint256"}],"anonymous":false},{"type":"event","name":"DeliveryPending","inputs":[{"name":"userId","type":"uint256","indexed":true,"internalType":"uint256"},{"name":"payRef","type":"uint256","indexed":true,"internalType":"uint256"}],"anonymous":false},{"type":"event","name":"Initialized","inputs":[{"name":"version","type":"uint64","indexed":false,"internalType":"uint64"}],"anonymous":false},{"type":"event","name":"OwnershipTransferred","inputs":[{"name":"previousOwner","type":"address","indexed":true,"internalType":"address"},{"name":"newOwner","type":"address","indexed":true,"internalType":"address"}],"anonymous":false},{"type":"event","name":"PaymentReceived","inputs":[{"name":"userId","type":"uint256","indexed":true,"internalType":"uint256"},{"name":"payRef","type":"uint256","indexed":true,"internalType":"uint256"},{"name":"amount","type":"uint256","indexed":false,"internalType":"uint256"}],"anonymous":false},{"type":"event","name":"ProductOrderStatusUpdated","inputs":[{"name":"_buyer","type":"uint256","indexed":true,"internalType":"uint256"},{"name":"_payref","type":"uint256","indexed":true,"internalType":"uint256"},{"name":"_itemId","type":"uint256","indexed":true,"internalType":"uint256"},{"name":"_delivered","type":"bool","indexed":false,"internalType":"bool"}],"anonymous":false},{"type":"event","name":"ProductpriceUpdate","inputs":[{"name":"_productId","type":"uint256","indexed":true,"internalType":"uint256"},{"name":"_sellerId","type":"uint256","indexed":true,"internalType":"uint256"},{"name":"_newPrice","type":"uint256","indexed":false,"internalType":"uint256"}],"anonymous":false},{"type":"event","name":"ResgisteredAProduct","inputs":[{"name":"_productId","type":"uint256","indexed":true,"internalType":"uint256"},{"name":"_sellerId","type":"uint256","indexed":true,"internalType":"uint256"}],"anonymous":false},{"type":"event","name":"ResgisteredAuser","inputs":[{"name":"_userId","type":"uint256","indexed":true,"internalType":"uint256"}],"anonymous":false},{"type":"event","name":"SuccessfulCheckout","inputs":[{"name":"_userId","type":"uint256","indexed":true,"internalType":"uint256"},{"name":"_paymentRefence","type":"uint256","indexed":true,"internalType":"uint256"},{"name":"_currency","type":"string","indexed":false,"internalType":"string"},{"name":"_amountPaid","type":"uint256","indexed":false,"internalType":"uint256"}],"anonymous":false},{"type":"event","name":"Upgraded","inputs":[{"name":"implementation","type":"address","indexed":true,"internalType":"address"}],"anonymous":false},{"type":"event","name":"VerifiedAuser","inputs":[{"name":"_userId","type":"uint256","indexed":true,"internalType":"uint256"}],"anonymous":false},{"type":"event","name":"WithdrawSuccess","inputs":[{"name":"_userId","type":"uint256","indexed":true,"internalType":"uint256"},{"name":"_tokenSymbol","type":"string","indexed":false,"internalType":"string"},{"name":"_payRef","type":"uint256","indexed":true,"internalType":"uint256"},{"name":"_amount","type":"uint256","indexed":false,"internalType":"uint256"},{"name":"_date","type":"uint256","indexed":true,"internalType":"uint256"}],"anonymous":false},{"type":"error","name":"AddressEmptyCode","inputs":[{"name":"target","type":"address","internalType":"address"}]},{"type":"error","name":"ERC1967InvalidImplementation","inputs":[{"name":"implementation","type":"address","internalType":"address"}]},{"type":"error","name":"ERC1967NonPayable","inputs":[]},{"type":"error","name":"FailedCall","inputs":[]},{"type":"error","name":"InvalidInitialization","inputs":[]},{"type":"error","name":"NotInitializing","inputs":[]},{"type":"error","name":"OwnableInvalidOwner","inputs":[{"name":"owner","type":"address","internalType":"address"}]},{"type":"error","name":"OwnableUnauthorizedAccount","inputs":[{"name":"account","type":"address","internalType":"address"}]},{"type":"error","name":"SafeERC20FailedOperation","inputs":[{"name":"token","type":"address","internalType":"address"}]},{"type":"error","name":"UUPSUnauthorizedCallContext","inputs":[]},{"type":"error","name":"UUPSUnsupportedProxiableUUID","inputs":[{"name":"slot","type":"bytes32","internalType":"bytes32"}]}],"bytecode":{"object":"0x60a06040523461003e5761001161004d565b610019610043565b614cef6102dc823960805181818161442e01528181614493015261464e0152614cef90f35b610049565b60405190565b5f80fd5b61005561005f565b61005d6101b2565b565b610067610069565b565b6100716100b5565b565b60018060a01b031690565b90565b61009561009061009a92610073565b61007e565b610073565b90565b6100a690610081565b90565b6100b29061009d565b90565b6100be306100a9565b608052565b60401c90565b60ff1690565b6100db6100e0916100c3565b6100c9565b90565b6100ed90546100cf565b90565b5f0190565b5f1c90565b60018060401b031690565b610111610116916100f5565b6100fa565b90565b6101239054610105565b90565b60018060401b031690565b5f1b90565b9061014760018060401b0391610131565b9181191691161790565b61016561016061016a92610126565b61007e565b610126565b90565b90565b9061018561018061018c92610151565b61016d565b8254610136565b9055565b61019990610126565b9052565b91906101b0905f60208501940190610190565b565b6101ba61026a565b6101c55f82016100e3565b61024e576101d45f8201610119565b6101ec6101e660018060401b03610126565b91610126565b036101f5575b50565b610208905f60018060401b039101610170565b60018060401b036102457fc7f505b2f371ae2175ee4913f4499e1f2633a7b5936321eed1cdaeb6115181d29161023c610043565b9182918261019d565b0390a15f6101f2565b5f63f92ee8a960e01b815280610266600482016100f0565b0390fd5b6102726102c7565b90565b5f90565b90565b90565b61029361028e61029892610279565b610131565b61027c565b90565b6102c47ff0c57e16840df040f15088dc2f81fe391c3923bec73e23a9662efc9c229c6a0061027f565b90565b6102cf610275565b506102d861029b565b9056fe60806040526004361015610015575b36610e2a57005b61001f5f3561015e565b80633384575c1461015957806345da5cc114610154578063485cc9551461014f5780634f1ef2861461014a5780635000596b1461014557806352d1902d146101405780635fa773801461013b57806362eb9950146101365780636e99f49814610131578063715018a61461012c57806385fb7f6714610127578063883723a4146101225780638da5cb5b1461011d578063ad3cb1cc14610118578063bcbf0b9214610113578063d3d4d3051461010e578063d42e494614610109578063e525310514610104578063f2fde38b146100ff5763f661f44c0361000e57610df4565b610c96565b610c62565b610c2c565b610bf2565b610b06565b610ad1565b610a01565b6109d1565b61090d565b610882565b61084f565b6107fc565b6105c4565b610580565b610526565b610487565b610323565b610286565b610203565b60e01c90565b60405190565b5f80fd5b5f80fd5b5f80fd5b90565b61018281610176565b0361018957565b5f80fd5b9050359061019a82610179565b565b151590565b6101aa8161019c565b036101b157565b5f80fd5b905035906101c2826101a1565b565b90916060828403126101f9576101f66101df845f850161018d565b936101ed816020860161018d565b936040016101b5565b90565b61016e565b5f0190565b346102325761021c6102163660046101c4565b91610e2e565b610224610164565b8061022e816101fe565b0390f35b61016a565b919060408382031261025f578061025361025c925f860161018d565b9360200161018d565b90565b61016e565b61026d90610176565b9052565b9190610284905f60208501940190610264565b565b346102b7576102b36102a261029c366004610237565b90611123565b6102aa610164565b91829182610271565b0390f35b61016a565b60018060a01b031690565b6102d0906102bc565b90565b6102dc816102c7565b036102e357565b5f80fd5b905035906102f4826102d3565b565b919060408382031261031e578061031261031b925f86016102e7565b936020016102e7565b90565b61016e565b346103525761033c6103363660046102f6565b906116ad565b610344610164565b8061034e816101fe565b0390f35b61016a565b5f80fd5b5f80fd5b601f801991011690565b634e487b7160e01b5f52604160045260245ffd5b906103879061035f565b810190811067ffffffffffffffff8211176103a157604052565b610369565b906103b96103b2610164565b928361037d565b565b67ffffffffffffffff81116103d9576103d560209161035f565b0190565b610369565b90825f939282370152565b909291926103fe6103f9826103bb565b6103a6565b9381855260208501908284011161041a57610418926103de565b565b61035b565b9080601f8301121561043d5781602061043a933591016103e9565b90565b610357565b9190916040818403126104825761045b835f83016102e7565b92602082013567ffffffffffffffff811161047d5761047a920161041f565b90565b610172565b61016e565b61049b610495366004610442565b906116e2565b6104a3610164565b806104ad816101fe565b0390f35b5f9103126104bb57565b61016e565b1c90565b60018060a01b031690565b6104df9060086104e493026104c0565b6104c4565b90565b906104f291546104cf565b90565b61050160045f906104e7565b90565b61050d906102c7565b9052565b9190610524905f60208501940190610504565b565b34610556576105363660046104b1565b6105526105416104f5565b610549610164565b91829182610511565b0390f35b61016a565b90565b6105679061055b565b9052565b919061057e905f6020850194019061055e565b565b346105b0576105903660046104b1565b6105ac61059b61175d565b6105a3610164565b9182918261056b565b0390f35b61016a565b6105c160035f906104e7565b90565b346105f4576105d43660046104b1565b6105f06105df6105b5565b6105e7610164565b91829182610511565b0390f35b61016a565b906020828203126106125761060f915f0161018d565b90565b61016e565b90565b61062e61062961063392610176565b610617565b610176565b90565b906106409061061a565b5f5260205260405f2090565b634e487b7160e01b5f525f60045260245ffd5b634e487b7160e01b5f52602260045260245ffd5b9060016002830492168015610693575b602083101461068e57565b61065f565b91607f1691610683565b60209181520190565b5f5260205f2090565b905f92918054906106c96106c283610673565b809461069d565b916001811690815f1461072057506001146106e4575b505050565b6106f191929394506106a6565b915f925b81841061070857505001905f80806106df565b600181602092959395548486015201910192906106f5565b92949550505060ff19168252151560200201905f80806106df565b90610745916106af565b90565b9061076861076192610758610164565b9384809261073b565b038361037d565b565b905f1061077d5761077a90610748565b90565b61064c565b610798906107936009915f92610636565b61076a565b90565b5190565b60209181520190565b90825f9392825e0152565b6107d26107db6020936107e0936107c98161079b565b9384809361079f565b958691016107a8565b61035f565b0190565b6107f99160208201915f8184039101526107b3565b90565b3461082c576108286108176108123660046105f9565b610782565b61081f610164565b918291826107e4565b0390f35b61016a565b9060208282031261084a57610847915f016102e7565b90565b61016e565b3461087d57610867610862366004610831565b611a1b565b61086f610164565b80610879816101fe565b0390f35b61016a565b346108b0576108923660046104b1565b61089a611a4b565b6108a2610164565b806108ac816101fe565b0390f35b61016a565b906108bf9061061a565b5f5260205260405f2090565b90565b6108de9060086108e393026104c0565b6108cb565b90565b906108f191546108ce565b90565b61090a90610905600a915f926108b5565b6108e6565b90565b3461093d576109396109286109233660046105f9565b6108f4565b610930610164565b91829182610271565b0390f35b61016a565b60808183031261099c57610958825f830161018d565b92610966836020840161018d565b9260408301359067ffffffffffffffff82116109975761098b8161099493860161041f565b9360600161018d565b90565b610172565b61016e565b6109aa9061019c565b9052565b9160206109cf9294936109c860408201965f8301906109a1565b0190610264565b565b6109e86109df366004610942565b929190916126cc565b906109fd6109f4610164565b928392836109ae565b0390f35b34610a3157610a113660046104b1565b610a2d610a1c61292b565b610a24610164565b91829182610511565b0390f35b61016a565b67ffffffffffffffff8111610a5457610a5060209161035f565b0190565b610369565b90610a6b610a6683610a36565b6103a6565b918252565b5f7f352e302e30000000000000000000000000000000000000000000000000000000910152565b610aa16005610a59565b90610aae60208301610a70565b565b610ab8610a97565b90565b610ac3610ab0565b90565b610ace610abb565b90565b34610b0157610ae13660046104b1565b610afd610aec610ac6565b610af4610164565b918291826107e4565b0390f35b61016a565b34610b3557610b1f610b19366004610237565b90612c59565b610b27610164565b80610b31816101fe565b0390f35b61016a565b90929192610b4f610b4a82610a36565b6103a6565b93818552602085019082840111610b6b57610b69926103de565b565b61035b565b9080601f83011215610b8e57816020610b8b93359101610b3a565b90565b610357565b608081830312610bed57610ba9825f830161018d565b92610bb7836020840161018d565b9260408301359067ffffffffffffffff8211610be857610bdc81610be5938601610b70565b9360600161018d565b90565b610172565b61016e565b34610c2757610c0e610c05366004610b93565b92919091613121565b90610c23610c1a610164565b928392836109ae565b0390f35b61016a565b34610c5d57610c59610c48610c42366004610237565b9061342b565b610c50610164565b91829182610271565b0390f35b61016a565b34610c9157610c7b610c75366004610237565b9061373c565b610c83610164565b80610c8d816101fe565b0390f35b61016a565b34610cc457610cae610ca9366004610831565b613a3b565b610cb6610164565b80610cc0816101fe565b0390f35b61016a565b90602082820312610cf9575f82013567ffffffffffffffff8111610cf457610cf19201610b70565b90565b610172565b61016e565b905090565b610d28610d1f92602092610d168161079b565b94858093610cfe565b938491016107a8565b0190565b90565b610d3b610d4091610176565b610d2c565b9052565b610d54610d5b9160209493610d03565b8092610d2f565b0190565b610d73610d6a610164565b92839283610d44565b03902090565b610d8291610d5f565b90565b5f1c90565b610d96610d9b91610d85565b6104c4565b90565b610da89054610d8a565b90565b610db6906001610d79565b90610dce6001610dc75f8501610d9e565b9301610d9e565b90565b916020610df2929493610deb60408201965f830190610504565b0190610504565b565b34610e2557610e0c610e07366004610cc9565b610dab565b90610e21610e18610164565b92839283610dd1565b0390f35b61016a565b5f80fd5b91610e3b92919091613dfc565b565b5f90565b60018060a01b031690565b610e58610e5d91610d85565b610e41565b90565b610e6a9054610e4c565b90565b610e81610e7c610e86926102bc565b610617565b6102bc565b90565b610e9290610e6d565b90565b610e9e90610e89565b90565b60e01b90565b5f80fd5b5f80fd5b90505190610ebc82610179565b565b90929192610ed3610ece82610a36565b6103a6565b93818552602085019082840111610eef57610eed926107a8565b565b61035b565b9080601f83011215610f1257816020610f0f93519101610ebe565b90565b610357565b90505190610f24826102d3565b565b60021115610f3057565b5f80fd5b90505190610f4182610f26565b565b60031115610f4d57565b5f80fd5b90505190610f5e82610f43565b565b91909160c08184031261101357610f7760c06103a6565b92610f84815f8401610eaf565b5f850152602082015167ffffffffffffffff811161100e5781610fa8918401610ef4565b602085015260408201519167ffffffffffffffff831161100957610fd182611002948301610ef4565b6040860152610fe38260608301610f17565b6060860152610ff58260808301610f34565b608086015260a001610f51565b60a0830152565b610eab565b610eab565b610ea7565b90602082820312611048575f82015167ffffffffffffffff8111611043576110409201610f60565b90565b610172565b61016e565b611055610164565b3d5f823e3d90fd5b6110679051610176565b90565b5f7f756e617574686f72697a65642063616c6c657200000000000000000000000000910152565b61109e601360209261079f565b6110a78161106a565b0190565b6110c09060208101905f818303910152611091565b90565b156110ca57565b6110d2610164565b62461bcd60e51b8152806110e8600482016110ab565b0390fd5b906110f69061061a565b5f5260205260405f2090565b61110e61111391610d85565b6108cb565b90565b6111209054611102565b90565b9061116e90611130610e3d565b505f61114461113f6007610e60565b610e95565b63ffc9896b906111633392611157610164565b96879485938493610ea1565b835260048301610511565b03915afa80156111e7576111c2936111b16111995f6111b8946111bd9782916111c5575b500161105d565b6111ab6111a584610176565b91610176565b146110c3565b600b6110ec565b6108b5565b611116565b90565b6111e191503d8084833e6111d9818361037d565b810190611018565b5f611192565b61104d565b60401c90565b60ff1690565b611204611209916111ec565b6111f2565b90565b61121690546111f8565b90565b67ffffffffffffffff1690565b61123261123791610d85565b611219565b90565b6112449054611226565b90565b67ffffffffffffffff1690565b90565b61126b61126661127092611254565b610617565b611247565b90565b90565b61128a61128561128f92611273565b610617565b611247565b90565b61129b90610e89565b90565b6112b26112ad6112b792611254565b610617565b610176565b90565b5f1b90565b906112d267ffffffffffffffff916112ba565b9181191691161790565b6112f06112eb6112f592611247565b610617565b611247565b90565b90565b9061131061130b611317926112dc565b6112f8565b82546112bf565b9055565b60401b90565b9061133568ff00000000000000009161131b565b9181191691161790565b6113489061019c565b90565b90565b9061136361135e61136a9261133f565b61134b565b8254611321565b9055565b61137790611276565b9052565b919061138e905f6020850194019061136e565b565b906113996143c9565b916113ae6113a85f850161120c565b1561019c565b916113ba5f850161123a565b806113cd6113c75f611257565b91611247565b14806114e7575b906113e86113e26001611276565b91611247565b14806114bf575b6113fa90911561019c565b90816114ae575b506114925761142a9161141f6114176001611276565b5f87016112fb565b83611480575b61164f565b611432575b50565b61143f905f80910161134e565b60016114777fc7f505b2f371ae2175ee4913f4499e1f2633a7b5936321eed1cdaeb6115181d29161146e610164565b9182918261137b565b0390a15f61142f565b61148d60015f870161134e565b611425565b5f63f92ee8a960e01b8152806114aa600482016101fe565b0390fd5b6114b991501561019c565b5f611401565b506113fa6114cc30611292565b3b6114df6114d95f61129e565b91610176565b1490506113ef565b50836113d4565b6115026114fd61150792611254565b610617565b6102bc565b90565b611513906114ee565b90565b60207f7265737365732073657400000000000000000000000000000000000000000000917f496e76616c696420757365726d616e6167657220636f6e7472616374206164645f8201520152565b611570602a60409261079f565b61157981611516565b0190565b6115929060208101905f818303910152611563565b90565b1561159c57565b6115a4610164565b62461bcd60e51b8152806115ba6004820161157d565b0390fd5b906115cf60018060a01b03916112ba565b9181191691161790565b6115e290610e89565b90565b90565b906115fd6115f8611604926115d9565b6115e5565b82546115be565b9055565b61161190610e6d565b90565b61161d90611608565b90565b61162990611608565b90565b90565b9061164461163f61164b92611620565b61162c565b82546115be565b9055565b61165b61168f926143f2565b611663614407565b6116888161168161167b6116765f61150a565b6102c7565b916102c7565b1415611595565b60046115e8565b6116ab6116a461169f6004610d9e565b611614565b600761162f565b565b906116b791611390565b565b906116cb916116c661441d565b6116cd565b565b906116e0916116db816144cf565b61453f565b565b906116ec916116b9565b565b5f90565b611703906116fe61463d565b611751565b90565b90565b61171d61171861172292611706565b6112ba565b61055b565b90565b61174e7f360894a13ba1a3210667c828492db98dca3e2076cc3735a920a3ca505d382bbc611709565b90565b5061175a611725565b90565b61176d6117686116ee565b6116f2565b90565b6117819061177c61469b565b6119a6565b565b60a01c90565b61179561179a91611783565b6111f2565b90565b6117a79054611789565b90565b60407f7365740000000000000000000000000000000000000000000000000000000000917f45636f6d6d6572636520616e6420757365722d6d616e6167657220636f6e74725f8201527f61637420616464726573736573206861766520616c7265616479206265656e2060208201520152565b61182a604360609261079f565b611833816117aa565b0190565b61184c9060208101905f81830391015261181d565b90565b1561185657565b61185e610164565b62461bcd60e51b81528061187460048201611837565b0390fd5b60207f7373657320736574000000000000000000000000000000000000000000000000917f496e76616c69642065636f6d6d6572636520636f6e74726163742061646472655f8201520152565b6118d2602860409261079f565b6118db81611878565b0190565b6118f49060208101905f8183039101526118c5565b90565b156118fe57565b611906610164565b62461bcd60e51b81528061191c600482016118df565b0390fd5b60a01b90565b9061193560ff60a01b91611920565b9181191691161790565b9061195461194f61195b9261133f565b61134b565b8254611926565b9055565b61196890610e6d565b90565b6119749061195f565b90565b6119809061195f565b90565b90565b9061199b6119966119a292611977565b611983565b82546115be565b9055565b6119fd906119c56119c06119ba600261179d565b1561019c565b61184f565b6119ea816119e36119dd6119d85f61150a565b6102c7565b916102c7565b14156118f7565b6119f66001600261193f565b60036115e8565b611a19611a12611a0d6003610d9e565b61196b565b6006611986565b565b611a2490611770565b565b611a2e61469b565b611a36611a38565b565b611a49611a445f61150a565b6146e9565b565b611a53611a26565b565b5f90565b60207f7272616374207769746820746869732066756e6374696f6e0000000000000000917f6f6e6c792065636f6d6d6572636520636f6e74726163742063616e20696e74655f8201520152565b611ab3603860409261079f565b611abc81611a59565b0190565b611ad59060208101905f818303910152611aa6565b90565b15611adf57565b611ae7610164565b62461bcd60e51b815280611afd60048201611ac0565b0390fd5b60207f6f00000000000000000000000000000000000000000000000000000000000000917f5061796d656e74206d7573742062652067726561746572207468616e207a65725f8201520152565b611b5b602160409261079f565b611b6481611b01565b0190565b611b7d9060208101905f818303910152611b4e565b90565b15611b8757565b611b8f610164565b62461bcd60e51b815280611ba560048201611b68565b0390fd5b60ff1690565b611bb881611ba9565b03611bbf57565b5f80fd5b90505190611bd082611baf565b565b90565b611bde81611bd2565b03611be557565b5f80fd5b90505190611bf682611bd5565b565b9091606082840312611c45575f82015167ffffffffffffffff8111611c4057611c2684611c3d928501610ef4565b93611c348160208601611bc3565b93604001611be9565b90565b610172565b61016e565b5190565b611c62611c5d611c6792611254565b610617565b611bd2565b90565b5f7f496e76616c696420707269636520666574636865642066726f6d206665656400910152565b611c9e601f60209261079f565b611ca781611c6a565b0190565b611cc09060208101905f818303910152611c91565b90565b15611cca57565b611cd2610164565b62461bcd60e51b815280611ce860048201611cab565b0390fd5b611d00611cfb611d0592611bd2565b610617565b610176565b90565b634e487b7160e01b5f52601160045260245ffd5b611d2b611d3191939293610176565b92610176565b91611d3d838202610176565b928184041490151715611d4c57565b611d08565b90565b611d68611d63611d6d92611d51565b610617565b610176565b90565b634e487b7160e01b5f52601260045260245ffd5b611d90611d9691610176565b91610176565b908115611da1570490565b611d70565b611db5611dbb91939293610176565b92610176565b8203918211611dc657565b611d08565b90565b611de2611ddd611de792611dcb565b610617565b611ba9565b90565b611df6611dfc91611ba9565b91611ba9565b90039060ff8211611e0957565b611d08565b611e1790611ba9565b604d8111611e2557600a0a90565b611d08565b60407f6e742c2074727920616761696e00000000000000000000000000000000000000917f746f6f206d75636820646966666572656e6365206265747765656e207061796d5f8201527f656e7420616e642063616c63756c6174656420636865636b6f757420616d6f7560208201520152565b611eaa604d60609261079f565b611eb381611e2a565b0190565b611ecc9060208101905f818303910152611e9d565b90565b15611ed657565b611ede610164565b62461bcd60e51b815280611ef460048201611eb7565b0390fd5b60207f74682074686973207265666572656e6365000000000000000000000000000000917f5061796d656e742068617320616c7265616479206265656e206d6164652077695f8201520152565b611f52603160409261079f565b611f5b81611ef8565b0190565b611f749060208101905f818303910152611f45565b90565b15611f7e57565b611f86610164565b62461bcd60e51b815280611f9c60048201611f5f565b0390fd5b60018060a01b031690565b611fb7611fbc91610d85565b611fa0565b90565b611fc99054611fab565b90565b611fd590610e89565b90565b67ffffffffffffffff8111611ff05760208091020190565b610369565b5f80fd5b63ffffffff1690565b61200b81611ff9565b0361201257565b5f80fd5b9050519061202382612002565b565b6005111561202f57565b5f80fd5b9050519061204082612025565b565b919060c0838203126120c4576120bd9061205c60c06103a6565b93612069825f8301610eaf565b5f86015261207a8260208301610eaf565b602086015261208c8260408301612016565b604086015261209e8260608301610eaf565b60608601526120b08260808301612033565b608086015260a001610eaf565b60a0830152565b610ea7565b909291926120de6120d982611fd8565b6103a6565b9381855260c060208601920283019281841161211d57915b8383106121035750505050565b602060c0916121128486612042565b8152019201916120f6565b611ff5565b9080601f830112156121405781602061213d935191016120c9565b90565b610357565b90602082820312612175575f82015167ffffffffffffffff81116121705761216d9201612122565b90565b610172565b61016e565b906121849061061a565b5f5260205260405f2090565b60200190565b5490565b6121a5906006611d1c565b90565b5f5260205f2090565b1b90565b919060086121d09102916121ca5f19846121b1565b926121b1565b9181191691161790565b90565b91906121f36121ee6121fb9361061a565b6121da565b9083546121b5565b9055565b6122119161220b610e3d565b916121dd565b565b5f600561225292612226838083016121ff565b61223383600183016121ff565b82600282015561224683600383016121ff565b826004820155016121ff565b565b905f036122665761226490612213565b565b61064c565b5b818110612277575050565b806122845f600693612254565b0161226c565b9091828110612299575b505050565b6122b76122b16122ab6122c29561219a565b9261219a565b926121a8565b91820191019061226b565b5f8080612294565b906801000000000000000081116122f357816122e86122f193612196565b9082815561228a565b565b610369565b5190565b5190565b9061230c5f19916112ba565b9181191691161790565b9061232b6123266123329261061a565b6121da565b8254612300565b9055565b6123409051611ff9565b90565b9061235263ffffffff916112ba565b9181191691161790565b61237061236b61237592611ff9565b610617565b611ff9565b90565b90565b9061239061238b6123979261235c565b612378565b8254612343565b9055565b634e487b7160e01b5f52602160045260245ffd5b600511156123b957565b61239b565b906123c8826123af565b565b6123d490516123be565b90565b906123e360ff916112ba565b9181191691161790565b6123f6906123be565b90565b90565b9061241161240c612418926123ed565b6123f9565b82546123d7565b9055565b906124ab60a060056124b19461243f5f82016124395f880161105d565b90612316565b612458600182016124526020880161105d565b90612316565b6124716002820161246b60408801612336565b9061237b565b61248a600382016124846060880161105d565b90612316565b6124a36004820161249d608088016123ca565b906123fc565b01920161105d565b90612316565b565b906124bd9161241c565b565b6124e46124de6124ce846122f8565b936124d985856122ca565b612190565b916121a8565b5f915b8383106124f45750505050565b600660208261250d6125076001956122fc565b866124b3565b019201920191906124e7565b90612523916124bf565b565b61253461253a91939293610176565b92610176565b820180921161254557565b611d08565b601f602091010490565b5b818110612560575050565b8061256d5f6001936121ff565b01612555565b9190601f8111612583575b505050565b61258f6125b4936106a6565b90602061259b8461254a565b830193106125bc575b6125ad9061254a565b0190612554565b5f808061257e565b91506125ad819290506125a4565b906125da905f19906008026104c0565b191690565b816125e9916125ca565b906002021790565b906125fb8161079b565b9067ffffffffffffffff82116126bb5761261f826126198554610673565b85612573565b602090601f831160011461265357918091612642935f92612647575b50506125df565b90555b565b90915001515f8061263b565b601f19831691612662856106a6565b925f5b8181106126a357509160029391856001969410612689575b50505002019055612645565b612699910151601f8416906125ca565b90555f808061267d565b91936020600181928787015181550195019201612665565b610369565b906126ca916125f1565b565b906127e86127d66127e16127db61274c6127d1979998996126eb611a55565b506126f4610e3d565b5061271a3361271461270e6127096003610d9e565b6102c7565b916102c7565b14611ad8565b6127363461273061272a5f61129e565b91610176565b11611b80565b602061274182611c4a565b818301019101611bf8565b94919890949661276e886127686127625f611c4e565b91611bd2565b13611cc3565b61279b6127843461277e8b611cec565b90611d1c565b612795670de0b6b3a7640000611d54565b90611d84565b806127ae6127a884610176565b91610176565b115f1461291957906127bf91611da6565b5b946127cb6002611dce565b90611dea565b611e0e565b610176565b91610176565b1115611ecf565b6128216128096128046127fd600886906110ec565b88906108b5565b611116565b61281b6128155f61129e565b91610176565b14611f77565b6128615f6128376128326006611fbf565b611fcc565b63ffb1055190612856869261284a610164565b95869485938493610ea1565b835260048301610271565b03915afa938415612914576128c56128db946128976128ec976128d6955f916128f2575b50612892600d8c9061217a565b612519565b6128bf6128b06128a9349360086110ec565b8b906108b5565b916128ba83611116565b612525565b90612316565b6128d160098890610636565b6126c0565b611cec565b6128e7600a85906108b5565b612316565b60019190565b61290e91503d805f833e612906818361037d565b810190612145565b5f612885565b61104d565b61292291611da6565b6127c0565b5f90565b612933612927565b506129465f612940614755565b01610d9e565b90565b5f7f7061796d656e74207265666572656e6365206973206e6f742076616c69640000910152565b61297d601e60209261079f565b61298681612949565b0190565b61299f9060208101905f818303910152612970565b90565b156129a957565b6129b1610164565b62461bcd60e51b8152806129c76004820161298a565b0390fd5b60016129d79101610176565b90565b634e487b7160e01b5f52603260045260245ffd5b5f5260205f2090565b612a0081612196565b821015612a1a57612a126006916121a8565b910201905f90565b6129da565b612a33612a2e612a3892611273565b610617565b610176565b90565b5f7f50726f64756374206e6f7420666f756e6420696e206361727400000000000000910152565b612a6f601960209261079f565b612a7881612a3b565b0190565b612a919060208101905f818303910152612a62565b90565b15612a9b57565b612aa3610164565b62461bcd60e51b815280612ab960048201612a7c565b0390fd5b60207f20666f722063616e63656c6c6174696f6e000000000000000000000000000000917f6f6e6c792073656c6c6572206f662070726f647563742063616e206f726465725f8201520152565b612b17603160409261079f565b612b2081612abd565b0190565b612b399060208101905f818303910152612b0a565b90565b15612b4357565b612b4b610164565b62461bcd60e51b815280612b6160048201612b24565b0390fd5b60ff1690565b612b77612b7c91610d85565b612b65565b90565b612b899054612b6b565b90565b5f7f4f726465722068617320616c7265616479206265656e2070726f636573736564910152565b612bbf6020809261079f565b612bc881612b8c565b0190565b612be19060208101905f818303910152612bb3565b90565b15612beb57565b612bf3610164565b62461bcd60e51b815280612c0960048201612bcc565b0390fd5b90612c179061061a565b5f5260205260405f2090565b90612c2d9061061a565b5f5260205260405f2090565b90612c4e612c49612c559261133f565b61134b565b82546123d7565b9055565b90612c89612c71612c6c600d859061217a565b612196565b612c83612c7d5f61129e565b91610176565b116129a2565b612cc95f612c9f612c9a6007610e60565b610e95565b63ffc9896b90612cbe3392612cb2610164565b95869485938493610ea1565b835260048301610511565b03915afa908115612eee575f91612ecc575b50612ce55f61129e565b5b80612d0c612d06612d01612cfc600d899061217a565b612196565b610176565b91610176565b1015612ec357612d346001612d2d612d26600d889061217a565b84906129f7565b5001611116565b612d46612d4085610176565b91610176565b145f14612e7257612e1c91612e165f92612d9c612d7a85612d73612d6c600d8c9061217a565b85906129f7565b5001611116565b612d96612d90612d8b88880161105d565b610176565b91610176565b14612b3c565b612dd9612dc16004612dba612db3600d8c9061217a565b85906129f7565b5001612b7f565b612dd3612dcd876123be565b916123be565b14612be4565b612e11600191612e0b6001612e04612df3600c8d90612c0d565b93612dff8d600d61217a565b6129f7565b5001611116565b90612c23565b612c39565b0161105d565b91612e59612e53612e4d7fb73a959f168ce29d0efed71a00f7fa9898846ace32c3f34d020ecdb8a9c8725b9561061a565b9261061a565b9261061a565b92612e62610164565b80612e6c816101fe565b0390a45b565b80612eb9612ebe92612eb2612eac612ea7612e97612e92600d8c9061217a565b612196565b612ea16001612a1f565b90611da6565b610176565b91610176565b1415612a94565b6129cb565b612ce6565b50505050612e70565b612ee891503d805f833e612ee0818361037d565b810190611018565b5f612cdb565b61104d565b612efc90610e6d565b90565b612f0890612ef3565b90565b612f1490612ef3565b90565b90565b90612f2f612f2a612f3692612f0b565b612f17565b82546115be565b9055565b612f4390610e89565b90565b90602082820312612f5f57612f5c915f01611bc3565b90565b61016e565b60018060a01b031690565b612f7b612f8091610d85565b612f64565b90565b612f8d9054612f6f565b90565b69ffffffffffffffffffff1690565b612fa881612f90565b03612faf57565b5f80fd5b90505190612fc082612f9f565b565b919060a08382031261301357612fda815f8501612fb3565b92612fe88260208301611be9565b92613010612ff98460408501610eaf565b936130078160608601610eaf565b93608001612fb3565b90565b61016e565b90565b61302f61302a61303492613018565b610617565b611ba9565b90565b61304b61304661305092611ba9565b610617565b610176565b90565b60407f616761696e206f72207573652045746820746f20706179000000000000000000917f736f7272792c206f6e636861696e2076616c7565206f662055534420697320745f8201527f6f6f206c6f7720617420746869732074696d652c20706c65617365207472792060208201520152565b6130d3605760609261079f565b6130dc81613053565b0190565b6130f59060208101905f8183039101526130c6565b90565b156130ff57565b613107610164565b62461bcd60e51b81528061311d600482016130e0565b0390fd5b906131c79291949394613132611a55565b5061313b610e3d565b506131613361315b6131556131506003610d9e565b6102c7565b916102c7565b14611ad8565b61318961318261317d5f61317760018890610d79565b01610d9e565b612eff565b6005612f1a565b60206131b16131ac6131a75f6131a160018990610d79565b01610d9e565b612eff565b612f3a565b63313ce567906131bf610164565b968792610ea1565b825281806131d7600482016101fe565b03915afa801561342657613217945f916133f8575b5060a06132016131fc6005612f83565b612f3a565b63feaf968c9061320f610164565b978892610ea1565b82528180613227600482016101fe565b03915afa9081156133f3576132aa6132a461329e6132b194613327995f809290506133c2575b5061326a8161326461325e5f611c4e565b91611bd2565b13611cc3565b61329961329361328c61328788613281600361301b565b90611dea565b611e0e565b9692611cec565b91613037565b611da6565b92610176565b91610176565b11156130f8565b6132ea6132d26132cd6132c6600885906110ec565b89906108b5565b611116565b6132e46132de5f61129e565b91610176565b14611f77565b5f6132fd6132f86006611fbf565b611fcc565b63ffb105519061331c8492613310610164565b98899485938493610ea1565b835260048301610271565b03915afa9182156133bd5761336f61336861337e9261336061338496613395995f9161339b575b5061335b600d8d9061217a565b612519565b9360086110ec565b88906108b5565b9161337983611116565b612525565b90612316565b61339060098590610636565b6126c0565b60019190565b6133b791503d805f833e6133af818361037d565b810190612145565b5f61334e565b61104d565b6133e3915060a03d81116133ec575b6133db818361037d565b810190612fc2565b5050509061324d565b503d6133d1565b61104d565b613419915060203d811161341f575b613411818361037d565b810190612f46565b5f6131ec565b503d613407565b61104d565b9061347690613438610e3d565b505f61344c6134476007610e60565b610e95565b63ffc9896b9061346b339261345f610164565b96879485938493610ea1565b835260048301610511565b03915afa80156134ef576134ca936134b96134a15f6134c0946134c59782916134cd575b500161105d565b6134b36134ad84610176565b91610176565b146110c3565b60086110ec565b6108b5565b611116565b90565b6134e991503d8084833e6134e1818361037d565b810190611018565b5f61349a565b61104d565b6134fe90516102c7565b90565b5f7f756e6174686f72697a65642063616c6c65720000000000000000000000000000910152565b613535601260209261079f565b61353e81613501565b0190565b6135579060208101905f818303910152613528565b90565b1561356157565b613569610164565b62461bcd60e51b81528061357f60048201613542565b0390fd5b60207f6c00000000000000000000000000000000000000000000000000000000000000917f4e6f2066756e647320617661696c61626c6520666f72207769746864726177615f8201520152565b6135dd602160409261079f565b6135e681613583565b0190565b6135ff9060208101905f8183039101526135d0565b90565b1561360957565b613611610164565b62461bcd60e51b815280613627600482016135ea565b0390fd5b90565b60200190565b5f7f4554480000000000000000000000000000000000000000000000000000000000910152565b6136656003610a59565b9061367260208301613634565b565b61367c61365b565b90565b61368890610e6d565b90565b6136949061367f565b90565b6136a09061367f565b90565b90565b906136bb6136b66136c292613697565b6136a3565b82546115be565b9055565b60018060a01b031690565b6136dd6136e291610d85565b6136c6565b90565b6136ef90546136d1565b90565b6136fb90610e6d565b90565b613707906136f2565b90565b61371390610e89565b90565b9291602061373261373a9360408701908782035f8901526107b3565b940190610264565b565b9061377d5f61375361374e6007610e60565b610e95565b63ffc9896b906137723392613766610164565b95869485938493610ea1565b835260048301610511565b03915afa9081156139d1575f916139af575b50906137b8336137b26137ac6137a7606087016134f4565b6102c7565b916102c7565b1461355a565b6137fc6137e36137de6137d7600b6137d15f880161105d565b906110ec565b86906108b5565b611116565b6137f56137ef84610176565b91610176565b1015613602565b6138388161383261382361381c600b6138165f890161105d565b906110ec565b87906108b5565b9161382d83611116565b611da6565b90612316565b6138748161386e61385f61385860086138525f890161105d565b906110ec565b87906108b5565b9161386983611116565b611da6565b90612316565b61387d8361478a565b916138878361362b565b61389961389382611c4a565b9161362e565b206138c66138c06138a8613674565b6138ba6138b482611c4a565b9161362e565b2061055b565b9161055b565b145f14613968575f8080806138e26138dd336136fe565b61370a565b869082821561395f575bf11561395a575f6138fe915b0161105d565b91929091429261394061393a6139347f83bfaf2f1db730ccd55c38b4774b1deae31bb283b0a139ac6820aa82c266e0099461061a565b9461061a565b9461061a565b9461395561394c610164565b92839283613716565b0390a4565b61104d565b506108fc6138ec565b5f6138fe9161399561398e6139896001613983818a90610d79565b01610d9e565b61368b565b60026136a6565b6139aa6139a260026136e5565b3386916147a9565b6138f8565b6139cb91503d805f833e6139c3818361037d565b810190611018565b5f61378f565b61104d565b6139e7906139e261469b565b6139e9565b565b80613a046139fe6139f95f61150a565b6102c7565b916102c7565b14613a1457613a12906146e9565b565b613a37613a205f61150a565b5f918291631e4fbdf760e01b835260048301610511565b0390fd5b613a44906139d6565b565b90613a50826122f8565b811015613a61576020809102010190565b6129da565b60407f6972206f776e2070726f64756374000000000000000000000000000000000000917f6d616c6963696f757320616374696f6e2064657465637465642c2073656c6c655f8201527f722063616e6e6f7420636f6e6669726d2064656c6976657279206f662074686560208201520152565b613ae6604e60609261079f565b613aef81613a66565b0190565b613b089060208101905f818303910152613ad9565b90565b15613b1257565b613b1a610164565b62461bcd60e51b815280613b3060048201613af3565b0390fd5b60207f6e2070726f63657373696e672073746174650000000000000000000000000000917f4f7264657220616c72656164792064656c697665726564206f72206e6f7420695f8201520152565b613b8e603260409261079f565b613b9781613b34565b0190565b613bb09060208101905f818303910152613b81565b90565b15613bba57565b613bc2610164565b62461bcd60e51b815280613bd860048201613b9b565b0390fd5b90565b60209181520190565b905f9291805490613c02613bfb83610673565b8094613bdf565b916001811690815f14613c595750600114613c1d575b505050565b613c2a91929394506129ee565b915f925b818410613c4157505001905f8080613c18565b60018160209295939554848601520191019290613c2e565b92949550505060ff19168252151560200201905f8080613c18565b90613c7e91613be8565b90565b90613ca1613c9a92613c91610164565b93848092613c74565b038361037d565b565b613cac90613c81565b90565b613cc3613cbe613cc892611ff9565b610617565b610176565b90565b90565b613ce2613cdd613ce792613ccb565b610617565b610176565b90565b613cf6613cfb91610d85565b6111f2565b90565b613d089054613cea565b90565b60407f63656c206f726465720000000000000000000000000000000000000000000000917f706c65617365207761697420666f722064656c69766572792074696d6520746f5f8201527f20657870697265206f7220636f6e746163742073656c6c657220746f2063616e60208201520152565b613d8b604960609261079f565b613d9481613d0b565b0190565b613dad9060208101905f818303910152613d7e565b90565b15613db757565b613dbf610164565b62461bcd60e51b815280613dd560048201613d98565b0390fd5b90613de3906123be565b9052565b9190613dfa905f602085019401906109a1565b565b9190613e3e5f613e14613e0f6007610e60565b610e95565b63ffc9896b90613e333392613e27610164565b95869485938493610ea1565b835260048301610511565b03915afa9081156143c4575f916143a2575b50613e7833613e72613e6c613e67606086016134f4565b6102c7565b916102c7565b1461355a565b613ec25f613e8e613e896006611fbf565b611fcc565b63ffb1055190613eb7613ea284870161105d565b92613eab610164565b95869485938493610ea1565b835260048301610271565b03915afa90811561439d575f9161437b575b50613ede5f61129e565b5b80613efa613ef4613eef856122f8565b610176565b91610176565b101561437057613f176020613f10848490613a46565b510161105d565b613f29613f2386610176565b91610176565b145f1461432a57918161417e93613f73613f505f613f4981978590613a46565b510161105d565b613f6c613f66613f6188880161105d565b610176565b91610176565b1415613b0b565b613fa5613f8d6080613f86858590613a46565b51016123ca565b613f9f613f99876123be565b916123be565b14613bb3565b613fad610e3d565b50613fca613fc5613fc060098b90610636565b613bdc565b613ca3565b613fdc613fd682611c4a565b9161362e565b20614009614003613feb613674565b613ffd613ff782611c4a565b9161362e565b2061055b565b9161055b565b1484146142e65761408661406c6140556140306060614029878790613a46565b510161105d565b61404f61404a6040614043898990613a46565b5101612336565b613caf565b90611d1c565b614066670de0b6b3a7640000611d54565b90611d1c565b61408061407b600a8c906108b5565b611116565b90611d84565b5b88848987146141d957846141558861414e614171966141458961413f6141306141629a6141096141779f9b6140cf61415b9d60806140c86002928a90613a46565b5101613dd9565b6141036140f46140ed8a936140e78e6008920161105d565b906110ec565b85906108b5565b916140fe83611116565b611da6565b90612316565b61412b8a6141258a61411e8a98600894613a46565b510161105d565b906110ec565b6108b5565b9161413a83611116565b612525565b90612316565b97600b94613a46565b510161105d565b906110ec565b8a906108b5565b9161416c83611116565b612525565b90612316565b5b0161105d565b929091926141d36141c16141bb6141b57fc1f96a05ced092e8aafbb763b07d4019a5948ba4d96a68f2bc092a53dbc041029461061a565b9461061a565b9461061a565b946141ca610164565b91829182613de7565b0390a45b565b5092608061424161424893946142396142bc978c61421761420760a06142008a8890613a46565b510161105d565b614211603c613cce565b90612525565b61422961422342610176565b91610176565b109182156142c1575b5050613db0565b600393613a46565b5101613dd9565b6142848161427e61426f61426860086142628a8a0161105d565b906110ec565b8c906108b5565b9161427983611116565b611da6565b90612316565b6142b66142a76142a0600b61429a88880161105d565b906110ec565b8a906108b5565b916142b183611116565b612525565b90612316565b614178565b6142df9250906142d56142da92600c612c0d565b612c23565b613cfe565b8c8f614232565b61432561430060606142f9858590613a46565b510161105d565b61431f61431a6040614313878790613a46565b5101612336565b613caf565b90611d1c565b614087565b8061436661436b9261435f614359614354614344886122f8565b61434e6001612a1f565b90611da6565b610176565b91610176565b1415612a94565b6129cb565b613edf565b5050505050506141d7565b61439791503d805f833e61438f818361037d565b810190612145565b5f613ed4565b61104d565b6143be91503d805f833e6143b6818361037d565b810190611018565b5f613e50565b61104d565b6143d1614803565b90565b6143e5906143e0614817565b6143e7565b565b6143f0906148af565b565b6143fb906143d4565b565b614405614817565b565b61440f6143fd565b565b61441a90610e89565b90565b61442630614411565b6144586144527f00000000000000000000000000000000000000000000000000000000000000006102c7565b916102c7565b148015614482575b61446657565b5f63703e46dd60e11b81528061447e600482016101fe565b0390fd5b5061448b6148ba565b6144bd6144b77f00000000000000000000000000000000000000000000000000000000000000006102c7565b916102c7565b1415614460565b506144cd61469b565b565b6144d8906144c4565b565b6144e390610e6d565b90565b6144ef906144da565b90565b6144fb90610e89565b90565b6145078161055b565b0361450e57565b5f80fd5b9050519061451f826144fe565b565b9060208282031261453a57614537915f01614512565b90565b61016e565b919061456d6020614557614552866144e6565b6144f2565b6352d1902d90614565610164565b938492610ea1565b8252818061457d600482016101fe565b03915afa80915f9261460d575b50155f146145be57505090600161459f57505b565b6145ba905f918291634c9c8ce360e01b835260048301610511565b0390fd5b92836145d96145d36145ce611725565b61055b565b9161055b565b036145ee576145e99293506148e0565b61459d565b614609845f918291632a87526960e21b83526004830161056b565b0390fd5b61462f91925060203d8111614636575b614627818361037d565b810190614521565b905f61458a565b503d61461d565b61464630614411565b6146786146727f00000000000000000000000000000000000000000000000000000000000000006102c7565b916102c7565b0361467f57565b5f63703e46dd60e11b815280614697600482016101fe565b0390fd5b6146a361292b565b6146bc6146b66146b1614969565b6102c7565b916102c7565b036146c357565b6146e56146ce614969565b5f91829163118cdaa760e01b835260048301610511565b0390fd5b6146f1614755565b6147096146ff5f8301610d9e565b915f8491016115e8565b9061473d6147377f8be0079c531659141344cd1fd0a4f28419497f9722a3daafe3b4186f6b6457e0936115d9565b916115d9565b91614746610164565b80614750816101fe565b0390a3565b7f9016d09d72d40fdae2fd8ceac6b6234c7706214fd39c1cd1e609a0528c19930090565b606090565b61478790610748565b90565b6147a16147a691614799614779565b506009610636565b61477e565b90565b916147b6929190916149cd565b565b90565b6147cf6147ca6147d4926147b8565b6112ba565b61055b565b90565b6148007ff0c57e16840df040f15088dc2f81fe391c3923bec73e23a9662efc9c229c6a006147bb565b90565b61480b6116ee565b506148146147d7565b90565b614828614822614a1b565b1561019c565b61482e57565b5f631afcd79f60e31b815280614846600482016101fe565b0390fd5b61485b90614856614817565b61485d565b565b8061487861487261486d5f61150a565b6102c7565b916102c7565b1461488857614886906146e9565b565b6148ab6148945f61150a565b5f918291631e4fbdf760e01b835260048301610511565b0390fd5b6148b89061484a565b565b6148c2612927565b506148dd5f6148d76148d2611725565b614a39565b01610d9e565b90565b906148ea82614a3c565b816149157fbc7cd75a20ee27fd9adebab32041f755214dbc6bffa90cc0225b39da2e5c2d3b916115d9565b9061491e610164565b80614928816101fe565b0390a261493481611c4a565b6149466149405f61129e565b91610176565b115f1461495a5761495691614b0c565b505b565b5050614964614a91565b614958565b614971612927565b503390565b61497f90610e89565b90565b63ffffffff60e01b1690565b6149a261499d6149a792611ff9565b610ea1565b614982565b90565b9160206149cb9294936149c460408201965f830190610504565b0190610264565b565b90614a14614a1993614a05600494936149ec63a9059cbb91939161498e565b926149f5610164565b96879460208601908152016149aa565b6020820181038252038361037d565b614b3b565b565b614a23611a55565b50614a365f614a306143c9565b0161120c565b90565b90565b803b614a50614a4a5f61129e565b91610176565b14614a7257614a70905f614a6a614a65611725565b614a39565b016115e8565b565b614a8d905f918291634c9c8ce360e01b835260048301610511565b0390fd5b34614aa4614a9e5f61129e565b91610176565b11614aab57565b5f63b398979f60e01b815280614ac3600482016101fe565b0390fd5b606090565b90614ade614ad9836103bb565b6103a6565b918252565b3d5f14614afe57614af33d614acc565b903d5f602084013e5b565b614b06614ac7565b90614afc565b5f80614b3893614b1a614ac7565b508390602081019051915af490614b2f614ae3565b90919091614bef565b90565b905f602091614b48610e3d565b50614b51610e3d565b50828151910182855af115614be4573d5f5190614b76614b705f61129e565b91610176565b145f14614bca5750614b8781614976565b3b614b9a614b945f61129e565b91610176565b145b614ba35750565b614baf614bc691614976565b5f918291635274afe760e01b835260048301610511565b0390fd5b614bdd614bd76001612a1f565b91610176565b1415614b9c565b6040513d5f823e3d90fd5b90614c0390614bfc614ac7565b501561019c565b5f14614c0f5750614c73565b614c1882611c4a565b614c2a614c245f61129e565b91610176565b1480614c58575b614c39575090565b614c54905f918291639996b31560e01b835260048301610511565b0390fd5b50803b614c6d614c675f61129e565b91610176565b14614c31565b614c7c81611c4a565b614c8e614c885f61129e565b91610176565b115f14614c9d57805190602001fd5b5f63d6bda27560e01b815280614cb5600482016101fe565b0390fdfea26469706673582212205c72cbf84ec93f9b2d0b6e83083bfc7034152676b9c55c2264e9f259b2ae0d0264736f6c634300081c0033","linkReferences":{}},"methodIdentifiers":{"UPGRADE_INTERFACE_VERSION()":"ad3cb1cc","ecommercePlatform()":"5fa77380","getWalletBalance(uint256,uint256)":"d42e4946","getWithdrawableBalance(uint256,uint256)":"45da5cc1","initialize(address,address)":"485cc955","owner()":"8da5cb5b","payForItemsWithETH(uint256,uint256,bytes,uint256)":"883723a4","payForItemsWithUsd(uint256,uint256,string,uint256)":"d3d4d305","paymentRefToToken(uint256)":"62eb9950","proxiableUUID()":"52d1902d","renounceOwnership()":"715018a6","sellerCancelDelivery(uint256,uint256)":"bcbf0b92","setEcommercePlatform(address)":"6e99f498","tokenPriceAtcheckout(uint256)":"85fb7f67","tokenSymbolToDetails(string)":"f661f44c","transferOwnership(address)":"f2fde38b","updateDeliveryStatus(uint256,uint256,bool)":"3384575c","upgradeToAndCall(address,bytes)":"4f1ef286","userContract()":"5000596b","withdrawFunds(uint256,uint256)":"e5253105"},"storageLayout":{"storage":[{"astId":37954,"contract":"src/Escrow.sol:Escrow","label":"isAccepted","offset":0,"slot":"0","type":"t_mapping(t_string_memory_ptr,t_bool)"},{"astId":37959,"contract":"src/Escrow.sol:Escrow","label":"tokenSymbolToDetails","offset":0,"slot":"1","type":"t_mapping(t_string_memory_ptr,t_struct(Token)37917_storage)"},{"astId":38113,"contract":"src/Escrow.sol:Escrow","label":"erc20","offset":0,"slot":"2","type":"t_contract(IERC20)36694"},{"astId":38975,"contract":"src/Escrow.sol:Escrow","label":"isEcommAndUserManagerProxySet","offset":20,"slot":"2","type":"t_bool"},{"astId":38977,"contract":"src/Escrow.sol:Escrow","label":"ecommercePlatform","offset":0,"slot":"3","type":"t_address"},{"astId":38979,"contract":"src/Escrow.sol:Escrow","label":"userContract","offset":0,"slot":"4","type":"t_address"},{"astId":38982,"contract":"src/Escrow.sol:Escrow","label":"pricefeed","offset":0,"slot":"5","type":"t_contract(AggregatorV3Interface)45"},{"astId":38985,"contract":"src/Escrow.sol:Escrow","label":"ecommInterface","offset":0,"slot":"6","type":"t_contract(IShop)40963"},{"astId":38988,"contract":"src/Escrow.sol:Escrow","label":"userInterface","offset":0,"slot":"7","type":"t_contract(IUser)40998"},{"astId":38994,"contract":"src/Escrow.sol:Escrow","label":"userBalance","offset":0,"slot":"8","type":"t_mapping(t_uint256,t_mapping(t_uint256,t_uint256))"},{"astId":38998,"contract":"src/Escrow.sol:Escrow","label":"paymentRefToToken","offset":0,"slot":"9","type":"t_mapping(t_uint256,t_string_storage)"},{"astId":39002,"contract":"src/Escrow.sol:Escrow","label":"tokenPriceAtcheckout","offset":0,"slot":"10","type":"t_mapping(t_uint256,t_uint256)"},{"astId":39008,"contract":"src/Escrow.sol:Escrow","label":"withdrawableBalance","offset":0,"slot":"11","type":"t_mapping(t_uint256,t_mapping(t_uint256,t_uint256))"},{"astId":39014,"contract":"src/Escrow.sol:Escrow","label":"letBuyerCancel","offset":0,"slot":"12","type":"t_mapping(t_uint256,t_mapping(t_uint256,t_bool))"},{"astId":39020,"contract":"src/Escrow.sol:Escrow","label":"trxToCart","offset":0,"slot":"13","type":"t_mapping(t_uint256,t_array(t_struct(OrderItem)37912_storage)dyn_storage)"}],"types":{"t_address":{"encoding":"inplace","label":"address","numberOfBytes":"20"},"t_array(t_struct(OrderItem)37912_storage)dyn_storage":{"encoding":"dynamic_array","label":"struct OrderItem[]","numberOfBytes":"32","base":"t_struct(OrderItem)37912_storage"},"t_bool":{"encoding":"inplace","label":"bool","numberOfBytes":"1"},"t_contract(AggregatorV3Interface)45":{"encoding":"inplace","label":"contract AggregatorV3Interface","numberOfBytes":"20"},"t_contract(IERC20)36694":{"encoding":"inplace","label":"contract IERC20","numberOfBytes":"20"},"t_contract(IShop)40963":{"encoding":"inplace","label":"contract IShop","numberOfBytes":"20"},"t_contract(IUser)40998":{"encoding":"inplace","label":"contract IUser","numberOfBytes":"20"},"t_enum(OrderStatus)37898":{"encoding":"inplace","label":"enum OrderStatus","numberOfBytes":"1"},"t_mapping(t_string_memory_ptr,t_bool)":{"encoding":"mapping","key":"t_string_memory_ptr","label":"mapping(string => bool)","numberOfBytes":"32","value":"t_bool"},"t_mapping(t_string_memory_ptr,t_struct(Token)37917_storage)":{"encoding":"mapping","key":"t_string_memory_ptr","label":"mapping(string => struct Token)","numberOfBytes":"32","value":"t_struct(Token)37917_storage"},"t_mapping(t_uint256,t_array(t_struct(OrderItem)37912_storage)dyn_storage)":{"encoding":"mapping","key":"t_uint256","label":"mapping(uint256 => struct OrderItem[])","numberOfBytes":"32","value":"t_array(t_struct(OrderItem)37912_storage)dyn_storage"},"t_mapping(t_uint256,t_bool)":{"encoding":"mapping","key":"t_uint256","label":"mapping(uint256 => bool)","numberOfBytes":"32","value":"t_bool"},"t_mapping(t_uint256,t_mapping(t_uint256,t_bool))":{"encoding":"mapping","key":"t_uint256","label":"mapping(uint256 => mapping(uint256 => bool))","numberOfBytes":"32","value":"t_mapping(t_uint256,t_bool)"},"t_mapping(t_uint256,t_mapping(t_uint256,t_uint256))":{"encoding":"mapping","key":"t_uint256","label":"mapping(uint256 => mapping(uint256 => uint256))","numberOfBytes":"32","value":"t_mapping(t_uint256,t_uint256)"},"t_mapping(t_uint256,t_string_storage)":{"encoding":"mapping","key":"t_uint256","label":"mapping(uint256 => string)","numberOfBytes":"32","value":"t_string_storage"},"t_mapping(t_uint256,t_uint256)":{"encoding":"mapping","key":"t_uint256","label":"mapping(uint256 => uint256)","numberOfBytes":"32","value":"t_uint256"},"t_string_memory_ptr":{"encoding":"bytes","label":"string","numberOfBytes":"32"},"t_string_storage":{"encoding":"bytes","label":"string","numberOfBytes":"32"},"t_struct(OrderItem)37912_storage":{"encoding":"inplace","label":"struct OrderItem","numberOfBytes":"192","members":[{"astId":37900,"contract":"src/Escrow.sol:Escrow","label":"sellerId","offset":0,"slot":"0","type":"t_uint256"},{"astId":37902,"contract":"src/Escrow.sol:Escrow","label":"productId","offset":0,"slot":"1","type":"t_uint256"},{"astId":37904,"contract":"src/Escrow.sol:Escrow","label":"qty","offset":0,"slot":"2","type":"t_uint32"},{"astId":37906,"contract":"src/Escrow.sol:Escrow","label":"unitPrice","offset":0,"slot":"3","type":"t_uint256"},{"astId":37909,"contract":"src/Escrow.sol:Escrow","label":"orderStatus","offset":0,"slot":"4","type":"t_enum(OrderStatus)37898"},{"astId":37911,"contract":"src/Escrow.sol:Escrow","label":"_proposedDeliveryTime","offset":0,"slot":"5","type":"t_uint256"}]},"t_struct(Token)37917_storage":{"encoding":"inplace","label":"struct Token","numberOfBytes":"64","members":[{"astId":37914,"contract":"src/Escrow.sol:Escrow","label":"feedAddr","offset":0,"slot":"0","type":"t_address"},{"astId":37916,"contract":"src/Escrow.sol:Escrow","label":"tokenAddr","offset":0,"slot":"1","type":"t_address"}]},"t_uint256":{"encoding":"inplace","label":"uint256","numberOfBytes":"32"},"t_uint32":{"encoding":"inplace","label":"uint32","numberOfBytes":"4"}}},"id":39}