{"abi":[{"type":"constructor","inputs":[],"stateMutability":"nonpayable"},{"type":"receive","stateMutability":"payable"},{"type":"function","name":"UPGRADE_INTERFACE_VERSION","inputs":[],"outputs":[{"name":"","type":"string","internalType":"string"}],"stateMutability":"view"},{"type":"function","name":"acceptedTokens","inputs":[{"name":"","type":"uint256","internalType":"uint256"}],"outputs":[{"name":"","type":"string","internalType":"string"}],"stateMutability":"view"},{"type":"function","name":"addTokenToAcceptedList","inputs":[{"name":"_tokenAddress","type":"address","internalType":"address"},{"name":"_symbol","type":"string","internalType":"string"},{"name":"_feedAddress","type":"address","internalType":"address"}],"outputs":[],"stateMutability":"nonpayable"},{"type":"function","name":"checkTokenStatusAndDetails","inputs":[{"name":"_symbol","type":"string","internalType":"string"}],"outputs":[{"name":"","type":"bool","internalType":"bool"},{"name":"","type":"tuple","internalType":"struct Token","components":[{"name":"feedAddr","type":"address","internalType":"address"},{"name":"tokenAddr","type":"address","internalType":"address"}]}],"stateMutability":"view"},{"type":"function","name":"delistToken","inputs":[{"name":"_symbol","type":"string","internalType":"string"}],"outputs":[],"stateMutability":"nonpayable"},{"type":"function","name":"ecommercePlatform","inputs":[],"outputs":[{"name":"","type":"address","internalType":"address"}],"stateMutability":"view"},{"type":"function","name":"getAcceptedTokens","inputs":[],"outputs":[{"name":"","type":"string[]","internalType":"string[]"}],"stateMutability":"view"},{"type":"function","name":"getWalletBalance","inputs":[{"name":"_userId","type":"uint256","internalType":"uint256"},{"name":"_payRef","type":"uint256","internalType":"uint256"}],"outputs":[{"name":"","type":"uint256","internalType":"uint256"}],"stateMutability":"view"},{"type":"function","name":"getWithdrawableBalance","inputs":[{"name":"_userId","type":"uint256","internalType":"uint256"},{"name":"_ref","type":"uint256","internalType":"uint256"}],"outputs":[{"name":"","type":"uint256","internalType":"uint256"}],"stateMutability":"view"},{"type":"function","name":"initialize","inputs":[{"name":"_userContractAddress","type":"address","internalType":"address"},{"name":"initialOwner","type":"address","internalType":"address"}],"outputs":[],"stateMutability":"nonpayable"},{"type":"function","name":"isAccepted","inputs":[{"name":"","type":"string","internalType":"string"}],"outputs":[{"name":"","type":"bool","internalType":"bool"}],"stateMutability":"view"},{"type":"function","name":"owner","inputs":[],"outputs":[{"name":"","type":"address","internalType":"address"}],"stateMutability":"view"},{"type":"function","name":"payForItemsWithETH","inputs":[{"name":"_userId","type":"uint256","internalType":"uint256"},{"name":"_bill","type":"uint256","internalType":"uint256"},{"name":"_feedData","type":"bytes","internalType":"bytes"},{"name":"_payRef","type":"uint256","internalType":"uint256"}],"outputs":[{"name":"","type":"bool","internalType":"bool"},{"name":"","type":"uint256","internalType":"uint256"}],"stateMutability":"payable"},{"type":"function","name":"payForItemsWithUsd","inputs":[{"name":"_userId","type":"uint256","internalType":"uint256"},{"name":"bill","type":"uint256","internalType":"uint256"},{"name":"_paymentTokenSymbol","type":"string","internalType":"string"},{"name":"_payRef","type":"uint256","internalType":"uint256"}],"outputs":[{"name":"","type":"bool","internalType":"bool"},{"name":"","type":"uint256","internalType":"uint256"}],"stateMutability":"nonpayable"},{"type":"function","name":"paymentRefToToken","inputs":[{"name":"_paymentRef","type":"uint256","internalType":"uint256"}],"outputs":[{"name":"_symbol","type":"string","internalType":"string"}],"stateMutability":"view"},{"type":"function","name":"proxiableUUID","inputs":[],"outputs":[{"name":"","type":"bytes32","internalType":"bytes32"}],"stateMutability":"view"},{"type":"function","name":"renounceOwnership","inputs":[],"outputs":[],"stateMutability":"nonpayable"},{"type":"function","name":"sellerCancelDelivery","inputs":[{"name":"_payRef","type":"uint256","internalType":"uint256"},{"name":"_productId","type":"uint256","internalType":"uint256"}],"outputs":[],"stateMutability":"nonpayable"},{"type":"function","name":"setEcommercePlatform","inputs":[{"name":"_ecommercePlatform","type":"address","internalType":"address"}],"outputs":[],"stateMutability":"nonpayable"},{"type":"function","name":"tokenPriceAtcheckout","inputs":[{"name":"_paymentRef","type":"uint256","internalType":"uint256"}],"outputs":[{"name":"_tokenPrice","type":"uint256","internalType":"uint256"}],"stateMutability":"view"},{"type":"function","name":"tokenSymbolToDetails","inputs":[{"name":"","type":"string","internalType":"string"}],"outputs":[{"name":"feedAddr","type":"address","internalType":"address"},{"name":"tokenAddr","type":"address","internalType":"address"}],"stateMutability":"view"},{"type":"function","name":"transferOwnership","inputs":[{"name":"newOwner","type":"address","internalType":"address"}],"outputs":[],"stateMutability":"nonpayable"},{"type":"function","name":"updateDeliveryStatus","inputs":[{"name":"_payRef","type":"uint256","internalType":"uint256"},{"name":"_productId","type":"uint256","internalType":"uint256"},{"name":"_isDelivered","type":"bool","internalType":"bool"}],"outputs":[],"stateMutability":"nonpayable"},{"type":"function","name":"upgradeToAndCall","inputs":[{"name":"newImplementation","type":"address","internalType":"address"},{"name":"data","type":"bytes","internalType":"bytes"}],"outputs":[],"stateMutability":"payable"},{"type":"function","name":"userContract","inputs":[],"outputs":[{"name":"","type":"address","internalType":"address"}],"stateMutability":"view"},{"type":"function","name":"withdrawFunds","inputs":[{"name":"_payRef","type":"uint256","internalType":"uint256"},{"name":"_amount","type":"uint256","internalType":"uint256"}],"outputs":[],"stateMutability":"nonpayable"},{"type":"event","name":"AccountOwnershipChanged","inputs":[{"name":"_userId","type":"uint256","indexed":true,"internalType":"uint256"},{"name":"_changedBy","type":"address","indexed":false,"internalType":"address"},{"name":"_oldOwner","type":"address","indexed":false,"internalType":"address"},{"name":"_newOwner","type":"address","indexed":false,"internalType":"address"}],"anonymous":false},{"type":"event","name":"CanceledDelivery","inputs":[{"name":"_seller","type":"uint256","indexed":true,"internalType":"uint256"},{"name":"_ref","type":"uint256","indexed":true,"internalType":"uint256"},{"name":"_item","type":"uint256","indexed":true,"internalType":"uint256"}],"anonymous":false},{"type":"event","name":"DeliveryConfirmed","inputs":[{"name":"userId","type":"uint256","indexed":true,"internalType":"uint256"},{"name":"payRef","type":"uint256","indexed":true,"internalType":"uint256"}],"anonymous":false},{"type":"event","name":"DeliveryPending","inputs":[{"name":"userId","type":"uint256","indexed":true,"internalType":"uint256"},{"name":"payRef","type":"uint256","indexed":true,"internalType":"uint256"}],"anonymous":false},{"type":"event","name":"Initialized","inputs":[{"name":"version","type":"uint64","indexed":false,"internalType":"uint64"}],"anonymous":false},{"type":"event","name":"OwnershipTransferred","inputs":[{"name":"previousOwner","type":"address","indexed":true,"internalType":"address"},{"name":"newOwner","type":"address","indexed":true,"internalType":"address"}],"anonymous":false},{"type":"event","name":"PaymentReceived","inputs":[{"name":"userId","type":"uint256","indexed":true,"internalType":"uint256"},{"name":"payRef","type":"uint256","indexed":true,"internalType":"uint256"},{"name":"amount","type":"uint256","indexed":false,"internalType":"uint256"}],"anonymous":false},{"type":"event","name":"ProductOrderStatusUpdated","inputs":[{"name":"_buyer","type":"uint256","indexed":true,"internalType":"uint256"},{"name":"_payref","type":"uint256","indexed":true,"internalType":"uint256"},{"name":"_itemId","type":"uint256","indexed":true,"internalType":"uint256"},{"name":"_delivered","type":"bool","indexed":false,"internalType":"bool"}],"anonymous":false},{"type":"event","name":"ProductpriceUpdate","inputs":[{"name":"_productId","type":"uint256","indexed":true,"internalType":"uint256"},{"name":"_sellerId","type":"uint256","indexed":true,"internalType":"uint256"},{"name":"_newPrice","type":"uint256","indexed":false,"internalType":"uint256"}],"anonymous":false},{"type":"event","name":"ResgisteredAProduct","inputs":[{"name":"_productId","type":"uint256","indexed":true,"internalType":"uint256"},{"name":"_sellerId","type":"uint256","indexed":true,"internalType":"uint256"}],"anonymous":false},{"type":"event","name":"ResgisteredAuser","inputs":[{"name":"_userId","type":"uint256","indexed":true,"internalType":"uint256"}],"anonymous":false},{"type":"event","name":"SuccessfulCheckout","inputs":[{"name":"_userId","type":"uint256","indexed":true,"internalType":"uint256"},{"name":"_paymentRefence","type":"uint256","indexed":true,"internalType":"uint256"},{"name":"_currency","type":"string","indexed":false,"internalType":"string"},{"name":"_amountPaid","type":"uint256","indexed":false,"internalType":"uint256"}],"anonymous":false},{"type":"event","name":"Upgraded","inputs":[{"name":"implementation","type":"address","indexed":true,"internalType":"address"}],"anonymous":false},{"type":"event","name":"VerifiedAuser","inputs":[{"name":"_userId","type":"uint256","indexed":true,"internalType":"uint256"}],"anonymous":false},{"type":"event","name":"WithdrawSuccess","inputs":[{"name":"_userId","type":"uint256","indexed":true,"internalType":"uint256"},{"name":"_tokenSymbol","type":"string","indexed":false,"internalType":"string"},{"name":"_payRef","type":"uint256","indexed":true,"internalType":"uint256"},{"name":"_amount","type":"uint256","indexed":false,"internalType":"uint256"},{"name":"_date","type":"uint256","indexed":true,"internalType":"uint256"}],"anonymous":false},{"type":"error","name":"AddressEmptyCode","inputs":[{"name":"target","type":"address","internalType":"address"}]},{"type":"error","name":"ERC1967InvalidImplementation","inputs":[{"name":"implementation","type":"address","internalType":"address"}]},{"type":"error","name":"ERC1967NonPayable","inputs":[]},{"type":"error","name":"FailedCall","inputs":[]},{"type":"error","name":"InvalidInitialization","inputs":[]},{"type":"error","name":"NotInitializing","inputs":[]},{"type":"error","name":"OwnableInvalidOwner","inputs":[{"name":"owner","type":"address","internalType":"address"}]},{"type":"error","name":"OwnableUnauthorizedAccount","inputs":[{"name":"account","type":"address","internalType":"address"}]},{"type":"error","name":"SafeERC20FailedOperation","inputs":[{"name":"token","type":"address","internalType":"address"}]},{"type":"error","name":"UUPSUnauthorizedCallContext","inputs":[]},{"type":"error","name":"UUPSUnsupportedProxiableUUID","inputs":[{"name":"slot","type":"bytes32","internalType":"bytes32"}]}],"bytecode":{"object":"0x60a06040523461003e5761001161004d565b610019610043565b615b3b6102dc82396080518181816151170152818161517c01526153370152615b3b90f35b610049565b60405190565b5f80fd5b61005561005f565b61005d6101b2565b565b610067610069565b565b6100716100b5565b565b60018060a01b031690565b90565b61009561009061009a92610073565b61007e565b610073565b90565b6100a690610081565b90565b6100b29061009d565b90565b6100be306100a9565b608052565b60401c90565b60ff1690565b6100db6100e0916100c3565b6100c9565b90565b6100ed90546100cf565b90565b5f0190565b5f1c90565b60018060401b031690565b610111610116916100f5565b6100fa565b90565b6101239054610105565b90565b60018060401b031690565b5f1b90565b9061014760018060401b0391610131565b9181191691161790565b61016561016061016a92610126565b61007e565b610126565b90565b90565b9061018561018061018c92610151565b61016d565b8254610136565b9055565b61019990610126565b9052565b91906101b0905f60208501940190610190565b565b6101ba61026a565b6101c55f82016100e3565b61024e576101d45f8201610119565b6101ec6101e660018060401b03610126565b91610126565b036101f5575b50565b610208905f60018060401b039101610170565b60018060401b036102457fc7f505b2f371ae2175ee4913f4499e1f2633a7b5936321eed1cdaeb6115181d29161023c610043565b9182918261019d565b0390a15f6101f2565b5f63f92ee8a960e01b815280610266600482016100f0565b0390fd5b6102726102c7565b90565b5f90565b90565b90565b61029361028e61029892610279565b610131565b61027c565b90565b6102c47ff0c57e16840df040f15088dc2f81fe391c3923bec73e23a9662efc9c229c6a0061027f565b90565b6102cf610275565b506102d861029b565b9056fe60a06040526004361015610015575b3661122857005b61001f5f356101be565b80632f757006146101b95780633384575c146101b4578063366404b3146101af57806336c87754146101aa57806345da5cc1146101a5578063485cc955146101a05780634f1ef2861461019b5780635000596b1461019657806352d1902d146101915780635fa773801461018c57806362eb9950146101875780636e99f49814610182578063715018a61461017d578063806339da1461017857806385fb7f6714610173578063883723a41461016e5780638da5cb5b14610169578063ad3cb1cc14610164578063b01b96c31461015f578063bcbf0b921461015a578063d3d4d30514610155578063d42e494614610150578063d9a294ab1461014b578063e525310514610146578063f2fde38b146101415763f661f44c0361000e576111f2565b611144565b611110565b6110da565b611050565b611016565b610f83565b610f50565b610f1b565b610e6e565b610e3e565b610d87565b610cfa565b610ba4565b610b71565b610b1e565b610a9b565b610a56565b6109fc565b61096c565b610877565b610814565b610790565b610541565b61039f565b6102d9565b60e01c90565b60405190565b5f80fd5b5f80fd5b5f9103126101dc57565b6101ce565b5190565b60209181520190565b60200190565b5190565b60209181520190565b90825f9392825e0152565b601f801991011690565b61023561023e6020936102439361022c816101f4565b938480936101f8565b95869101610201565b61020c565b0190565b9061025191610216565b90565b60200190565b9061026e610267836101e1565b80926101e5565b908161027f602083028401946101ee565b925f915b83831061029257505050505090565b909192939460206102b46102ae83856001950387528951610247565b97610254565b9301930191939290610283565b6102d69160208201915f81840391015261025a565b90565b34610309576102e93660046101d2565b6103056102f46112cb565b6102fc6101c4565b918291826102c1565b0390f35b6101ca565b5f80fd5b90565b61031e81610312565b0361032557565b5f80fd5b9050359061033682610315565b565b151590565b61034681610338565b0361034d57565b5f80fd5b9050359061035e8261033d565b565b90916060828403126103955761039261037b845f8501610329565b936103898160208601610329565b93604001610351565b90565b6101ce565b5f0190565b346103ce576103b86103b2366004610360565b916112e1565b6103c06101c4565b806103ca8161039a565b0390f35b6101ca565b60018060a01b031690565b6103e7906103d3565b90565b6103f3816103de565b036103fa57565b5f80fd5b9050359061040b826103ea565b565b5f80fd5b5f80fd5b634e487b7160e01b5f52604160045260245ffd5b906104339061020c565b810190811067ffffffffffffffff82111761044d57604052565b610415565b9061046561045e6101c4565b9283610429565b565b67ffffffffffffffff81116104855761048160209161020c565b0190565b610415565b90825f939282370152565b909291926104aa6104a582610467565b610452565b938185526020850190828401116104c6576104c49261048a565b565b610411565b9080601f830112156104e9578160206104e693359101610495565b90565b61040d565b909160608284031261053c57610506835f84016103fe565b9260208301359067ffffffffffffffff82116105375761052b816105349386016104cb565b936040016103fe565b90565b61030e565b6101ce565b346105705761055a6105543660046104ee565b91611b15565b6105626101c4565b8061056c8161039a565b0390f35b6101ca565b9060208282031261058e5761058b915f01610329565b90565b6101ce565b634e487b7160e01b5f52603260045260245ffd5b5490565b5f5260205f2090565b5f5260205f2090565b6105c6816105a7565b8210156105e0576105d86001916105ab565b910201905f90565b610593565b634e487b7160e01b5f525f60045260245ffd5b634e487b7160e01b5f52602260045260245ffd5b906001600283049216801561062c575b602083101461062757565b6105f8565b91607f169161061c565b5f5260205f2090565b905f92918054906106596106528361060c565b80946101f8565b916001811690815f146106b05750600114610674575b505050565b6106819192939450610636565b915f925b81841061069857505001905f808061066f565b60018160209295939554848601520191019290610685565b92949550505060ff19168252151560200201905f808061066f565b906106d59161063f565b90565b906106f86106f1926106e86101c4565b938480926106cb565b0383610429565b565b905f1061070d5761070a906106d8565b90565b6105e5565b600361071d816105a7565b82101561073a5761073791610731916105bd565b906106fa565b90565b5f80fd5b60209181520190565b61076661076f6020936107749361075d816101f4565b9384809361073e565b95869101610201565b61020c565b0190565b61078d9160208201915f818403910152610747565b90565b346107c0576107bc6107ab6107a6366004610575565b610712565b6107b36101c4565b91829182610778565b0390f35b6101ca565b91906040838203126107ed57806107e16107ea925f8601610329565b93602001610329565b90565b6101ce565b6107fb90610312565b9052565b9190610812905f602085019401906107f2565b565b346108455761084161083061082a3660046107c5565b90611f09565b6108386101c4565b918291826107ff565b0390f35b6101ca565b9190604083820312610872578061086661086f925f86016103fe565b936020016103fe565b90565b6101ce565b346108a65761089061088a36600461084a565b90612350565b6108986101c4565b806108a28161039a565b0390f35b6101ca565b67ffffffffffffffff81116108c9576108c560209161020c565b0190565b610415565b909291926108e36108de826108ab565b610452565b938185526020850190828401116108ff576108fd9261048a565b565b610411565b9080601f830112156109225781602061091f933591016108ce565b90565b61040d565b91909160408184031261096757610940835f83016103fe565b92602082013567ffffffffffffffff81116109625761095f9201610904565b90565b61030e565b6101ce565b61098061097a366004610927565b90612385565b6109886101c4565b806109928161039a565b0390f35b1c90565b60018060a01b031690565b6109b59060086109ba9302610996565b61099a565b90565b906109c891546109a5565b90565b6109d760055f906109bd565b90565b6109e3906103de565b9052565b91906109fa905f602085019401906109da565b565b34610a2c57610a0c3660046101d2565b610a28610a176109cb565b610a1f6101c4565b918291826109e7565b0390f35b6101ca565b90565b610a3d90610a31565b9052565b9190610a54905f60208501940190610a34565b565b34610a8657610a663660046101d2565b610a82610a71612400565b610a796101c4565b91829182610a41565b0390f35b6101ca565b610a9860046001906109bd565b90565b34610acb57610aab3660046101d2565b610ac7610ab6610a8b565b610abe6101c4565b918291826109e7565b0390f35b6101ca565b90565b610ae7610ae2610aec92610312565b610ad0565b610312565b90565b90610af990610ad3565b5f5260205260405f2090565b610b1b90610b16600a915f92610aef565b6106fa565b90565b34610b4e57610b4a610b39610b34366004610575565b610b05565b610b416101c4565b91829182610778565b0390f35b6101ca565b90602082820312610b6c57610b69915f016103fe565b90565b6101ce565b34610b9f57610b89610b84366004610b53565b61269b565b610b916101c4565b80610b9b8161039a565b0390f35b6101ca565b34610bd257610bb43660046101d2565b610bbc6126cb565b610bc46101c4565b80610bce8161039a565b0390f35b6101ca565b90602082820312610c07575f82013567ffffffffffffffff8111610c0257610bff92016104cb565b90565b61030e565b6101ce565b905090565b610c36610c2d92602092610c24816101f4565b94858093610c0c565b93849101610201565b0190565b90565b610c49610c4e91610312565b610c3a565b9052565b610c62610c699160209493610c11565b8092610c3d565b0190565b610c81610c786101c4565b92839283610c52565b03902090565b610c9091610c6d565b90565b60ff1690565b610ca9906008610cae9302610996565b610c93565b90565b90610cbc9154610c99565b90565b610cd590610cd06001915f92610c87565b610cb1565b90565b610ce190610338565b9052565b9190610cf8905f60208501940190610cd8565b565b34610d2a57610d26610d15610d10366004610bd7565b610cbf565b610d1d6101c4565b91829182610ce5565b0390f35b6101ca565b90610d3990610ad3565b5f5260205260405f2090565b90565b610d58906008610d5d9302610996565b610d45565b90565b90610d6b9154610d48565b90565b610d8490610d7f600b915f92610d2f565b610d60565b90565b34610db757610db3610da2610d9d366004610575565b610d6e565b610daa6101c4565b918291826107ff565b0390f35b6101ca565b608081830312610e1657610dd2825f8301610329565b92610de08360208401610329565b9260408301359067ffffffffffffffff8211610e1157610e0581610e0e938601610904565b93606001610329565b90565b61030e565b6101ce565b916020610e3c929493610e3560408201965f830190610cd8565b01906107f2565b565b610e55610e4c366004610dbc565b929190916131a5565b90610e6a610e616101c4565b92839283610e1b565b0390f35b34610e9e57610e7e3660046101d2565b610e9a610e89613439565b610e916101c4565b918291826109e7565b0390f35b6101ca565b90610eb5610eb083610467565b610452565b918252565b5f7f352e302e30000000000000000000000000000000000000000000000000000000910152565b610eeb6005610ea3565b90610ef860208301610eba565b565b610f02610ee1565b90565b610f0d610efa565b90565b610f18610f05565b90565b34610f4b57610f2b3660046101d2565b610f47610f36610f10565b610f3e6101c4565b91829182610778565b0390f35b6101ca565b34610f7e57610f68610f63366004610bd7565b61351f565b610f706101c4565b80610f7a8161039a565b0390f35b6101ca565b34610fb257610f9c610f963660046107c5565b906137fd565b610fa46101c4565b80610fae8161039a565b0390f35b6101ca565b60808183031261101157610fcd825f8301610329565b92610fdb8360208401610329565b9260408301359067ffffffffffffffff821161100c57611000816110099386016104cb565b93606001610329565b90565b61030e565b6101ce565b3461104b57611032611029366004610fb7565b92919091613c7e565b9061104761103e6101c4565b92839283610e1b565b0390f35b6101ca565b346110815761107d61106c6110663660046107c5565b90614075565b6110746101c4565b918291826107ff565b0390f35b6101ca565b61108f906103de565b9052565b906020806110b5936110ab5f8201515f860190611086565b0151910190611086565b565b9160206110d89294936110d160608201965f830190610cd8565b0190611093565b565b3461110b576110f26110ed366004610bd7565b614111565b906111076110fe6101c4565b928392836110b7565b0390f35b6101ca565b3461113f576111296111233660046107c5565b906143cb565b6111316101c4565b8061113b8161039a565b0390f35b6101ca565b346111725761115c611157366004610b53565b6146aa565b6111646101c4565b8061116e8161039a565b0390f35b6101ca565b61118091610c6d565b90565b5f1c90565b61119461119991611183565b61099a565b90565b6111a69054611188565b90565b6111b4906002611177565b906111cc60016111c55f850161119c565b930161119c565b90565b9160206111f09294936111e960408201965f8301906109da565b01906109da565b565b346112235761120a611205366004610bd7565b6111a9565b9061121f6112166101c4565b928392836111cf565b0390f35b6101ca565b5f80fd5b606090565b67ffffffffffffffff81116112495760208091020190565b610415565b9061126061125b83611231565b610452565b918252565b61126e906106d8565b90565b9061127b826105a7565b6112848161124e565b9261129260208501916105ab565b5f915b8383106112a25750505050565b6001602081926112b185611265565b815201920192019190611295565b6112c890611271565b90565b6112d361122c565b506112de60036112bf565b90565b916112ee92919091614ab7565b565b9061130392916112fe615064565b611947565b565b61131161131691611183565b610c93565b90565b6113239054611305565b90565b5f7f546f6b656e20616c7265616479206c6973746564000000000000000000000000910152565b61135a601460209261073e565b61136381611326565b0190565b61137c9060208101905f81830391015261134d565b90565b1561138657565b61138e6101c4565b62461bcd60e51b8152806113a460048201611367565b0390fd5b90565b60200190565b5190565b5f7f4554480000000000000000000000000000000000000000000000000000000000910152565b6113e66003610ea3565b906113f3602083016113b5565b565b6113fd6113dc565b90565b90565b61141761141261141c92611400565b610ad0565b6103d3565b90565b61142890611403565b90565b5f7f746f6b656e416464726573732061646472657373283029000000000000000000910152565b61145f601760209261073e565b6114688161142b565b0190565b6114819060208101905f818303910152611452565b90565b1561148b57565b6114936101c4565b62461bcd60e51b8152806114a96004820161146c565b0390fd5b5f7f6665656441646472657320616464726573732830290000000000000000000000910152565b6114e1601560209261073e565b6114ea816114ad565b0190565b6115039060208101905f8183039101526114d4565b90565b1561150d57565b6115156101c4565b62461bcd60e51b81528061152b600482016114ee565b0390fd5b5f1b90565b9061154060ff9161152f565b9181191691161790565b61155390610338565b90565b90565b9061156e6115696115759261154a565b611556565b8254611534565b9055565b6115836040610452565b90565b90611590906103de565b9052565b61159e90516103de565b90565b906115b260018060a01b039161152f565b9181191691161790565b6115d06115cb6115d5926103d3565b610ad0565b6103d3565b90565b6115e1906115bc565b90565b6115ed906115d8565b90565b90565b9061160861160361160f926115e4565b6115f0565b82546115a1565b9055565b9061163e60206001611644946116365f82016116305f8801611594565b906115f3565b019201611594565b906115f3565b565b9061165091611613565b565b61165e61166391611183565b610ad3565b90565b61167a61167561167f92610312565b610ad0565b6103d3565b90565b61168e60038092610c0c565b611697816113b5565b0190565b906116b16116aa602093611682565b8092610c3d565b0190565b6116ca906116c16101c4565b9182918261169b565b03902090565b6116d9906116b5565b90565b6116e5906116b5565b90565b90565b5f5260205f2090565b5490565b611701816116f4565b82101561171b576117136001916116eb565b910201905f90565b610593565b601f602091010490565b1b90565b919060086117499102916117435f198461172a565b9261172a565b9181191691161790565b90565b919061176c61176761177493610ad3565b611753565b90835461172e565b9055565b5f90565b61178e91611788611778565b91611756565b565b5b81811061179c575050565b806117a95f60019361177c565b01611791565b9190601f81116117bf575b505050565b6117cb6117f093610636565b9060206117d784611720565b830193106117f8575b6117e990611720565b0190611790565b5f80806117ba565b91506117e9819290506117e0565b90611816905f1990600802610996565b191690565b8161182591611806565b906002021790565b90611837816101f4565b9067ffffffffffffffff82116118f75761185b82611855855461060c565b856117af565b602090601f831160011461188f5791809161187e935f92611883575b505061181b565b90555b565b90915001515f80611877565b601f1983169161189e85610636565b925f5b8181106118df575091600293918560019694106118c5575b50505002019055611881565b6118d5910151601f841690611806565b90555f80806118b9565b919360206001819287870151815501950192016118a1565b610415565b919061190d5761190b9161182d565b565b6105e5565b9081549168010000000000000000831015611942578261193a916001611940950181556116f8565b906118fc565b565b610415565b91611a789261197161196c61196661196160018790610c87565b611319565b15610338565b61137f565b61197a836113a8565b61198c611986826113b1565b916113ab565b206119b96119b361199b6113f5565b6119ad6119a7826113b1565b916113ab565b20610a31565b91610a31565b145f14611a7a5750806119ea611a68926119e36119dd6119d85f61141f565b6103de565b916103de565b1415611506565b611a59611a26611a21611a1c7faaaebeba3810b1e6b70781f14b2d72c1cb89c0b2b320c43bb67ff79f562f5ff4611652565b611666565b6115d8565b91611a3b6001611a3660016116d0565b611559565b91611a50611a47611579565b935f8501611586565b60208301611586565b611a6360026116dc565b611646565b5b611a7360036116e8565b611912565b565b611aff611b1092611aa683611a9f611a99611a945f61141f565b6103de565b916103de565b1415611484565b611acb81611ac4611abe611ab95f61141f565b6103de565b916103de565b1415611506565b611ae16001611adc60018890610c87565b611559565b91611af6611aed611579565b935f8501611586565b60208301611586565b611b0b60028490611177565b611646565b611a69565b90611b2092916112f0565b565b60018060a01b031690565b611b39611b3e91611183565b611b22565b90565b611b4b9054611b2d565b90565b611b57906115d8565b90565b60e01b90565b5f80fd5b5f80fd5b90505190611b7582610315565b565b90929192611b8c611b8782610467565b610452565b93818552602085019082840111611ba857611ba692610201565b565b610411565b9080601f83011215611bcb57816020611bc893519101611b77565b90565b61040d565b90505190611bdd826103ea565b565b60031115611be957565b5f80fd5b90505190611bfa82611bdf565b565b91909160a081840312611c9d57611c1360a0610452565b92611c20815f8401611b68565b5f850152602082015167ffffffffffffffff8111611c985781611c44918401611bad565b602085015260408201519167ffffffffffffffff8311611c9357611c6d82611c8c948301611bad565b6040860152611c7f8260608301611bd0565b6060860152608001611bed565b6080830152565b611b64565b611b64565b611b60565b90602082820312611cd2575f82015167ffffffffffffffff8111611ccd57611cca9201611bfc565b90565b61030e565b6101ce565b611cdf6101c4565b3d5f823e3d90fd5b611cf19051610312565b90565b60081c90565b611d06611d0b91611cf4565b61099a565b90565b611d189054611cfa565b90565b611d24906115d8565b90565b5f7f756e617574686f72697a65642063616c6c6572206e6f7420616c6c6f77656400910152565b611d5b601f60209261073e565b611d6481611d27565b0190565b611d7d9060208101905f818303910152611d4e565b90565b15611d8757565b611d8f6101c4565b62461bcd60e51b815280611da560048201611d68565b0390fd5b90611dec92915f611dc2611dbd6008611b41565b611b4e565b63ffc9896b90611de13392611dd56101c4565b98899485938493611b5a565b8352600483016109e7565b03915afa938415611eac57611e115f611e4196611e3c938291611e8a575b5001611ce7565b83611e26611e20339392610312565b91610312565b148015611e67575b908115611e44575b50611d80565b611ee8565b90565b9050611e60611e5a611e5530611d1b565b6103de565b916103de565b145f611e36565b5080611e84611e7e611e796004611d0e565b6103de565b916103de565b14611e2e565b611ea691503d8084833e611e9e8183610429565b810190611ca2565b5f611e0a565b611cd7565b90611ebb90610ad3565b5f5260205260405f2090565b611ed3611ed891611183565b610d45565b90565b611ee59054611ec7565b90565b91611efc611f0192611f069450600c611eb1565b610d2f565b611edb565b90565b90611f1b91611f16611778565b611da9565b90565b60401c90565b611f30611f3591611f1e565b610c93565b90565b611f429054611f24565b90565b67ffffffffffffffff1690565b611f5e611f6391611183565b611f45565b90565b611f709054611f52565b90565b67ffffffffffffffff1690565b611f94611f8f611f9992611400565b610ad0565b611f73565b90565b90565b611fb3611fae611fb892611f9c565b610ad0565b611f73565b90565b611fc4906115d8565b90565b611fdb611fd6611fe092611400565b610ad0565b610312565b90565b90611ff667ffffffffffffffff9161152f565b9181191691161790565b61201461200f61201992611f73565b610ad0565b611f73565b90565b90565b9061203461202f61203b92612000565b61201c565b8254611fe3565b9055565b60401b90565b9061205968ff00000000000000009161203f565b9181191691161790565b9061207861207361207f9261154a565b611556565b8254612045565b9055565b61208c90611f9f565b9052565b91906120a3905f60208501940190612083565b565b906120ae6150b2565b916120c36120bd5f8501611f38565b15610338565b916120cf5f8501611f66565b806120e26120dc5f611f80565b91611f73565b14806121fc575b906120fd6120f76001611f9f565b91611f73565b14806121d4575b61210f909115610338565b90816121c3575b506121a75761213f9161213461212c6001611f9f565b5f870161201f565b83612195575b6122f2565b612147575b50565b612154905f809101612063565b600161218c7fc7f505b2f371ae2175ee4913f4499e1f2633a7b5936321eed1cdaeb6115181d2916121836101c4565b91829182612090565b0390a15f612144565b6121a260015f8701612063565b61213a565b5f63f92ee8a960e01b8152806121bf6004820161039a565b0390fd5b6121ce915015610338565b5f612116565b5061210f6121e130611fbb565b3b6121f46121ee5f611fc7565b91610312565b149050612104565b50836120e9565b60207f7265737365732073657400000000000000000000000000000000000000000000917f496e76616c696420757365726d616e6167657220636f6e7472616374206164645f8201520152565b61225d602a60409261073e565b61226681612203565b0190565b61227f9060208101905f818303910152612250565b90565b1561228957565b6122916101c4565b62461bcd60e51b8152806122a76004820161226a565b0390fd5b6122b4906115bc565b90565b6122c0906122ab565b90565b6122cc906122ab565b90565b90565b906122e76122e26122ee926122c3565b6122cf565b82546115a1565b9055565b6122fe612332926150db565b6123066150f0565b61232b8161232461231e6123195f61141f565b6103de565b916103de565b1415612282565b60056115f3565b61234e612347612342600561119c565b6122b7565b60086122d2565b565b9061235a916120a5565b565b9061236e91612369615106565b612370565b565b906123839161237e816151b8565b615228565b565b9061238f9161235c565b565b5f90565b6123a6906123a1615326565b6123f4565b90565b90565b6123c06123bb6123c5926123a9565b61152f565b610a31565b90565b6123f17f360894a13ba1a3210667c828492db98dca3e2076cc3735a920a3ca505d382bbc6123ac565b90565b506123fd6123c8565b90565b61241061240b612391565b612395565b90565b6124249061241f615064565b612626565b565b60407f7365740000000000000000000000000000000000000000000000000000000000917f45636f6d6d6572636520616e6420757365722d6d616e6167657220636f6e74725f8201527f61637420616464726573736573206861766520616c7265616479206265656e2060208201520152565b6124a6604360609261073e565b6124af81612426565b0190565b6124c89060208101905f818303910152612499565b90565b156124d257565b6124da6101c4565b62461bcd60e51b8152806124f0600482016124b3565b0390fd5b60207f7373657320736574000000000000000000000000000000000000000000000000917f496e76616c69642065636f6d6d6572636520636f6e74726163742061646472655f8201520152565b61254e602860409261073e565b612557816124f4565b0190565b6125709060208101905f818303910152612541565b90565b1561257a57565b6125826101c4565b62461bcd60e51b8152806125986004820161255b565b0390fd5b60081b90565b906125b5610100600160a81b039161259c565b9181191691161790565b906125d46125cf6125db926115e4565b6115f0565b82546125a2565b9055565b6125e8906115bc565b90565b6125f4906125df565b90565b612600906125df565b90565b90565b9061261b612616612622926125f7565b612603565b82546115a1565b9055565b61267d9061264561264061263a6004611319565b15610338565b6124cb565b61266a8161266361265d6126585f61141f565b6103de565b916103de565b1415612573565b61267660016004611559565b60046125bf565b61269961269261268d6004611d0e565b6125eb565b6007612606565b565b6126a490612413565b565b6126ae615064565b6126b66126b8565b565b6126c96126c45f61141f565b615384565b565b6126d36126a6565b565b5f90565b60207f7272616374207769746820746869732066756e6374696f6e0000000000000000917f6f6e6c792065636f6d6d6572636520636f6e74726163742063616e20696e74655f8201520152565b612733603860409261073e565b61273c816126d9565b0190565b6127559060208101905f818303910152612726565b90565b1561275f57565b6127676101c4565b62461bcd60e51b81528061277d60048201612740565b0390fd5b60207f6f00000000000000000000000000000000000000000000000000000000000000917f5061796d656e74206d7573742062652067726561746572207468616e207a65725f8201520152565b6127db602160409261073e565b6127e481612781565b0190565b6127fd9060208101905f8183039101526127ce565b90565b1561280757565b61280f6101c4565b62461bcd60e51b815280612825600482016127e8565b0390fd5b60ff1690565b61283881612829565b0361283f57565b5f80fd5b905051906128508261282f565b565b90565b61285e81612852565b0361286557565b5f80fd5b9050519061287682612855565b565b90916060828403126128c5575f82015167ffffffffffffffff81116128c0576128a6846128bd928501611bad565b936128b48160208601612843565b93604001612869565b90565b61030e565b6101ce565b6128de6128d96128e392611400565b610ad0565b612852565b90565b5f7f496e76616c696420707269636520666574636865642066726f6d206665656400910152565b61291a601f60209261073e565b612923816128e6565b0190565b61293c9060208101905f81830391015261290d565b90565b1561294657565b61294e6101c4565b62461bcd60e51b81528061296460048201612927565b0390fd5b61297c61297761298192612852565b610ad0565b610312565b90565b634e487b7160e01b5f52601160045260245ffd5b6129a76129ad91939293610312565b92610312565b916129b9838202610312565b9281840414901517156129c857565b612984565b90565b6129e46129df6129e9926129cd565b610ad0565b610312565b90565b634e487b7160e01b5f52601260045260245ffd5b612a0c612a1291610312565b91610312565b908115612a1d570490565b6129ec565b612a31612a3791939293610312565b92610312565b8203918211612a4257565b612984565b90565b612a5e612a59612a6392612a47565b610ad0565b612829565b90565b612a72612a7891612829565b91612829565b90039060ff8211612a8557565b612984565b612a9390612829565b604d8111612aa157600a0a90565b612984565b60407f6e742c2074727920616761696e00000000000000000000000000000000000000917f746f6f206d75636820646966666572656e6365206265747765656e207061796d5f8201527f656e7420616e642063616c63756c6174656420636865636b6f757420616d6f7560208201520152565b612b26604d60609261073e565b612b2f81612aa6565b0190565b612b489060208101905f818303910152612b19565b90565b15612b5257565b612b5a6101c4565b62461bcd60e51b815280612b7060048201612b33565b0390fd5b60207f74682074686973207265666572656e6365000000000000000000000000000000917f5061796d656e742068617320616c7265616479206265656e206d6164652077695f8201520152565b612bce603160409261073e565b612bd781612b74565b0190565b612bf09060208101905f818303910152612bc1565b90565b15612bfa57565b612c026101c4565b62461bcd60e51b815280612c1860048201612bdb565b0390fd5b60018060a01b031690565b612c33612c3891611183565b612c1c565b90565b612c459054612c27565b90565b612c51906115d8565b90565b67ffffffffffffffff8111612c6c5760208091020190565b610415565b5f80fd5b63ffffffff1690565b612c8781612c75565b03612c8e57565b5f80fd5b90505190612c9f82612c7e565b565b60051115612cab57565b5f80fd5b90505190612cbc82612ca1565b565b919060c083820312612d4057612d3990612cd860c0610452565b93612ce5825f8301611b68565b5f860152612cf68260208301611b68565b6020860152612d088260408301612c92565b6040860152612d1a8260608301611b68565b6060860152612d2c8260808301612caf565b608086015260a001611b68565b60a0830152565b611b60565b90929192612d5a612d5582612c54565b610452565b9381855260c0602086019202830192818411612d9957915b838310612d7f5750505050565b602060c091612d8e8486612cbe565b815201920191612d72565b612c71565b9080601f83011215612dbc57816020612db993519101612d45565b90565b61040d565b90602082820312612df1575f82015167ffffffffffffffff8111612dec57612de99201612d9e565b90565b61030e565b6101ce565b90612e0090610ad3565b5f5260205260405f2090565b60200190565b5490565b612e21906006612998565b90565b5f5260205f2090565b5f6005612e6c92612e408380830161177c565b612e4d836001830161177c565b826002820155612e60836003830161177c565b8260048201550161177c565b565b905f03612e8057612e7e90612e2d565b565b6105e5565b5b818110612e91575050565b80612e9e5f600693612e6e565b01612e86565b9091828110612eb3575b505050565b612ed1612ecb612ec5612edc95612e16565b92612e16565b92612e24565b918201910190612e85565b5f8080612eae565b90680100000000000000008111612f0d5781612f02612f0b93612e12565b90828155612ea4565b565b610415565b5190565b5190565b90612f265f199161152f565b9181191691161790565b90612f45612f40612f4c92610ad3565b611753565b8254612f1a565b9055565b612f5a9051612c75565b90565b90612f6c63ffffffff9161152f565b9181191691161790565b612f8a612f85612f8f92612c75565b610ad0565b612c75565b90565b90565b90612faa612fa5612fb192612f76565b612f92565b8254612f5d565b9055565b634e487b7160e01b5f52602160045260245ffd5b60051115612fd357565b612fb5565b90612fe282612fc9565b565b612fee9051612fd8565b90565b612ffa90612fd8565b90565b90565b9061301561301061301c92612ff1565b612ffd565b8254611534565b9055565b906130af60a060056130b5946130435f820161303d5f8801611ce7565b90612f30565b61305c6001820161305660208801611ce7565b90612f30565b6130756002820161306f60408801612f50565b90612f95565b61308e6003820161308860608801611ce7565b90612f30565b6130a7600482016130a160808801612fe4565b90613000565b019201611ce7565b90612f30565b565b906130c191613020565b565b6130e86130e26130d284612f12565b936130dd8585612ee4565b612e0c565b91612e24565b5f915b8383106130f85750505050565b600660208261311161310b600195612f16565b866130b7565b019201920191906130eb565b90613127916130c3565b565b61313861313e91939293610312565b92610312565b820180921161314957565b612984565b906131589161182d565b565b5f7f7573657220636172742062616c616e63653d3d3e000000000000000000000000910152565b61318b6014610ea3565b906131986020830161315a565b565b6131a2613181565b90565b9061333b916132c56132b36132be6132b86132296132ae989a999a6131c86126d5565b506131d1611778565b506131f7336131f16131eb6131e66004611d0e565b6103de565b916103de565b14612758565b6132133461320d6132075f611fc7565b91610312565b11612800565b602061321e826113b1565b818301019101612878565b94919990949761324b8961324561323f5f6128ca565b91612852565b1361293f565b6132786132613461325b8c612968565b90612998565b613272670de0b6b3a76400006129d0565b90612a00565b8061328b61328584610312565b91610312565b115f14613427579061329c91612a22565b5b946132a86002612a4a565b90612a66565b612a8a565b610312565b91610312565b1115612b4b565b6132fe6132e66132e16132da60098590611eb1565b8990610d2f565b611edb565b6132f86132f25f611fc7565b91610312565b14612bf3565b5f61331161330c6007612c3b565b612c48565b63ffb105519061333084926133246101c4565b97889485938493611b5a565b8352600483016107ff565b03915afa908115613422576133d46133c36133e2946133be6133f49861337b6133db978d6133e79b5f926133fa575b5061337690600e612df6565b61311d565b6133ad8c6133a7613398349261339360098c90611eb1565b610d2f565b916133a283611edb565b613129565b90612f30565b6133b9600a8d90610aef565b61314e565b612968565b6133cf600b8a90610d2f565b612f30565b6009611eb1565b8590610d2f565b611edb565b6133ef61319a565b6153f0565b60019190565b61337691925061341b903d805f833e6134138183610429565b810190612dc1565b919061336a565b611cd7565b61343091612a22565b61329d565b5f90565b613441613435565b506134545f61344e615432565b0161119c565b90565b61346890613463615064565b6134ec565b565b5f7f696e76616c696420546f6b656e2073796d626f6c000000000000000000000000910152565b61349e601460209261073e565b6134a78161346a565b0190565b6134c09060208101905f818303910152613491565b90565b156134ca57565b6134d26101c4565b62461bcd60e51b8152806134e8600482016134ab565b0390fd5b61351d9061350c61350761350260018490610c87565b611319565b6134c3565b6135185f916001610c87565b611559565b565b61352890613457565b565b5f7f7061796d656e74207265666572656e6365206973206e6f742076616c69640000910152565b61355e601e60209261073e565b6135678161352a565b0190565b6135809060208101905f818303910152613551565b90565b1561358a57565b6135926101c4565b62461bcd60e51b8152806135a86004820161356b565b0390fd5b60016135b89101610312565b90565b6135c481612e12565b8210156135de576135d6600691612e24565b910201905f90565b610593565b6135f76135f26135fc92611f9c565b610ad0565b610312565b90565b5f7f50726f64756374206e6f7420666f756e6420696e206361727400000000000000910152565b613633601960209261073e565b61363c816135ff565b0190565b6136559060208101905f818303910152613626565b90565b1561365f57565b6136676101c4565b62461bcd60e51b81528061367d60048201613640565b0390fd5b60207f20666f722063616e63656c6c6174696f6e000000000000000000000000000000917f6f6e6c792073656c6c6572206f662070726f647563742063616e206f726465725f8201520152565b6136db603160409261073e565b6136e481613681565b0190565b6136fd9060208101905f8183039101526136ce565b90565b1561370757565b61370f6101c4565b62461bcd60e51b815280613725600482016136e8565b0390fd5b60ff1690565b61373b61374091611183565b613729565b90565b61374d905461372f565b90565b5f7f4f726465722068617320616c7265616479206265656e2070726f636573736564910152565b6137836020809261073e565b61378c81613750565b0190565b6137a59060208101905f818303910152613777565b90565b156137af57565b6137b76101c4565b62461bcd60e51b8152806137cd60048201613790565b0390fd5b906137db90610ad3565b5f5260205260405f2090565b906137f190610ad3565b5f5260205260405f2090565b9061382d613815613810600e8590612df6565b612e12565b6138276138215f611fc7565b91610312565b11613583565b61386d5f61384361383e6008611b41565b611b4e565b63ffc9896b9061386233926138566101c4565b95869485938493611b5a565b8352600483016109e7565b03915afa908115613a92575f91613a70575b506138895f611fc7565b5b806138b06138aa6138a56138a0600e8990612df6565b612e12565b610312565b91610312565b1015613a67576138d860016138d16138ca600e8890612df6565b84906135bb565b5001611edb565b6138ea6138e485610312565b91610312565b145f14613a16576139c0916139ba5f9261394061391e85613917613910600e8c90612df6565b85906135bb565b5001611edb565b61393a61393461392f888801611ce7565b610312565b91610312565b14613700565b61397d613965600461395e613957600e8c90612df6565b85906135bb565b5001613743565b61397761397187612fd8565b91612fd8565b146137a8565b6139b56001916139af60016139a8613997600d8d906137d1565b936139a38d600e612df6565b6135bb565b5001611edb565b906137e7565b611559565b01611ce7565b916139fd6139f76139f17fb73a959f168ce29d0efed71a00f7fa9898846ace32c3f34d020ecdb8a9c8725b95610ad3565b92610ad3565b92610ad3565b92613a066101c4565b80613a108161039a565b0390a45b565b80613a5d613a6292613a56613a50613a4b613a3b613a36600e8c90612df6565b612e12565b613a4560016135e3565b90612a22565b610312565b91610312565b1415613658565b6135ac565b61388a565b50505050613a14565b613a8c91503d805f833e613a848183610429565b810190611ca2565b5f61387f565b611cd7565b60018060a01b031690565b613aae613ab391611183565b613a97565b90565b613ac09054613aa2565b90565b613acc906115d8565b90565b90602082820312613ae857613ae5915f01612843565b90565b6101ce565b69ffffffffffffffffffff1690565b613b0581613aed565b03613b0c57565b5f80fd5b90505190613b1d82613afc565b565b919060a083820312613b7057613b37815f8501613b10565b92613b458260208301612869565b92613b6d613b568460408501611b68565b93613b648160608601611b68565b93608001613b10565b90565b6101ce565b90565b613b8c613b87613b9192613b75565b610ad0565b612829565b90565b613ba8613ba3613bad92612829565b610ad0565b610312565b90565b60407f616761696e206f72207573652045746820746f20706179000000000000000000917f736f7272792c206f6e636861696e2076616c7565206f662055534420697320745f8201527f6f6f206c6f7720617420746869732074696d652c20706c65617365207472792060208201520152565b613c30605760609261073e565b613c3981613bb0565b0190565b613c529060208101905f818303910152613c23565b90565b15613c5c57565b613c646101c4565b62461bcd60e51b815280613c7a60048201613c3d565b0390fd5b90613ce89291949394613c8f6126d5565b50613c98611778565b50613cbe33613cb8613cb2613cad6004611d0e565b6103de565b916103de565b14612758565b6020613cd2613ccd6006613ab6565b613ac3565b63313ce56790613ce06101c4565b968792611b5a565b82528180613cf86004820161039a565b03915afa8015613f4757613d38945f91613f19575b5060a0613d22613d1d6006613ab6565b613ac3565b63feaf968c90613d306101c4565b978892611b5a565b82528180613d486004820161039a565b03915afa908115613f1457613dcb613dc5613dbf613dd294613e48995f80929050613ee3575b50613d8b81613d85613d7f5f6128ca565b91612852565b1361293f565b613dba613db4613dad613da888613da26003613b78565b90612a66565b612a8a565b9692612968565b91613b94565b612a22565b92610312565b91610312565b1115613c55565b613e0b613df3613dee613de760098590611eb1565b8990610d2f565b611edb565b613e05613dff5f611fc7565b91610312565b14612bf3565b5f613e1e613e196007612c3b565b612c48565b63ffb1055190613e3d8492613e316101c4565b98899485938493611b5a565b8352600483016107ff565b03915afa918215613ede57613e90613e89613e9f92613e81613ea596613eb6995f91613ebc575b50613e7c600e8d90612df6565b61311d565b936009611eb1565b8890610d2f565b91613e9a83611edb565b613129565b90612f30565b613eb1600a8590610aef565b61314e565b60019190565b613ed891503d805f833e613ed08183610429565b810190612dc1565b5f613e6f565b611cd7565b613f04915060a03d8111613f0d575b613efc8183610429565b810190613b1f565b50505090613d6e565b503d613ef2565b611cd7565b613f3a915060203d8111613f40575b613f328183610429565b810190613acf565b5f613d0d565b503d613f28565b611cd7565b90613f8f92915f613f65613f606008611b41565b611b4e565b63ffc9896b90613f843392613f786101c4565b98899485938493611b5a565b8352600483016109e7565b03915afa93841561404f57613fb45f613fe496613fdf93829161402d575b5001611ce7565b83613fc9613fc3339392610312565b91610312565b14801561400a575b908115613fe7575b50611d80565b614054565b90565b9050614003613ffd613ff830611d1b565b6103de565b916103de565b145f613fd9565b508061402761402161401c6004611d0e565b6103de565b916103de565b14613fd1565b61404991503d8084833e6140418183610429565b810190611ca2565b5f613fad565b611cd7565b9161406861406d9261407294506009611eb1565b610d2f565b611edb565b90565b9061408791614082611778565b613f4c565b90565b6140946040610452565b90565b5f90565b6140a361408a565b90602080836140b0614097565b8152016140bb614097565b81525050565b6140c961409b565b90565b906141036140fa60016140dd61408a565b946140f46140ec5f830161119c565b5f8801611586565b0161119c565b60208401611586565b565b61410e906140cc565b90565b9061411a6126d5565b506141236140c1565b5061414b61414661413e61413960018690610c87565b611319565b936002611177565b614105565b90565b5f7f6e6f742061207265676973746572656420757365720000000000000000000000910152565b614182601560209261073e565b61418b8161414e565b0190565b6141a49060208101905f818303910152614175565b90565b156141ae57565b6141b66101c4565b62461bcd60e51b8152806141cc6004820161418f565b0390fd5b60207f6c00000000000000000000000000000000000000000000000000000000000000917f4e6f2066756e647320617661696c61626c6520666f72207769746864726177615f8201520152565b61422a602160409261073e565b614233816141d0565b0190565b61424c9060208101905f81830391015261421d565b90565b1561425657565b61425e6101c4565b62461bcd60e51b81528061427460048201614237565b0390fd5b5f7f7769746864726177696e6720616d6f756e7420696e20657363726f773d3d3e00910152565b6142a9601f610ea3565b906142b660208301614278565b565b6142c061429f565b90565b5f7f616d6f756e743d3d3e0000000000000000000000000000000000000000000000910152565b6142f46009610ea3565b90614301602083016142c3565b565b61430b6142ea565b90565b614317906115bc565b90565b6143239061430e565b90565b61432f9061430e565b90565b90565b9061434a61434561435192614326565b614332565b82546115a1565b9055565b60018060a01b031690565b61436c61437191611183565b614355565b90565b61437e9054614360565b90565b61438a906115bc565b90565b61439690614381565b90565b6143a2906115d8565b90565b929160206143c16143c99360408701908782035f890152610747565b9401906107f2565b565b9061440c5f6143e26143dd6008611b41565b611b4e565b63ffc9896b9061440133926143f56101c4565b95869485938493611b5a565b8352600483016109e7565b03915afa908115614640575f9161461e575b50906144473361444161443b61443660608701611594565b6103de565b916103de565b146141a7565b6144a861447261446d614466600c6144605f8801611ce7565b90611eb1565b8690610d2f565b611edb565b61448f8161448861448286610312565b91610312565b101561424f565b82906144996142b8565b906144a2614303565b9161549d565b6144e4816144de6144cf6144c8600c6144c25f8901611ce7565b90611eb1565b8790610d2f565b916144d983611edb565b612a22565b90612f30565b6144ed836154e7565b916144f7836113a8565b614509614503826113b1565b916113ab565b206145366145306145186113f5565b61452a614524826113b1565b916113ab565b20610a31565b91610a31565b145f146145d8575f80808061455261454d3361438d565b614399565b86908282156145cf575bf1156145ca575f61456e915b01611ce7565b9192909142926145b06145aa6145a47f83bfaf2f1db730ccd55c38b4774b1deae31bb283b0a139ac6820aa82c266e00994610ad3565b94610ad3565b94610ad3565b946145c56145bc6101c4565b928392836143a5565b0390a4565b611cd7565b506108fc61455c565b5f61456e916146056145ff6145fa60016145f460028a90611177565b0161119c565b61431a565b83614335565b61461961461183614374565b338691615506565b614568565b61463a91503d805f833e6146328183610429565b810190611ca2565b5f61441e565b611cd7565b61465690614651615064565b614658565b565b8061467361466d6146685f61141f565b6103de565b916103de565b146146835761468190615384565b565b6146a661468f5f61141f565b5f918291631e4fbdf760e01b8352600483016109e7565b0390fd5b6146b390614645565b565b5f7f756e6174686f72697a65642063616c6c65720000000000000000000000000000910152565b6146e9601260209261073e565b6146f2816146b5565b0190565b61470b9060208101905f8183039101526146dc565b90565b1561471557565b61471d6101c4565b62461bcd60e51b815280614733600482016146f6565b0390fd5b9061474182612f12565b811015614752576020809102010190565b610593565b60407f6972206f776e2070726f64756374000000000000000000000000000000000000917f6d616c6963696f757320616374696f6e2064657465637465642c2073656c6c655f8201527f722063616e6e6f7420636f6e6669726d2064656c6976657279206f662074686560208201520152565b6147d7604e60609261073e565b6147e081614757565b0190565b6147f99060208101905f8183039101526147ca565b90565b1561480357565b61480b6101c4565b62461bcd60e51b815280614821600482016147e4565b0390fd5b60207f6e2070726f63657373696e672073746174650000000000000000000000000000917f4f7264657220616c72656164792064656c697665726564206f72206e6f7420695f8201520152565b61487f603260409261073e565b61488881614825565b0190565b6148a19060208101905f818303910152614872565b90565b156148ab57565b6148b36101c4565b62461bcd60e51b8152806148c96004820161488c565b0390fd5b90565b60209181520190565b905f92918054906148f36148ec8361060c565b80946148d0565b916001811690815f1461494a575060011461490e575b505050565b61491b91929394506105b4565b915f925b81841061493257505001905f8080614909565b6001816020929593955484860152019101929061491f565b92949550505060ff19168252151560200201905f8080614909565b9061496f916148d9565b90565b9061499261498b926149826101c4565b93848092614965565b0383610429565b565b61499d90614972565b90565b6149b46149af6149b992612c75565b610ad0565b610312565b90565b90565b6149d36149ce6149d8926149bc565b610ad0565b610312565b90565b60407f63656c206f726465720000000000000000000000000000000000000000000000917f706c65617365207761697420666f722064656c69766572792074696d6520746f5f8201527f20657870697265206f7220636f6e746163742073656c6c657220746f2063616e60208201520152565b614a5b604960609261073e565b614a64816149db565b0190565b614a7d9060208101905f818303910152614a4e565b90565b15614a8757565b614a8f6101c4565b62461bcd60e51b815280614aa560048201614a68565b0390fd5b90614ab390612fd8565b9052565b919091608052614afd5f614ad3614ace6008611b41565b611b4e565b63ffc9896b90614af23392614ae66101c4565b95869485938493611b5a565b8352600483016109e7565b03915afa90811561505f575f9161503d575b50614b3733614b31614b2b614b2660608601611594565b6103de565b916103de565b1461470e565b614b815f614b4d614b486007612c3b565b612c48565b63ffb1055190614b76614b61848701611ce7565b92614b6a6101c4565b95869485938493611b5a565b8352600483016107ff565b03915afa908115615038575f91615016575b50614b9d5f611fc7565b5b80614bb9614bb3614bae85612f12565b610312565b91610312565b101561500c57614bd66020614bcf848490614737565b5101611ce7565b614be8614be287610312565b91610312565b145f14614fc6579181614e1393614c32614c0f5f614c0881978590614737565b5101611ce7565b614c2b614c25614c20888801611ce7565b610312565b91610312565b14156147fc565b614c64614c4c6080614c45858590614737565b5101612fe4565b614c5e614c5887612fd8565b91612fd8565b146148a4565b614c6c611778565b50614c8b614c86614c81600a60805190610aef565b6148cd565b614994565b614c9d614c97826113b1565b916113ab565b20614cca614cc4614cac6113f5565b614cbe614cb8826113b1565b916113ab565b20610a31565b91610a31565b148414614f8257614d49614d2d614d16614cf16060614cea878790614737565b5101611ce7565b614d10614d0b6040614d04898990614737565b5101612f50565b6149a0565b90612998565b614d27670de0b6b3a76400006129d0565b90612998565b614d43614d3e600b60805190610d2f565b611edb565b90612a00565b5b83614d5e82614d5884615553565b90612a22565b9189898814614e71575084614de888614de1614e0696614dd8614df797614dd2614dc3614dba614dee9a614e0c9f8f906080614d9f614da693600293614737565b5101614aa9565b93614db48960099201611ce7565b90611eb1565b60805190610d2f565b91614dcd83611edb565b612a22565b90612f30565b97600c94614737565b5101611ce7565b90611eb1565b60805190610d2f565b91614e0183611edb565b613129565b90612f30565b5b01611ce7565b91608051909192614e6b614e59614e53614e4d7fc1f96a05ced092e8aafbb763b07d4019a5948ba4d96a68f2bc092a53dbc0410294610ad3565b94610ad3565b94610ad3565b94614e626101c4565b91829182610ce5565b0390a45b565b614ee3919250946080614edc614f1d9596614ed4614f5799614eb3614ea360a0614e9c898790614737565b5101611ce7565b614ead603c6149bf565b90613129565b614ec5614ebf42610312565b91610312565b10908115614f5c575b50614a80565b600393614737565b5101614aa9565b614f17614f08614eff6009614ef98a8a01611ce7565b90611eb1565b60805190610d2f565b91614f1283611edb565b612a22565b90612f30565b614f51614f42614f39600c614f33888801611ce7565b90611eb1565b60805190610d2f565b91614f4c83611edb565b613129565b90612f30565b614e0d565b614f7c9150614f7790614f72600d8851906137d1565b6137e7565b611319565b8f614ece565b614fc1614f9c6060614f95858590614737565b5101611ce7565b614fbb614fb66040614faf878790614737565b5101612f50565b6149a0565b90612998565b614d4a565b8061500261500792614ffb614ff5614ff0614fe088612f12565b614fea60016135e3565b90612a22565b610312565b91610312565b1415613658565b6135ac565b614b9e565b5050505050614e6f565b61503291503d805f833e61502a8183610429565b810190612dc1565b5f614b93565b611cd7565b61505991503d805f833e6150518183610429565b810190611ca2565b5f614b0f565b611cd7565b61506c613439565b61508561507f61507a615593565b6103de565b916103de565b0361508c57565b6150ae615097615593565b5f91829163118cdaa760e01b8352600483016109e7565b0390fd5b6150ba6155eb565b90565b6150ce906150c96155ff565b6150d0565b565b6150d990615697565b565b6150e4906150bd565b565b6150ee6155ff565b565b6150f86150e6565b565b615103906115d8565b90565b61510f306150fa565b61514161513b7f00000000000000000000000000000000000000000000000000000000000000006103de565b916103de565b14801561516b575b61514f57565b5f63703e46dd60e11b8152806151676004820161039a565b0390fd5b506151746156a2565b6151a66151a07f00000000000000000000000000000000000000000000000000000000000000006103de565b916103de565b1415615149565b506151b6615064565b565b6151c1906151ad565b565b6151cc906115bc565b90565b6151d8906151c3565b90565b6151e4906115d8565b90565b6151f081610a31565b036151f757565b5f80fd5b90505190615208826151e7565b565b9060208282031261522357615220915f016151fb565b90565b6101ce565b9190615256602061524061523b866151cf565b6151db565b6352d1902d9061524e6101c4565b938492611b5a565b825281806152666004820161039a565b03915afa80915f926152f6575b50155f146152a757505090600161528857505b565b6152a3905f918291634c9c8ce360e01b8352600483016109e7565b0390fd5b92836152c26152bc6152b76123c8565b610a31565b91610a31565b036152d7576152d29293506156c8565b615286565b6152f2845f918291632a87526960e21b835260048301610a41565b0390fd5b61531891925060203d811161531f575b6153108183610429565b81019061520a565b905f615273565b503d615306565b61532f306150fa565b61536161535b7f00000000000000000000000000000000000000000000000000000000000000006103de565b916103de565b0361536857565b5f63703e46dd60e11b8152806153806004820161039a565b0390fd5b61538c615432565b6153a461539a5f830161119c565b915f8491016115f3565b906153d86153d27f8be0079c531659141344cd1fd0a4f28419497f9722a3daafe3b4186f6b6457e0936115e4565b916115e4565b916153e16101c4565b806153eb8161039a565b0390a3565b9061542b6154309261541c6154036101c4565b938492600460208501632d839cb360e21b8152016143a5565b60208201810382520382610429565b615751565b565b7f9016d09d72d40fdae2fd8ceac6b6234c7706214fd39c1cd1e609a0528c19930090565b9493916154939061549b9461548661547b60609560808b01908b82035f8d0152610747565b9260208a01906107f2565b8782036040890152610747565b9401906107f2565b565b906154cc6154e0946154db9392946154b36101c4565b95869460046020870163c67ea9d160e01b815201615456565b60208201810382520382610429565b615751565b565b606090565b6154fe615503916154f66154e2565b50600a610aef565b611265565b90565b91615513929190916157bd565b565b90565b61552c61552761553192615515565b610ad0565b610312565b90565b90565b61554b61554661555092615534565b610ad0565b610312565b90565b6155909061555f611778565b5061558a615578826155726103e8615518565b90612998565b916155846103e7615537565b90612998565b90612a22565b90565b61559b613435565b503390565b90565b6155b76155b26155bc926155a0565b61152f565b610a31565b90565b6155e87ff0c57e16840df040f15088dc2f81fe391c3923bec73e23a9662efc9c229c6a006155a3565b90565b6155f3612391565b506155fc6155bf565b90565b61561061560a61580b565b15610338565b61561657565b5f631afcd79f60e31b81528061562e6004820161039a565b0390fd5b6156439061563e6155ff565b615645565b565b8061566061565a6156555f61141f565b6103de565b916103de565b146156705761566e90615384565b565b61569361567c5f61141f565b5f918291631e4fbdf760e01b8352600483016109e7565b0390fd5b6156a090615632565b565b6156aa613435565b506156c55f6156bf6156ba6123c8565b615829565b0161119c565b90565b906156d28261582c565b816156fd7fbc7cd75a20ee27fd9adebab32041f755214dbc6bffa90cc0225b39da2e5c2d3b916115e4565b906157066101c4565b806157108161039a565b0390a261571c816113b1565b61572e6157285f611fc7565b91610312565b115f146157425761573e916158fc565b505b565b505061574c615881565b615740565b6157649061575f6001615955565b615af3565b565b61576f906115d8565b90565b63ffffffff60e01b1690565b61579261578d61579792612c75565b611b5a565b615772565b90565b9160206157bb9294936157b460408201965f8301906109da565b01906107f2565b565b90615804615809936157f5600494936157dc63a9059cbb91939161577e565b926157e56101c4565b968794602086019081520161579a565b60208201810382520383610429565b615961565b565b6158136126d5565b506158265f6158206150b2565b01611f38565b90565b90565b803b61584061583a5f611fc7565b91610312565b1461586257615860905f61585a6158556123c8565b615829565b016115f3565b565b61587d905f918291634c9c8ce360e01b8352600483016109e7565b0390fd5b3461589461588e5f611fc7565b91610312565b1161589b57565b5f63b398979f60e01b8152806158b36004820161039a565b0390fd5b606090565b906158ce6158c9836108ab565b610452565b918252565b3d5f146158ee576158e33d6158bc565b903d5f602084013e5b565b6158f66158b7565b906158ec565b5f806159289361590a6158b7565b508390602081019051915af49061591f6158d3565b90919091615a15565b90565b6a636f6e736f6c652e6c6f6790565b5f809161594561592b565b602082519201905afa50565b5f90565b61595d615951565b5090565b905f60209161596e611778565b50615977611778565b50828151910182855af115615a0a573d5f519061599c6159965f611fc7565b91610312565b145f146159f057506159ad81615766565b3b6159c06159ba5f611fc7565b91610312565b145b6159c95750565b6159d56159ec91615766565b5f918291635274afe760e01b8352600483016109e7565b0390fd5b615a036159fd60016135e3565b91610312565b14156159c2565b6040513d5f823e3d90fd5b90615a2990615a226158b7565b5015610338565b5f14615a355750615a99565b615a3e826113b1565b615a50615a4a5f611fc7565b91610312565b1480615a7e575b615a5f575090565b615a7a905f918291639996b31560e01b8352600483016109e7565b0390fd5b50803b615a93615a8d5f611fc7565b91610312565b14615a57565b615aa2816113b1565b615ab4615aae5f611fc7565b91610312565b115f14615ac357805190602001fd5b5f63d6bda27560e01b815280615adb6004820161039a565b0390fd5b634e487b7160e01b5f52605160045260245ffd5b600103615adf57615b039061593a565b56fea2646970667358221220469f0bd387fa1a8b5f8c57c41b1b8f8700db6b2d6a990313020e9b4aa08c12d764736f6c634300081c0033","linkReferences":{}},"methodIdentifiers":{"UPGRADE_INTERFACE_VERSION()":"ad3cb1cc","acceptedTokens(uint256)":"36c87754","addTokenToAcceptedList(address,string,address)":"366404b3","checkTokenStatusAndDetails(string)":"d9a294ab","delistToken(string)":"b01b96c3","ecommercePlatform()":"5fa77380","getAcceptedTokens()":"2f757006","getWalletBalance(uint256,uint256)":"d42e4946","getWithdrawableBalance(uint256,uint256)":"45da5cc1","initialize(address,address)":"485cc955","isAccepted(string)":"806339da","owner()":"8da5cb5b","payForItemsWithETH(uint256,uint256,bytes,uint256)":"883723a4","payForItemsWithUsd(uint256,uint256,string,uint256)":"d3d4d305","paymentRefToToken(uint256)":"62eb9950","proxiableUUID()":"52d1902d","renounceOwnership()":"715018a6","sellerCancelDelivery(uint256,uint256)":"bcbf0b92","setEcommercePlatform(address)":"6e99f498","tokenPriceAtcheckout(uint256)":"85fb7f67","tokenSymbolToDetails(string)":"f661f44c","transferOwnership(address)":"f2fde38b","updateDeliveryStatus(uint256,uint256,bool)":"3384575c","upgradeToAndCall(address,bytes)":"4f1ef286","userContract()":"5000596b","withdrawFunds(uint256,uint256)":"e5253105"},"storageLayout":{"storage":[{"astId":38113,"contract":"src/Escrow.sol:Escrow","label":"erc20","offset":0,"slot":"0","type":"t_contract(IERC20)36694"},{"astId":38991,"contract":"src/Escrow.sol:Escrow","label":"isAccepted","offset":0,"slot":"1","type":"t_mapping(t_string_memory_ptr,t_bool)"},{"astId":38996,"contract":"src/Escrow.sol:Escrow","label":"tokenSymbolToDetails","offset":0,"slot":"2","type":"t_mapping(t_string_memory_ptr,t_struct(Token)37932_storage)"},{"astId":38999,"contract":"src/Escrow.sol:Escrow","label":"acceptedTokens","offset":0,"slot":"3","type":"t_array(t_string_storage)dyn_storage"},{"astId":39001,"contract":"src/Escrow.sol:Escrow","label":"isEcommAndUserManagerProxySet","offset":0,"slot":"4","type":"t_bool"},{"astId":39003,"contract":"src/Escrow.sol:Escrow","label":"ecommercePlatform","offset":1,"slot":"4","type":"t_address"},{"astId":39005,"contract":"src/Escrow.sol:Escrow","label":"userContract","offset":0,"slot":"5","type":"t_address"},{"astId":39008,"contract":"src/Escrow.sol:Escrow","label":"priceFeed","offset":0,"slot":"6","type":"t_contract(AggregatorV3Interface)45"},{"astId":39011,"contract":"src/Escrow.sol:Escrow","label":"ecommInterface","offset":0,"slot":"7","type":"t_contract(IShop)41093"},{"astId":39014,"contract":"src/Escrow.sol:Escrow","label":"userInterface","offset":0,"slot":"8","type":"t_contract(IUser)41128"},{"astId":39020,"contract":"src/Escrow.sol:Escrow","label":"userBalance","offset":0,"slot":"9","type":"t_mapping(t_uint256,t_mapping(t_uint256,t_uint256))"},{"astId":39024,"contract":"src/Escrow.sol:Escrow","label":"paymentRefToToken","offset":0,"slot":"10","type":"t_mapping(t_uint256,t_string_storage)"},{"astId":39028,"contract":"src/Escrow.sol:Escrow","label":"tokenPriceAtcheckout","offset":0,"slot":"11","type":"t_mapping(t_uint256,t_uint256)"},{"astId":39034,"contract":"src/Escrow.sol:Escrow","label":"withdrawableBalance","offset":0,"slot":"12","type":"t_mapping(t_uint256,t_mapping(t_uint256,t_uint256))"},{"astId":39040,"contract":"src/Escrow.sol:Escrow","label":"letBuyerCancel","offset":0,"slot":"13","type":"t_mapping(t_uint256,t_mapping(t_uint256,t_bool))"},{"astId":39046,"contract":"src/Escrow.sol:Escrow","label":"trxToCart","offset":0,"slot":"14","type":"t_mapping(t_uint256,t_array(t_struct(OrderItem)37927_storage)dyn_storage)"}],"types":{"t_address":{"encoding":"inplace","label":"address","numberOfBytes":"20"},"t_array(t_string_storage)dyn_storage":{"encoding":"dynamic_array","label":"string[]","numberOfBytes":"32","base":"t_string_storage"},"t_array(t_struct(OrderItem)37927_storage)dyn_storage":{"encoding":"dynamic_array","label":"struct OrderItem[]","numberOfBytes":"32","base":"t_struct(OrderItem)37927_storage"},"t_bool":{"encoding":"inplace","label":"bool","numberOfBytes":"1"},"t_contract(AggregatorV3Interface)45":{"encoding":"inplace","label":"contract AggregatorV3Interface","numberOfBytes":"20"},"t_contract(IERC20)36694":{"encoding":"inplace","label":"contract IERC20","numberOfBytes":"20"},"t_contract(IShop)41093":{"encoding":"inplace","label":"contract IShop","numberOfBytes":"20"},"t_contract(IUser)41128":{"encoding":"inplace","label":"contract IUser","numberOfBytes":"20"},"t_enum(OrderStatus)37913":{"encoding":"inplace","label":"enum OrderStatus","numberOfBytes":"1"},"t_mapping(t_string_memory_ptr,t_bool)":{"encoding":"mapping","key":"t_string_memory_ptr","label":"mapping(string => bool)","numberOfBytes":"32","value":"t_bool"},"t_mapping(t_string_memory_ptr,t_struct(Token)37932_storage)":{"encoding":"mapping","key":"t_string_memory_ptr","label":"mapping(string => struct Token)","numberOfBytes":"32","value":"t_struct(Token)37932_storage"},"t_mapping(t_uint256,t_array(t_struct(OrderItem)37927_storage)dyn_storage)":{"encoding":"mapping","key":"t_uint256","label":"mapping(uint256 => struct OrderItem[])","numberOfBytes":"32","value":"t_array(t_struct(OrderItem)37927_storage)dyn_storage"},"t_mapping(t_uint256,t_bool)":{"encoding":"mapping","key":"t_uint256","label":"mapping(uint256 => bool)","numberOfBytes":"32","value":"t_bool"},"t_mapping(t_uint256,t_mapping(t_uint256,t_bool))":{"encoding":"mapping","key":"t_uint256","label":"mapping(uint256 => mapping(uint256 => bool))","numberOfBytes":"32","value":"t_mapping(t_uint256,t_bool)"},"t_mapping(t_uint256,t_mapping(t_uint256,t_uint256))":{"encoding":"mapping","key":"t_uint256","label":"mapping(uint256 => mapping(uint256 => uint256))","numberOfBytes":"32","value":"t_mapping(t_uint256,t_uint256)"},"t_mapping(t_uint256,t_string_storage)":{"encoding":"mapping","key":"t_uint256","label":"mapping(uint256 => string)","numberOfBytes":"32","value":"t_string_storage"},"t_mapping(t_uint256,t_uint256)":{"encoding":"mapping","key":"t_uint256","label":"mapping(uint256 => uint256)","numberOfBytes":"32","value":"t_uint256"},"t_string_memory_ptr":{"encoding":"bytes","label":"string","numberOfBytes":"32"},"t_string_storage":{"encoding":"bytes","label":"string","numberOfBytes":"32"},"t_struct(OrderItem)37927_storage":{"encoding":"inplace","label":"struct OrderItem","numberOfBytes":"192","members":[{"astId":37915,"contract":"src/Escrow.sol:Escrow","label":"sellerId","offset":0,"slot":"0","type":"t_uint256"},{"astId":37917,"contract":"src/Escrow.sol:Escrow","label":"productId","offset":0,"slot":"1","type":"t_uint256"},{"astId":37919,"contract":"src/Escrow.sol:Escrow","label":"qty","offset":0,"slot":"2","type":"t_uint32"},{"astId":37921,"contract":"src/Escrow.sol:Escrow","label":"unitPrice","offset":0,"slot":"3","type":"t_uint256"},{"astId":37924,"contract":"src/Escrow.sol:Escrow","label":"orderStatus","offset":0,"slot":"4","type":"t_enum(OrderStatus)37913"},{"astId":37926,"contract":"src/Escrow.sol:Escrow","label":"_proposedDeliveryTime","offset":0,"slot":"5","type":"t_uint256"}]},"t_struct(Token)37932_storage":{"encoding":"inplace","label":"struct Token","numberOfBytes":"64","members":[{"astId":37929,"contract":"src/Escrow.sol:Escrow","label":"feedAddr","offset":0,"slot":"0","type":"t_address"},{"astId":37931,"contract":"src/Escrow.sol:Escrow","label":"tokenAddr","offset":0,"slot":"1","type":"t_address"}]},"t_uint256":{"encoding":"inplace","label":"uint256","numberOfBytes":"32"},"t_uint32":{"encoding":"inplace","label":"uint32","numberOfBytes":"4"}}},"id":39}