{"abi":[{"type":"constructor","inputs":[],"stateMutability":"nonpayable"},{"type":"function","name":"UPGRADE_INTERFACE_VERSION","inputs":[],"outputs":[{"name":"","type":"string","internalType":"string"}],"stateMutability":"view"},{"type":"function","name":"addProductToCart","inputs":[{"name":"_productId","type":"uint256","internalType":"uint256"},{"name":"_qty","type":"uint32","internalType":"uint32"}],"outputs":[],"stateMutability":"nonpayable"},{"type":"function","name":"checkOutWithNative","inputs":[{"name":"_payToken","type":"string","internalType":"string"}],"outputs":[],"stateMutability":"payable"},{"type":"function","name":"checkOutWithUSD","inputs":[{"name":"_payToken","type":"string","internalType":"string"}],"outputs":[],"stateMutability":"nonpayable"},{"type":"function","name":"getCart","inputs":[{"name":"_userId","type":"uint256","internalType":"uint256"}],"outputs":[{"name":"","type":"tuple[]","internalType":"struct OrderItem[]","components":[{"name":"sellerId","type":"uint256","internalType":"uint256"},{"name":"productId","type":"uint256","internalType":"uint256"},{"name":"qty","type":"uint32","internalType":"uint32"},{"name":"unitPrice","type":"uint256","internalType":"uint256"},{"name":"orderStatus","type":"uint8","internalType":"enum OrderStatus"},{"name":"_proposedDeliveryTime","type":"uint256","internalType":"uint256"}]}],"stateMutability":"view"},{"type":"function","name":"initialize","inputs":[{"name":"_escrowAddress","type":"address","internalType":"address"},{"name":"_userContract","type":"address","internalType":"address"},{"name":"_productContract","type":"address","internalType":"address"},{"name":"initialOwner","type":"address","internalType":"address"}],"outputs":[],"stateMutability":"nonpayable"},{"type":"function","name":"owner","inputs":[],"outputs":[{"name":"","type":"address","internalType":"address"}],"stateMutability":"view"},{"type":"function","name":"proxiableUUID","inputs":[],"outputs":[{"name":"","type":"bytes32","internalType":"bytes32"}],"stateMutability":"view"},{"type":"function","name":"renounceOwnership","inputs":[],"outputs":[],"stateMutability":"nonpayable"},{"type":"function","name":"tokenSymbolToDetails","inputs":[{"name":"","type":"string","internalType":"string"}],"outputs":[{"name":"feedAddr","type":"address","internalType":"address"},{"name":"tokenAddr","type":"address","internalType":"address"}],"stateMutability":"view"},{"type":"function","name":"transferOwnership","inputs":[{"name":"newOwner","type":"address","internalType":"address"}],"outputs":[],"stateMutability":"nonpayable"},{"type":"function","name":"upgradeToAndCall","inputs":[{"name":"newImplementation","type":"address","internalType":"address"},{"name":"data","type":"bytes","internalType":"bytes"}],"outputs":[],"stateMutability":"payable"},{"type":"event","name":"AccountOwnershipChanged","inputs":[{"name":"_userId","type":"uint256","indexed":true,"internalType":"uint256"},{"name":"_changedBy","type":"address","indexed":false,"internalType":"address"},{"name":"_oldOwner","type":"address","indexed":false,"internalType":"address"},{"name":"_newOwner","type":"address","indexed":false,"internalType":"address"}],"anonymous":false},{"type":"event","name":"CanceledDelivery","inputs":[{"name":"_seller","type":"uint256","indexed":true,"internalType":"uint256"},{"name":"_ref","type":"uint256","indexed":true,"internalType":"uint256"},{"name":"_item","type":"uint256","indexed":true,"internalType":"uint256"}],"anonymous":false},{"type":"event","name":"Initialized","inputs":[{"name":"version","type":"uint64","indexed":false,"internalType":"uint64"}],"anonymous":false},{"type":"event","name":"OwnershipTransferred","inputs":[{"name":"previousOwner","type":"address","indexed":true,"internalType":"address"},{"name":"newOwner","type":"address","indexed":true,"internalType":"address"}],"anonymous":false},{"type":"event","name":"ProductOrderStatusUpdated","inputs":[{"name":"_buyer","type":"uint256","indexed":true,"internalType":"uint256"},{"name":"_payref","type":"uint256","indexed":true,"internalType":"uint256"},{"name":"_itemId","type":"uint256","indexed":true,"internalType":"uint256"},{"name":"_delivered","type":"bool","indexed":false,"internalType":"bool"}],"anonymous":false},{"type":"event","name":"ProductpriceUpdate","inputs":[{"name":"_productId","type":"uint256","indexed":true,"internalType":"uint256"},{"name":"_sellerId","type":"uint256","indexed":true,"internalType":"uint256"},{"name":"_newPrice","type":"uint256","indexed":false,"internalType":"uint256"}],"anonymous":false},{"type":"event","name":"ResgisteredAProduct","inputs":[{"name":"_productId","type":"uint256","indexed":true,"internalType":"uint256"},{"name":"_sellerId","type":"uint256","indexed":true,"internalType":"uint256"}],"anonymous":false},{"type":"event","name":"ResgisteredAuser","inputs":[{"name":"_userId","type":"uint256","indexed":true,"internalType":"uint256"}],"anonymous":false},{"type":"event","name":"SuccessfulCheckout","inputs":[{"name":"_userId","type":"uint256","indexed":true,"internalType":"uint256"},{"name":"_paymentRefence","type":"uint256","indexed":true,"internalType":"uint256"},{"name":"_currency","type":"string","indexed":false,"internalType":"string"},{"name":"_amountPaid","type":"uint256","indexed":false,"internalType":"uint256"}],"anonymous":false},{"type":"event","name":"Upgraded","inputs":[{"name":"implementation","type":"address","indexed":true,"internalType":"address"}],"anonymous":false},{"type":"event","name":"VerifiedAuser","inputs":[{"name":"_userId","type":"uint256","indexed":true,"internalType":"uint256"}],"anonymous":false},{"type":"event","name":"WithdrawSuccess","inputs":[{"name":"_userId","type":"uint256","indexed":true,"internalType":"uint256"},{"name":"_tokenSymbol","type":"string","indexed":false,"internalType":"string"},{"name":"_payRef","type":"uint256","indexed":true,"internalType":"uint256"},{"name":"_amount","type":"uint256","indexed":false,"internalType":"uint256"},{"name":"_date","type":"uint256","indexed":true,"internalType":"uint256"}],"anonymous":false},{"type":"error","name":"AddressEmptyCode","inputs":[{"name":"target","type":"address","internalType":"address"}]},{"type":"error","name":"ERC1967InvalidImplementation","inputs":[{"name":"implementation","type":"address","internalType":"address"}]},{"type":"error","name":"ERC1967NonPayable","inputs":[]},{"type":"error","name":"FailedCall","inputs":[]},{"type":"error","name":"InvalidInitialization","inputs":[]},{"type":"error","name":"NotInitializing","inputs":[]},{"type":"error","name":"OwnableInvalidOwner","inputs":[{"name":"owner","type":"address","internalType":"address"}]},{"type":"error","name":"OwnableUnauthorizedAccount","inputs":[{"name":"account","type":"address","internalType":"address"}]},{"type":"error","name":"SafeERC20FailedOperation","inputs":[{"name":"token","type":"address","internalType":"address"}]},{"type":"error","name":"UUPSUnauthorizedCallContext","inputs":[]},{"type":"error","name":"UUPSUnsupportedProxiableUUID","inputs":[{"name":"slot","type":"bytes32","internalType":"bytes32"}]}],"bytecode":{"object":"0x60a06040523461003e5761001161004d565b610019610043565b614b116102dc82396080518181816123a70152818161240c01526125c70152614b1190f35b610049565b60405190565b5f80fd5b61005561005f565b61005d6101b2565b565b610067610069565b565b6100716100b5565b565b60018060a01b031690565b90565b61009561009061009a92610073565b61007e565b610073565b90565b6100a690610081565b90565b6100b29061009d565b90565b6100be306100a9565b608052565b60401c90565b60ff1690565b6100db6100e0916100c3565b6100c9565b90565b6100ed90546100cf565b90565b5f0190565b5f1c90565b60018060401b031690565b610111610116916100f5565b6100fa565b90565b6101239054610105565b90565b60018060401b031690565b5f1b90565b9061014760018060401b0391610131565b9181191691161790565b61016561016061016a92610126565b61007e565b610126565b90565b90565b9061018561018061018c92610151565b61016d565b8254610136565b9055565b61019990610126565b9052565b91906101b0905f60208501940190610190565b565b6101ba61026a565b6101c55f82016100e3565b61024e576101d45f8201610119565b6101ec6101e660018060401b03610126565b91610126565b036101f5575b50565b610208905f60018060401b039101610170565b60018060401b036102457fc7f505b2f371ae2175ee4913f4499e1f2633a7b5936321eed1cdaeb6115181d29161023c610043565b9182918261019d565b0390a15f6101f2565b5f63f92ee8a960e01b815280610266600482016100f0565b0390fd5b6102726102c7565b90565b5f90565b90565b90565b61029361028e61029892610279565b610131565b61027c565b90565b6102c47ff0c57e16840df040f15088dc2f81fe391c3923bec73e23a9662efc9c229c6a0061027f565b90565b6102cf610275565b506102d861029b565b9056fe60806040526004361015610013575b610a06565b61001d5f356100dc565b80634f1ef286146100d757806352d1902d146100d2578063715018a6146100cd5780638da5cb5b146100c8578063ad3cb1cc146100c3578063c0be8631146100be578063d8de4c4b146100b9578063ea34e4b3146100b4578063f2fde38b146100af578063f661f44c146100aa578063f8c8765e146100a55763ffb105510361000e576109d1565b61081c565b6107a0565b61066c565b61061b565b6105e7565b61053f565b61047c565b61034b565b6102f6565b6102c1565b61025f565b60e01c90565b60405190565b5f80fd5b5f80fd5b60018060a01b031690565b610104906100f0565b90565b610110816100fb565b0361011757565b5f80fd5b9050359061012882610107565b565b5f80fd5b5f80fd5b601f801991011690565b634e487b7160e01b5f52604160045260245ffd5b9061015a90610132565b810190811067ffffffffffffffff82111761017457604052565b61013c565b9061018c6101856100e2565b9283610150565b565b67ffffffffffffffff81116101ac576101a8602091610132565b0190565b61013c565b90825f939282370152565b909291926101d16101cc8261018e565b610179565b938185526020850190828401116101ed576101eb926101b1565b565b61012e565b9080601f830112156102105781602061020d933591016101bc565b90565b61012a565b9190916040818403126102555761022e835f830161011b565b92602082013567ffffffffffffffff81116102505761024d92016101f2565b90565b6100ec565b6100e8565b5f0190565b61027361026d366004610215565b90610a33565b61027b6100e2565b806102858161025a565b0390f35b5f80fd5b5f91031261029757565b6100e8565b90565b6102a89061029c565b9052565b91906102bf905f6020850194019061029f565b565b346102f1576102d136600461028d565b6102ed6102dc610ab3565b6102e46100e2565b918291826102ac565b0390f35b610289565b346103245761030636600461028d565b61030e610b19565b6103166100e2565b806103208161025a565b0390f35b610289565b610332906100fb565b9052565b9190610349905f60208501940190610329565b565b3461037b5761035b36600461028d565b610377610366610b27565b61036e6100e2565b91829182610336565b0390f35b610289565b67ffffffffffffffff811161039e5761039a602091610132565b0190565b61013c565b906103b56103b083610380565b610179565b918252565b5f7f352e302e30000000000000000000000000000000000000000000000000000000910152565b6103eb60056103a3565b906103f8602083016103ba565b565b6104026103e1565b90565b61040d6103fa565b90565b610418610405565b90565b5190565b60209181520190565b90825f9392825e0152565b61045261045b602093610460936104498161041b565b9384809361041f565b95869101610428565b610132565b0190565b6104799160208201915f818403910152610433565b90565b346104ac5761048c36600461028d565b6104a8610497610410565b61049f6100e2565b91829182610464565b0390f35b610289565b909291926104c66104c182610380565b610179565b938185526020850190828401116104e2576104e0926101b1565b565b61012e565b9080601f8301121561050557816020610502933591016104b1565b90565b61012a565b9060208282031261053a575f82013567ffffffffffffffff81116105355761053292016104e7565b90565b6100ec565b6100e8565b61055261054d36600461050a565b610f92565b61055a6100e2565b806105648161025a565b0390f35b90565b61057481610568565b0361057b57565b5f80fd5b9050359061058c8261056b565b565b63ffffffff1690565b6105a08161058e565b036105a757565b5f80fd5b905035906105b882610597565b565b91906040838203126105e257806105d66105df925f860161057f565b936020016105ab565b90565b6100e8565b34610616576106006105fa3660046105ba565b90611742565b6106086100e2565b806106128161025a565b0390f35b610289565b346106495761063361062e36600461050a565b61186c565b61063b6100e2565b806106458161025a565b0390f35b610289565b9060208282031261066757610664915f0161011b565b90565b6100e8565b3461069a5761068461067f36600461064e565b6118dc565b61068c6100e2565b806106968161025a565b0390f35b610289565b905090565b6106c96106c0926020926106b78161041b565b9485809361069f565b93849101610428565b0190565b90565b6106dc6106e191610568565b6106cd565b9052565b6106f56106fc91602094936106a4565b80926106d0565b0190565b61071461070b6100e2565b928392836106e5565b03902090565b61072391610700565b90565b5f1c90565b60018060a01b031690565b61074261074791610726565b61072b565b90565b6107549054610736565b90565b61076290600161071a565b9061077a60016107735f850161074a565b930161074a565b90565b91602061079e92949361079760408201965f830190610329565b0190610329565b565b346107d1576107b86107b336600461050a565b610757565b906107cd6107c46100e2565b9283928361077d565b0390f35b610289565b608081830312610817576107ec825f830161011b565b926108146107fd846020850161011b565b9361080b816040860161011b565b9360600161011b565b90565b6100e8565b3461084e5761083861082f3660046107d6565b92919091611fce565b6108406100e2565b8061084a8161025a565b0390f35b610289565b9060208282031261086c57610869915f0161057f565b90565b6100e8565b5190565b60209181520190565b60200190565b61088d90610568565b9052565b61089a9061058e565b9052565b634e487b7160e01b5f52602160045260245ffd5b600511156108bc57565b61089e565b906108cb826108b2565b565b6108d6906108c1565b90565b6108e2906108cd565b9052565b9060a080610950936108fe5f8201515f860190610884565b61091060208201516020860190610884565b61092260408201516040860190610891565b61093460608201516060860190610884565b610946608082015160808601906108d9565b0151910190610884565b565b9061095f8160c0936108e6565b0190565b60200190565b9061098661098061097984610871565b8093610875565b9261087e565b905f5b8181106109965750505090565b9091926109af6109a96001928651610952565b94610963565b9101919091610989565b6109ce9160208201915f818403910152610969565b90565b34610a01576109fd6109ec6109e7366004610853565b612376565b6109f46100e2565b918291826109b9565b0390f35b610289565b5f80fd5b90610a1c91610a17612396565b610a1e565b565b90610a3191610a2c81612448565b6124b8565b565b90610a3d91610a0a565b565b5f90565b610a5490610a4f6125b6565b610aa7565b90565b90565b5f1b90565b610a73610a6e610a7892610a57565b610a5a565b61029c565b90565b610aa47f360894a13ba1a3210667c828492db98dca3e2076cc3735a920a3ca505d382bbc610a5f565b90565b50610ab0610a7b565b90565b610ac3610abe610a3f565b610a43565b90565b610ace612614565b610ad6610b06565b565b90565b90565b610af2610aed610af792610ad8565b610adb565b6100f0565b90565b610b0390610ade565b90565b610b17610b125f610afa565b612662565b565b610b21610ac6565b565b5f90565b610b2f610b23565b50610b425f610b3c6126ce565b0161074a565b90565b60018060a01b031690565b610b5c610b6191610726565b610b45565b90565b610b6e9054610b50565b90565b610b85610b80610b8a926100f0565b610adb565b6100f0565b90565b610b9690610b71565b90565b610ba290610b8d565b90565b60e01b90565b5f80fd5b5f80fd5b90505190610bc08261056b565b565b90929192610bd7610bd282610380565b610179565b93818552602085019082840111610bf357610bf192610428565b565b61012e565b9080601f83011215610c1657816020610c1393519101610bc2565b90565b61012a565b90505190610c2882610107565b565b60021115610c3457565b5f80fd5b90505190610c4582610c2a565b565b60031115610c5157565b5f80fd5b90505190610c6282610c47565b565b91909160c081840312610d1757610c7b60c0610179565b92610c88815f8401610bb3565b5f850152602082015167ffffffffffffffff8111610d125781610cac918401610bf8565b602085015260408201519167ffffffffffffffff8311610d0d57610cd582610d06948301610bf8565b6040860152610ce78260608301610c1b565b6060860152610cf98260808301610c38565b608086015260a001610c55565b60a0830152565b610baf565b610baf565b610bab565b90602082820312610d4c575f82015167ffffffffffffffff8111610d4757610d449201610c64565b90565b6100ec565b6100e8565b610d596100e2565b3d5f823e3d90fd5b610d6b90516100fb565b90565b60018060a01b031690565b610d85610d8a91610726565b610d6e565b90565b610d979054610d79565b90565b610da390610b8d565b90565b60407f6f6e000000000000000000000000000000000000000000000000000000000000917f6f6e6c7920726567697374657265642075736572206f722074686520657363725f8201527f6f7720636f6e74726163742063616e2063616c6c20746869732066756e63746960208201520152565b610e26604260609261041f565b610e2f81610da6565b0190565b610e489060208101905f818303910152610e19565b90565b15610e5257565b610e5a6100e2565b62461bcd60e51b815280610e7060048201610e33565b0390fd5b610eb5905f610e8b610e866004610b64565b610b99565b63ffc9896b90610eaa3392610e9e6100e2565b96879485938493610ba5565b835260048301610336565b03915afa918215610f8157610edb6060610f2694610f21935f91610f5f575b5001610d61565b610eed610ee86006610d8d565b610d9a565b9080610f09610f03610efe5f610afa565b6100fb565b916100fb565b14159081610f44575b50908115610f28575b50610e4b565b610f86565b565b9050610f3d610f3733926100fb565b916100fb565b145f610f1b565b9050610f58610f52336100fb565b916100fb565b145f610f12565b610f7b91503d805f833e610f738183610150565b810190610d1c565b5f610ed4565b610d51565b610f909033612a7e565b565b610f9b90610e74565b565b90610fdf915f610fb5610fb06004610b64565b610b99565b63ffc9896b90610fd43392610fc86100e2565b97889485938493610ba5565b835260048301610336565b03915afa9283156110ab5761100560606110509561104b935f91611089575b5001610d61565b6110176110126006610d8d565b610d9a565b908061103361102d6110285f610afa565b6100fb565b916100fb565b1415908161106e575b50908115611052575b50610e4b565b611570565b565b905061106761106133926100fb565b916100fb565b145f611045565b905061108261107c336100fb565b916100fb565b145f61103c565b6110a591503d805f833e61109d8183610150565b810190610d1c565b5f610ffe565b610d51565b60018060a01b031690565b6110c76110cc91610726565b6110b0565b90565b6110d990546110bb565b90565b6110e590610b8d565b90565b91909160c081840312611183576110ff60c0610179565b9261110c815f8401610bb3565b5f85015261111d8160208401610bb3565b602085015261112f8160408401610bb3565b60408501526111418160608401610bb3565b606085015260808201519167ffffffffffffffff831161117e5761116a82611177948301610bf8565b608086015260a001610bb3565b60a0830152565b610baf565b610bab565b906020828203126111b8575f82015167ffffffffffffffff81116111b3576111b092016110e8565b90565b6100ec565b6100e8565b6111c690610568565b9052565b91906111dd905f602085019401906111bd565b565b6111e99051610568565b90565b6112006111fb61120592610568565b610adb565b610568565b90565b90611212906111ec565b5f5260205260405f2090565b60ff1690565b61123061123591610726565b61121e565b90565b6112429054611224565b90565b151590565b60207f63616e277420616464206d6f7265206974656d73000000000000000000000000917f4361727420616c7265616479206265696e672070726f6365737365642c2075205f8201520152565b6112a4603460409261041f565b6112ad8161124a565b0190565b6112c69060208101905f818303910152611297565b90565b156112d057565b6112d86100e2565b62461bcd60e51b8152806112ee600482016112b1565b0390fd5b6112fc60c0610179565b90565b9061130990610568565b9052565b906113179061058e565b9052565b90611325906108c1565b9052565b90611333906111ec565b5f5260205260405f2090565b90565b5f5260205f2090565b634e487b7160e01b5f52603260045260245ffd5b5490565b61136c8161135f565b8210156113865761137e600691611342565b910201905f90565b61134b565b634e487b7160e01b5f525f60045260245ffd5b906113aa5f1991610a5a565b9181191691161790565b90565b906113cc6113c76113d3926111ec565b6113b4565b825461139e565b9055565b6113e1905161058e565b90565b906113f363ffffffff91610a5a565b9181191691161790565b61141161140c6114169261058e565b610adb565b61058e565b90565b90565b9061143161142c611438926113fd565b611419565b82546113e4565b9055565b61144690516108c1565b90565b9061145560ff91610a5a565b9181191691161790565b611468906108c1565b90565b90565b9061148361147e61148a9261145f565b61146b565b8254611449565b9055565b9061151d60a06005611523946114b15f82016114ab5f88016111df565b906113b7565b6114ca600182016114c4602088016111df565b906113b7565b6114e3600282016114dd604088016113d7565b9061141c565b6114fc600382016114f6606088016111df565b906113b7565b6115156004820161150f6080880161143c565b9061146e565b0192016111df565b906113b7565b565b9190611536576115349161148e565b565b61138b565b908154916801000000000000000083101561156b578261156391600161156995018155611363565b90611525565b565b61013c565b5f6115ae9161158761158260056110cf565b6110dc565b6115a363d6d0be9f6115976100e2565b95869485938493610ba5565b8352600483016111ca565b03915afa90811561173d575f9161171b575b50906116025f6115d86115d36004610b64565b610b99565b63ffc9896b906115f733926115eb6100e2565b95869485938493610ba5565b835260048301610336565b03915afa8015611716576116f2936116d46116e8926116ed945f916116f4575b509461165361164e611648611643600c61163d5f8c016111df565b90611208565b611238565b15611245565b6112c9565b6116cb611662602085016111df565b936116c26116715f83016111df565b936116b9611681604085016111df565b916116b061169260a05f97016111df565b976116a761169e6112f2565b9b5f8d016112ff565b60208b016112ff565b6040890161130d565b606087016112ff565b6080850161131b565b60a083016112ff565b926116e25f600b92016111df565b90611329565b61133f565b61153b565b565b61171091503d805f833e6117088183610150565b810190610d1c565b5f611622565b610d51565b61173791503d805f833e61172f8183610150565b810190611188565b5f6115c0565b610d51565b9061174c91610f9d565b565b61178f905f6117656117606004610b64565b610b99565b63ffc9896b9061178433926117786100e2565b96879485938493610ba5565b835260048301610336565b03915afa91821561185b576117b56060611800946117fb935f91611839575b5001610d61565b6117c76117c26006610d8d565b610d9a565b90806117e36117dd6117d85f610afa565b6100fb565b916100fb565b1415908161181e575b50908115611802575b50610e4b565b611860565b565b905061181761181133926100fb565b916100fb565b145f6117f5565b905061183261182c336100fb565b916100fb565b145f6117ec565b61185591503d805f833e61184d8183610150565b810190610d1c565b5f6117ae565b610d51565b61186a9033613187565b565b6118759061174e565b565b61188890611883612614565b61188a565b565b806118a561189f61189a5f610afa565b6100fb565b916100fb565b146118b5576118b390612662565b565b6118d86118c15f610afa565b5f918291631e4fbdf760e01b835260048301610336565b0390fd5b6118e590611877565b565b60401c90565b6118f96118fe916118e7565b61121e565b90565b61190b90546118ed565b90565b67ffffffffffffffff1690565b61192761192c91610726565b61190e565b90565b611939905461191b565b90565b67ffffffffffffffff1690565b61195d61195861196292610ad8565b610adb565b61193c565b90565b90565b61197c61197761198192611965565b610adb565b61193c565b90565b61198d90610b8d565b90565b6119a461199f6119a992610ad8565b610adb565b610568565b90565b906119bf67ffffffffffffffff91610a5a565b9181191691161790565b6119dd6119d86119e29261193c565b610adb565b61193c565b90565b90565b906119fd6119f8611a04926119c9565b6119e5565b82546119ac565b9055565b60401b90565b90611a2268ff000000000000000091611a08565b9181191691161790565b611a3590611245565b90565b90565b90611a50611a4b611a5792611a2c565b611a38565b8254611a0e565b9055565b611a6490611968565b9052565b9190611a7b905f60208501940190611a5b565b565b909192611a88613551565b93611a9d611a975f8701611901565b15611245565b93611aa95f870161192f565b80611abc611ab65f611949565b9161193c565b1480611bd6575b90611ad7611ad16001611968565b9161193c565b1480611bae575b611ae9909115611245565b9081611b9d575b50611b8157611b1993611b0e611b066001611968565b5f89016119e8565b85611b6f575b611ec8565b611b21575b50565b611b2e905f809101611a3b565b6001611b667fc7f505b2f371ae2175ee4913f4499e1f2633a7b5936321eed1cdaeb6115181d291611b5d6100e2565b91829182611a68565b0390a15f611b1e565b611b7c60015f8901611a3b565b611b14565b5f63f92ee8a960e01b815280611b996004820161025a565b0390fd5b611ba8915015611245565b5f611af0565b50611ae9611bbb30611984565b3b611bce611bc85f611990565b91610568565b149050611ade565b5085611ac3565b5f7f496e76616c696420455343524f57206164647265737300000000000000000000910152565b611c11601660209261041f565b611c1a81611bdd565b0190565b611c339060208101905f818303910152611c04565b90565b15611c3d57565b611c456100e2565b62461bcd60e51b815280611c5b60048201611c1e565b0390fd5b5f7f496e76616c6964207573657220636f6e74726163742061646472657373000000910152565b611c93601d60209261041f565b611c9c81611c5f565b0190565b611cb59060208101905f818303910152611c86565b90565b15611cbf57565b611cc76100e2565b62461bcd60e51b815280611cdd60048201611ca0565b0390fd5b5f7f496e76616c69642070726f6475637420636f6e74726163742061646472657373910152565b611d146020809261041f565b611d1d81611ce1565b0190565b611d369060208101905f818303910152611d08565b90565b15611d4057565b611d486100e2565b62461bcd60e51b815280611d5e60048201611d21565b0390fd5b611d6b90610b71565b90565b611d7790611d62565b90565b90611d8b60018060a01b0391610a5a565b9181191691161790565b611d9e90611d62565b90565b90565b90611db9611db4611dc092611d95565b611da1565b8254611d7a565b9055565b611dcd90610b8d565b90565b90565b90611de8611de3611def92611dc4565b611dd0565b8254611d7a565b9055565b611dfc90610b71565b90565b611e0890611df3565b90565b611e1490611df3565b90565b90565b90611e2f611e2a611e3692611e0b565b611e17565b8254611d7a565b9055565b611e4390610b71565b90565b611e4f90611e3a565b90565b611e5b90611e3a565b90565b90565b90611e76611e71611e7d92611e52565b611e5e565b8254611d7a565b9055565b611e8a90610b71565b90565b611e9690611e81565b90565b611ea290611e81565b90565b90565b90611ebd611eb8611ec492611e99565b611ea5565b8254611d7a565b9055565b90611f62611f5b611f6993611edf611f709761357a565b611ee761358f565b611f0c81611f05611eff611efa5f610afa565b6100fb565b916100fb565b1415611c36565b611f3184611f2a611f24611f1f5f610afa565b6100fb565b916100fb565b1415611cb8565b611f5686611f4f611f49611f445f610afa565b6100fb565b916100fb565b1415611d39565b611d6e565b6006611da4565b6007611dd3565b6008611dd3565b611f94611f8d611f88611f836006610d8d565b610d9a565b611dff565b6003611e1a565b611fb0611fa9611fa4600761074a565b611e46565b6004611e61565b611fcc611fc5611fc0600861074a565b611e8d565b6005611ea8565b565b90611fda939291611a7d565b565b606090565b90612023915f611ff9611ff46004610b64565b610b99565b63ffc9896b90612018339261200c6100e2565b97889485938493610ba5565b835260048301610336565b03915afa9283156120f05761204960606120949561208f935f916120ce575b5001610d61565b61205b6120566006610d8d565b610d9a565b908061207761207161206c5f610afa565b6100fb565b916100fb565b141590816120b3575b50908115612097575b50610e4b565b61233a565b90565b90506120ac6120a633926100fb565b916100fb565b145f612089565b90506120c76120c1336100fb565b916100fb565b145f612080565b6120ea91503d805f833e6120e28183610150565b810190610d1c565b5f612042565b610d51565b5490565b67ffffffffffffffff81116121115760208091020190565b61013c565b90612128612123836120f9565b610179565b918252565b5f5260205f2090565b90565b61214561214a91610726565b612136565b90565b6121579054612139565b90565b63ffffffff1690565b61216f61217491610726565b61215a565b90565b6121819054612163565b90565b60ff1690565b61219661219b91610726565b612184565b90565b6121a8905461218a565b90565b6121b560c0610179565b90565b9061224f61224660056121c96121ab565b946121e06121d85f830161214d565b5f88016112ff565b6121f86121ef6001830161214d565b602088016112ff565b61221061220760028301612177565b6040880161130d565b61222861221f6003830161214d565b606088016112ff565b6122406122376004830161219e565b6080880161131b565b0161214d565b60a084016112ff565b565b61225a906121b8565b90565b90612267826120f5565b61227081612116565b9261227e602085019161212d565b5f915b83831061228e5750505050565b6006602060019261229e85612251565b815201920192019190612281565b6122b59061225d565b90565b5f7f4361727420697320656d70747900000000000000000000000000000000000000910152565b6122ec600d60209261041f565b6122f5816122b8565b0190565b61230e9060208101905f8183039101526122df565b90565b1561231857565b6123206100e2565b62461bcd60e51b815280612336600482016122f9565b0390fd5b61234f9161234a9150600b611329565b6122ac565b61237361235b82610871565b61236d6123675f611990565b91610568565b11612311565b90565b61238790612382611fdc565b611fe1565b90565b61239390610b8d565b90565b61239f3061238a565b6123d16123cb7f00000000000000000000000000000000000000000000000000000000000000006100fb565b916100fb565b1480156123fb575b6123df57565b5f63703e46dd60e11b8152806123f76004820161025a565b0390fd5b50612404613599565b6124366124307f00000000000000000000000000000000000000000000000000000000000000006100fb565b916100fb565b14156123d9565b50612446612614565b565b6124519061243d565b565b61245c90610b71565b90565b61246890612453565b90565b61247490610b8d565b90565b6124808161029c565b0361248757565b5f80fd5b9050519061249882612477565b565b906020828203126124b3576124b0915f0161248b565b90565b6100e8565b91906124e660206124d06124cb8661245f565b61246b565b6352d1902d906124de6100e2565b938492610ba5565b825281806124f66004820161025a565b03915afa80915f92612586575b50155f1461253757505090600161251857505b565b612533905f918291634c9c8ce360e01b835260048301610336565b0390fd5b928361255261254c612547610a7b565b61029c565b9161029c565b03612567576125629293506135bf565b612516565b612582845f918291632a87526960e21b8352600483016102ac565b0390fd5b6125a891925060203d81116125af575b6125a08183610150565b81019061249a565b905f612503565b503d612596565b6125bf3061238a565b6125f16125eb7f00000000000000000000000000000000000000000000000000000000000000006100fb565b916100fb565b036125f857565b5f63703e46dd60e11b8152806126106004820161025a565b0390fd5b61261c610b27565b61263561262f61262a613648565b6100fb565b916100fb565b0361263c57565b61265e612647613648565b5f91829163118cdaa760e01b835260048301610336565b0390fd5b61266a6126ce565b6126826126785f830161074a565b915f849101611dd3565b906126b66126b07f8be0079c531659141344cd1fd0a4f28419497f9722a3daafe3b4186f6b6457e093611dc4565b91611dc4565b916126bf6100e2565b806126c98161025a565b0390a3565b7f9016d09d72d40fdae2fd8ceac6b6234c7706214fd39c1cd1e609a0528c19930090565b5f7f4361727420616c72656164792070726f63657373656400000000000000000000910152565b612726601660209261041f565b61272f816126f2565b0190565b6127489060208101905f818303910152612719565b90565b1561275257565b61275a6100e2565b62461bcd60e51b81528061277060048201612733565b0390fd5b9061278961278461279092611a2c565b611a38565b8254611449565b9055565b6127a86127a36127ad9261193c565b610adb565b610568565b90565b90565b60200190565b5190565b5f7f4554480000000000000000000000000000000000000000000000000000000000910152565b6127ee60036103a3565b906127fb602083016127bd565b565b6128056127e4565b90565b6128106127e4565b90565b5f7f696e73756666696369656e7420616d6f756e74206f6620455448000000000000910152565b612847601a60209261041f565b61285081612813565b0190565b6128699060208101905f81830391015261283a565b90565b1561287357565b61287b6100e2565b62461bcd60e51b81528061289160048201612854565b0390fd5b9061289f906111ec565b5f5260205260405f2090565b60018060a01b031690565b6128c26128c791610726565b6128ab565b90565b6128d490546128b6565b90565b6128e090610b8d565b90565b6128ec81611245565b036128f357565b5f80fd5b90505190612904826128e3565b565b919060408382031261292e578061292261292b925f86016128f7565b93602001610bb3565b90565b6100e8565b60209181520190565b61295b61296460209361296993612952816127b9565b93848093612933565b95869101610428565b610132565b0190565b9493916060916129ae946129996129a69361298f60808b01945f8c01906111bd565b60208a01906111bd565b878203604089015261293c565b9401906111bd565b565b60207f6e206c6174657200000000000000000000000000000000000000000000000000917f7061796d656e742076696120455448206661696c65642c2074727920616761695f8201520152565b612a0a602760409261041f565b612a13816129b0565b0190565b612a2c9060208101905f8183039101526129fd565b90565b15612a3657565b612a3e6100e2565b62461bcd60e51b815280612a5460048201612a17565b0390fd5b92916020612a74612a7c9360408701908782035f890152610433565b9401906111bd565b565b90612abf5f612a95612a906004610b64565b610b99565b63ffc9896b90612ab48692612aa86100e2565b95869485938493610ba5565b835260048301610336565b03915afa908115612d28575f91612d06575b50612b01612afc612af6612af1600c612aeb5f87016111df565b90611208565b611238565b15611245565b61274b565b612b216001612b1c600c612b165f86016111df565b90611208565b612774565b612b45612b40612b3a612b355f85016111df565b61380b565b94613a85565b612794565b90612b4f836127b0565b612b61612b5b826127b9565b916127b3565b20612b8e612b88612b706127fd565b612b82612b7c826127b9565b916127b3565b2061029c565b9161029c565b14612b9a575b50505050565b612bae604094612ba8612808565b90613d4b565b94909492612bcf34612bc8612bc289610568565b91610568565b101561286c565b612bf6612bdb5f611990565b612bf1600a612beb5f88016111df565b90612895565b6113b7565b612c08612c0360036128ca565b6128d7565b612c3963883723a491889092612c44612c225f89016111df565b958b99612c2d6100e2565b9a8b9889978896610ba5565b86526004860161296d565b03925af18015612d01575f80939091612cc4575b50612c6d91612c675f92612a2f565b016111df565b909192612ca3612c9d7fcd2a91ee6de5fe14e444461345e465432e6dd3dc5fee340a09fcc50b0ffed498936111ec565b936111ec565b93612cb8612caf6100e2565b92839283612a58565b0390a35f808080612b94565b612c6793505f915091612cf0612c6d9360403d8111612cfa575b612ce88183610150565b810190612906565b9450915091612c58565b503d612cde565b610d51565b612d2291503d805f833e612d1a8183610150565b810190610d1c565b5f612ad1565b610d51565b612d3691610700565b90565b5f7f696e76616c696420746f6b656e00000000000000000000000000000000000000910152565b612d6d600d60209261041f565b612d7681612d39565b0190565b612d8f9060208101905f818303910152612d60565b90565b15612d9957565b612da16100e2565b62461bcd60e51b815280612db760048201612d7a565b0390fd5b60207f207061796d656e74000000000000000000000000000000000000000000000000917f706c65617365207370656369667920612076616c696420746f6b656e20666f725f8201520152565b612e15602860409261041f565b612e1e81612dbb565b0190565b612e379060208101905f818303910152612e08565b90565b15612e4157565b612e496100e2565b62461bcd60e51b815280612e5f60048201612e22565b0390fd5b60607f6964000000000000000000000000000000000000000000000000000000000000917f74686520616d6f756e742070617961626c65206973207a65726f2c20706c65615f8201527f736520636865636b207468617420636172742069736e277420656d707479206f60208201527f72207468617420796f7572207061796d656e7420746f6b656e2069732076616c60408201520152565b612f09606260809261041f565b612f1281612e63565b0190565b612f2b9060208101905f818303910152612efc565b90565b15612f3557565b612f3d6100e2565b62461bcd60e51b815280612f5360048201612f16565b0390fd5b612f6090610b71565b90565b612f6c90612f57565b90565b612f7890612f57565b90565b90565b90612f93612f8e612f9a92612f6f565b612f7b565b8254611d7a565b9055565b60018060a01b031690565b612fb5612fba91610726565b612f9e565b90565b612fc79054612fa9565b90565b612fd390610b8d565b90565b90602082820312612fef57612fec915f01610bb3565b90565b6100e8565b60207f207061796d656e7420746f6b656e2c20706c6561736520746f70757000000000917f696e73756666696369656e742062616c616e6365206f662073656c65637465645f8201520152565b61304e603c60409261041f565b61305781612ff4565b0190565b6130709060208101905f818303910152613041565b90565b1561307a57565b6130826100e2565b62461bcd60e51b8152806130986004820161305b565b0390fd5b9493916060916130dd946130c86130d5936130be60808b01945f8c01906111bd565b60208a01906111bd565b8782036040890152610433565b9401906111bd565b565b60207f6e00000000000000000000000000000000000000000000000000000000000000917f7061796d656e742076696120555344206661696c65642c2074727920616761695f8201520152565b613139602160409261041f565b613142816130df565b0190565b61315b9060208101905f81830391015261312c565b90565b1561316557565b61316d6100e2565b62461bcd60e51b81528061318360048201613146565b0390fd5b906131c85f61319e6131996004610b64565b610b99565b63ffc9896b906131bd86926131b16100e2565b95869485938493610ba5565b835260048301610336565b03915afa90811561354c575f9161352a575b5061320a6132056131ff6131fa600c6131f45f87016111df565b90611208565b611238565b15611245565b61274b565b61322a6001613225600c61321f5f86016111df565b90611208565b612774565b61324e61324961324361323e5f85016111df565b61380b565b94613a85565b612794565b9061326a6132656132605f8690612d2d565b611238565b612d92565b6132805f61327a6001869061071a565b0161074a565b61329a61329461328f5f610afa565b6100fb565b916100fb565b1415806134ed575b6132ab90612e3a565b6132c7846132c16132bb5f611990565b91610568565b11612f2e565b6132ef6132e86132e360016132dd81889061071a565b0161074a565b612f63565b6002612f7e565b61333060206133066133016002612fbd565b612fca565b6370a082319061332533926133196100e2565b95869485938493610ba5565b835260048301610336565b03915afa80156134e85761335f915f916134ba575b5061335861335287610568565b91610568565b1015613073565b61338661336b5f611990565b613381600a61337b5f86016111df565b90612895565b6113b7565b6133b06133936002612fbd565b339061339f6006610d8d565b916133aa8893610d9a565b91613f78565b60406133c46133bf60036128ca565b6128d7565b63d3d4d305906133f45f6133d98187016111df565b936133ff8a988a6133e86100e2565b9a8b9889978896610ba5565b86526004860161309c565b03925af180156134b5575f80939091613478575b50613428916134225f9261315e565b016111df565b90919261345e6134587fcd2a91ee6de5fe14e444461345e465432e6dd3dc5fee340a09fcc50b0ffed498936111ec565b936111ec565b9361347361346a6100e2565b92839283612a58565b0390a3565b61342293505f9150916134a46134289360403d81116134ae575b61349c8183610150565b810190612906565b9450915091613413565b503d613492565b610d51565b6134db915060203d81116134e1575b6134d38183610150565b810190612fd6565b5f613345565b503d6134c9565b610d51565b506132ab613507600161350181879061071a565b0161074a565b61352161351b6135165f610afa565b6100fb565b916100fb565b141590506132a2565b61354691503d805f833e61353e8183610150565b810190610d1c565b5f6131da565b610d51565b613559613fd3565b90565b61356d90613568613fe7565b61356f565b565b6135789061407f565b565b6135839061355c565b565b61358d613fe7565b565b613597613585565b565b6135a1610b23565b506135bc5f6135b66135b1610a7b565b61408a565b0161074a565b90565b906135c98261408d565b816135f47fbc7cd75a20ee27fd9adebab32041f755214dbc6bffa90cc0225b39da2e5c2d3b91611dc4565b906135fd6100e2565b806136078161025a565b0390a2613613816127b9565b61362561361f5f611990565b91610568565b115f146136395761363591614158565b505b565b50506136436140e2565b613637565b613650610b23565b503390565b5f90565b5f7f4361727420697320656d70747920666f72207468697320757365720000000000910152565b61368d601b60209261041f565b61369681613659565b0190565b6136af9060208101905f818303910152613680565b90565b156136b957565b6136c16100e2565b62461bcd60e51b8152806136d76004820161369a565b0390fd5b6136e560c0610179565b90565b5f90565b606090565b6136f96136db565b90602080808080808761370a6136e8565b8152016137156136e8565b8152016137206136e8565b81520161372b6136e8565b8152016137366136ec565b8152016137416136e8565b81525050565b61374f6136f1565b90565b600161375e9101610568565b90565b9061376b82610871565b81101561377c576020809102010190565b61134b565b61379561379061379a9261058e565b610adb565b610568565b90565b634e487b7160e01b5f52601160045260245ffd5b6137c06137c691939293610568565b92610568565b916137d2838202610568565b9281840414901517156137e157565b61379d565b6137f56137fb91939293610568565b92610568565b820180921161380657565b61379d565b613813613655565b50613828613823600b8390611329565b6122ac565b61384c61383482610871565b6138466138405f611990565b91610568565b116136b2565b613854613747565b5061385e5f611990565b6138675f611990565b905b8161388461387e61387986610871565b610568565b91610568565b10156139c3576138e05f6138a061389b60056110cf565b6110dc565b63d6d0be9f906138d56138c060206138b98a8a90613761565b51016111df565b926138c96100e2565b95869485938493610ba5565b8352600483016111ca565b03915afa9081156139be575f9161399c575b506138fe5f82016111df565b61391061390a5f611990565b91610568565b1461399157613921602082016111df565b61393361392d5f611990565b91610568565b14613986576139809161397361394e604061397994016111df565b61396d61396860406139618a8a90613761565b51016113d7565b613781565b906137b1565b906137e6565b915b613752565b90613869565b50906139809061397b565b50906139809061397b565b6139b891503d805f833e6139b08183610150565b810190611188565b5f6138f2565b610d51565b6139ea92506139ef9391506139e3906139de600a8490612895565b6113b7565b600a612895565b61214d565b90565b5f90565b60601b90565b613a05906139f6565b90565b613a11906139fc565b90565b613a20613a25916100fb565b613a08565b9052565b60209392613a49601483613a418895613a5197613a14565b0180926106d0565b0180926106d0565b0190565b613a61613a6691610726565b6111ec565b90565b613a7d613a78613a8292610568565b610adb565b61193c565b90565b613a8d6139f2565b50613ace815f4291613aa7613aa26004610b64565b610b99565b613ac363ffc9896b613ab76100e2565b96879485938493610ba5565b835260048301610336565b03915afa8015613b5e57613b3993613b0d613af95f613b1c94613b34978291613b3c575b50016111df565b613b016100e2565b94859360208501613a29565b60208201810382520382610150565b613b2e613b28826127b9565b916127b3565b20613a55565b613a69565b90565b613b5891503d8084833e613b508183610150565b810190610d1c565b5f613af2565b610d51565b606090565b5f7f696e76616c696420546f6b656e20616464720000000000000000000000000000910152565b613b9c601260209261041f565b613ba581613b68565b0190565b613bbe9060208101905f818303910152613b8f565b90565b15613bc857565b613bd06100e2565b62461bcd60e51b815280613be660048201613ba9565b0390fd5b613bf390610b71565b90565b613bff90613bea565b90565b613c0b90610b8d565b90565b69ffffffffffffffffffff1690565b613c2681613c0e565b03613c2d57565b5f80fd5b90505190613c3e82613c1d565b565b90565b613c4c81613c40565b03613c5357565b5f80fd5b90505190613c6482613c43565b565b919060a083820312613cb757613c7e815f8501613c31565b92613c8c8260208301613c57565b92613cb4613c9d8460408501610bb3565b93613cab8160608601610bb3565b93608001613c31565b90565b6100e8565b60ff1690565b613ccb81613cbc565b03613cd257565b5f80fd5b90505190613ce382613cc2565b565b90602082820312613cfe57613cfb915f01613cd6565b90565b6100e8565b90565b613d1a613d15613d1f92613d03565b610adb565b613cbc565b90565b613d2c6008613d06565b90565b613d43613d3e613d4892613c40565b610adb565b610568565b90565b90613d54613655565b50613d5d613b63565b50613d79613d74613d6f5f8490612d2d565b611238565b612d92565b613db3613d925f613d8c6001859061071a565b0161074a565b613dac613da6613da15f610afa565b6100fb565b916100fb565b1415613bc1565b613dd1613dcc5f613dc66001859061071a565b0161074a565b613bf6565b613df560a0613ddf83613c02565b63feaf968c90613ded6100e2565b938492610ba5565b82528180613e056004820161025a565b03915afa8015613f7357613e2a602091613e40935f80929050613f42575b5093613c02565b63313ce56790613e386100e2565b938492610ba5565b82528180613e506004820161025a565b03915afa908115613f3d575f91613f0f575b5091613e6d816127b0565b613e7f613e79826127b9565b916127b3565b20613eac613ea6613e8e6127fd565b613ea0613e9a826127b9565b916127b3565b2061029c565b9161029c565b145f14613ed65750613ed09291613eca613ec4613d22565b92613d2f565b92614608565b91909190565b613f099392613ef06001613eea848261071a565b0161074a565b9091613f03613efd613d22565b94613d2f565b94614432565b91909190565b613f30915060203d8111613f36575b613f288183610150565b810190613ce5565b5f613e62565b503d613f1e565b610d51565b613f63915060a03d8111613f6c575b613f5b8183610150565b810190613c66565b50505090613e23565b503d613f51565b610d51565b91613f86939190919261474c565b565b90565b613f9f613f9a613fa492613f88565b610a5a565b61029c565b90565b613fd07ff0c57e16840df040f15088dc2f81fe391c3923bec73e23a9662efc9c229c6a00613f8b565b90565b613fdb610a3f565b50613fe4613fa7565b90565b613ff8613ff26147a0565b15611245565b613ffe57565b5f631afcd79f60e31b8152806140166004820161025a565b0390fd5b61402b90614026613fe7565b61402d565b565b8061404861404261403d5f610afa565b6100fb565b916100fb565b146140585761405690612662565b565b61407b6140645f610afa565b5f918291631e4fbdf760e01b835260048301610336565b0390fd5b6140889061401a565b565b90565b803b6140a161409b5f611990565b91610568565b146140c3576140c1905f6140bb6140b6610a7b565b61408a565b01611dd3565b565b6140de905f918291634c9c8ce360e01b835260048301610336565b0390fd5b346140f56140ef5f611990565b91610568565b116140fc57565b5f63b398979f60e01b8152806141146004820161025a565b0390fd5b9061412a6141258361018e565b610179565b918252565b3d5f1461414a5761413f3d614118565b903d5f602084013e5b565b614152613b63565b90614148565b5f8061418493614166613b63565b508390602081019051915af49061417b61412f565b909190916147be565b90565b5f7f496e76616c696420707269636520666574636865642066726f6d206665656400910152565b6141bb601f60209261041f565b6141c481614187565b0190565b6141dd9060208101905f8183039101526141ae565b90565b156141e757565b6141ef6100e2565b62461bcd60e51b815280614205600482016141c8565b0390fd5b61421d61421861422292610ad8565b610adb565b613cbc565b90565b60207f6f6d207072696365206665656400000000000000000000000000000000000000917f496e76616c6964206665656420646563696d616c7320666574636865642066725f8201520152565b61427f602d60409261041f565b61428881614225565b0190565b6142a19060208101905f818303910152614272565b90565b156142ab57565b6142b36100e2565b62461bcd60e51b8152806142c96004820161428c565b0390fd5b60207f726f6d20746f6b656e20636f6e74726163740000000000000000000000000000917f496e76616c696420746f6b656e20646563696d616c73206665746368656420665f8201520152565b614327603260409261041f565b614330816142cd565b0190565b6143499060208101905f81830391015261431a565b90565b1561435357565b61435b6100e2565b62461bcd60e51b81528061437160048201614334565b0390fd5b61437e90613cbc565b604d811161438c57600a0a90565b61379d565b6143a56143a06143aa92610568565b610adb565b613c40565b90565b6143b690613cbc565b9052565b6143c390613c40565b9052565b6040906143f36143e86143fa9597969460608401908482035f860152610433565b9660208301906143ad565b01906143ba565b565b634e487b7160e01b5f52601260045260245ffd5b61441c61442291610568565b91610568565b90811561442d570490565b6143fc565b959493614572919361456c61457e965f806145789761444f613655565b50614458613b63565b506144758461446f61446985611990565b91610568565b116141e0565b6144918661448b61448585614209565b91613cbc565b116142a4565b614499613655565b506144a26100e2565b6144ce816144bf60046020830163313ce56760e01b81520161025a565b60208201810382520382610150565b82602082019151925af15061451e6144fd6144e761412f565b60206144f2826127b9565b818301019101613ce5565b6145198161451361450d5f614209565b91613cbc565b1161434c565b614375565b938361453261452c83613cbc565b91613cbc565b145f14614582575061454390614391565b5b9561455d876145516100e2565b948593602085016143c7565b60208201810382520382610150565b966137b1565b91613d2f565b90614410565b9190565b61458e61459792614391565b90849091614924565b614544565b6145a9600360209261041f565b6145b2816127bd565b0190565b9160406145e79294936145e06145d5606083018381035f85015261459c565b9660208301906143ad565b01906143ba565b565b90565b6146006145fb614605926145e9565b610adb565b610568565b90565b93926146c86146ce916146d49461461d613655565b50614626613b63565b506146438261463d6146375f611990565b91610568565b116141e0565b61465f856146596146535f614209565b91613cbc565b116142a4565b8461467261466c83613cbc565b91613cbc565b145f146146d8575061468390614391565b5b926146b084916146a16146956100e2565b938492602084016145b6565b60208201810382520382610150565b956146c2670de0b6b3a76400006145ec565b906137b1565b91613d2f565b90614410565b9190565b6146e46146ed92614391565b90859091614924565b614684565b63ffffffff60e01b1690565b61471261470d6147179261058e565b610ba5565b6146f2565b90565b60409061474361474a949695939661473960608401985f850190610329565b6020830190610329565b01906111bd565b565b60049261478661479a9593614795939461476d6323b872dd929491926146fe565b936147766100e2565b978895602087019081520161471a565b60208201810382520383610150565b6149e1565b565b5f90565b6147a861479c565b506147bb5f6147b5613551565b01611901565b90565b906147d2906147cb613b63565b5015611245565b5f146147de5750614a95565b6147e7826127b9565b6147f96147f35f611990565b91610568565b1480614827575b614808575090565b614823905f918291639996b31560e01b835260048301610336565b0390fd5b50803b61483c6148365f611990565b91610568565b14614800565b5f90565b61485261485891613cbc565b91613cbc565b90039060ff821161486557565b61379d565b61487e61487961488392613cbc565b610adb565b610568565b90565b61488f90610568565b604d811161489d57600a0a90565b61379d565b6148ae6148b491613c40565b91613c40565b9081156148d65760015f038214600160ff1b8214166148d1570590565b61379d565b6143fc565b6148ea6148f091939293613c40565b92613c40565b916148fc838202613c40565b92600160ff1b81145f83121661491f57818405149015171561491a57565b61379d565b61379d565b919061492e614842565b508061494261493c84613cbc565b91613cbc565b105f146149785761496a61496561496061496f936149759695614846565b61486a565b614886565b614391565b906148db565b90565b908161498c61498683613cbc565b91613cbc565b1161499657505090565b6149b76149b26149ad6149bc936149c29695614846565b61486a565b614886565b614391565b906148a2565b90565b6149d96149d46149de92611965565b610adb565b610568565b90565b905f6020916149ee613655565b506149f7613655565b50828151910182855af115614a8a573d5f5190614a1c614a165f611990565b91610568565b145f14614a705750614a2d81612fca565b3b614a40614a3a5f611990565b91610568565b145b614a495750565b614a55614a6c91612fca565b5f918291635274afe760e01b835260048301610336565b0390fd5b614a83614a7d60016149c5565b91610568565b1415614a42565b6040513d5f823e3d90fd5b614a9e816127b9565b614ab0614aaa5f611990565b91610568565b115f14614abf57805190602001fd5b5f63d6bda27560e01b815280614ad76004820161025a565b0390fdfea2646970667358221220e61b770a85f963e5a4f5ec15175d45ee1704a828a64963abac5b1600de412ca164736f6c634300081c0033","linkReferences":{}},"methodIdentifiers":{"UPGRADE_INTERFACE_VERSION()":"ad3cb1cc","addProductToCart(uint256,uint32)":"d8de4c4b","checkOutWithNative(string)":"c0be8631","checkOutWithUSD(string)":"ea34e4b3","getCart(uint256)":"ffb10551","initialize(address,address,address,address)":"f8c8765e","owner()":"8da5cb5b","proxiableUUID()":"52d1902d","renounceOwnership()":"715018a6","tokenSymbolToDetails(string)":"f661f44c","transferOwnership(address)":"f2fde38b","upgradeToAndCall(address,bytes)":"4f1ef286"},"storageLayout":{"storage":[{"astId":37954,"contract":"src/Ecomm.sol:Ecommerce","label":"isAccepted","offset":0,"slot":"0","type":"t_mapping(t_string_memory_ptr,t_bool)"},{"astId":37959,"contract":"src/Ecomm.sol:Ecommerce","label":"tokenSymbolToDetails","offset":0,"slot":"1","type":"t_mapping(t_string_memory_ptr,t_struct(Token)37917_storage)"},{"astId":38113,"contract":"src/Ecomm.sol:Ecommerce","label":"erc20","offset":0,"slot":"2","type":"t_contract(IERC20)36694"},{"astId":38175,"contract":"src/Ecomm.sol:Ecommerce","label":"escrowInterface","offset":0,"slot":"3","type":"t_contract(IEcomEscrow)41049"},{"astId":38178,"contract":"src/Ecomm.sol:Ecommerce","label":"userInterface","offset":0,"slot":"4","type":"t_contract(IUser)40998"},{"astId":38181,"contract":"src/Ecomm.sol:Ecommerce","label":"productInterface","offset":0,"slot":"5","type":"t_contract(IProduct)41007"},{"astId":38183,"contract":"src/Ecomm.sol:Ecommerce","label":"escrowContract","offset":0,"slot":"6","type":"t_address_payable"},{"astId":38185,"contract":"src/Ecomm.sol:Ecommerce","label":"userContract","offset":0,"slot":"7","type":"t_address"},{"astId":38187,"contract":"src/Ecomm.sol:Ecommerce","label":"productContract","offset":0,"slot":"8","type":"t_address"},{"astId":38199,"contract":"src/Ecomm.sol:Ecommerce","label":"checkoutTokenRate","offset":0,"slot":"9","type":"t_mapping(t_uint256,t_mapping(t_string_memory_ptr,t_uint256))"},{"astId":38203,"contract":"src/Ecomm.sol:Ecommerce","label":"_checkoutAmount","offset":0,"slot":"10","type":"t_mapping(t_uint256,t_uint256)"},{"astId":38209,"contract":"src/Ecomm.sol:Ecommerce","label":"cart","offset":0,"slot":"11","type":"t_mapping(t_uint256,t_array(t_struct(OrderItem)37912_storage)dyn_storage)"},{"astId":38213,"contract":"src/Ecomm.sol:Ecommerce","label":"isCartProcessed","offset":0,"slot":"12","type":"t_mapping(t_uint256,t_bool)"}],"types":{"t_address":{"encoding":"inplace","label":"address","numberOfBytes":"20"},"t_address_payable":{"encoding":"inplace","label":"address payable","numberOfBytes":"20"},"t_array(t_struct(OrderItem)37912_storage)dyn_storage":{"encoding":"dynamic_array","label":"struct OrderItem[]","numberOfBytes":"32","base":"t_struct(OrderItem)37912_storage"},"t_bool":{"encoding":"inplace","label":"bool","numberOfBytes":"1"},"t_contract(IERC20)36694":{"encoding":"inplace","label":"contract IERC20","numberOfBytes":"20"},"t_contract(IEcomEscrow)41049":{"encoding":"inplace","label":"contract IEcomEscrow","numberOfBytes":"20"},"t_contract(IProduct)41007":{"encoding":"inplace","label":"contract IProduct","numberOfBytes":"20"},"t_contract(IUser)40998":{"encoding":"inplace","label":"contract IUser","numberOfBytes":"20"},"t_enum(OrderStatus)37898":{"encoding":"inplace","label":"enum OrderStatus","numberOfBytes":"1"},"t_mapping(t_string_memory_ptr,t_bool)":{"encoding":"mapping","key":"t_string_memory_ptr","label":"mapping(string => bool)","numberOfBytes":"32","value":"t_bool"},"t_mapping(t_string_memory_ptr,t_struct(Token)37917_storage)":{"encoding":"mapping","key":"t_string_memory_ptr","label":"mapping(string => struct Token)","numberOfBytes":"32","value":"t_struct(Token)37917_storage"},"t_mapping(t_string_memory_ptr,t_uint256)":{"encoding":"mapping","key":"t_string_memory_ptr","label":"mapping(string => uint256)","numberOfBytes":"32","value":"t_uint256"},"t_mapping(t_uint256,t_array(t_struct(OrderItem)37912_storage)dyn_storage)":{"encoding":"mapping","key":"t_uint256","label":"mapping(uint256 => struct OrderItem[])","numberOfBytes":"32","value":"t_array(t_struct(OrderItem)37912_storage)dyn_storage"},"t_mapping(t_uint256,t_bool)":{"encoding":"mapping","key":"t_uint256","label":"mapping(uint256 => bool)","numberOfBytes":"32","value":"t_bool"},"t_mapping(t_uint256,t_mapping(t_string_memory_ptr,t_uint256))":{"encoding":"mapping","key":"t_uint256","label":"mapping(uint256 => mapping(string => uint256))","numberOfBytes":"32","value":"t_mapping(t_string_memory_ptr,t_uint256)"},"t_mapping(t_uint256,t_uint256)":{"encoding":"mapping","key":"t_uint256","label":"mapping(uint256 => uint256)","numberOfBytes":"32","value":"t_uint256"},"t_string_memory_ptr":{"encoding":"bytes","label":"string","numberOfBytes":"32"},"t_struct(OrderItem)37912_storage":{"encoding":"inplace","label":"struct OrderItem","numberOfBytes":"192","members":[{"astId":37900,"contract":"src/Ecomm.sol:Ecommerce","label":"sellerId","offset":0,"slot":"0","type":"t_uint256"},{"astId":37902,"contract":"src/Ecomm.sol:Ecommerce","label":"productId","offset":0,"slot":"1","type":"t_uint256"},{"astId":37904,"contract":"src/Ecomm.sol:Ecommerce","label":"qty","offset":0,"slot":"2","type":"t_uint32"},{"astId":37906,"contract":"src/Ecomm.sol:Ecommerce","label":"unitPrice","offset":0,"slot":"3","type":"t_uint256"},{"astId":37909,"contract":"src/Ecomm.sol:Ecommerce","label":"orderStatus","offset":0,"slot":"4","type":"t_enum(OrderStatus)37898"},{"astId":37911,"contract":"src/Ecomm.sol:Ecommerce","label":"_proposedDeliveryTime","offset":0,"slot":"5","type":"t_uint256"}]},"t_struct(Token)37917_storage":{"encoding":"inplace","label":"struct Token","numberOfBytes":"64","members":[{"astId":37914,"contract":"src/Ecomm.sol:Ecommerce","label":"feedAddr","offset":0,"slot":"0","type":"t_address"},{"astId":37916,"contract":"src/Ecomm.sol:Ecommerce","label":"tokenAddr","offset":0,"slot":"1","type":"t_address"}]},"t_uint256":{"encoding":"inplace","label":"uint256","numberOfBytes":"32"},"t_uint32":{"encoding":"inplace","label":"uint32","numberOfBytes":"4"}}},"id":38}