{"abi":[{"type":"constructor","inputs":[],"stateMutability":"nonpayable"},{"type":"function","name":"UPGRADE_INTERFACE_VERSION","inputs":[],"outputs":[{"name":"","type":"string","internalType":"string"}],"stateMutability":"view"},{"type":"function","name":"addProductToCart","inputs":[{"name":"_productId","type":"uint256","internalType":"uint256"},{"name":"_qty","type":"uint32","internalType":"uint32"}],"outputs":[],"stateMutability":"nonpayable"},{"type":"function","name":"checkOutWithNative","inputs":[{"name":"_payToken","type":"string","internalType":"string"}],"outputs":[],"stateMutability":"payable"},{"type":"function","name":"checkOutWithUSD","inputs":[{"name":"_payToken","type":"string","internalType":"string"}],"outputs":[],"stateMutability":"nonpayable"},{"type":"function","name":"getCart","inputs":[{"name":"_userId","type":"uint256","internalType":"uint256"}],"outputs":[{"name":"","type":"tuple[]","internalType":"struct OrderItem[]","components":[{"name":"sellerId","type":"uint256","internalType":"uint256"},{"name":"productId","type":"uint256","internalType":"uint256"},{"name":"qty","type":"uint32","internalType":"uint32"},{"name":"unitPrice","type":"uint256","internalType":"uint256"},{"name":"orderStatus","type":"uint8","internalType":"enum OrderStatus"},{"name":"_proposedDeliveryTime","type":"uint256","internalType":"uint256"}]}],"stateMutability":"view"},{"type":"function","name":"initialize","inputs":[{"name":"_escrowAddress","type":"address","internalType":"address"},{"name":"_userContract","type":"address","internalType":"address"},{"name":"_productContract","type":"address","internalType":"address"},{"name":"initialOwner","type":"address","internalType":"address"}],"outputs":[],"stateMutability":"nonpayable"},{"type":"function","name":"owner","inputs":[],"outputs":[{"name":"","type":"address","internalType":"address"}],"stateMutability":"view"},{"type":"function","name":"proxiableUUID","inputs":[],"outputs":[{"name":"","type":"bytes32","internalType":"bytes32"}],"stateMutability":"view"},{"type":"function","name":"renounceOwnership","inputs":[],"outputs":[],"stateMutability":"nonpayable"},{"type":"function","name":"transferOwnership","inputs":[{"name":"newOwner","type":"address","internalType":"address"}],"outputs":[],"stateMutability":"nonpayable"},{"type":"function","name":"upgradeToAndCall","inputs":[{"name":"newImplementation","type":"address","internalType":"address"},{"name":"data","type":"bytes","internalType":"bytes"}],"outputs":[],"stateMutability":"payable"},{"type":"event","name":"AccountOwnershipChanged","inputs":[{"name":"_userId","type":"uint256","indexed":true,"internalType":"uint256"},{"name":"_changedBy","type":"address","indexed":false,"internalType":"address"},{"name":"_oldOwner","type":"address","indexed":false,"internalType":"address"},{"name":"_newOwner","type":"address","indexed":false,"internalType":"address"}],"anonymous":false},{"type":"event","name":"CanceledDelivery","inputs":[{"name":"_seller","type":"uint256","indexed":true,"internalType":"uint256"},{"name":"_ref","type":"uint256","indexed":true,"internalType":"uint256"},{"name":"_item","type":"uint256","indexed":true,"internalType":"uint256"}],"anonymous":false},{"type":"event","name":"Initialized","inputs":[{"name":"version","type":"uint64","indexed":false,"internalType":"uint64"}],"anonymous":false},{"type":"event","name":"OwnershipTransferred","inputs":[{"name":"previousOwner","type":"address","indexed":true,"internalType":"address"},{"name":"newOwner","type":"address","indexed":true,"internalType":"address"}],"anonymous":false},{"type":"event","name":"ProductOrderStatusUpdated","inputs":[{"name":"_buyer","type":"uint256","indexed":true,"internalType":"uint256"},{"name":"_payref","type":"uint256","indexed":true,"internalType":"uint256"},{"name":"_itemId","type":"uint256","indexed":true,"internalType":"uint256"},{"name":"_delivered","type":"bool","indexed":false,"internalType":"bool"}],"anonymous":false},{"type":"event","name":"ProductpriceUpdate","inputs":[{"name":"_productId","type":"uint256","indexed":true,"internalType":"uint256"},{"name":"_sellerId","type":"uint256","indexed":true,"internalType":"uint256"},{"name":"_newPrice","type":"uint256","indexed":false,"internalType":"uint256"}],"anonymous":false},{"type":"event","name":"ResgisteredAProduct","inputs":[{"name":"_productId","type":"uint256","indexed":true,"internalType":"uint256"},{"name":"_sellerId","type":"uint256","indexed":true,"internalType":"uint256"}],"anonymous":false},{"type":"event","name":"ResgisteredAuser","inputs":[{"name":"_userId","type":"uint256","indexed":true,"internalType":"uint256"}],"anonymous":false},{"type":"event","name":"SuccessfulCheckout","inputs":[{"name":"_userId","type":"uint256","indexed":true,"internalType":"uint256"},{"name":"_paymentRefence","type":"uint256","indexed":true,"internalType":"uint256"},{"name":"_currency","type":"string","indexed":false,"internalType":"string"},{"name":"_amountPaid","type":"uint256","indexed":false,"internalType":"uint256"}],"anonymous":false},{"type":"event","name":"Upgraded","inputs":[{"name":"implementation","type":"address","indexed":true,"internalType":"address"}],"anonymous":false},{"type":"event","name":"VerifiedAuser","inputs":[{"name":"_userId","type":"uint256","indexed":true,"internalType":"uint256"}],"anonymous":false},{"type":"event","name":"WithdrawSuccess","inputs":[{"name":"_userId","type":"uint256","indexed":true,"internalType":"uint256"},{"name":"_tokenSymbol","type":"string","indexed":false,"internalType":"string"},{"name":"_payRef","type":"uint256","indexed":true,"internalType":"uint256"},{"name":"_amount","type":"uint256","indexed":false,"internalType":"uint256"},{"name":"_date","type":"uint256","indexed":true,"internalType":"uint256"}],"anonymous":false},{"type":"error","name":"AddressEmptyCode","inputs":[{"name":"target","type":"address","internalType":"address"}]},{"type":"error","name":"ERC1967InvalidImplementation","inputs":[{"name":"implementation","type":"address","internalType":"address"}]},{"type":"error","name":"ERC1967NonPayable","inputs":[]},{"type":"error","name":"FailedCall","inputs":[]},{"type":"error","name":"InvalidInitialization","inputs":[]},{"type":"error","name":"NotInitializing","inputs":[]},{"type":"error","name":"OwnableInvalidOwner","inputs":[{"name":"owner","type":"address","internalType":"address"}]},{"type":"error","name":"OwnableUnauthorizedAccount","inputs":[{"name":"account","type":"address","internalType":"address"}]},{"type":"error","name":"SafeERC20FailedOperation","inputs":[{"name":"token","type":"address","internalType":"address"}]},{"type":"error","name":"UUPSUnauthorizedCallContext","inputs":[]},{"type":"error","name":"UUPSUnsupportedProxiableUUID","inputs":[{"name":"slot","type":"bytes32","internalType":"bytes32"}]}],"bytecode":{"object":"0x60a06040523461003e5761001161004d565b610019610043565b6150de6102dc8239608051818181612262015281816122c7015261248201526150de90f35b610049565b60405190565b5f80fd5b61005561005f565b61005d6101b2565b565b610067610069565b565b6100716100b5565b565b60018060a01b031690565b90565b61009561009061009a92610073565b61007e565b610073565b90565b6100a690610081565b90565b6100b29061009d565b90565b6100be306100a9565b608052565b60401c90565b60ff1690565b6100db6100e0916100c3565b6100c9565b90565b6100ed90546100cf565b90565b5f0190565b5f1c90565b60018060401b031690565b610111610116916100f5565b6100fa565b90565b6101239054610105565b90565b60018060401b031690565b5f1b90565b9061014760018060401b0391610131565b9181191691161790565b61016561016061016a92610126565b61007e565b610126565b90565b90565b9061018561018061018c92610151565b61016d565b8254610136565b9055565b61019990610126565b9052565b91906101b0905f60208501940190610190565b565b6101ba61026a565b6101c55f82016100e3565b61024e576101d45f8201610119565b6101ec6101e660018060401b03610126565b91610126565b036101f5575b50565b610208905f60018060401b039101610170565b60018060401b036102457fc7f505b2f371ae2175ee4913f4499e1f2633a7b5936321eed1cdaeb6115181d29161023c610043565b9182918261019d565b0390a15f6101f2565b5f63f92ee8a960e01b815280610266600482016100f0565b0390fd5b6102726102c7565b90565b5f90565b90565b90565b61029361028e61029892610279565b610131565b61027c565b90565b6102c47ff0c57e16840df040f15088dc2f81fe391c3923bec73e23a9662efc9c229c6a0061027f565b90565b6102cf610275565b506102d861029b565b9056fe60806040526004361015610013575b6108bf565b61001d5f356100cc565b80634f1ef286146100c757806352d1902d146100c2578063715018a6146100bd5780638da5cb5b146100b8578063ad3cb1cc146100b3578063c0be8631146100ae578063d8de4c4b146100a9578063ea34e4b3146100a4578063f2fde38b1461009f578063f8c8765e1461009a5763ffb105510361000e5761088a565b6106d5565b61065c565b61060b565b6105d7565b61052f565b61046c565b61033b565b6102e6565b6102b1565b61024f565b60e01c90565b60405190565b5f80fd5b5f80fd5b60018060a01b031690565b6100f4906100e0565b90565b610100816100eb565b0361010757565b5f80fd5b90503590610118826100f7565b565b5f80fd5b5f80fd5b601f801991011690565b634e487b7160e01b5f52604160045260245ffd5b9061014a90610122565b810190811067ffffffffffffffff82111761016457604052565b61012c565b9061017c6101756100d2565b9283610140565b565b67ffffffffffffffff811161019c57610198602091610122565b0190565b61012c565b90825f939282370152565b909291926101c16101bc8261017e565b610169565b938185526020850190828401116101dd576101db926101a1565b565b61011e565b9080601f83011215610200578160206101fd933591016101ac565b90565b61011a565b9190916040818403126102455761021e835f830161010b565b92602082013567ffffffffffffffff81116102405761023d92016101e2565b90565b6100dc565b6100d8565b5f0190565b61026361025d366004610205565b906108ec565b61026b6100d2565b806102758161024a565b0390f35b5f80fd5b5f91031261028757565b6100d8565b90565b6102989061028c565b9052565b91906102af905f6020850194019061028f565b565b346102e1576102c136600461027d565b6102dd6102cc61096c565b6102d46100d2565b9182918261029c565b0390f35b610279565b34610314576102f636600461027d565b6102fe6109d2565b6103066100d2565b806103108161024a565b0390f35b610279565b610322906100eb565b9052565b9190610339905f60208501940190610319565b565b3461036b5761034b36600461027d565b610367610356610a11565b61035e6100d2565b91829182610326565b0390f35b610279565b67ffffffffffffffff811161038e5761038a602091610122565b0190565b61012c565b906103a56103a083610370565b610169565b918252565b5f7f352e302e30000000000000000000000000000000000000000000000000000000910152565b6103db6005610393565b906103e8602083016103aa565b565b6103f26103d1565b90565b6103fd6103ea565b90565b6104086103f5565b90565b5190565b60209181520190565b90825f9392825e0152565b61044261044b602093610450936104398161040b565b9384809361040f565b95869101610418565b610122565b0190565b6104699160208201915f818403910152610423565b90565b3461049c5761047c36600461027d565b610498610487610400565b61048f6100d2565b91829182610454565b0390f35b610279565b909291926104b66104b182610370565b610169565b938185526020850190828401116104d2576104d0926101a1565b565b61011e565b9080601f830112156104f5578160206104f2933591016104a1565b90565b61011a565b9060208282031261052a575f82013567ffffffffffffffff81116105255761052292016104d7565b90565b6100dc565b6100d8565b61054261053d3660046104fa565b610e4d565b61054a6100d2565b806105548161024a565b0390f35b90565b61056481610558565b0361056b57565b5f80fd5b9050359061057c8261055b565b565b63ffffffff1690565b6105908161057e565b0361059757565b5f80fd5b905035906105a882610587565b565b91906040838203126105d257806105c66105cf925f860161056f565b9360200161059b565b90565b6100d8565b34610606576105f06105ea3660046105aa565b906115fd565b6105f86100d2565b806106028161024a565b0390f35b610279565b346106395761062361061e3660046104fa565b611727565b61062b6100d2565b806106358161024a565b0390f35b610279565b9060208282031261065757610654915f0161010b565b90565b6100d8565b3461068a5761067461066f36600461063e565b611797565b61067c6100d2565b806106868161024a565b0390f35b610279565b6080818303126106d0576106a5825f830161010b565b926106cd6106b6846020850161010b565b936106c4816040860161010b565b9360600161010b565b90565b6100d8565b34610707576106f16106e836600461068f565b92919091611e89565b6106f96100d2565b806107038161024a565b0390f35b610279565b9060208282031261072557610722915f0161056f565b90565b6100d8565b5190565b60209181520190565b60200190565b61074690610558565b9052565b6107539061057e565b9052565b634e487b7160e01b5f52602160045260245ffd5b6005111561077557565b610757565b906107848261076b565b565b61078f9061077a565b90565b61079b90610786565b9052565b9060a080610809936107b75f8201515f86019061073d565b6107c96020820151602086019061073d565b6107db6040820151604086019061074a565b6107ed6060820151606086019061073d565b6107ff60808201516080860190610792565b015191019061073d565b565b906108188160c09361079f565b0190565b60200190565b9061083f6108396108328461072a565b809361072e565b92610737565b905f5b81811061084f5750505090565b909192610868610862600192865161080b565b9461081c565b9101919091610842565b6108879160208201915f818403910152610822565b90565b346108ba576108b66108a56108a036600461070c565b612231565b6108ad6100d2565b91829182610872565b0390f35b610279565b5f80fd5b906108d5916108d0612251565b6108d7565b565b906108ea916108e581612303565b612373565b565b906108f6916108c3565b565b5f90565b61090d90610908612471565b610960565b90565b90565b5f1b90565b61092c61092761093192610910565b610913565b61028c565b90565b61095d7f360894a13ba1a3210667c828492db98dca3e2076cc3735a920a3ca505d382bbc610918565b90565b50610969610934565b90565b61097c6109776108f8565b6108fc565b90565b6109876124cf565b61098f6109bf565b565b90565b90565b6109ab6109a66109b092610991565b610994565b6100e0565b90565b6109bc90610997565b90565b6109d06109cb5f6109b3565b61251d565b565b6109da61097f565b565b5f90565b5f1c90565b60018060a01b031690565b6109fc610a01916109e0565b6109e5565b90565b610a0e90546109f0565b90565b610a196109dc565b50610a2c5f610a26612589565b01610a04565b90565b60018060a01b031690565b610a46610a4b916109e0565b610a2f565b90565b610a589054610a3a565b90565b610a6f610a6a610a74926100e0565b610994565b6100e0565b90565b610a8090610a5b565b90565b610a8c90610a77565b90565b60e01b90565b5f80fd5b5f80fd5b90505190610aaa8261055b565b565b90929192610ac1610abc82610370565b610169565b93818552602085019082840111610add57610adb92610418565b565b61011e565b9080601f83011215610b0057816020610afd93519101610aac565b90565b61011a565b90505190610b12826100f7565b565b60031115610b1e57565b5f80fd5b90505190610b2f82610b14565b565b91909160a081840312610bd257610b4860a0610169565b92610b55815f8401610a9d565b5f850152602082015167ffffffffffffffff8111610bcd5781610b79918401610ae2565b602085015260408201519167ffffffffffffffff8311610bc857610ba282610bc1948301610ae2565b6040860152610bb48260608301610b05565b6060860152608001610b22565b6080830152565b610a99565b610a99565b610a95565b90602082820312610c07575f82015167ffffffffffffffff8111610c0257610bff9201610b31565b90565b6100dc565b6100d8565b610c146100d2565b3d5f823e3d90fd5b610c2690516100eb565b90565b60018060a01b031690565b610c40610c45916109e0565b610c29565b90565b610c529054610c34565b90565b610c5e90610a77565b90565b60407f6f6e000000000000000000000000000000000000000000000000000000000000917f6f6e6c7920726567697374657265642075736572206f722074686520657363725f8201527f6f7720636f6e74726163742063616e2063616c6c20746869732066756e63746960208201520152565b610ce1604260609261040f565b610cea81610c61565b0190565b610d039060208101905f818303910152610cd4565b90565b15610d0d57565b610d156100d2565b62461bcd60e51b815280610d2b60048201610cee565b0390fd5b610d70905f610d46610d416002610a4e565b610a83565b63ffc9896b90610d653392610d596100d2565b96879485938493610a8f565b835260048301610326565b03915afa918215610e3c57610d966060610de194610ddc935f91610e1a575b5001610c1c565b610da8610da36004610c48565b610c55565b9080610dc4610dbe610db95f6109b3565b6100eb565b916100eb565b14159081610dff575b50908115610de3575b50610d06565b610e41565b565b9050610df8610df233926100eb565b916100eb565b145f610dd6565b9050610e13610e0d336100eb565b916100eb565b145f610dcd565b610e3691503d805f833e610e2e8183610140565b810190610bd7565b5f610d8f565b610c0c565b610e4b9033612925565b565b610e5690610d2f565b565b90610e9a915f610e70610e6b6002610a4e565b610a83565b63ffc9896b90610e8f3392610e836100d2565b97889485938493610a8f565b835260048301610326565b03915afa928315610f6657610ec06060610f0b95610f06935f91610f44575b5001610c1c565b610ed2610ecd6004610c48565b610c55565b9080610eee610ee8610ee35f6109b3565b6100eb565b916100eb565b14159081610f29575b50908115610f0d575b50610d06565b61142b565b565b9050610f22610f1c33926100eb565b916100eb565b145f610f00565b9050610f3d610f37336100eb565b916100eb565b145f610ef7565b610f6091503d805f833e610f588183610140565b810190610bd7565b5f610eb9565b610c0c565b60018060a01b031690565b610f82610f87916109e0565b610f6b565b90565b610f949054610f76565b90565b610fa090610a77565b90565b91909160c08184031261103e57610fba60c0610169565b92610fc7815f8401610a9d565b5f850152610fd88160208401610a9d565b6020850152610fea8160408401610a9d565b6040850152610ffc8160608401610a9d565b606085015260808201519167ffffffffffffffff83116110395761102582611032948301610ae2565b608086015260a001610a9d565b60a0830152565b610a99565b610a95565b90602082820312611073575f82015167ffffffffffffffff811161106e5761106b9201610fa3565b90565b6100dc565b6100d8565b61108190610558565b9052565b9190611098905f60208501940190611078565b565b6110a49051610558565b90565b6110bb6110b66110c092610558565b610994565b610558565b90565b906110cd906110a7565b5f5260205260405f2090565b60ff1690565b6110eb6110f0916109e0565b6110d9565b90565b6110fd90546110df565b90565b151590565b60207f63616e277420616464206d6f7265206974656d73000000000000000000000000917f4361727420616c7265616479206265696e672070726f6365737365642c2075205f8201520152565b61115f603460409261040f565b61116881611105565b0190565b6111819060208101905f818303910152611152565b90565b1561118b57565b6111936100d2565b62461bcd60e51b8152806111a96004820161116c565b0390fd5b6111b760c0610169565b90565b906111c490610558565b9052565b906111d29061057e565b9052565b906111e09061077a565b9052565b906111ee906110a7565b5f5260205260405f2090565b90565b5f5260205f2090565b634e487b7160e01b5f52603260045260245ffd5b5490565b6112278161121a565b821015611241576112396006916111fd565b910201905f90565b611206565b634e487b7160e01b5f525f60045260245ffd5b906112655f1991610913565b9181191691161790565b90565b9061128761128261128e926110a7565b61126f565b8254611259565b9055565b61129c905161057e565b90565b906112ae63ffffffff91610913565b9181191691161790565b6112cc6112c76112d19261057e565b610994565b61057e565b90565b90565b906112ec6112e76112f3926112b8565b6112d4565b825461129f565b9055565b611301905161077a565b90565b9061131060ff91610913565b9181191691161790565b6113239061077a565b90565b90565b9061133e6113396113459261131a565b611326565b8254611304565b9055565b906113d860a060056113de9461136c5f82016113665f880161109a565b90611272565b6113856001820161137f6020880161109a565b90611272565b61139e6002820161139860408801611292565b906112d7565b6113b7600382016113b16060880161109a565b90611272565b6113d0600482016113ca608088016112f7565b90611329565b01920161109a565b90611272565b565b91906113f1576113ef91611349565b565b611246565b9081549168010000000000000000831015611426578261141e9160016114249501815561121e565b906113e0565b565b61012c565b5f6114699161144261143d6003610f8a565b610f97565b61145e63d6d0be9f6114526100d2565b95869485938493610a8f565b835260048301611085565b03915afa9081156115f8575f916115d6575b50906114bd5f61149361148e6002610a4e565b610a83565b63ffc9896b906114b233926114a66100d2565b95869485938493610a8f565b835260048301610326565b03915afa80156115d1576115ad9361158f6115a3926115a8945f916115af575b509461150e6115096115036114fe600a6114f85f8c0161109a565b906110c3565b6110f3565b15611100565b611184565b61158661151d6020850161109a565b9361157d61152c5f830161109a565b9361157461153c6040850161109a565b9161156b61154d60a05f970161109a565b976115626115596111ad565b9b5f8d016111ba565b60208b016111ba565b604089016111c8565b606087016111ba565b608085016111d6565b60a083016111ba565b9261159d5f6009920161109a565b906111e4565b6111fa565b6113f6565b565b6115cb91503d805f833e6115c38183610140565b810190610bd7565b5f6114dd565b610c0c565b6115f291503d805f833e6115ea8183610140565b810190611043565b5f61147b565b610c0c565b9061160791610e58565b565b61164a905f61162061161b6002610a4e565b610a83565b63ffc9896b9061163f33926116336100d2565b96879485938493610a8f565b835260048301610326565b03915afa9182156117165761167060606116bb946116b6935f916116f4575b5001610c1c565b61168261167d6004610c48565b610c55565b908061169e6116986116935f6109b3565b6100eb565b916100eb565b141590816116d9575b509081156116bd575b50610d06565b61171b565b565b90506116d26116cc33926100eb565b916100eb565b145f6116b0565b90506116ed6116e7336100eb565b916100eb565b145f6116a7565b61171091503d805f833e6117088183610140565b810190610bd7565b5f611669565b610c0c565b6117259033613044565b565b61173090611609565b565b6117439061173e6124cf565b611745565b565b8061176061175a6117555f6109b3565b6100eb565b916100eb565b146117705761176e9061251d565b565b61179361177c5f6109b3565b5f918291631e4fbdf760e01b835260048301610326565b0390fd5b6117a090611732565b565b60401c90565b6117b46117b9916117a2565b6110d9565b90565b6117c690546117a8565b90565b67ffffffffffffffff1690565b6117e26117e7916109e0565b6117c9565b90565b6117f490546117d6565b90565b67ffffffffffffffff1690565b61181861181361181d92610991565b610994565b6117f7565b90565b90565b61183761183261183c92611820565b610994565b6117f7565b90565b61184890610a77565b90565b61185f61185a61186492610991565b610994565b610558565b90565b9061187a67ffffffffffffffff91610913565b9181191691161790565b61189861189361189d926117f7565b610994565b6117f7565b90565b90565b906118b86118b36118bf92611884565b6118a0565b8254611867565b9055565b60401b90565b906118dd68ff0000000000000000916118c3565b9181191691161790565b6118f090611100565b90565b90565b9061190b611906611912926118e7565b6118f3565b82546118c9565b9055565b61191f90611823565b9052565b9190611936905f60208501940190611916565b565b9091926119436135f7565b936119586119525f87016117bc565b15611100565b936119645f87016117ea565b806119776119715f611804565b916117f7565b1480611a91575b9061199261198c6001611823565b916117f7565b1480611a69575b6119a4909115611100565b9081611a58575b50611a3c576119d4936119c96119c16001611823565b5f89016118a3565b85611a2a575b611d83565b6119dc575b50565b6119e9905f8091016118f6565b6001611a217fc7f505b2f371ae2175ee4913f4499e1f2633a7b5936321eed1cdaeb6115181d291611a186100d2565b91829182611923565b0390a15f6119d9565b611a3760015f89016118f6565b6119cf565b5f63f92ee8a960e01b815280611a546004820161024a565b0390fd5b611a63915015611100565b5f6119ab565b506119a4611a763061183f565b3b611a89611a835f61184b565b91610558565b149050611999565b508561197e565b5f7f496e76616c696420455343524f57206164647265737300000000000000000000910152565b611acc601660209261040f565b611ad581611a98565b0190565b611aee9060208101905f818303910152611abf565b90565b15611af857565b611b006100d2565b62461bcd60e51b815280611b1660048201611ad9565b0390fd5b5f7f496e76616c6964207573657220636f6e74726163742061646472657373000000910152565b611b4e601d60209261040f565b611b5781611b1a565b0190565b611b709060208101905f818303910152611b41565b90565b15611b7a57565b611b826100d2565b62461bcd60e51b815280611b9860048201611b5b565b0390fd5b5f7f496e76616c69642070726f6475637420636f6e74726163742061646472657373910152565b611bcf6020809261040f565b611bd881611b9c565b0190565b611bf19060208101905f818303910152611bc3565b90565b15611bfb57565b611c036100d2565b62461bcd60e51b815280611c1960048201611bdc565b0390fd5b611c2690610a5b565b90565b611c3290611c1d565b90565b90611c4660018060a01b0391610913565b9181191691161790565b611c5990611c1d565b90565b90565b90611c74611c6f611c7b92611c50565b611c5c565b8254611c35565b9055565b611c8890610a77565b90565b90565b90611ca3611c9e611caa92611c7f565b611c8b565b8254611c35565b9055565b611cb790610a5b565b90565b611cc390611cae565b90565b611ccf90611cae565b90565b90565b90611cea611ce5611cf192611cc6565b611cd2565b8254611c35565b9055565b611cfe90610a5b565b90565b611d0a90611cf5565b90565b611d1690611cf5565b90565b90565b90611d31611d2c611d3892611d0d565b611d19565b8254611c35565b9055565b611d4590610a5b565b90565b611d5190611d3c565b90565b611d5d90611d3c565b90565b90565b90611d78611d73611d7f92611d54565b611d60565b8254611c35565b9055565b90611e1d611e16611e2493611d9a611e2b97613620565b611da2613635565b611dc781611dc0611dba611db55f6109b3565b6100eb565b916100eb565b1415611af1565b611dec84611de5611ddf611dda5f6109b3565b6100eb565b916100eb565b1415611b73565b611e1186611e0a611e04611dff5f6109b3565b6100eb565b916100eb565b1415611bf4565b611c29565b6004611c5f565b6005611c8e565b6006611c8e565b611e4f611e48611e43611e3e6004610c48565b610c55565b611cba565b6001611cd5565b611e6b611e64611e5f6005610a04565b611d01565b6002611d1c565b611e87611e80611e7b6006610a04565b611d48565b6003611d63565b565b90611e95939291611938565b565b606090565b90611ede915f611eb4611eaf6002610a4e565b610a83565b63ffc9896b90611ed33392611ec76100d2565b97889485938493610a8f565b835260048301610326565b03915afa928315611fab57611f046060611f4f95611f4a935f91611f89575b5001610c1c565b611f16611f116004610c48565b610c55565b9080611f32611f2c611f275f6109b3565b6100eb565b916100eb565b14159081611f6e575b50908115611f52575b50610d06565b6121f5565b90565b9050611f67611f6133926100eb565b916100eb565b145f611f44565b9050611f82611f7c336100eb565b916100eb565b145f611f3b565b611fa591503d805f833e611f9d8183610140565b810190610bd7565b5f611efd565b610c0c565b5490565b67ffffffffffffffff8111611fcc5760208091020190565b61012c565b90611fe3611fde83611fb4565b610169565b918252565b5f5260205f2090565b90565b612000612005916109e0565b611ff1565b90565b6120129054611ff4565b90565b63ffffffff1690565b61202a61202f916109e0565b612015565b90565b61203c905461201e565b90565b60ff1690565b612051612056916109e0565b61203f565b90565b6120639054612045565b90565b61207060c0610169565b90565b9061210a6121016005612084612066565b9461209b6120935f8301612008565b5f88016111ba565b6120b36120aa60018301612008565b602088016111ba565b6120cb6120c260028301612032565b604088016111c8565b6120e36120da60038301612008565b606088016111ba565b6120fb6120f260048301612059565b608088016111d6565b01612008565b60a084016111ba565b565b61211590612073565b90565b9061212282611fb0565b61212b81611fd1565b926121396020850191611fe8565b5f915b8383106121495750505050565b600660206001926121598561210c565b81520192019201919061213c565b61217090612118565b90565b5f7f4361727420697320656d70747900000000000000000000000000000000000000910152565b6121a7600d60209261040f565b6121b081612173565b0190565b6121c99060208101905f81830391015261219a565b90565b156121d357565b6121db6100d2565b62461bcd60e51b8152806121f1600482016121b4565b0390fd5b61220a91612205915060096111e4565b612167565b61222e6122168261072a565b6122286122225f61184b565b91610558565b116121cc565b90565b6122429061223d611e97565b611e9c565b90565b61224e90610a77565b90565b61225a30612245565b61228c6122867f00000000000000000000000000000000000000000000000000000000000000006100eb565b916100eb565b1480156122b6575b61229a57565b5f63703e46dd60e11b8152806122b26004820161024a565b0390fd5b506122bf61363f565b6122f16122eb7f00000000000000000000000000000000000000000000000000000000000000006100eb565b916100eb565b1415612294565b506123016124cf565b565b61230c906122f8565b565b61231790610a5b565b90565b6123239061230e565b90565b61232f90610a77565b90565b61233b8161028c565b0361234257565b5f80fd5b9050519061235382612332565b565b9060208282031261236e5761236b915f01612346565b90565b6100d8565b91906123a1602061238b6123868661231a565b612326565b6352d1902d906123996100d2565b938492610a8f565b825281806123b16004820161024a565b03915afa80915f92612441575b50155f146123f25750509060016123d357505b565b6123ee905f918291634c9c8ce360e01b835260048301610326565b0390fd5b928361240d612407612402610934565b61028c565b9161028c565b036124225761241d929350613665565b6123d1565b61243d845f918291632a87526960e21b83526004830161029c565b0390fd5b61246391925060203d811161246a575b61245b8183610140565b810190612355565b905f6123be565b503d612451565b61247a30612245565b6124ac6124a67f00000000000000000000000000000000000000000000000000000000000000006100eb565b916100eb565b036124b357565b5f63703e46dd60e11b8152806124cb6004820161024a565b0390fd5b6124d7610a11565b6124f06124ea6124e56136ee565b6100eb565b916100eb565b036124f757565b6125196125026136ee565b5f91829163118cdaa760e01b835260048301610326565b0390fd5b612525612589565b61253d6125335f8301610a04565b915f849101611c8e565b9061257161256b7f8be0079c531659141344cd1fd0a4f28419497f9722a3daafe3b4186f6b6457e093611c7f565b91611c7f565b9161257a6100d2565b806125848161024a565b0390a3565b7f9016d09d72d40fdae2fd8ceac6b6234c7706214fd39c1cd1e609a0528c19930090565b5f7f4361727420616c72656164792070726f63657373656400000000000000000000910152565b6125e1601660209261040f565b6125ea816125ad565b0190565b6126039060208101905f8183039101526125d4565b90565b1561260d57565b6126156100d2565b62461bcd60e51b81528061262b600482016125ee565b0390fd5b9061264461263f61264b926118e7565b6118f3565b8254611304565b9055565b61266361265e612668926117f7565b610994565b610558565b90565b5f7f4554480000000000000000000000000000000000000000000000000000000000910152565b61269c6003610393565b906126a96020830161266b565b565b6126b3612692565b90565b5f7f696e73756666696369656e7420616d6f756e74206f6620455448000000000000910152565b6126ea601a60209261040f565b6126f3816126b6565b0190565b61270c9060208101905f8183039101526126dd565b90565b1561271657565b61271e6100d2565b62461bcd60e51b815280612734600482016126f7565b0390fd5b90612742906110a7565b5f5260205260405f2090565b60018060a01b031690565b61276561276a916109e0565b61274e565b90565b6127779054612759565b90565b61278390610a77565b90565b61278f81611100565b0361279657565b5f80fd5b905051906127a782612786565b565b91906040838203126127d157806127c56127ce925f860161279a565b93602001610a9d565b90565b6100d8565b5190565b60209181520190565b61280261280b602093612810936127f9816127d6565b938480936127da565b95869101610418565b610122565b0190565b9493916060916128559461284061284d9361283660808b01945f8c0190611078565b60208a0190611078565b87820360408901526127e3565b940190611078565b565b60207f6e206c6174657200000000000000000000000000000000000000000000000000917f7061796d656e742076696120455448206661696c65642c2074727920616761695f8201520152565b6128b1602760409261040f565b6128ba81612857565b0190565b6128d39060208101905f8183039101526128a4565b90565b156128dd57565b6128e56100d2565b62461bcd60e51b8152806128fb600482016128be565b0390fd5b9291602061291b6129239360408701908782035f890152610423565b940190611078565b565b906129665f61293c6129376002610a4e565b610a83565b63ffc9896b9061295b869261294f6100d2565b95869485938493610a8f565b835260048301610326565b03915afa908115612b76575f91612b54575b506129a86129a361299d612998600a6129925f870161109a565b906110c3565b6110f3565b15611100565b612606565b6129c860016129c3600a6129bd5f860161109a565b906110c3565b61262f565b6129ec6129e76129e16129dc5f850161109a565b6138b1565b94613b49565b61264f565b906040612a01856129fb6126ab565b90613f35565b95909593612a2234612a1b612a158a610558565b91610558565b101561270f565b612a49612a2e5f61184b565b612a446008612a3e5f890161109a565b90612738565b611272565b612a8e612a5e612a59600161276d565b61277a565b9163883723a492612a998a91949192612a785f8a0161109a565b9699612a826100d2565b9a8b9889978896610a8f565b865260048601612814565b03925af18015612b4f575f80939091612b12575b50612ac291612abc5f926128d6565b0161109a565b909192612af8612af27fcd2a91ee6de5fe14e444461345e465432e6dd3dc5fee340a09fcc50b0ffed498936110a7565b936110a7565b93612b0d612b046100d2565b928392836128ff565b0390a3565b612abc93505f915091612b3e612ac29360403d8111612b48575b612b368183610140565b8101906127a9565b9450915091612aad565b503d612b2c565b610c0c565b612b7091503d805f833e612b688183610140565b810190610bd7565b5f612978565b610c0c565b90602082820312612b9457612b91915f0161279a565b90565b6100d8565b5f7f696e76616c696420746f6b656e00000000000000000000000000000000000000910152565b612bcd600d60209261040f565b612bd681612b99565b0190565b612bef9060208101905f818303910152612bc0565b90565b15612bf957565b612c016100d2565b62461bcd60e51b815280612c1760048201612bda565b0390fd5b9190604083820312612c5557612c4e90612c356040610169565b93612c42825f8301610b05565b5f860152602001610b05565b6020830152565b610a95565b90604082820312612c7357612c70915f01612c1b565b90565b6100d8565b60207f207061796d656e74000000000000000000000000000000000000000000000000917f706c65617365207370656369667920612076616c696420746f6b656e20666f725f8201520152565b612cd2602860409261040f565b612cdb81612c78565b0190565b612cf49060208101905f818303910152612cc5565b90565b15612cfe57565b612d066100d2565b62461bcd60e51b815280612d1c60048201612cdf565b0390fd5b60607f6964000000000000000000000000000000000000000000000000000000000000917f74686520616d6f756e742070617961626c65206973207a65726f2c20706c65615f8201527f736520636865636b207468617420636172742069736e277420656d707479206f60208201527f72207468617420796f7572207061796d656e7420746f6b656e2069732076616c60408201520152565b612dc6606260809261040f565b612dcf81612d20565b0190565b612de89060208101905f818303910152612db9565b90565b15612df257565b612dfa6100d2565b62461bcd60e51b815280612e1060048201612dd3565b0390fd5b612e1d90610a5b565b90565b612e2990612e14565b90565b612e3590612e14565b90565b90565b90612e50612e4b612e5792612e2c565b612e38565b8254611c35565b9055565b60018060a01b031690565b612e72612e77916109e0565b612e5b565b90565b612e849054612e66565b90565b612e9090610a77565b90565b90602082820312612eac57612ea9915f01610a9d565b90565b6100d8565b60207f207061796d656e7420746f6b656e2c20706c6561736520746f70757000000000917f696e73756666696369656e742062616c616e6365206f662073656c65637465645f8201520152565b612f0b603c60409261040f565b612f1481612eb1565b0190565b612f2d9060208101905f818303910152612efe565b90565b15612f3757565b612f3f6100d2565b62461bcd60e51b815280612f5560048201612f18565b0390fd5b949391606091612f9a94612f85612f9293612f7b60808b01945f8c0190611078565b60208a0190611078565b8782036040890152610423565b940190611078565b565b60207f6e00000000000000000000000000000000000000000000000000000000000000917f7061796d656e742076696120555344206661696c65642c2074727920616761695f8201520152565b612ff6602160409261040f565b612fff81612f9c565b0190565b6130189060208101905f818303910152612fe9565b90565b1561302257565b61302a6100d2565b62461bcd60e51b81528061304060048201613003565b0390fd5b906130855f61305b6130566002610a4e565b610a83565b63ffc9896b9061307a869261306e6100d2565b95869485938493610a8f565b835260048301610326565b03915afa9081156135f2575f916135d0575b506130c76130c26130bc6130b7600a6130b15f870161109a565b906110c3565b6110f3565b15611100565b612606565b6130e760016130e2600a6130dc5f860161109a565b906110c3565b61262f565b61310b6131066131006130fb5f850161109a565b6138b1565b94613b49565b61264f565b9061314d602061312361311e600161276d565b61277a565b63806339da9061314287926131366100d2565b95869485938493610a8f565b835260048301610454565b03915afa80156135cb57613168915f9161359d575b50612bf2565b6131a9604061317f61317a600161276d565b61277a565b63f661f44c9061319e87926131926100d2565b95869485938493610a8f565b835260048301610454565b03915afa908115613598576131c8915f91829161356a575b5001610c1c565b6131e26131dc6131d75f6109b3565b6100eb565b916100eb565b1415806134b0575b6131f390612cf7565b61320f846132096132035f61184b565b91610558565b11612deb565b6132506040613226613221600161276d565b61277a565b63f661f44c9061324587926132396100d2565b95869485938493610a8f565b835260048301610454565b03915afa9081156134ab5761327660206132819361327b935f9161347d575b5001610c1c565b612e20565b5f612e3b565b6132c160206132976132925f612e7a565b612e87565b6370a08231906132b633926132aa6100d2565b95869485938493610a8f565b835260048301610326565b03915afa8015613478576132f0915f9161344a575b506132e96132e387610558565b91610558565b1015612f30565b6133176132fc5f61184b565b613312600861330c5f860161109a565b90612738565b611272565b6133406133235f612e7a565b339061332f6004610c48565b9161333a8893610c55565b916143f2565b604061335461334f600161276d565b61277a565b63d3d4d305906133845f61336981870161109a565b9361338f8a988a6133786100d2565b9a8b9889978896610a8f565b865260048601612f59565b03925af18015613445575f80939091613408575b506133b8916133b25f9261301b565b0161109a565b9091926133ee6133e87fcd2a91ee6de5fe14e444461345e465432e6dd3dc5fee340a09fcc50b0ffed498936110a7565b936110a7565b936134036133fa6100d2565b928392836128ff565b0390a3565b6133b293505f9150916134346133b89360403d811161343e575b61342c8183610140565b8101906127a9565b94509150916133a3565b503d613422565b610c0c565b61346b915060203d8111613471575b6134638183610140565b810190612e93565b5f6132d6565b503d613459565b610c0c565b61349e915060403d81116134a4575b6134968183610140565b810190612c5a565b5f61326f565b503d61348c565b610c0c565b506134f260406134c86134c3600161276d565b61277a565b63f661f44c906134e787926134db6100d2565b95869485938493610a8f565b835260048301610454565b03915afa8015613565576020613514916131f3935f91613537575b5001610c1c565b61352e6135286135235f6109b3565b6100eb565b916100eb565b141590506131ea565b613558915060403d811161355e575b6135508183610140565b810190612c5a565b5f61350d565b503d613546565b610c0c565b61358b915060403d8111613591575b6135838183610140565b810190612c5a565b5f6131c1565b503d613579565b610c0c565b6135be915060203d81116135c4575b6135b68183610140565b810190612b7b565b5f613162565b503d6135ac565b610c0c565b6135ec91503d805f833e6135e48183610140565b810190610bd7565b5f613097565b610c0c565b6135ff61444d565b90565b6136139061360e614461565b613615565b565b61361e906144f9565b565b61362990613602565b565b613633614461565b565b61363d61362b565b565b6136476109dc565b506136625f61365c613657610934565b614504565b01610a04565b90565b9061366f82614507565b8161369a7fbc7cd75a20ee27fd9adebab32041f755214dbc6bffa90cc0225b39da2e5c2d3b91611c7f565b906136a36100d2565b806136ad8161024a565b0390a26136b9816127d6565b6136cb6136c55f61184b565b91610558565b115f146136df576136db916145d2565b505b565b50506136e961455c565b6136dd565b6136f66109dc565b503390565b5f90565b5f7f4361727420697320656d70747920666f72207468697320757365720000000000910152565b613733601b60209261040f565b61373c816136ff565b0190565b6137559060208101905f818303910152613726565b90565b1561375f57565b6137676100d2565b62461bcd60e51b81528061377d60048201613740565b0390fd5b61378b60c0610169565b90565b5f90565b606090565b61379f613781565b9060208080808080876137b061378e565b8152016137bb61378e565b8152016137c661378e565b8152016137d161378e565b8152016137dc613792565b8152016137e761378e565b81525050565b6137f5613797565b90565b60016138049101610558565b90565b906138118261072a565b811015613822576020809102010190565b611206565b61383b6138366138409261057e565b610994565b610558565b90565b634e487b7160e01b5f52601160045260245ffd5b61386661386c91939293610558565b92610558565b91613878838202610558565b92818404149015171561388757565b613843565b61389b6138a191939293610558565b92610558565b82018092116138ac57565b613843565b6138b96136fb565b506138ce6138c9600983906111e4565b612167565b6138f26138da8261072a565b6138ec6138e65f61184b565b91610558565b11613758565b6138fa6137ed565b506139045f61184b565b61390d5f61184b565b905b8161392a61392461391f8661072a565b610558565b91610558565b1015613a69576139865f6139466139416003610f8a565b610f97565b63d6d0be9f9061397b613966602061395f8a8a90613807565b510161109a565b9261396f6100d2565b95869485938493610a8f565b835260048301611085565b03915afa908115613a64575f91613a42575b506139a45f820161109a565b6139b66139b05f61184b565b91610558565b14613a37576139c76020820161109a565b6139d96139d35f61184b565b91610558565b14613a2c57613a2691613a196139f46040613a1f940161109a565b613a13613a0e6040613a078a8a90613807565b5101611292565b613827565b90613857565b9061388c565b915b6137f8565b9061390f565b5090613a2690613a21565b5090613a2690613a21565b613a5e91503d805f833e613a568183610140565b810190611043565b5f613998565b610c0c565b613a909250613a95939150613a8990613a8460088490612738565b611272565b6008612738565b612008565b90565b5f90565b60601b90565b613aab90613a9c565b90565b613ab790613aa2565b90565b613ac6613acb916100eb565b613aae565b9052565b90565b613ade613ae391610558565b613acf565b9052565b60209392613b07601483613aff8895613b0f97613aba565b018092613ad2565b018092613ad2565b0190565b60200190565b613b25613b2a916109e0565b6110a7565b90565b613b41613b3c613b4692610558565b610994565b6117f7565b90565b613b51613a98565b50613b92815f4291613b6b613b666002610a4e565b610a83565b613b8763ffc9896b613b7b6100d2565b96879485938493610a8f565b835260048301610326565b03915afa8015613c2257613bfd93613bd1613bbd5f613be094613bf8978291613c00575b500161109a565b613bc56100d2565b94859360208501613ae7565b60208201810382520382610140565b613bf2613bec826127d6565b91613b13565b20613b19565b613b2d565b90565b613c1c91503d8084833e613c148183610140565b810190610bd7565b5f613bb6565b610c0c565b606090565b5f7f7061796d656e7420746f6b656e3d3d3e00000000000000000000000000000000910152565b613c5d6010610393565b90613c6a60208301613c2c565b565b613c74613c53565b90565b5f7f6973206574682061636365707465643f00000000000000000000000000000000910152565b613ca86010610393565b90613cb560208301613c77565b565b613cbf613c9e565b90565b5f7f696e76616c696420746f6b656e20696e7374656164206f662065746800000000910152565b613cf6601c60209261040f565b613cff81613cc2565b0190565b613d189060208101905f818303910152613ce9565b90565b15613d2257565b613d2a6100d2565b62461bcd60e51b815280613d4060048201613d03565b0390fd5b5f7f696e76616c696420546f6b656e20616464720000000000000000000000000000910152565b613d78601260209261040f565b613d8181613d44565b0190565b613d9a9060208101905f818303910152613d6b565b90565b15613da457565b613dac6100d2565b62461bcd60e51b815280613dc260048201613d85565b0390fd5b613dcf90610a5b565b90565b613ddb90613dc6565b90565b613de790610a77565b90565b69ffffffffffffffffffff1690565b613e0281613dea565b03613e0957565b5f80fd5b90505190613e1a82613df9565b565b90565b613e2881613e1c565b03613e2f57565b5f80fd5b90505190613e4082613e1f565b565b919060a083820312613e9357613e5a815f8501613e0d565b92613e688260208301613e33565b92613e90613e798460408501610a9d565b93613e878160608601610a9d565b93608001613e0d565b90565b6100d8565b60ff1690565b613ea781613e98565b03613eae57565b5f80fd5b90505190613ebf82613e9e565b565b90602082820312613eda57613ed7915f01613eb2565b90565b6100d8565b90565b613eea612692565b90565b90565b613f04613eff613f0992613eed565b610994565b613e98565b90565b613f166008613ef0565b90565b613f2d613f28613f3292613e1c565b610994565b610558565b90565b90613f3e6136fb565b50613f47613c27565b50613f5981613f54613c6c565b61462c565b613f9a6020613f70613f6b600161276d565b61277a565b63806339da90613f8f8592613f836100d2565b95869485938493610a8f565b835260048301610454565b03915afa80156143ed57613fbd915f916143bf575b50613fb8613cb7565b6146a1565b613ffe6020613fd4613fcf600161276d565b61277a565b63806339da90613ff38592613fe76100d2565b95869485938493610a8f565b835260048301610454565b03915afa80156143ba57614019915f9161438c575b50613d1b565b61405a604061403061402b600161276d565b61277a565b63f661f44c9061404f85926140436100d2565b95869485938493610a8f565b835260048301610454565b03915afa8015614387575f61407b9161409c938291614359575b5001610c1c565b61409561408f61408a5f6109b3565b6100eb565b916100eb565b1415613d9d565b6140dd60406140b36140ae600161276d565b61277a565b63f661f44c906140d285926140c66100d2565b95869485938493610a8f565b835260048301610454565b03915afa8015614354575f6140fe91614103938291614326575b5001610c1c565b613dd2565b61412760a061411183613dde565b63feaf968c9061411f6100d2565b938492610a8f565b825281806141376004820161024a565b03915afa80156143215761415c602091614172935f809290506142f0575b5093613dde565b63313ce5679061416a6100d2565b938492610a8f565b825281806141826004820161024a565b03915afa9081156142eb575f916142bd575b509161419f81613edf565b6141b16141ab826127d6565b91613b13565b206141de6141d86141c0613ee2565b6141d26141cc826127d6565b91613b13565b2061028c565b9161028c565b145f14614208575061420292916141fc6141f6613f0c565b92613f19565b92614b64565b91909190565b614249939260408261422261421d600161276d565b61277a565b61423e63f661f44c6142326100d2565b998a9485938493610a8f565b835260048301610454565b03915afa80156142b857602061426b91614284975f9161428a575b5001610c1c565b909161427e614278613f0c565b94613f19565b9461498e565b91909190565b6142ab915060403d81116142b1575b6142a38183610140565b810190612c5a565b5f614264565b503d614299565b610c0c565b6142de915060203d81116142e4575b6142d68183610140565b810190613ec1565b5f614194565b503d6142cc565b610c0c565b614311915060a03d811161431a575b6143098183610140565b810190613e42565b50505090614155565b503d6142ff565b610c0c565b614347915060403d811161434d575b61433f8183610140565b810190612c5a565b5f6140f7565b503d614335565b610c0c565b61437a915060403d8111614380575b6143728183610140565b810190612c5a565b5f614074565b503d614368565b610c0c565b6143ad915060203d81116143b3575b6143a58183610140565b810190612b7b565b5f614013565b503d61439b565b610c0c565b6143e0915060203d81116143e6575b6143d88183610140565b810190612b7b565b5f613faf565b503d6143ce565b610c0c565b916144009391909192614ca8565b565b90565b61441961441461441e92614402565b610913565b61028c565b90565b61444a7ff0c57e16840df040f15088dc2f81fe391c3923bec73e23a9662efc9c229c6a00614405565b90565b6144556108f8565b5061445e614421565b90565b61447261446c614cfc565b15611100565b61447857565b5f631afcd79f60e31b8152806144906004820161024a565b0390fd5b6144a5906144a0614461565b6144a7565b565b806144c26144bc6144b75f6109b3565b6100eb565b916100eb565b146144d2576144d09061251d565b565b6144f56144de5f6109b3565b5f918291631e4fbdf760e01b835260048301610326565b0390fd5b61450290614494565b565b90565b803b61451b6145155f61184b565b91610558565b1461453d5761453b905f614535614530610934565b614504565b01611c8e565b565b614558905f918291634c9c8ce360e01b835260048301610326565b0390fd5b3461456f6145695f61184b565b91610558565b1161457657565b5f63b398979f60e01b81528061458e6004820161024a565b0390fd5b906145a461459f8361017e565b610169565b918252565b3d5f146145c4576145b93d614592565b903d5f602084013e5b565b6145cc613c27565b906145c2565b5f806145fe936145e0613c27565b508390602081019051915af4906145f56145a9565b90919091614d1a565b90565b909161461b6146299360408401908482035f860152610423565b916020818403910152610423565b90565b9061466761466c9261465861463f6100d2565b938492600460208501634b5c427760e01b815201614601565b60208201810382520382610140565b614d9e565b565b61467790611100565b9052565b9291602061469761469f9360408701908782035f890152610423565b94019061466e565b565b906146dc6146e1926146cd6146b46100d2565b93849260046020850163c3b5563560e01b81520161467b565b60208201810382520382610140565b614d9e565b565b5f7f496e76616c696420707269636520666574636865642066726f6d206665656400910152565b614717601f60209261040f565b614720816146e3565b0190565b6147399060208101905f81830391015261470a565b90565b1561474357565b61474b6100d2565b62461bcd60e51b81528061476160048201614724565b0390fd5b61477961477461477e92610991565b610994565b613e98565b90565b60207f6f6d207072696365206665656400000000000000000000000000000000000000917f496e76616c6964206665656420646563696d616c7320666574636865642066725f8201520152565b6147db602d60409261040f565b6147e481614781565b0190565b6147fd9060208101905f8183039101526147ce565b90565b1561480757565b61480f6100d2565b62461bcd60e51b815280614825600482016147e8565b0390fd5b60207f726f6d20746f6b656e20636f6e74726163740000000000000000000000000000917f496e76616c696420746f6b656e20646563696d616c73206665746368656420665f8201520152565b614883603260409261040f565b61488c81614829565b0190565b6148a59060208101905f818303910152614876565b90565b156148af57565b6148b76100d2565b62461bcd60e51b8152806148cd60048201614890565b0390fd5b6148da90613e98565b604d81116148e857600a0a90565b613843565b6149016148fc61490692610558565b610994565b613e1c565b90565b61491290613e98565b9052565b61491f90613e1c565b9052565b60409061494f6149446149569597969460608401908482035f860152610423565b966020830190614909565b0190614916565b565b634e487b7160e01b5f52601260045260245ffd5b61497861497e91610558565b91610558565b908115614989570490565b614958565b959493614ace9193614ac8614ada965f80614ad4976149ab6136fb565b506149b4613c27565b506149d1846149cb6149c58561184b565b91610558565b1161473c565b6149ed866149e76149e185614765565b91613e98565b11614800565b6149f56136fb565b506149fe6100d2565b614a2a81614a1b60046020830163313ce56760e01b81520161024a565b60208201810382520382610140565b82602082019151925af150614a7a614a59614a436145a9565b6020614a4e826127d6565b818301019101613ec1565b614a7581614a6f614a695f614765565b91613e98565b116148a8565b6148d1565b9383614a8e614a8883613e98565b91613e98565b145f14614ade5750614a9f906148ed565b5b95614ab987614aad6100d2565b94859360208501614923565b60208201810382520382610140565b96613857565b91613f19565b9061496c565b9190565b614aea614af3926148ed565b90849091614e95565b614aa0565b614b05600360209261040f565b614b0e8161266b565b0190565b916040614b43929493614b3c614b31606083018381035f850152614af8565b966020830190614909565b0190614916565b565b90565b614b5c614b57614b6192614b45565b610994565b610558565b90565b9392614c24614c2a91614c3094614b796136fb565b50614b82613c27565b50614b9f82614b99614b935f61184b565b91610558565b1161473c565b614bbb85614bb5614baf5f614765565b91613e98565b11614800565b84614bce614bc883613e98565b91613e98565b145f14614c345750614bdf906148ed565b5b92614c0c8491614bfd614bf16100d2565b93849260208401614b12565b60208201810382520382610140565b95614c1e670de0b6b3a7640000614b48565b90613857565b91613f19565b9061496c565b9190565b614c40614c49926148ed565b90859091614e95565b614be0565b63ffffffff60e01b1690565b614c6e614c69614c739261057e565b610a8f565b614c4e565b90565b604090614c9f614ca69496959396614c9560608401985f850190610319565b6020830190610319565b0190611078565b565b600492614ce2614cf69593614cf19394614cc96323b872dd92949192614c5a565b93614cd26100d2565b9788956020870190815201614c76565b60208201810382520383610140565b614f52565b565b5f90565b614d04614cf8565b50614d175f614d116135f7565b016117bc565b90565b90614d2e90614d27613c27565b5015611100565b5f14614d3a5750615006565b614d43826127d6565b614d55614d4f5f61184b565b91610558565b1480614d83575b614d64575090565b614d7f905f918291639996b31560e01b835260048301610326565b0390fd5b50803b614d98614d925f61184b565b91610558565b14614d5c565b614db190614dac6001615076565b615096565b565b5f90565b614dc3614dc991613e98565b91613e98565b90039060ff8211614dd657565b613843565b614def614dea614df492613e98565b610994565b610558565b90565b614e0090610558565b604d8111614e0e57600a0a90565b613843565b614e1f614e2591613e1c565b91613e1c565b908115614e475760015f038214600160ff1b821416614e42570590565b613843565b614958565b614e5b614e6191939293613e1c565b92613e1c565b91614e6d838202613e1c565b92600160ff1b81145f831216614e90578184051490151715614e8b57565b613843565b613843565b9190614e9f614db3565b5080614eb3614ead84613e98565b91613e98565b105f14614ee957614edb614ed6614ed1614ee093614ee69695614db7565b614ddb565b614df7565b6148ed565b90614e4c565b90565b9081614efd614ef783613e98565b91613e98565b11614f0757505090565b614f28614f23614f1e614f2d93614f339695614db7565b614ddb565b614df7565b6148ed565b90614e13565b90565b614f4a614f45614f4f92611820565b610994565b610558565b90565b905f602091614f5f6136fb565b50614f686136fb565b50828151910182855af115614ffb573d5f5190614f8d614f875f61184b565b91610558565b145f14614fe15750614f9e81612e87565b3b614fb1614fab5f61184b565b91610558565b145b614fba5750565b614fc6614fdd91612e87565b5f918291635274afe760e01b835260048301610326565b0390fd5b614ff4614fee6001614f36565b91610558565b1415614fb3565b6040513d5f823e3d90fd5b61500f816127d6565b61502161501b5f61184b565b91610558565b115f1461503057805190602001fd5b5f63d6bda27560e01b8152806150486004820161024a565b0390fd5b6a636f6e736f6c652e6c6f6790565b5f809161506661504c565b602082519201905afa50565b5f90565b61507e615072565b5090565b634e487b7160e01b5f52605160045260245ffd5b600103615082576150a69061505b565b56fea26469706673582212209f4b2b0801d51871d2b9d0b891c39307896e157d020cfdc8b7a08b67811faf1264736f6c634300081c0033","linkReferences":{}},"methodIdentifiers":{"UPGRADE_INTERFACE_VERSION()":"ad3cb1cc","addProductToCart(uint256,uint32)":"d8de4c4b","checkOutWithNative(string)":"c0be8631","checkOutWithUSD(string)":"ea34e4b3","getCart(uint256)":"ffb10551","initialize(address,address,address,address)":"f8c8765e","owner()":"8da5cb5b","proxiableUUID()":"52d1902d","renounceOwnership()":"715018a6","transferOwnership(address)":"f2fde38b","upgradeToAndCall(address,bytes)":"4f1ef286"},"storageLayout":{"storage":[{"astId":38113,"contract":"src/Ecomm.sol:Ecommerce","label":"erc20","offset":0,"slot":"0","type":"t_contract(IERC20)36694"},{"astId":38176,"contract":"src/Ecomm.sol:Ecommerce","label":"escrowInterface","offset":0,"slot":"1","type":"t_contract(IEcomEscrow)41206"},{"astId":38179,"contract":"src/Ecomm.sol:Ecommerce","label":"userInterface","offset":0,"slot":"2","type":"t_contract(IUser)41128"},{"astId":38182,"contract":"src/Ecomm.sol:Ecommerce","label":"productInterface","offset":0,"slot":"3","type":"t_contract(IProduct)41137"},{"astId":38184,"contract":"src/Ecomm.sol:Ecommerce","label":"escrowContract","offset":0,"slot":"4","type":"t_address_payable"},{"astId":38186,"contract":"src/Ecomm.sol:Ecommerce","label":"userContract","offset":0,"slot":"5","type":"t_address"},{"astId":38188,"contract":"src/Ecomm.sol:Ecommerce","label":"productContract","offset":0,"slot":"6","type":"t_address"},{"astId":38200,"contract":"src/Ecomm.sol:Ecommerce","label":"checkoutTokenRate","offset":0,"slot":"7","type":"t_mapping(t_uint256,t_mapping(t_string_memory_ptr,t_uint256))"},{"astId":38204,"contract":"src/Ecomm.sol:Ecommerce","label":"_checkoutAmount","offset":0,"slot":"8","type":"t_mapping(t_uint256,t_uint256)"},{"astId":38210,"contract":"src/Ecomm.sol:Ecommerce","label":"cart","offset":0,"slot":"9","type":"t_mapping(t_uint256,t_array(t_struct(OrderItem)37927_storage)dyn_storage)"},{"astId":38214,"contract":"src/Ecomm.sol:Ecommerce","label":"isCartProcessed","offset":0,"slot":"10","type":"t_mapping(t_uint256,t_bool)"}],"types":{"t_address":{"encoding":"inplace","label":"address","numberOfBytes":"20"},"t_address_payable":{"encoding":"inplace","label":"address payable","numberOfBytes":"20"},"t_array(t_struct(OrderItem)37927_storage)dyn_storage":{"encoding":"dynamic_array","label":"struct OrderItem[]","numberOfBytes":"32","base":"t_struct(OrderItem)37927_storage"},"t_bool":{"encoding":"inplace","label":"bool","numberOfBytes":"1"},"t_contract(IERC20)36694":{"encoding":"inplace","label":"contract IERC20","numberOfBytes":"20"},"t_contract(IEcomEscrow)41206":{"encoding":"inplace","label":"contract IEcomEscrow","numberOfBytes":"20"},"t_contract(IProduct)41137":{"encoding":"inplace","label":"contract IProduct","numberOfBytes":"20"},"t_contract(IUser)41128":{"encoding":"inplace","label":"contract IUser","numberOfBytes":"20"},"t_enum(OrderStatus)37913":{"encoding":"inplace","label":"enum OrderStatus","numberOfBytes":"1"},"t_mapping(t_string_memory_ptr,t_uint256)":{"encoding":"mapping","key":"t_string_memory_ptr","label":"mapping(string => uint256)","numberOfBytes":"32","value":"t_uint256"},"t_mapping(t_uint256,t_array(t_struct(OrderItem)37927_storage)dyn_storage)":{"encoding":"mapping","key":"t_uint256","label":"mapping(uint256 => struct OrderItem[])","numberOfBytes":"32","value":"t_array(t_struct(OrderItem)37927_storage)dyn_storage"},"t_mapping(t_uint256,t_bool)":{"encoding":"mapping","key":"t_uint256","label":"mapping(uint256 => bool)","numberOfBytes":"32","value":"t_bool"},"t_mapping(t_uint256,t_mapping(t_string_memory_ptr,t_uint256))":{"encoding":"mapping","key":"t_uint256","label":"mapping(uint256 => mapping(string => uint256))","numberOfBytes":"32","value":"t_mapping(t_string_memory_ptr,t_uint256)"},"t_mapping(t_uint256,t_uint256)":{"encoding":"mapping","key":"t_uint256","label":"mapping(uint256 => uint256)","numberOfBytes":"32","value":"t_uint256"},"t_string_memory_ptr":{"encoding":"bytes","label":"string","numberOfBytes":"32"},"t_struct(OrderItem)37927_storage":{"encoding":"inplace","label":"struct OrderItem","numberOfBytes":"192","members":[{"astId":37915,"contract":"src/Ecomm.sol:Ecommerce","label":"sellerId","offset":0,"slot":"0","type":"t_uint256"},{"astId":37917,"contract":"src/Ecomm.sol:Ecommerce","label":"productId","offset":0,"slot":"1","type":"t_uint256"},{"astId":37919,"contract":"src/Ecomm.sol:Ecommerce","label":"qty","offset":0,"slot":"2","type":"t_uint32"},{"astId":37921,"contract":"src/Ecomm.sol:Ecommerce","label":"unitPrice","offset":0,"slot":"3","type":"t_uint256"},{"astId":37924,"contract":"src/Ecomm.sol:Ecommerce","label":"orderStatus","offset":0,"slot":"4","type":"t_enum(OrderStatus)37913"},{"astId":37926,"contract":"src/Ecomm.sol:Ecommerce","label":"_proposedDeliveryTime","offset":0,"slot":"5","type":"t_uint256"}]},"t_uint256":{"encoding":"inplace","label":"uint256","numberOfBytes":"32"},"t_uint32":{"encoding":"inplace","label":"uint32","numberOfBytes":"4"}}},"id":38}