{"abi":[{"type":"constructor","inputs":[],"stateMutability":"nonpayable"},{"type":"function","name":"UPGRADE_INTERFACE_VERSION","inputs":[],"outputs":[{"name":"","type":"string","internalType":"string"}],"stateMutability":"view"},{"type":"function","name":"getUserData","inputs":[{"name":"_account","type":"address","internalType":"address"}],"outputs":[{"name":"","type":"tuple","internalType":"struct User","components":[{"name":"userId","type":"uint256","internalType":"uint256"},{"name":"lastName","type":"string","internalType":"string"},{"name":"firstName","type":"string","internalType":"string"},{"name":"account","type":"address","internalType":"address"},{"name":"verificationStatus","type":"uint8","internalType":"enum VerificationStatus"}]}],"stateMutability":"view"},{"type":"function","name":"getUsers","inputs":[{"name":"_start","type":"uint256","internalType":"uint256"},{"name":"_end","type":"uint256","internalType":"uint256"}],"outputs":[{"name":"","type":"tuple[]","internalType":"struct User[]","components":[{"name":"userId","type":"uint256","internalType":"uint256"},{"name":"lastName","type":"string","internalType":"string"},{"name":"firstName","type":"string","internalType":"string"},{"name":"account","type":"address","internalType":"address"},{"name":"verificationStatus","type":"uint8","internalType":"enum VerificationStatus"}]}],"stateMutability":"view"},{"type":"function","name":"initialize","inputs":[{"name":"initialOwner","type":"address","internalType":"address"}],"outputs":[],"stateMutability":"nonpayable"},{"type":"function","name":"owner","inputs":[],"outputs":[{"name":"","type":"address","internalType":"address"}],"stateMutability":"view"},{"type":"function","name":"proxiableUUID","inputs":[],"outputs":[{"name":"","type":"bytes32","internalType":"bytes32"}],"stateMutability":"view"},{"type":"function","name":"register","inputs":[{"name":"_lastName","type":"string","internalType":"string"},{"name":"_firstName","type":"string","internalType":"string"}],"outputs":[],"stateMutability":"nonpayable"},{"type":"function","name":"renounceOwnership","inputs":[],"outputs":[],"stateMutability":"nonpayable"},{"type":"function","name":"transferOwnership","inputs":[{"name":"newOwner","type":"address","internalType":"address"}],"outputs":[],"stateMutability":"nonpayable"},{"type":"function","name":"upgradeToAndCall","inputs":[{"name":"newImplementation","type":"address","internalType":"address"},{"name":"data","type":"bytes","internalType":"bytes"}],"outputs":[],"stateMutability":"payable"},{"type":"function","name":"verifySeller","inputs":[{"name":"_account","type":"address","internalType":"address"}],"outputs":[],"stateMutability":"nonpayable"},{"type":"event","name":"AccountOwnershipChanged","inputs":[{"name":"_userId","type":"uint256","indexed":true,"internalType":"uint256"},{"name":"_changedBy","type":"address","indexed":false,"internalType":"address"},{"name":"_oldOwner","type":"address","indexed":false,"internalType":"address"},{"name":"_newOwner","type":"address","indexed":false,"internalType":"address"}],"anonymous":false},{"type":"event","name":"CanceledDelivery","inputs":[{"name":"_seller","type":"uint256","indexed":true,"internalType":"uint256"},{"name":"_ref","type":"uint256","indexed":true,"internalType":"uint256"},{"name":"_item","type":"uint256","indexed":true,"internalType":"uint256"}],"anonymous":false},{"type":"event","name":"Initialized","inputs":[{"name":"version","type":"uint64","indexed":false,"internalType":"uint64"}],"anonymous":false},{"type":"event","name":"OwnershipTransferred","inputs":[{"name":"previousOwner","type":"address","indexed":true,"internalType":"address"},{"name":"newOwner","type":"address","indexed":true,"internalType":"address"}],"anonymous":false},{"type":"event","name":"ProductOrderStatusUpdated","inputs":[{"name":"_buyer","type":"uint256","indexed":true,"internalType":"uint256"},{"name":"_payref","type":"uint256","indexed":true,"internalType":"uint256"},{"name":"_itemId","type":"uint256","indexed":true,"internalType":"uint256"},{"name":"_delivered","type":"bool","indexed":false,"internalType":"bool"}],"anonymous":false},{"type":"event","name":"ProductpriceUpdate","inputs":[{"name":"_productId","type":"uint256","indexed":true,"internalType":"uint256"},{"name":"_sellerId","type":"uint256","indexed":true,"internalType":"uint256"},{"name":"_newPrice","type":"uint256","indexed":false,"internalType":"uint256"}],"anonymous":false},{"type":"event","name":"ResgisteredAProduct","inputs":[{"name":"_productId","type":"uint256","indexed":true,"internalType":"uint256"},{"name":"_sellerId","type":"uint256","indexed":true,"internalType":"uint256"}],"anonymous":false},{"type":"event","name":"ResgisteredAuser","inputs":[{"name":"_userId","type":"uint256","indexed":true,"internalType":"uint256"}],"anonymous":false},{"type":"event","name":"SuccessfulCheckout","inputs":[{"name":"_userId","type":"uint256","indexed":true,"internalType":"uint256"},{"name":"_paymentRefence","type":"uint256","indexed":true,"internalType":"uint256"},{"name":"_currency","type":"string","indexed":false,"internalType":"string"},{"name":"_amountPaid","type":"uint256","indexed":false,"internalType":"uint256"}],"anonymous":false},{"type":"event","name":"Upgraded","inputs":[{"name":"implementation","type":"address","indexed":true,"internalType":"address"}],"anonymous":false},{"type":"event","name":"VerifiedAuser","inputs":[{"name":"_userId","type":"uint256","indexed":true,"internalType":"uint256"}],"anonymous":false},{"type":"event","name":"WithdrawSuccess","inputs":[{"name":"_userId","type":"uint256","indexed":true,"internalType":"uint256"},{"name":"_tokenSymbol","type":"string","indexed":false,"internalType":"string"},{"name":"_payRef","type":"uint256","indexed":true,"internalType":"uint256"},{"name":"_amount","type":"uint256","indexed":false,"internalType":"uint256"},{"name":"_date","type":"uint256","indexed":true,"internalType":"uint256"}],"anonymous":false},{"type":"error","name":"AddressEmptyCode","inputs":[{"name":"target","type":"address","internalType":"address"}]},{"type":"error","name":"ERC1967InvalidImplementation","inputs":[{"name":"implementation","type":"address","internalType":"address"}]},{"type":"error","name":"ERC1967NonPayable","inputs":[]},{"type":"error","name":"FailedCall","inputs":[]},{"type":"error","name":"InvalidInitialization","inputs":[]},{"type":"error","name":"NotInitializing","inputs":[]},{"type":"error","name":"OwnableInvalidOwner","inputs":[{"name":"owner","type":"address","internalType":"address"}]},{"type":"error","name":"OwnableUnauthorizedAccount","inputs":[{"name":"account","type":"address","internalType":"address"}]},{"type":"error","name":"UUPSUnauthorizedCallContext","inputs":[]},{"type":"error","name":"UUPSUnsupportedProxiableUUID","inputs":[{"name":"slot","type":"bytes32","internalType":"bytes32"}]}],"bytecode":{"object":"0x60a06040523461003e5761001161004d565b610019610043565b61290e6102d28239608051818181612193015281816121f801526123b9015261290e90f35b610049565b60405190565b5f80fd5b61005561005f565b61005d6101a8565b565b6100676100ab565b565b60018060a01b031690565b90565b61008b61008661009092610069565b610074565b610069565b90565b61009c90610077565b90565b6100a890610093565b90565b6100b43061009f565b608052565b60401c90565b60ff1690565b6100d16100d6916100b9565b6100bf565b90565b6100e390546100c5565b90565b5f0190565b5f1c90565b60018060401b031690565b61010761010c916100eb565b6100f0565b90565b61011990546100fb565b90565b60018060401b031690565b5f1b90565b9061013d60018060401b0391610127565b9181191691161790565b61015b6101566101609261011c565b610074565b61011c565b90565b90565b9061017b61017661018292610147565b610163565b825461012c565b9055565b61018f9061011c565b9052565b91906101a6905f60208501940190610186565b565b6101b0610260565b6101bb5f82016100d9565b610244576101ca5f820161010f565b6101e26101dc60018060401b0361011c565b9161011c565b036101eb575b50565b6101fe905f60018060401b039101610166565b60018060401b0361023b7fc7f505b2f371ae2175ee4913f4499e1f2633a7b5936321eed1cdaeb6115181d291610232610043565b91829182610193565b0390a15f6101e8565b5f63f92ee8a960e01b81528061025c600482016100e6565b0390fd5b6102686102bd565b90565b5f90565b90565b90565b61028961028461028e9261026f565b610127565b610272565b90565b6102ba7ff0c57e16840df040f15088dc2f81fe391c3923bec73e23a9662efc9c229c6a00610275565b90565b6102c561026b565b506102ce610291565b9056fe60806040526004361015610013575b610918565b61001d5f356100cc565b80633ffbd47f146100c757806345982a66146100c25780634f1ef286146100bd57806352d1902d146100b8578063715018a6146100b35780638da5cb5b146100ae578063ad3cb1cc146100a9578063c4d66de8146100a4578063d1760e601461009f578063f2fde38b1461009a5763ffc9896b0361000e576108e3565b610832565b6107ff565b6107cc565b610779565b610657565b610602565b6105cd565b61056f565b6103f4565b610193565b60e01c90565b60405190565b5f80fd5b5f80fd5b5f80fd5b5f80fd5b5f80fd5b5f80fd5b909182601f8301121561012a5781359167ffffffffffffffff831161012557602001926001830284011161012057565b6100ec565b6100e8565b6100e4565b9091604082840312610189575f82013567ffffffffffffffff8111610184578361015a9184016100f0565b929093602082013567ffffffffffffffff811161017f5761017b92016100f0565b9091565b6100e0565b6100e0565b6100dc565b5f0190565b346101c5576101af6101a636600461012f565b92919091611124565b6101b76100d2565b806101c18161018e565b0390f35b6100d8565b90565b6101d6816101ca565b036101dd57565b5f80fd5b905035906101ee826101cd565b565b9190604083820312610218578061020c610215925f86016101e1565b936020016101e1565b90565b6100dc565b5190565b60209181520190565b60200190565b610239906101ca565b9052565b5190565b60209181520190565b90825f9392825e0152565b601f801991011690565b61027e61028760209361028c936102758161023d565b93848093610241565b9586910161024a565b610255565b0190565b60018060a01b031690565b6102a490610290565b90565b6102b09061029b565b9052565b634e487b7160e01b5f52602160045260245ffd5b600311156102d257565b6102b4565b906102e1826102c8565b565b6102ec906102d7565b90565b6102f8906102e3565b9052565b9061035f9060808061034261033060a0850161031e5f8901515f880190610230565b6020880151868203602088015261025f565b6040870151858203604087015261025f565b94610355606082015160608601906102a7565b01519101906102ef565b90565b9061036c916102fc565b90565b60200190565b906103896103828361021d565b8092610221565b908161039a6020830284019461022a565b925f915b8383106103ad57505050505090565b909192939460206103cf6103c983856001950387528951610362565b9761036f565b930193019193929061039e565b6103f19160208201915f818403910152610375565b90565b346104255761042161041061040a3660046101f0565b9061191d565b6104186100d2565b918291826103dc565b0390f35b6100d8565b6104338161029b565b0361043a57565b5f80fd5b9050359061044b8261042a565b565b5f80fd5b634e487b7160e01b5f52604160045260245ffd5b9061046f90610255565b810190811067ffffffffffffffff82111761048957604052565b610451565b906104a161049a6100d2565b9283610465565b565b67ffffffffffffffff81116104c1576104bd602091610255565b0190565b610451565b90825f939282370152565b909291926104e66104e1826104a3565b61048e565b9381855260208501908284011161050257610500926104c6565b565b61044d565b9080601f8301121561052557816020610522933591016104d1565b90565b6100e4565b91909160408184031261056a57610543835f830161043e565b92602082013567ffffffffffffffff8111610565576105629201610507565b90565b6100e0565b6100dc565b61058361057d36600461052a565b9061195b565b61058b6100d2565b806105958161018e565b0390f35b5f9103126105a357565b6100dc565b90565b6105b4906105a8565b9052565b91906105cb905f602085019401906105ab565b565b346105fd576105dd366004610599565b6105f96105e86119d6565b6105f06100d2565b918291826105b8565b0390f35b6100d8565b3461063057610612366004610599565b61061a611a0e565b6106226100d2565b8061062c8161018e565b0390f35b6100d8565b61063e9061029b565b9052565b9190610655905f60208501940190610635565b565b3461068757610667366004610599565b610683610672611a1c565b61067a6100d2565b91829182610642565b0390f35b6100d8565b67ffffffffffffffff81116106aa576106a6602091610255565b0190565b610451565b906106c16106bc8361068c565b61048e565b918252565b5f7f352e302e30000000000000000000000000000000000000000000000000000000910152565b6106f760056106af565b90610704602083016106c6565b565b61070e6106ed565b90565b610719610706565b90565b610724610711565b90565b60209181520190565b61074f61075860209361075d936107468161023d565b93848093610727565b9586910161024a565b610255565b0190565b6107769160208201915f818403910152610730565b90565b346107a957610789366004610599565b6107a561079461071c565b61079c6100d2565b91829182610761565b0390f35b6100d8565b906020828203126107c7576107c4915f0161043e565b90565b6100dc565b346107fa576107e46107df3660046107ae565b611d12565b6107ec6100d2565b806107f68161018e565b0390f35b6100d8565b3461082d576108176108123660046107ae565b611f88565b61081f6100d2565b806108298161018e565b0390f35b6100d8565b346108605761084a6108453660046107ae565b611ff8565b6108526100d2565b8061085c8161018e565b0390f35b6100d8565b906108c8906080806108ab61089960a085016108875f8901515f880190610230565b6020880151868203602088015261025f565b6040870151858203604087015261025f565b946108be606082015160608601906102a7565b01519101906102ef565b90565b6108e09160208201915f818403910152610865565b90565b346109135761090f6108fe6108f93660046107ae565b612003565b6109066100d2565b918291826108cb565b0390f35b6100d8565b5f80fd5b90565b90565b61093661093161093b9261091c565b61091f565b610290565b90565b61094790610922565b90565b5f7f496e76616c696420616464726573730000000000000000000000000000000000910152565b61097e600f602092610727565b6109878161094a565b0190565b6109a09060208101905f818303910152610971565b90565b156109aa57565b6109b26100d2565b62461bcd60e51b8152806109c86004820161098b565b0390fd5b6109e06109db6109e592610290565b61091f565b610290565b90565b6109f1906109cc565b90565b6109fd906109e8565b90565b90610a0a906109f4565b5f5260205260405f2090565b5f1c90565b60ff1690565b610a2d610a3291610a16565b610a1b565b90565b610a3f9054610a21565b90565b151590565b60207f6572000000000000000000000000000000000000000000000000000000000000917f4164647265737320416c72656164792061737369676e656420746f20612075735f8201520152565b610aa16022604092610727565b610aaa81610a47565b0190565b610ac39060208101905f818303910152610a94565b90565b15610acd57565b610ad56100d2565b62461bcd60e51b815280610aeb60048201610aae565b0390fd5b5f1b90565b90610b0060ff91610aef565b9181191691161790565b610b1390610a42565b90565b90565b90610b2e610b29610b3592610b0a565b610b16565b8254610af4565b9055565b610b4360a061048e565b90565b5f90565b606090565b5f90565b5f90565b610b5f610b39565b9060208080808086610b6f610b46565b815201610b7a610b4a565b815201610b85610b4a565b815201610b90610b4f565b815201610b9b610b53565b81525050565b610ba9610b57565b90565b63ffffffff1690565b610bc9610bc4610bce92610bac565b61091f565b6101ca565b90565b610bdb60a061048e565b90565b90610be8906101ca565b9052565b90929192610c01610bfc8261068c565b61048e565b93818552602085019082840111610c1d57610c1b926104c6565b565b61044d565b610c2d913691610bec565b90565b52565b90610c3d9061029b565b9052565b90610c4b906102d7565b9052565b90565b5f5260205f2090565b634e487b7160e01b5f52603260045260245ffd5b5490565b610c7c81610c6f565b821015610c9657610c8e600491610c52565b910201905f90565b610c5b565b634e487b7160e01b5f525f60045260245ffd5b610cb890516101ca565b90565b90610cc75f1991610aef565b9181191691161790565b610ce5610ce0610cea926101ca565b61091f565b6101ca565b90565b90565b90610d05610d00610d0c92610cd1565b610ced565b8254610cbb565b9055565b5190565b634e487b7160e01b5f52602260045260245ffd5b9060016002830492168015610d48575b6020831014610d4357565b610d14565b91607f1691610d38565b5f5260205f2090565b601f602091010490565b1b90565b91906008610d84910291610d7e5f1984610d65565b92610d65565b9181191691161790565b9190610da4610d9f610dac93610cd1565b610ced565b908354610d69565b9055565b5f90565b610dc691610dc0610db0565b91610d8e565b565b5b818110610dd4575050565b80610de15f600193610db4565b01610dc9565b9190601f8111610df7575b505050565b610e03610e2893610d52565b906020610e0f84610d5b565b83019310610e30575b610e2190610d5b565b0190610dc8565b5f8080610df2565b9150610e2181929050610e18565b1c90565b90610e52905f1990600802610e3e565b191690565b81610e6191610e42565b906002021790565b90610e738161023d565b9067ffffffffffffffff8211610f3357610e9782610e918554610d28565b85610de7565b602090601f8311600114610ecb57918091610eba935f92610ebf575b5050610e57565b90555b565b90915001515f80610eb3565b601f19831691610eda85610d52565b925f5b818110610f1b57509160029391856001969410610f01575b50505002019055610ebd565b610f11910151601f841690610e42565b90555f8080610ef5565b91936020600181928787015181550195019201610edd565b610451565b90610f4291610e69565b565b610f4e905161029b565b90565b90610f6260018060a01b0391610aef565b9181191691161790565b90565b90610f84610f7f610f8b926109f4565b610f6c565b8254610f51565b9055565b610f9990516102d7565b90565b60a01b90565b90610fb160ff60a01b91610f9c565b9181191691161790565b610fc4906102d7565b90565b90565b90610fdf610fda610fe692610fbb565b610fc7565b8254610fa2565b9055565b9061105f608060036110659461100d5f82016110075f8801610cae565b90610cf0565b6110266001820161102060208801610d10565b90610f38565b61103f6002820161103960408801610d10565b90610f38565b61105782820161105160608801610f44565b90610f6f565b019201610f8f565b90610fca565b565b91906110785761107691610fea565b565b610c9b565b90815491680100000000000000008310156110ad57826110a59160016110ab95018155610c73565b90611067565b565b610451565b5490565b90565b6110cd6110c86110d2926110b6565b61091f565b6101ca565b90565b634e487b7160e01b5f52601160045260245ffd5b6110f86110fe919392936101ca565b926101ca565b820391821161110957565b6110d5565b90611118906109f4565b5f5260205260405f2090565b611208906111ff5f936111f66111ed6112179761115c3361115561114f61114a8c61093e565b61029b565b9161029b565b14156109a3565b61118061117b6111756111708b3390610a00565b610a35565b15610a42565b610ac6565b61119560016111908a3390610a00565b610b19565b61119d610ba1565b506111b66111b187868d8590913393612115565b610bb5565b996111e86111df8c989693929333976111da8d9b6111d2610bd1565b9e8f01610bde565b610c22565b60208b01610c30565b610c22565b60408701610c30565b60608501610c33565b60808301610c41565b6112126003610c4f565b61107d565b61124861123761122760036110b2565b61123160016110b9565b906110e9565b6112436002339061110e565b610cf0565b6112727f18d2397f7fd700f33b497f5ab5d19fd0714910fa7c72cc2162a78cb99cf6eb5791610cd1565b9061127b6100d2565b806112858161018e565b0390a2565b606090565b60207f6e00000000000000000000000000000000000000000000000000000000000000917f6f6e6c792061646d696e2063616e2063616c6c20746869732066756e6374696f5f8201520152565b6112e96021604092610727565b6112f28161128f565b0190565b61130b9060208101905f8183039101526112dc565b90565b1561131557565b61131d6100d2565b62461bcd60e51b815280611333600482016112f6565b0390fd5b9061136d92913361135761135161134c611a1c565b61029b565b9161029b565b148015611370575b6113689061130e565b6117da565b90565b506113683361139b6113957356c92833a4a3dac0e7d8b56c31e3fd52b5dec85661029b565b9161029b565b14905061135f565b5f7f456e6420696e646578206f7574206f6620626f756e6473000000000000000000910152565b6113d76017602092610727565b6113e0816113a3565b0190565b6113f99060208101905f8183039101526113ca565b90565b1561140357565b61140b6100d2565b62461bcd60e51b815280611421600482016113e4565b0390fd5b90565b61143c61143761144192611425565b61091f565b6101ca565b90565b60207f646e277420626520626967676572207468616e20353030000000000000000000917f496e76616c69642072616e676520616e642f6f722072616e67652073686f756c5f8201520152565b61149e6037604092610727565b6114a781611444565b0190565b6114c09060208101905f818303910152611491565b90565b156114ca57565b6114d26100d2565b62461bcd60e51b8152806114e8600482016114ab565b0390fd5b6114fb611501919392936101ca565b926101ca565b820180921161150c57565b6110d5565b67ffffffffffffffff81116115295760208091020190565b610451565b9061154061153b83611511565b61048e565b918252565b61154d610b57565b90565b5f5b82811061155e57505050565b602090611569611545565b8184015201611552565b906115986115808361152e565b9260208061158e8693611511565b9201910390611550565b565b6115ae6115a96115b39261091c565b61091f565b6101ca565b90565b60016115c291016101ca565b90565b5f5260205f2090565b6115d7816110b2565b8210156115f1576115e96004916115c5565b910201905f90565b610c5b565b906116008261021d565b811015611611576020809102010190565b610c5b565b90565b61162561162a91610a16565b611616565b90565b6116379054611619565b90565b905f929180549061165461164d83610d28565b8094610241565b916001811690815f146116ab575060011461166f575b505050565b61167c9192939450610d52565b915f925b81841061169357505001905f808061166a565b60018160209295939554848601520191019290611680565b92949550505060ff19168252151560200201905f808061166a565b906116d09161163a565b90565b906116f36116ec926116e36100d2565b938480926116c6565b0383610465565b565b60018060a01b031690565b61170c61171191610a16565b6116f5565b90565b61171e9054611700565b90565b60a01c90565b60ff1690565b61173961173e91611721565b611727565b90565b61174b905461172d565b90565b906117cc6117c3600361175f610b39565b9461177661176e5f830161162d565b5f8801610bde565b61178e611785600183016116d3565b60208801610c30565b6117a661179d600283016116d3565b60408801610c30565b6117bd6117b4838301611714565b60608801610c33565b01611741565b60808401610c41565b565b6117d79061174e565b90565b91909150611803816117fd6117f76117f260036110b2565b6101ca565b916101ca565b106113fc565b81611816611810836101ca565b916101ca565b1115806118f1575b611827906114c3565b8161183a611834836101ca565b916101ca565b145f146118cb575061185561184f60016110b9565b5b611573565b9061185f5f61159a565b5b8061187b6118756118708661021d565b6101ca565b916101ca565b10156118c6576118c1906118ba61189e60036118988487906114ec565b906115ce565b50856118aa84926117ce565b6118b483836115f6565b526115f6565b51506115b6565b611860565b505090565b6118ec6118dc6118559284906110e9565b6118e660016110b9565b906114ec565b611850565b506118276119008284906110e9565b61191461190e6101f4611428565b916101ca565b1115905061181e565b9061192f9161192a61128a565b611337565b90565b906119449161193f612182565b611946565b565b906119599161195481612234565b6122aa565b565b9061196591611932565b565b5f90565b61197c906119776123a8565b6119ca565b90565b90565b61199661199161199b9261197f565b610aef565b6105a8565b90565b6119c77f360894a13ba1a3210667c828492db98dca3e2076cc3735a920a3ca505d382bbc611982565b90565b506119d361199e565b90565b6119e66119e1611967565b61196b565b90565b6119f1612406565b6119f96119fb565b565b611a0c611a075f61093e565b612454565b565b611a166119e9565b565b5f90565b611a24611a18565b50611a375f611a316124c0565b01611714565b90565b60401c90565b611a4c611a5191611a3a565b610a1b565b90565b611a5e9054611a40565b90565b67ffffffffffffffff1690565b611a7a611a7f91610a16565b611a61565b90565b611a8c9054611a6e565b90565b67ffffffffffffffff1690565b611ab0611aab611ab59261091c565b61091f565b611a8f565b90565b611acc611ac7611ad1926110b6565b61091f565b611a8f565b90565b611add906109e8565b90565b90611af367ffffffffffffffff91610aef565b9181191691161790565b611b11611b0c611b1692611a8f565b61091f565b611a8f565b90565b90565b90611b31611b2c611b3892611afd565b611b19565b8254611ae0565b9055565b60401b90565b90611b5668ff000000000000000091611b3c565b9181191691161790565b90611b75611b70611b7c92610b0a565b610b16565b8254611b42565b9055565b611b8990611ab8565b9052565b9190611ba0905f60208501940190611b80565b565b611baa6124e4565b90611bbf611bb95f8401611a54565b15610a42565b90611bcb5f8401611a82565b80611bde611bd85f611a9c565b91611a8f565b1480611cf8575b90611bf9611bf36001611ab8565b91611a8f565b1480611cd0575b611c0b909115610a42565b9081611cbf575b50611ca357611c3b90611c30611c286001611ab8565b5f8601611b1c565b82611c91575b611cff565b611c43575b50565b611c50905f809101611b60565b6001611c887fc7f505b2f371ae2175ee4913f4499e1f2633a7b5936321eed1cdaeb6115181d291611c7f6100d2565b91829182611b8d565b0390a15f611c40565b611c9e60015f8601611b60565b611c36565b5f63f92ee8a960e01b815280611cbb6004820161018e565b0390fd5b611cca915015610a42565b5f611c12565b50611c0b611cdd30611ad4565b3b611cf0611cea5f61159a565b916101ca565b149050611c00565b5082611be5565b611d089061250d565b611d10612522565b565b611d1b90611ba2565b565b611d519033611d3b611d35611d30611a1c565b61029b565b9161029b565b148015611d53575b611d4c9061130e565b611e8c565b565b50611d4c33611d7e611d787356c92833a4a3dac0e7d8b56c31e3fd52b5dec85661029b565b9161029b565b149050611d43565b90565b5f7f6163636f756e74206d69736d6174636800000000000000000000000000000000910152565b611dbd6010602092610727565b611dc681611d89565b0190565b611ddf9060208101905f818303910152611db0565b90565b15611de957565b611df16100d2565b62461bcd60e51b815280611e0760048201611dca565b0390fd5b5f7f746869732073656c6c657220697320616c726561647920566572696669656421910152565b611e3e60208092610727565b611e4781611e0b565b0190565b611e609060208101905f818303910152611e32565b90565b15611e6a57565b611e726100d2565b62461bcd60e51b815280611e8860048201611e4b565b0390fd5b5f611f4691611ee1611ebc611eb66003611eb0611eab6002879061110e565b61162d565b906115ce565b50611d86565b91611edb611ed5611ecf60038601611714565b9261029b565b9161029b565b14611de2565b611f11611f0c611f06611f016001611efb60038701611714565b90610a00565b610a35565b15610a42565b611e63565b611f326001611f2d6001611f2760038601611714565b90610a00565b610b19565b611f40600160038301610fca565b0161162d565b611f707fdf52e5a9e5634ebcb6b469074d580518b774118712be205dfe5a5061501d4bc991610cd1565b90611f796100d2565b80611f838161018e565b0390a2565b611f9190611d1d565b565b611fa490611f9f612406565b611fa6565b565b80611fc1611fbb611fb65f61093e565b61029b565b9161029b565b14611fd157611fcf90612454565b565b611ff4611fdd5f61093e565b5f918291631e4fbdf760e01b835260048301610642565b0390fd5b61200190611f93565b565b61202e61203491612012610ba1565b50612028612023600392600261110e565b61162d565b906115ce565b506117ce565b90565b5f90565b905090565b909182612050816120579361203b565b80936104c6565b0190565b60601b90565b61206a9061205b565b90565b61207690612061565b90565b61208561208a9161029b565b61206d565b9052565b90565b61209d6120a2916101ca565b61208e565b9052565b6014936120d7956120c26120c89360209a99966120cf96612040565b91612040565b8092612079565b018092612091565b0190565b60200190565b5190565b6120f16120f691610a16565b610cd1565b90565b61210d612108612112926101ca565b61091f565b610bac565b90565b9061214761216e94612173966121569461212d612037565b50939591429261213b6100d2565b978896602088016120a6565b60208201810382520382610465565b612168612162826120e1565b916120db565b206120e5565b6120f9565b90565b61217f906109e8565b90565b61218b30612176565b6121bd6121b77f000000000000000000000000000000000000000000000000000000000000000061029b565b9161029b565b1480156121e7575b6121cb57565b5f63703e46dd60e11b8152806121e36004820161018e565b0390fd5b506121f061252c565b61222261221c7f000000000000000000000000000000000000000000000000000000000000000061029b565b9161029b565b14156121c5565b50612232612406565b565b61223d90612229565b565b612248906109cc565b90565b6122549061223f565b90565b612260906109e8565b90565b60e01b90565b612272816105a8565b0361227957565b5f80fd5b9050519061228a82612269565b565b906020828203126122a5576122a2915f0161227d565b90565b6100dc565b91906122d860206122c26122bd8661224b565b612257565b6352d1902d906122d06100d2565b938492612263565b825281806122e86004820161018e565b03915afa80915f92612378575b50155f1461232957505090600161230a57505b565b612325905f918291634c9c8ce360e01b835260048301610642565b0390fd5b928361234461233e61233961199e565b6105a8565b916105a8565b0361235957612354929350612552565b612308565b612374845f918291632a87526960e21b8352600483016105b8565b0390fd5b61239a91925060203d81116123a1575b6123928183610465565b81019061228c565b905f6122f5565b503d612388565b6123b130612176565b6123e36123dd7f000000000000000000000000000000000000000000000000000000000000000061029b565b9161029b565b036123ea57565b5f63703e46dd60e11b8152806124026004820161018e565b0390fd5b61240e611a1c565b61242761242161241c6125db565b61029b565b9161029b565b0361242e57565b6124506124396125db565b5f91829163118cdaa760e01b835260048301610642565b0390fd5b61245c6124c0565b61247461246a5f8301611714565b915f849101610f6f565b906124a86124a27f8be0079c531659141344cd1fd0a4f28419497f9722a3daafe3b4186f6b6457e0936109f4565b916109f4565b916124b16100d2565b806124bb8161018e565b0390a3565b7f9016d09d72d40fdae2fd8ceac6b6234c7706214fd39c1cd1e609a0528c19930090565b6124ec612633565b90565b612500906124fb612647565b612502565b565b61250b906126df565b565b612516906124ef565b565b612520612647565b565b61252a612518565b565b612534611a18565b5061254f5f61254961254461199e565b6126ea565b01611714565b90565b9061255c826126ed565b816125877fbc7cd75a20ee27fd9adebab32041f755214dbc6bffa90cc0225b39da2e5c2d3b916109f4565b906125906100d2565b8061259a8161018e565b0390a26125a6816120e1565b6125b86125b25f61159a565b916101ca565b115f146125cc576125c8916127bd565b505b565b50506125d6612742565b6125ca565b6125e3611a18565b503390565b90565b6125ff6125fa612604926125e8565b610aef565b6105a8565b90565b6126307ff0c57e16840df040f15088dc2f81fe391c3923bec73e23a9662efc9c229c6a006125eb565b90565b61263b611967565b50612644612607565b90565b6126586126526127f0565b15610a42565b61265e57565b5f631afcd79f60e31b8152806126766004820161018e565b0390fd5b61268b90612686612647565b61268d565b565b806126a86126a261269d5f61093e565b61029b565b9161029b565b146126b8576126b690612454565b565b6126db6126c45f61093e565b5f918291631e4fbdf760e01b835260048301610642565b0390fd5b6126e89061267a565b565b90565b803b6127016126fb5f61159a565b916101ca565b1461272357612721905f61271b61271661199e565b6126ea565b01610f6f565b565b61273e905f918291634c9c8ce360e01b835260048301610642565b0390fd5b3461275561274f5f61159a565b916101ca565b1161275c57565b5f63b398979f60e01b8152806127746004820161018e565b0390fd5b606090565b9061278f61278a836104a3565b61048e565b918252565b3d5f146127af576127a43d61277d565b903d5f602084013e5b565b6127b7612778565b906127ad565b5f806127e9936127cb612778565b508390602081019051915af4906127e0612794565b9091909161280e565b90565b5f90565b6127f86127ec565b5061280b5f6128056124e4565b01611a54565b90565b906128229061281b612778565b5015610a42565b5f1461282e5750612892565b612837826120e1565b6128496128435f61159a565b916101ca565b1480612877575b612858575090565b612873905f918291639996b31560e01b835260048301610642565b0390fd5b50803b61288c6128865f61159a565b916101ca565b14612850565b61289b816120e1565b6128ad6128a75f61159a565b916101ca565b115f146128bc57805190602001fd5b5f63d6bda27560e01b8152806128d46004820161018e565b0390fdfea2646970667358221220fe079aa7a7bd8702d403cc71163a0ffb689450f2e33004c893a944b51641844664736f6c634300081c0033","linkReferences":{}},"methodIdentifiers":{"UPGRADE_INTERFACE_VERSION()":"ad3cb1cc","getUserData(address)":"ffc9896b","getUsers(uint256,uint256)":"45982a66","initialize(address)":"c4d66de8","owner()":"8da5cb5b","proxiableUUID()":"52d1902d","register(string,string)":"3ffbd47f","renounceOwnership()":"715018a6","transferOwnership(address)":"f2fde38b","upgradeToAndCall(address,bytes)":"4f1ef286","verifySeller(address)":"d1760e60"},"storageLayout":{"storage":[{"astId":40749,"contract":"src/User.sol:TrussUser","label":"isRegistered","offset":0,"slot":"0","type":"t_mapping(t_address,t_bool)"},{"astId":40753,"contract":"src/User.sol:TrussUser","label":"isVerified","offset":0,"slot":"1","type":"t_mapping(t_address,t_bool)"},{"astId":40757,"contract":"src/User.sol:TrussUser","label":"userIdToRecordIndex","offset":0,"slot":"2","type":"t_mapping(t_address,t_uint256)"},{"astId":40761,"contract":"src/User.sol:TrussUser","label":"users","offset":0,"slot":"3","type":"t_array(t_struct(User)37907_storage)dyn_storage"}],"types":{"t_address":{"encoding":"inplace","label":"address","numberOfBytes":"20"},"t_array(t_struct(User)37907_storage)dyn_storage":{"encoding":"dynamic_array","label":"struct User[]","numberOfBytes":"32","base":"t_struct(User)37907_storage"},"t_bool":{"encoding":"inplace","label":"bool","numberOfBytes":"1"},"t_enum(VerificationStatus)37895":{"encoding":"inplace","label":"enum VerificationStatus","numberOfBytes":"1"},"t_mapping(t_address,t_bool)":{"encoding":"mapping","key":"t_address","label":"mapping(address => bool)","numberOfBytes":"32","value":"t_bool"},"t_mapping(t_address,t_uint256)":{"encoding":"mapping","key":"t_address","label":"mapping(address => uint256)","numberOfBytes":"32","value":"t_uint256"},"t_string_storage":{"encoding":"bytes","label":"string","numberOfBytes":"32"},"t_struct(User)37907_storage":{"encoding":"inplace","label":"struct User","numberOfBytes":"128","members":[{"astId":37897,"contract":"src/User.sol:TrussUser","label":"userId","offset":0,"slot":"0","type":"t_uint256"},{"astId":37899,"contract":"src/User.sol:TrussUser","label":"lastName","offset":0,"slot":"1","type":"t_string_storage"},{"astId":37901,"contract":"src/User.sol:TrussUser","label":"firstName","offset":0,"slot":"2","type":"t_string_storage"},{"astId":37903,"contract":"src/User.sol:TrussUser","label":"account","offset":0,"slot":"3","type":"t_address"},{"astId":37906,"contract":"src/User.sol:TrussUser","label":"verificationStatus","offset":20,"slot":"3","type":"t_enum(VerificationStatus)37895"}]},"t_uint256":{"encoding":"inplace","label":"uint256","numberOfBytes":"32"}}},"id":42}