{"abi":[{"type":"constructor","inputs":[],"stateMutability":"nonpayable"},{"type":"function","name":"UPGRADE_INTERFACE_VERSION","inputs":[],"outputs":[{"name":"","type":"string","internalType":"string"}],"stateMutability":"view"},{"type":"function","name":"addTokenToAcceptedList","inputs":[{"name":"_tokenAddress","type":"address","internalType":"address"},{"name":"_symbol","type":"string","internalType":"string"},{"name":"_feedAddress","type":"address","internalType":"address"}],"outputs":[],"stateMutability":"nonpayable"},{"type":"function","name":"delistToken","inputs":[{"name":"_symbol","type":"string","internalType":"string"}],"outputs":[],"stateMutability":"nonpayable"},{"type":"function","name":"getUserData","inputs":[{"name":"_account","type":"address","internalType":"address"}],"outputs":[{"name":"","type":"tuple","internalType":"struct User","components":[{"name":"userId","type":"uint256","internalType":"uint256"},{"name":"lastName","type":"string","internalType":"string"},{"name":"firstName","type":"string","internalType":"string"},{"name":"account","type":"address","internalType":"address"},{"name":"_userType","type":"uint8","internalType":"enum UserType"},{"name":"verificationStatus","type":"uint8","internalType":"enum VerificationStatus"}]}],"stateMutability":"view"},{"type":"function","name":"getUsers","inputs":[{"name":"_start","type":"uint256","internalType":"uint256"},{"name":"_end","type":"uint256","internalType":"uint256"}],"outputs":[{"name":"","type":"tuple[]","internalType":"struct User[]","components":[{"name":"userId","type":"uint256","internalType":"uint256"},{"name":"lastName","type":"string","internalType":"string"},{"name":"firstName","type":"string","internalType":"string"},{"name":"account","type":"address","internalType":"address"},{"name":"_userType","type":"uint8","internalType":"enum UserType"},{"name":"verificationStatus","type":"uint8","internalType":"enum VerificationStatus"}]}],"stateMutability":"view"},{"type":"function","name":"initialize","inputs":[{"name":"initialOwner","type":"address","internalType":"address"}],"outputs":[],"stateMutability":"nonpayable"},{"type":"function","name":"owner","inputs":[],"outputs":[{"name":"","type":"address","internalType":"address"}],"stateMutability":"view"},{"type":"function","name":"proxiableUUID","inputs":[],"outputs":[{"name":"","type":"bytes32","internalType":"bytes32"}],"stateMutability":"view"},{"type":"function","name":"register","inputs":[{"name":"_lastName","type":"string","internalType":"string"},{"name":"_firstName","type":"string","internalType":"string"},{"name":"_userType","type":"uint8","internalType":"enum UserType"}],"outputs":[],"stateMutability":"nonpayable"},{"type":"function","name":"renounceOwnership","inputs":[],"outputs":[],"stateMutability":"nonpayable"},{"type":"function","name":"tokenSymbolToDetails","inputs":[{"name":"","type":"string","internalType":"string"}],"outputs":[{"name":"feedAddr","type":"address","internalType":"address"},{"name":"tokenAddr","type":"address","internalType":"address"}],"stateMutability":"view"},{"type":"function","name":"transferOwnership","inputs":[{"name":"newOwner","type":"address","internalType":"address"}],"outputs":[],"stateMutability":"nonpayable"},{"type":"function","name":"upgradeToAndCall","inputs":[{"name":"newImplementation","type":"address","internalType":"address"},{"name":"data","type":"bytes","internalType":"bytes"}],"outputs":[],"stateMutability":"payable"},{"type":"function","name":"verifySeller","inputs":[{"name":"_account","type":"address","internalType":"address"}],"outputs":[],"stateMutability":"nonpayable"},{"type":"event","name":"AccountOwnershipChanged","inputs":[{"name":"_userId","type":"uint256","indexed":true,"internalType":"uint256"},{"name":"_changedBy","type":"address","indexed":false,"internalType":"address"},{"name":"_oldOwner","type":"address","indexed":false,"internalType":"address"},{"name":"_newOwner","type":"address","indexed":false,"internalType":"address"}],"anonymous":false},{"type":"event","name":"CanceledDelivery","inputs":[{"name":"_seller","type":"uint256","indexed":true,"internalType":"uint256"},{"name":"_ref","type":"uint256","indexed":true,"internalType":"uint256"},{"name":"_item","type":"uint256","indexed":true,"internalType":"uint256"}],"anonymous":false},{"type":"event","name":"Initialized","inputs":[{"name":"version","type":"uint64","indexed":false,"internalType":"uint64"}],"anonymous":false},{"type":"event","name":"OwnershipTransferred","inputs":[{"name":"previousOwner","type":"address","indexed":true,"internalType":"address"},{"name":"newOwner","type":"address","indexed":true,"internalType":"address"}],"anonymous":false},{"type":"event","name":"ProductOrderStatusUpdated","inputs":[{"name":"_buyer","type":"uint256","indexed":true,"internalType":"uint256"},{"name":"_payref","type":"uint256","indexed":true,"internalType":"uint256"},{"name":"_itemId","type":"uint256","indexed":true,"internalType":"uint256"},{"name":"_delivered","type":"bool","indexed":false,"internalType":"bool"}],"anonymous":false},{"type":"event","name":"ProductpriceUpdate","inputs":[{"name":"_productId","type":"uint256","indexed":true,"internalType":"uint256"},{"name":"_sellerId","type":"uint256","indexed":true,"internalType":"uint256"},{"name":"_newPrice","type":"uint256","indexed":false,"internalType":"uint256"}],"anonymous":false},{"type":"event","name":"ResgisteredAProduct","inputs":[{"name":"_productId","type":"uint256","indexed":true,"internalType":"uint256"},{"name":"_sellerId","type":"uint256","indexed":true,"internalType":"uint256"}],"anonymous":false},{"type":"event","name":"ResgisteredAuser","inputs":[{"name":"_userId","type":"uint256","indexed":true,"internalType":"uint256"}],"anonymous":false},{"type":"event","name":"SuccessfulCheckout","inputs":[{"name":"_userId","type":"uint256","indexed":true,"internalType":"uint256"},{"name":"_paymentRefence","type":"uint256","indexed":true,"internalType":"uint256"},{"name":"_currency","type":"string","indexed":false,"internalType":"string"},{"name":"_amountPaid","type":"uint256","indexed":false,"internalType":"uint256"}],"anonymous":false},{"type":"event","name":"Upgraded","inputs":[{"name":"implementation","type":"address","indexed":true,"internalType":"address"}],"anonymous":false},{"type":"event","name":"VerifiedAuser","inputs":[{"name":"_userId","type":"uint256","indexed":true,"internalType":"uint256"}],"anonymous":false},{"type":"event","name":"WithdrawSuccess","inputs":[{"name":"_userId","type":"uint256","indexed":true,"internalType":"uint256"},{"name":"_tokenSymbol","type":"string","indexed":false,"internalType":"string"},{"name":"_payRef","type":"uint256","indexed":true,"internalType":"uint256"},{"name":"_amount","type":"uint256","indexed":false,"internalType":"uint256"},{"name":"_date","type":"uint256","indexed":true,"internalType":"uint256"}],"anonymous":false},{"type":"error","name":"AddressEmptyCode","inputs":[{"name":"target","type":"address","internalType":"address"}]},{"type":"error","name":"ERC1967InvalidImplementation","inputs":[{"name":"implementation","type":"address","internalType":"address"}]},{"type":"error","name":"ERC1967NonPayable","inputs":[]},{"type":"error","name":"FailedCall","inputs":[]},{"type":"error","name":"InvalidInitialization","inputs":[]},{"type":"error","name":"NotInitializing","inputs":[]},{"type":"error","name":"OwnableInvalidOwner","inputs":[{"name":"owner","type":"address","internalType":"address"}]},{"type":"error","name":"OwnableUnauthorizedAccount","inputs":[{"name":"account","type":"address","internalType":"address"}]},{"type":"error","name":"UUPSUnauthorizedCallContext","inputs":[]},{"type":"error","name":"UUPSUnsupportedProxiableUUID","inputs":[{"name":"slot","type":"bytes32","internalType":"bytes32"}]}],"bytecode":{"object":"0x60a06040523461003e5761001161004d565b610019610043565b61304f6102d2823960805181818161281e015281816128830152612a44015261304f90f35b610049565b60405190565b5f80fd5b61005561005f565b61005d6101a8565b565b6100676100ab565b565b60018060a01b031690565b90565b61008b61008661009092610069565b610074565b610069565b90565b61009c90610077565b90565b6100a890610093565b90565b6100b43061009f565b608052565b60401c90565b60ff1690565b6100d16100d6916100b9565b6100bf565b90565b6100e390546100c5565b90565b5f0190565b5f1c90565b60018060401b031690565b61010761010c916100eb565b6100f0565b90565b61011990546100fb565b90565b60018060401b031690565b5f1b90565b9061013d60018060401b0391610127565b9181191691161790565b61015b6101566101609261011c565b610074565b61011c565b90565b90565b9061017b61017661018292610147565b610163565b825461012c565b9055565b61018f9061011c565b9052565b91906101a6905f60208501940190610186565b565b6101b0610260565b6101bb5f82016100d9565b610244576101ca5f820161010f565b6101e26101dc60018060401b0361011c565b9161011c565b036101eb575b50565b6101fe905f60018060401b039101610166565b60018060401b0361023b7fc7f505b2f371ae2175ee4913f4499e1f2633a7b5936321eed1cdaeb6115181d291610232610043565b91829182610193565b0390a15f6101e8565b5f63f92ee8a960e01b81528061025c600482016100e6565b0390fd5b6102686102bd565b90565b5f90565b90565b90565b61028961028461028e9261026f565b610127565b610272565b90565b6102ba7ff0c57e16840df040f15088dc2f81fe391c3923bec73e23a9662efc9c229c6a00610275565b90565b6102c561026b565b506102ce610291565b9056fe60806040526004361015610013575b610c49565b61001d5f356100fc565b8063366404b3146100f757806345982a66146100f25780634f1ef286146100ed57806352d1902d146100e8578063715018a6146100e35780638da5cb5b146100de578063ad3cb1cc146100d9578063b01b96c3146100d4578063b3f90e0a146100cf578063c4d66de8146100ca578063d1760e60146100c5578063f2fde38b146100c0578063f661f44c146100bb5763ffc9896b0361000e57610c14565b610b4e565b610a1a565b6109e7565b6109b4565b61095f565b61085c565b6107f2565b6106f3565b61069e565b610669565b61060b565b610514565b610291565b60e01c90565b60405190565b5f80fd5b5f80fd5b5f80fd5b60018060a01b031690565b61012890610114565b90565b6101348161011f565b0361013b57565b5f80fd5b9050359061014c8261012b565b565b5f80fd5b5f80fd5b601f801991011690565b634e487b7160e01b5f52604160045260245ffd5b9061017e90610156565b810190811067ffffffffffffffff82111761019857604052565b610160565b906101b06101a9610102565b9283610174565b565b67ffffffffffffffff81116101d0576101cc602091610156565b0190565b610160565b90825f939282370152565b909291926101f56101f0826101b2565b61019d565b938185526020850190828401116102115761020f926101d5565b565b610152565b9080601f8301121561023457816020610231933591016101e0565b90565b61014e565b909160608284031261028757610251835f840161013f565b9260208301359067ffffffffffffffff8211610282576102768161027f938601610216565b9360400161013f565b90565b610110565b61010c565b5f0190565b346102c0576102aa6102a4366004610239565b91610fdb565b6102b2610102565b806102bc8161028c565b0390f35b610108565b90565b6102d1816102c5565b036102d857565b5f80fd5b905035906102e9826102c8565b565b91906040838203126103135780610307610310925f86016102dc565b936020016102dc565b90565b61010c565b5190565b60209181520190565b60200190565b610334906102c5565b9052565b5190565b60209181520190565b90825f9392825e0152565b61036f61037860209361037d9361036681610338565b9384809361033c565b95869101610345565b610156565b0190565b61038a9061011f565b9052565b634e487b7160e01b5f52602160045260245ffd5b600211156103ac57565b61038e565b906103bb826103a2565b565b6103c6906103b1565b90565b6103d2906103bd565b9052565b600311156103e057565b61038e565b906103ef826103d6565b565b6103fa906103e5565b90565b610406906103f1565b9052565b9061047f9060a08061045061043e60c0850161042c5f8901515f88019061032b565b60208801518682036020880152610350565b60408701518582036040870152610350565b9461046360608201516060860190610381565b610475608082015160808601906103c9565b01519101906103fd565b90565b9061048c9161040a565b90565b60200190565b906104a96104a283610318565b809261031c565b90816104ba60208302840194610325565b925f915b8383106104cd57505050505090565b909192939460206104ef6104e983856001950387528951610482565b9761048f565b93019301919392906104be565b6105119160208201915f818403910152610495565b90565b346105455761054161053061052a3660046102eb565b906116f4565b610538610102565b918291826104fc565b0390f35b610108565b67ffffffffffffffff811161056857610564602091610156565b0190565b610160565b9092919261058261057d8261054a565b61019d565b9381855260208501908284011161059e5761059c926101d5565b565b610152565b9080601f830112156105c1578160206105be9335910161056d565b90565b61014e565b919091604081840312610606576105df835f830161013f565b92602082013567ffffffffffffffff8111610601576105fe92016105a3565b90565b610110565b61010c565b61061f6106193660046105c6565b90611732565b610627610102565b806106318161028c565b0390f35b5f91031261063f57565b61010c565b90565b61065090610644565b9052565b9190610667905f60208501940190610647565b565b3461069957610679366004610635565b6106956106846117ad565b61068c610102565b91829182610654565b0390f35b610108565b346106cc576106ae366004610635565b6106b661180d565b6106be610102565b806106c88161028c565b0390f35b610108565b6106da9061011f565b9052565b91906106f1905f602085019401906106d1565b565b3461072357610703366004610635565b61071f61070e61181b565b610716610102565b918291826106de565b0390f35b610108565b9061073a610735836101b2565b61019d565b918252565b5f7f352e302e30000000000000000000000000000000000000000000000000000000910152565b6107706005610728565b9061077d6020830161073f565b565b610787610766565b90565b61079261077f565b90565b61079d61078a565b90565b60209181520190565b6107c86107d16020936107d6936107bf81610338565b938480936107a0565b95869101610345565b610156565b0190565b6107ef9160208201915f8184039101526107a9565b90565b3461082257610802366004610635565b61081e61080d610795565b610815610102565b918291826107da565b0390f35b610108565b90602082820312610857575f82013567ffffffffffffffff81116108525761084f9201610216565b90565b610110565b61010c565b3461088a5761087461086f366004610827565b611926565b61087c610102565b806108868161028c565b0390f35b610108565b5f80fd5b5f80fd5b909182601f830112156108d15781359167ffffffffffffffff83116108cc5760200192600183028401116108c757565b610893565b61088f565b61014e565b600211156108e057565b5f80fd5b905035906108f1826108d6565b565b60608183031261095a575f81013567ffffffffffffffff8111610955578261091c918301610897565b929093602083013567ffffffffffffffff8111610950576109428361094d928601610897565b9390946040016108e4565b90565b610110565b610110565b61010c565b346109915761097b6109723660046108f3565b93929092611ed3565b610983610102565b8061098d8161028c565b0390f35b610108565b906020828203126109af576109ac915f0161013f565b90565b61010c565b346109e2576109cc6109c7366004610996565b61233e565b6109d4610102565b806109de8161028c565b0390f35b610108565b34610a15576109ff6109fa366004610996565b61255e565b610a07610102565b80610a118161028c565b0390f35b610108565b34610a4857610a32610a2d366004610996565b6125ce565b610a3a610102565b80610a448161028c565b0390f35b610108565b905090565b610a77610a6e92602092610a6581610338565b94858093610a4d565b93849101610345565b0190565b90565b610a8a610a8f916102c5565b610a7b565b9052565b610aa3610aaa9160209493610a52565b8092610a7e565b0190565b610ac2610ab9610102565b92839283610a93565b03902090565b610ad191610aae565b90565b5f1c90565b60018060a01b031690565b610af0610af591610ad4565b610ad9565b90565b610b029054610ae4565b90565b610b10906001610ac8565b90610b286001610b215f8501610af8565b9301610af8565b90565b916020610b4c929493610b4560408201965f8301906106d1565b01906106d1565b565b34610b7f57610b66610b61366004610827565b610b05565b90610b7b610b72610102565b92839283610b2b565b0390f35b610108565b90610bf99060a080610bca610bb860c08501610ba65f8901515f88019061032b565b60208801518682036020880152610350565b60408701518582036040870152610350565b94610bdd60608201516060860190610381565b610bef608082015160808601906103c9565b01519101906103fd565b90565b610c119160208201915f818403910152610b84565b90565b34610c4457610c40610c2f610c2a366004610996565b612703565b610c37610102565b91829182610bfc565b0390f35b610108565b5f80fd5b90610c609291610c5b6127b3565b610eb6565b565b90565b60200190565b5190565b5f7f4554480000000000000000000000000000000000000000000000000000000000910152565b610ca06003610728565b90610cad60208301610c6f565b565b610cb7610c96565b90565b610cc391610aae565b90565b5f1b90565b90610cd760ff91610cc6565b9181191691161790565b151590565b610cef90610ce1565b90565b90565b90610d0a610d05610d1192610ce6565b610cf2565b8254610ccb565b9055565b610d1f604061019d565b90565b90610d2c9061011f565b9052565b634e487b7160e01b5f525f60045260245ffd5b610d4d905161011f565b90565b90610d6160018060a01b0391610cc6565b9181191691161790565b90565b610d82610d7d610d8792610114565b610d6b565b610114565b90565b610d9390610d6e565b90565b610d9f90610d8a565b90565b90565b90610dba610db5610dc192610d96565b610da2565b8254610d50565b9055565b90610df060206001610df694610de85f8201610de25f8801610d43565b90610da5565b019201610d43565b90610da5565b565b90610e0291610dc5565b565b610e18610e13610e1d926102c5565b610d6b565b6102c5565b90565b610e2c610e3191610ad4565b610e04565b90565b610e48610e43610e4d926102c5565b610d6b565b610114565b90565b610e5c60038092610a4d565b610e6581610c6f565b0190565b90610e7f610e78602093610e50565b8092610a7e565b0190565b610e9890610e8f610102565b91829182610e69565b03902090565b610ea790610e83565b90565b610eb390610e83565b90565b90610ec081610c62565b610ed2610ecc82610c6b565b91610c65565b20610eff610ef9610ee1610caf565b610ef3610eed82610c6b565b91610c65565b20610644565b91610644565b145f14610f8c575050610f8990610f7a610f48610f43610f3e7faaaebeba3810b1e6b70781f14b2d72c1cb89c0b2b320c43bb67ff79f562f5ff4610e20565b610e34565b610d8a565b91610f5c6001610f575f610e9e565b610cf5565b91610f71610f68610d15565b935f8501610d22565b60208301610d22565b610f846001610eaa565b610df8565b5b565b610fd190610fca610fd694610fac6001610fa75f8690610cba565b610cf5565b93610fc1610fb8610d15565b955f8701610d22565b60208501610d22565b6001610ac8565b610df8565b610f8a565b90610fe69291610c4d565b565b606090565b906110009291610ffb6127b3565b6115b1565b90565b5490565b5f7f456e6420696e646578206f7574206f6620626f756e6473000000000000000000910152565b61103b60176020926107a0565b61104481611007565b0190565b61105d9060208101905f81830391015261102e565b90565b1561106757565b61106f610102565b62461bcd60e51b81528061108560048201611048565b0390fd5b634e487b7160e01b5f52601160045260245ffd5b6110ac6110b2919392936102c5565b926102c5565b82039182116110bd57565b611089565b90565b6110d96110d46110de926110c2565b610d6b565b6102c5565b90565b60207f646e277420626520626967676572207468616e20353030000000000000000000917f496e76616c69642072616e676520616e642f6f722072616e67652073686f756c5f8201520152565b61113b60376040926107a0565b611144816110e1565b0190565b61115d9060208101905f81830391015261112e565b90565b1561116757565b61116f610102565b62461bcd60e51b81528061118560048201611148565b0390fd5b90565b6111a061119b6111a592611189565b610d6b565b6102c5565b90565b6111b76111bd919392936102c5565b926102c5565b82018092116111c857565b611089565b67ffffffffffffffff81116111e55760208091020190565b610160565b906111fc6111f7836111cd565b61019d565b918252565b61120b60c061019d565b90565b5f90565b606090565b5f90565b5f90565b5f90565b61122b611201565b90602080808080808761123c61120e565b815201611247611212565b815201611252611212565b81520161125d611217565b81520161126861121b565b81520161127361121f565b81525050565b611281611223565b90565b5f5b82811061129257505050565b60209061129d611279565b8184015201611286565b906112cc6112b4836111ea565b926020806112c286936111cd565b9201910390611284565b565b90565b6112e56112e06112ea926112ce565b610d6b565b6102c5565b90565b60016112f991016102c5565b90565b634e487b7160e01b5f52603260045260245ffd5b5f5260205f2090565b61132281611003565b82101561133c57611334600491611310565b910201905f90565b6112fc565b9061134b82610318565b81101561135c576020809102010190565b6112fc565b90565b61137061137591610ad4565b611361565b90565b6113829054611364565b90565b9061138f906102c5565b9052565b634e487b7160e01b5f52602260045260245ffd5b90600160028304921680156113c7575b60208310146113c257565b611393565b91607f16916113b7565b5f5260205f2090565b905f92918054906113f46113ed836113a7565b809461033c565b916001811690815f1461144b575060011461140f575b505050565b61141c91929394506113d1565b915f925b81841061143357505001905f808061140a565b60018160209295939554848601520191019290611420565b92949550505060ff19168252151560200201905f808061140a565b90611470916113da565b90565b9061149361148c92611483610102565b93848092611466565b0383610174565b565b52565b60a01c90565b60ff1690565b6114b06114b591611498565b61149e565b90565b6114c290546114a4565b90565b906114cf906103b1565b9052565b60a81c90565b60ff1690565b6114eb6114f0916114d3565b6114d9565b90565b6114fd90546114df565b90565b9061150a906103e5565b9052565b906115a361159a600361151f611201565b9461153661152e5f8301611378565b5f8801611385565b61154e61154560018301611473565b60208801611495565b61156661155d60028301611473565b60408801611495565b61157d611574838301610af8565b60608801610d22565b61159461158b8383016114b8565b608088016114c5565b016114f3565b60a08401611500565b565b6115ae9061150e565b90565b919091506115da816115d46115ce6115c96005611003565b6102c5565b916102c5565b10611060565b816115ed6115e7836102c5565b916102c5565b1115806116c8575b6115fe90611160565b8161161161160b836102c5565b916102c5565b145f146116a2575061162c611626600161118c565b5b6112a7565b906116365f6112d1565b5b8061165261164c61164786610318565b6102c5565b916102c5565b101561169d5761169890611691611675600561166f8487906111a8565b90611319565b508561168184926115a5565b61168b8383611341565b52611341565b51506112ed565b611637565b505090565b6116c36116b361162c92849061109d565b6116bd600161118c565b906111a8565b611627565b506115fe6116d782849061109d565b6116eb6116e56101f46110c5565b916102c5565b111590506115f5565b9061170691611701610fe8565b610fed565b90565b9061171b9161171661280d565b61171d565b565b906117309161172b816128bf565b612935565b565b9061173c91611709565b565b5f90565b6117539061174e612a33565b6117a1565b90565b90565b61176d61176861177292611756565b610cc6565b610644565b90565b61179e7f360894a13ba1a3210667c828492db98dca3e2076cc3735a920a3ca505d382bbc611759565b90565b506117aa611775565b90565b6117bd6117b861173e565b611742565b90565b6117c86127b3565b6117d06117fa565b565b6117e66117e16117eb926112ce565b610d6b565b610114565b90565b6117f7906117d2565b90565b61180b6118065f6117ee565b612a91565b565b6118156117c0565b565b5f90565b611823611817565b506118365f611830612afd565b01610af8565b90565b61184a906118456127b3565b6118f5565b565b60ff1690565b61185e61186391610ad4565b61184c565b90565b6118709054611852565b90565b5f7f696e76616c696420546f6b656e2073796d626f6c000000000000000000000000910152565b6118a760146020926107a0565b6118b081611873565b0190565b6118c99060208101905f81830391015261189a565b90565b156118d357565b6118db610102565b62461bcd60e51b8152806118f1600482016118b4565b0390fd5b6119249061191461190f61190a5f8490610cba565b611866565b6118cc565b61191f5f915f610cba565b610cf5565b565b61192f90611839565b565b5f7f496e76616c696420616464726573730000000000000000000000000000000000910152565b611965600f6020926107a0565b61196e81611931565b0190565b6119879060208101905f818303910152611958565b90565b1561199157565b611999610102565b62461bcd60e51b8152806119af60048201611972565b0390fd5b906119bd90610d96565b5f5260205260405f2090565b60207f6572000000000000000000000000000000000000000000000000000000000000917f4164647265737320416c72656164792061737369676e656420746f20612075735f8201520152565b611a2360226040926107a0565b611a2c816119c9565b0190565b611a459060208101905f818303910152611a16565b90565b15611a4f57565b611a57610102565b62461bcd60e51b815280611a6d60048201611a30565b0390fd5b611a79611223565b90565b63ffffffff1690565b611a99611a94611a9e92611a7c565b610d6b565b6102c5565b90565b611aab60c061019d565b90565b611ab99136916101e0565b90565b90565b5f5260205f2090565b5490565b611ad581611ac8565b821015611aef57611ae7600491611abf565b910201905f90565b6112fc565b611afe90516102c5565b90565b90611b0d5f1991610cc6565b9181191691161790565b90565b90611b2f611b2a611b3692610e04565b611b17565b8254611b01565b9055565b5190565b601f602091010490565b1b90565b91906008611b67910291611b615f1984611b48565b92611b48565b9181191691161790565b9190611b87611b82611b8f93610e04565b611b17565b908354611b4c565b9055565b5f90565b611ba991611ba3611b93565b91611b71565b565b5b818110611bb7575050565b80611bc45f600193611b97565b01611bac565b9190601f8111611bda575b505050565b611be6611c0b936113d1565b906020611bf284611b3e565b83019310611c13575b611c0490611b3e565b0190611bab565b5f8080611bd5565b9150611c0481929050611bfb565b1c90565b90611c35905f1990600802611c21565b191690565b81611c4491611c25565b906002021790565b90611c5681610338565b9067ffffffffffffffff8211611d1657611c7a82611c7485546113a7565b85611bca565b602090601f8311600114611cae57918091611c9d935f92611ca2575b5050611c3a565b90555b565b90915001515f80611c96565b601f19831691611cbd856113d1565b925f5b818110611cfe57509160029391856001969410611ce4575b50505002019055611ca0565b611cf4910151601f841690611c25565b90555f8080611cd8565b91936020600181928787015181550195019201611cc0565b610160565b90611d2591611c4c565b565b611d3190516103b1565b90565b60a01b90565b90611d4960ff60a01b91611d34565b9181191691161790565b611d5c906103b1565b90565b90565b90611d77611d72611d7e92611d53565b611d5f565b8254611d3a565b9055565b611d8c90516103e5565b90565b60a81b90565b90611da460ff60a81b91611d8f565b9181191691161790565b611db7906103e5565b90565b90565b90611dd2611dcd611dd992611dae565b611dba565b8254611d95565b9055565b90611e6a60a06003611e7094611e005f8201611dfa5f8801611af4565b90611b1a565b611e1960018201611e1360208801611b3a565b90611d1b565b611e3260028201611e2c60408801611b3a565b90611d1b565b611e4a828201611e4460608801610d43565b90610da5565b611e62828201611e5c60808801611d27565b90611d62565b019201611d82565b90611dbd565b565b9190611e8357611e8191611ddd565b565b610d30565b9081549168010000000000000000831015611eb85782611eb0916001611eb695018155611acc565b90611e72565b565b610160565b90611ec790610d96565b5f5260205260405f2090565b9293335f611ee0906117ee565b611ee99061011f565b90611ef39061011f565b1415611efe9061198a565b600233611f0a916119b3565b611f1390611866565b15611f1d90610ce1565b611f2690611a48565b6001600233611f34916119b3565b90611f3e91610cf5565b611f46611a71565b5083828487903392611f5794612bc4565b611f6090611a85565b9485949293903392935f95611f73611aa1565b975f890190611f8191611385565b611f8a91611aae565b6020870190611f9891611495565b611fa191611aae565b6040850190611faf91611495565b6060840190611fbd91610d22565b6080830190611fcb916114c5565b60a0820190611fd991611500565b6005611fe490611abc565b90611fee91611e88565b6005611ff990611003565b60016120049061118c565b61200d9161109d565b60043361201991611ebd565b9061202391611b1a565b7f18d2397f7fd700f33b497f5ab5d19fd0714910fa7c72cc2162a78cb99cf6eb579061204e90610e04565b90612057610102565b806120618161028c565b0390a2565b60401c90565b61207861207d91612066565b61184c565b90565b61208a905461206c565b90565b67ffffffffffffffff1690565b6120a66120ab91610ad4565b61208d565b90565b6120b8905461209a565b90565b67ffffffffffffffff1690565b6120dc6120d76120e1926112ce565b610d6b565b6120bb565b90565b6120f86120f36120fd92611189565b610d6b565b6120bb565b90565b61210990610d8a565b90565b9061211f67ffffffffffffffff91610cc6565b9181191691161790565b61213d612138612142926120bb565b610d6b565b6120bb565b90565b90565b9061215d61215861216492612129565b612145565b825461210c565b9055565b60401b90565b9061218268ff000000000000000091612168565b9181191691161790565b906121a161219c6121a892610ce6565b610cf2565b825461216e565b9055565b6121b5906120e4565b9052565b91906121cc905f602085019401906121ac565b565b6121d6612c25565b906121eb6121e55f8401612080565b15610ce1565b906121f75f84016120ae565b8061220a6122045f6120c8565b916120bb565b1480612324575b9061222561221f60016120e4565b916120bb565b14806122fc575b612237909115610ce1565b90816122eb575b506122cf576122679061225c61225460016120e4565b5f8601612148565b826122bd575b61232b565b61226f575b50565b61227c905f80910161218c565b60016122b47fc7f505b2f371ae2175ee4913f4499e1f2633a7b5936321eed1cdaeb6115181d2916122ab610102565b918291826121b9565b0390a15f61226c565b6122ca60015f860161218c565b612262565b5f63f92ee8a960e01b8152806122e76004820161028c565b0390fd5b6122f6915015610ce1565b5f61223e565b5061223761230930612100565b3b61231c6123165f6112d1565b916102c5565b14905061222c565b5082612211565b61233490612c4e565b61233c612c63565b565b612347906121ce565b565b61235a906123556127b3565b612462565b565b90565b5f7f6163636f756e74206d69736d6174636800000000000000000000000000000000910152565b61239360106020926107a0565b61239c8161235f565b0190565b6123b59060208101905f818303910152612386565b90565b156123bf57565b6123c7610102565b62461bcd60e51b8152806123dd600482016123a0565b0390fd5b5f7f746869732073656c6c657220697320616c726561647920566572696669656421910152565b612414602080926107a0565b61241d816123e1565b0190565b6124369060208101905f818303910152612408565b90565b1561244057565b612448610102565b62461bcd60e51b81528061245e60048201612421565b0390fd5b5f61251c916124b761249261248c600561248661248160048790611ebd565b611378565b90611319565b5061235c565b916124b16124ab6124a560038601610af8565b9261011f565b9161011f565b146123b8565b6124e76124e26124dc6124d760036124d160038701610af8565b906119b3565b611866565b15610ce1565b612439565b612508600161250360036124fd60038601610af8565b906119b3565b610cf5565b612516600160038301611dbd565b01611378565b6125467fdf52e5a9e5634ebcb6b469074d580518b774118712be205dfe5a5061501d4bc991610e04565b9061254f610102565b806125598161028c565b0390a2565b61256790612349565b565b61257a906125756127b3565b61257c565b565b8061259761259161258c5f6117ee565b61011f565b9161011f565b146125a7576125a590612a91565b565b6125ca6125b35f6117ee565b5f918291631e4fbdf760e01b8352600483016106de565b0390fd5b6125d790612569565b565b5f7f6163636f756e74206e6f74207265676973746572656400000000000000000000910152565b61260d60166020926107a0565b612616816125d9565b0190565b61262f9060208101905f818303910152612600565b90565b1561263957565b612641610102565b62461bcd60e51b8152806126576004820161261a565b0390fd5b60207f2072656769737465726564000000000000000000000000000000000000000000917f496e76616c696420757365722061646472657373206f722075736572206e6f745f8201520152565b6126b5602b6040926107a0565b6126be8161265b565b0190565b6126d79060208101905f8183039101526126a8565b90565b156126e157565b6126e9610102565b62461bcd60e51b8152806126ff600482016126c2565b0390fd5b61270b611a71565b5061272861272361271e600284906119b3565b611866565b612632565b61278961275361274d600561274761274260048790611ebd565b611378565b90611319565b506115a5565b9161276060608401610d43565b61277a61277461276f5f6117ee565b61011f565b9161011f565b1415908161278c575b506126da565b90565b90506127ac6127a66127a060608601610d43565b9261011f565b9161011f565b145f612783565b6127bb61181b565b6127d46127ce6127c9612c6d565b61011f565b9161011f565b036127db57565b6127fd6127e6612c6d565b5f91829163118cdaa760e01b8352600483016106de565b0390fd5b61280a90610d8a565b90565b61281630612801565b6128486128427f000000000000000000000000000000000000000000000000000000000000000061011f565b9161011f565b148015612872575b61285657565b5f63703e46dd60e11b81528061286e6004820161028c565b0390fd5b5061287b612c7a565b6128ad6128a77f000000000000000000000000000000000000000000000000000000000000000061011f565b9161011f565b1415612850565b506128bd6127b3565b565b6128c8906128b4565b565b6128d390610d6e565b90565b6128df906128ca565b90565b6128eb90610d8a565b90565b60e01b90565b6128fd81610644565b0361290457565b5f80fd5b90505190612915826128f4565b565b906020828203126129305761292d915f01612908565b90565b61010c565b9190612963602061294d612948866128d6565b6128e2565b6352d1902d9061295b610102565b9384926128ee565b825281806129736004820161028c565b03915afa80915f92612a03575b50155f146129b457505090600161299557505b565b6129b0905f918291634c9c8ce360e01b8352600483016106de565b0390fd5b92836129cf6129c96129c4611775565b610644565b91610644565b036129e4576129df929350612ca0565b612993565b6129ff845f918291632a87526960e21b835260048301610654565b0390fd5b612a2591925060203d8111612a2c575b612a1d8183610174565b810190612917565b905f612980565b503d612a13565b612a3c30612801565b612a6e612a687f000000000000000000000000000000000000000000000000000000000000000061011f565b9161011f565b03612a7557565b5f63703e46dd60e11b815280612a8d6004820161028c565b0390fd5b612a99612afd565b612ab1612aa75f8301610af8565b915f849101610da5565b90612ae5612adf7f8be0079c531659141344cd1fd0a4f28419497f9722a3daafe3b4186f6b6457e093610d96565b91610d96565b91612aee610102565b80612af88161028c565b0390a3565b7f9016d09d72d40fdae2fd8ceac6b6234c7706214fd39c1cd1e609a0528c19930090565b5f90565b909182612b3581612b3c93610a4d565b80936101d5565b0190565b60601b90565b612b4f90612b40565b90565b612b5b90612b46565b90565b612b6a612b6f9161011f565b612b52565b9052565b601493612ba495612b8f612b959360209a9996612b9c96612b25565b91612b25565b8092612b5e565b018092610a7e565b0190565b612bbc612bb7612bc1926102c5565b610d6b565b611a7c565b90565b90612bf6612c1d94612c2296612c0594612bdc612b21565b509395914292612bea610102565b97889660208801612b73565b60208201810382520382610174565b612c17612c1182610c6b565b91610c65565b20610e20565b612ba8565b90565b612c2d612d74565b90565b612c4190612c3c612d88565b612c43565b565b612c4c90612e20565b565b612c5790612c30565b565b612c61612d88565b565b612c6b612c59565b565b612c75611817565b503390565b612c82611817565b50612c9d5f612c97612c92611775565b612e2b565b01610af8565b90565b90612caa82612e2e565b81612cd57fbc7cd75a20ee27fd9adebab32041f755214dbc6bffa90cc0225b39da2e5c2d3b91610d96565b90612cde610102565b80612ce88161028c565b0390a2612cf481610c6b565b612d06612d005f6112d1565b916102c5565b115f14612d1a57612d1691612efe565b505b565b5050612d24612e83565b612d18565b90565b612d40612d3b612d4592612d29565b610cc6565b610644565b90565b612d717ff0c57e16840df040f15088dc2f81fe391c3923bec73e23a9662efc9c229c6a00612d2c565b90565b612d7c61173e565b50612d85612d48565b90565b612d99612d93612f31565b15610ce1565b612d9f57565b5f631afcd79f60e31b815280612db76004820161028c565b0390fd5b612dcc90612dc7612d88565b612dce565b565b80612de9612de3612dde5f6117ee565b61011f565b9161011f565b14612df957612df790612a91565b565b612e1c612e055f6117ee565b5f918291631e4fbdf760e01b8352600483016106de565b0390fd5b612e2990612dbb565b565b90565b803b612e42612e3c5f6112d1565b916102c5565b14612e6457612e62905f612e5c612e57611775565b612e2b565b01610da5565b565b612e7f905f918291634c9c8ce360e01b8352600483016106de565b0390fd5b34612e96612e905f6112d1565b916102c5565b11612e9d57565b5f63b398979f60e01b815280612eb56004820161028c565b0390fd5b606090565b90612ed0612ecb8361054a565b61019d565b918252565b3d5f14612ef057612ee53d612ebe565b903d5f602084013e5b565b612ef8612eb9565b90612eee565b5f80612f2a93612f0c612eb9565b508390602081019051915af490612f21612ed5565b90919091612f4f565b90565b5f90565b612f39612f2d565b50612f4c5f612f46612c25565b01612080565b90565b90612f6390612f5c612eb9565b5015610ce1565b5f14612f6f5750612fd3565b612f7882610c6b565b612f8a612f845f6112d1565b916102c5565b1480612fb8575b612f99575090565b612fb4905f918291639996b31560e01b8352600483016106de565b0390fd5b50803b612fcd612fc75f6112d1565b916102c5565b14612f91565b612fdc81610c6b565b612fee612fe85f6112d1565b916102c5565b115f14612ffd57805190602001fd5b5f63d6bda27560e01b8152806130156004820161028c565b0390fdfea2646970667358221220f5a84c74fd3ec898e01d2a11a99543536ec186003d495cfaa63c5a9490ec4fcd64736f6c634300081c0033","linkReferences":{}},"methodIdentifiers":{"UPGRADE_INTERFACE_VERSION()":"ad3cb1cc","addTokenToAcceptedList(address,string,address)":"366404b3","delistToken(string)":"b01b96c3","getUserData(address)":"ffc9896b","getUsers(uint256,uint256)":"45982a66","initialize(address)":"c4d66de8","owner()":"8da5cb5b","proxiableUUID()":"52d1902d","register(string,string,uint8)":"b3f90e0a","renounceOwnership()":"715018a6","tokenSymbolToDetails(string)":"f661f44c","transferOwnership(address)":"f2fde38b","upgradeToAndCall(address,bytes)":"4f1ef286","verifySeller(address)":"d1760e60"},"storageLayout":{"storage":[{"astId":37954,"contract":"src/User.sol:TrussUser","label":"isAccepted","offset":0,"slot":"0","type":"t_mapping(t_string_memory_ptr,t_bool)"},{"astId":37959,"contract":"src/User.sol:TrussUser","label":"tokenSymbolToDetails","offset":0,"slot":"1","type":"t_mapping(t_string_memory_ptr,t_struct(Token)37917_storage)"},{"astId":40519,"contract":"src/User.sol:TrussUser","label":"isRegistered","offset":0,"slot":"2","type":"t_mapping(t_address,t_bool)"},{"astId":40523,"contract":"src/User.sol:TrussUser","label":"isVerified","offset":0,"slot":"3","type":"t_mapping(t_address,t_bool)"},{"astId":40527,"contract":"src/User.sol:TrussUser","label":"userIdToRecordIndex","offset":0,"slot":"4","type":"t_mapping(t_address,t_uint256)"},{"astId":40531,"contract":"src/User.sol:TrussUser","label":"users","offset":0,"slot":"5","type":"t_array(t_struct(User)37892_storage)dyn_storage"}],"types":{"t_address":{"encoding":"inplace","label":"address","numberOfBytes":"20"},"t_array(t_struct(User)37892_storage)dyn_storage":{"encoding":"dynamic_array","label":"struct User[]","numberOfBytes":"32","base":"t_struct(User)37892_storage"},"t_bool":{"encoding":"inplace","label":"bool","numberOfBytes":"1"},"t_enum(UserType)37873":{"encoding":"inplace","label":"enum UserType","numberOfBytes":"1"},"t_enum(VerificationStatus)37877":{"encoding":"inplace","label":"enum VerificationStatus","numberOfBytes":"1"},"t_mapping(t_address,t_bool)":{"encoding":"mapping","key":"t_address","label":"mapping(address => bool)","numberOfBytes":"32","value":"t_bool"},"t_mapping(t_address,t_uint256)":{"encoding":"mapping","key":"t_address","label":"mapping(address => uint256)","numberOfBytes":"32","value":"t_uint256"},"t_mapping(t_string_memory_ptr,t_bool)":{"encoding":"mapping","key":"t_string_memory_ptr","label":"mapping(string => bool)","numberOfBytes":"32","value":"t_bool"},"t_mapping(t_string_memory_ptr,t_struct(Token)37917_storage)":{"encoding":"mapping","key":"t_string_memory_ptr","label":"mapping(string => struct Token)","numberOfBytes":"32","value":"t_struct(Token)37917_storage"},"t_string_memory_ptr":{"encoding":"bytes","label":"string","numberOfBytes":"32"},"t_string_storage":{"encoding":"bytes","label":"string","numberOfBytes":"32"},"t_struct(Token)37917_storage":{"encoding":"inplace","label":"struct Token","numberOfBytes":"64","members":[{"astId":37914,"contract":"src/User.sol:TrussUser","label":"feedAddr","offset":0,"slot":"0","type":"t_address"},{"astId":37916,"contract":"src/User.sol:TrussUser","label":"tokenAddr","offset":0,"slot":"1","type":"t_address"}]},"t_struct(User)37892_storage":{"encoding":"inplace","label":"struct User","numberOfBytes":"128","members":[{"astId":37879,"contract":"src/User.sol:TrussUser","label":"userId","offset":0,"slot":"0","type":"t_uint256"},{"astId":37881,"contract":"src/User.sol:TrussUser","label":"lastName","offset":0,"slot":"1","type":"t_string_storage"},{"astId":37883,"contract":"src/User.sol:TrussUser","label":"firstName","offset":0,"slot":"2","type":"t_string_storage"},{"astId":37885,"contract":"src/User.sol:TrussUser","label":"account","offset":0,"slot":"3","type":"t_address"},{"astId":37888,"contract":"src/User.sol:TrussUser","label":"_userType","offset":20,"slot":"3","type":"t_enum(UserType)37873"},{"astId":37891,"contract":"src/User.sol:TrussUser","label":"verificationStatus","offset":21,"slot":"3","type":"t_enum(VerificationStatus)37877"}]},"t_uint256":{"encoding":"inplace","label":"uint256","numberOfBytes":"32"}}},"id":42}